{
  "_format": "hh-sol-artifact-1",
  "contractName": "PlayerFacet",
  "sourceName": "contracts/facets/PlayerFacet.sol",
  "abi": [
    {
      "anonymous": false,
      "inputs": [
        {
          "indexed": true,
          "internalType": "address",
          "name": "_to",
          "type": "address"
        },
        {
          "indexed": false,
          "internalType": "uint256",
          "name": "_id",
          "type": "uint256"
        }
      ],
      "name": "Mint",
      "type": "event"
    },
    {
      "anonymous": false,
      "inputs": [
        {
          "indexed": true,
          "internalType": "address",
          "name": "_from",
          "type": "address"
        },
        {
          "indexed": true,
          "internalType": "address",
          "name": "_to",
          "type": "address"
        },
        {
          "indexed": false,
          "internalType": "uint256",
          "name": "_value",
          "type": "uint256"
        }
      ],
      "name": "Transfer",
      "type": "event"
    },
    {
      "inputs": [
        {
          "internalType": "uint256",
          "name": "_id",
          "type": "uint256"
        },
        {
          "internalType": "string",
          "name": "_newName",
          "type": "string"
        }
      ],
      "name": "changeName",
      "outputs": [],
      "stateMutability": "nonpayable",
      "type": "function"
    },
    {
      "inputs": [],
      "name": "getBlocktime",
      "outputs": [
        {
          "internalType": "uint256",
          "name": "",
          "type": "uint256"
        }
      ],
      "stateMutability": "view",
      "type": "function"
    },
    {
      "inputs": [
        {
          "internalType": "uint256",
          "name": "_playerId",
          "type": "uint256"
        }
      ],
      "name": "getPlayer",
      "outputs": [
        {
          "components": [
            {
              "internalType": "uint256",
              "name": "level",
              "type": "uint256"
            },
            {
              "internalType": "uint256",
              "name": "xp",
              "type": "uint256"
            },
            {
              "internalType": "uint256",
              "name": "status",
              "type": "uint256"
            },
            {
              "internalType": "uint256",
              "name": "strength",
              "type": "uint256"
            },
            {
              "internalType": "uint256",
              "name": "health",
              "type": "uint256"
            },
            {
              "internalType": "uint256",
              "name": "magic",
              "type": "uint256"
            },
            {
              "internalType": "uint256",
              "name": "mana",
              "type": "uint256"
            },
            {
              "internalType": "uint256",
              "name": "agility",
              "type": "uint256"
            },
            {
              "internalType": "uint256",
              "name": "luck",
              "type": "uint256"
            },
            {
              "internalType": "uint256",
              "name": "wisdom",
              "type": "uint256"
            },
            {
              "internalType": "uint256",
              "name": "haki",
              "type": "uint256"
            },
            {
              "internalType": "uint256",
              "name": "perception",
              "type": "uint256"
            },
            {
              "internalType": "uint256",
              "name": "defense",
              "type": "uint256"
            },
            {
              "internalType": "string",
              "name": "name",
              "type": "string"
            },
            {
              "internalType": "string",
              "name": "uri",
              "type": "string"
            },
            {
              "internalType": "bool",
              "name": "male",
              "type": "bool"
            },
            {
              "components": [
                {
                  "internalType": "uint256",
                  "name": "head",
                  "type": "uint256"
                },
                {
                  "internalType": "uint256",
                  "name": "body",
                  "type": "uint256"
                },
                {
                  "internalType": "uint256",
                  "name": "leftHand",
                  "type": "uint256"
                },
                {
                  "internalType": "uint256",
                  "name": "rightHand",
                  "type": "uint256"
                },
                {
                  "internalType": "uint256",
                  "name": "pants",
                  "type": "uint256"
                },
                {
                  "internalType": "uint256",
                  "name": "feet",
                  "type": "uint256"
                }
              ],
              "internalType": "struct Slot",
              "name": "slot",
              "type": "tuple"
            }
          ],
          "internalType": "struct Player",
          "name": "player",
          "type": "tuple"
        }
      ],
      "stateMutability": "view",
      "type": "function"
    },
    {
      "inputs": [
        {
          "internalType": "address",
          "name": "_address",
          "type": "address"
        }
      ],
      "name": "getPlayers",
      "outputs": [
        {
          "internalType": "uint256[]",
          "name": "",
          "type": "uint256[]"
        }
      ],
      "stateMutability": "view",
      "type": "function"
    },
    {
      "inputs": [
        {
          "internalType": "string",
          "name": "_name",
          "type": "string"
        },
        {
          "internalType": "string",
          "name": "_uri",
          "type": "string"
        },
        {
          "internalType": "bool",
          "name": "_isMale",
          "type": "bool"
        }
      ],
      "name": "mint",
      "outputs": [],
      "stateMutability": "nonpayable",
      "type": "function"
    },
    {
      "inputs": [
        {
          "internalType": "string",
          "name": "_name",
          "type": "string"
        }
      ],
      "name": "nameAvailable",
      "outputs": [
        {
          "internalType": "bool",
          "name": "available",
          "type": "bool"
        }
      ],
      "stateMutability": "view",
      "type": "function"
    },
    {
      "inputs": [
        {
          "internalType": "uint256",
          "name": "_id",
          "type": "uint256"
        }
      ],
      "name": "ownerOf",
      "outputs": [
        {
          "internalType": "address",
          "name": "owner",
          "type": "address"
        }
      ],
      "stateMutability": "view",
      "type": "function"
    },
    {
      "inputs": [],
      "name": "playerCount",
      "outputs": [
        {
          "internalType": "uint256",
          "name": "",
          "type": "uint256"
        }
      ],
      "stateMutability": "view",
      "type": "function"
    }
  ],
  "bytecode": "0x608060405234801561001057600080fd5b50611b20806100206000396000f3fe608060405234801561001057600080fd5b50600436106100885760003560e01c806382bbdbec1161005b57806382bbdbec14610129578063c1d885b114610159578063c39cbef114610175578063e55ae4e81461019157610088565b80630501b79f1461008d578063302bcc57146100ab5780636352211e146100c95780637a80b6b4146100f9575b600080fd5b6100956101c1565b6040516100a29190610e59565b60405180910390f35b6100b36101c9565b6040516100c09190610e59565b60405180910390f35b6100e360048036038101906100de9190610eb4565b6101d8565b6040516100f09190610f22565b60405180910390f35b610113600480360381019061010e9190610f69565b6101ea565b6040516101209190611054565b60405180910390f35b610143600480360381019061013e91906111bc565b6101fc565b6040516101509190611220565b60405180910390f35b610173600480360381019061016e9190611267565b61020e565b005b61018f600480360381019061018a91906112f2565b610279565b005b6101ab60048036038101906101a69190610eb4565b610287565b6040516101b891906115cb565b60405180910390f35b600042905090565b60006101d361029f565b905090565b60006101e3826102b7565b9050919050565b60606101f582610302565b9050919050565b6000610207826103a8565b9050919050565b6102198383836103eb565b60006102236101c9565b90503373ffffffffffffffffffffffffffffffffffffffff167f0f6798a560793a54c3bcfe86a93cde1e73087d944c0ea20544137d41213968858260405161026b9190610e59565b60405180910390a250505050565b610283828261084f565b5050565b61028f610d7e565b61029882610b03565b9050919050565b6000806102aa610d51565b9050806001015491505090565b6000806102c2610d51565b905080600201600084815260200190815260200160002060009054906101000a900473ffffffffffffffffffffffffffffffffffffffff16915050919050565b6060600061030e610d51565b90508060070160008473ffffffffffffffffffffffffffffffffffffffff1673ffffffffffffffffffffffffffffffffffffffff16815260200190815260200160002080548060200260200160405190810160405280929190818152602001828054801561039b57602002820191906000526020600020905b815481526020019060010190808311610387575b5050505050915050919050565b6000806103b3610d51565b905080600601836040516103c79190611629565b908152602001604051809103902060009054906101000a900460ff16915050919050565b60006103f5610d51565b905080600601846040516104099190611629565b908152602001604051809103902060009054906101000a900460ff1615610465576040517f08c379a000000000000000000000000000000000000000000000000000000000815260040161045c9061169d565b60405180910390fd5b80600101600081548092919061047a906116ec565b919050555060405180610220016040528060018152602001600081526020016000815260200160018152602001600a8152602001600181526020016001815260200160018152602001600181526020016001815260200160018152602001600181526020016001815260200185815260200184815260200183151581526020016040518060c001604052806000815260200160008152602001600081526020016000815260200160008152602001600081525081525081600301600083600101548152602001908152602001600020600082015181600001556020820151816001015560408201518160020155606082015181600301556080820151816004015560a0820151816005015560c0820151816006015560e082015181600701556101008201518160080155610120820151816009015561014082015181600a015561016082015181600b015561018082015181600c01556101a082015181600d0190816105e69190611940565b506101c082015181600e0190816105fd9190611940565b506101e082015181600f0160006101000a81548160ff02191690831515021790555061020082015181601001600082015181600001556020820151816001015560408201518160020155606082015181600301556080820151816004015560a0820151816005015550509050506040518060c001604052806000815260200160008152602001600081526020016000815260200160008152602001600081525081600801600083600101548152602001908152602001600020600082015181600001556020820151816001015560408201518160020155606082015181600301556080820151816004015560a08201518160050155905050600181600601856040516107099190611629565b908152602001604051809103902060006101000a81548160ff021916908315150217905550338160020160008360010154815260200190815260200160002060006101000a81548173ffffffffffffffffffffffffffffffffffffffff021916908373ffffffffffffffffffffffffffffffffffffffff1602179055508060070160003373ffffffffffffffffffffffffffffffffffffffff1673ffffffffffffffffffffffffffffffffffffffff168152602001908152602001600020816001015490806001815401808255809150506001900390600052602060002001600090919091909150558060040160003373ffffffffffffffffffffffffffffffffffffffff1673ffffffffffffffffffffffffffffffffffffffff1681526020019081526020016000206000815480929190610844906116ec565b919050555050505050565b6000610859610d51565b90503373ffffffffffffffffffffffffffffffffffffffff1681600201600085815260200190815260200160002060009054906101000a900473ffffffffffffffffffffffffffffffffffffffff1673ffffffffffffffffffffffffffffffffffffffff16146108c857600080fd5b80600601826040516108da9190611629565b908152602001604051809103902060009054906101000a900460ff1615610936576040517f08c379a000000000000000000000000000000000000000000000000000000000815260040161092d9061169d565b60405180910390fd5b600082511161097a576040517f08c379a000000000000000000000000000000000000000000000000000000000815260040161097190611a5e565b60405180910390fd5b60108251106109be576040517f08c379a00000000000000000000000000000000000000000000000000000000081526004016109b590611aca565b60405180910390fd5b6000816003016000858152602001908152602001600020600d0180546109e390611763565b80601f0160208091040260200160405190810160405280929190818152602001828054610a0f90611763565b8015610a5c5780601f10610a3157610100808354040283529160200191610a5c565b820191906000526020600020905b815481529060010190602001808311610a3f57829003601f168201915b50505050509050600081511115610a9e578160060181604051610a7f9190611629565b908152602001604051809103902060006101000a81549060ff02191690555b82826003016000868152602001908152602001600020600d019081610ac39190611940565b5060018260060184604051610ad89190611629565b908152602001604051809103902060006101000a81548160ff02191690831515021790555050505050565b610b0b610d7e565b6000610b15610d51565b90508060030160008481526020019081526020016000206040518061022001604052908160008201548152602001600182015481526020016002820154815260200160038201548152602001600482015481526020016005820154815260200160068201548152602001600782015481526020016008820154815260200160098201548152602001600a8201548152602001600b8201548152602001600c8201548152602001600d82018054610bca90611763565b80601f0160208091040260200160405190810160405280929190818152602001828054610bf690611763565b8015610c435780601f10610c1857610100808354040283529160200191610c43565b820191906000526020600020905b815481529060010190602001808311610c2657829003601f168201915b50505050508152602001600e82018054610c5c90611763565b80601f0160208091040260200160405190810160405280929190818152602001828054610c8890611763565b8015610cd55780601f10610caa57610100808354040283529160200191610cd5565b820191906000526020600020905b815481529060010190602001808311610cb857829003601f168201915b50505050508152602001600f820160009054906101000a900460ff16151515158152602001601082016040518060c0016040529081600082015481526020016001820154815260200160028201548152602001600382015481526020016004820154815260200160058201548152505081525050915050919050565b6000807f3cab9a070a0c61cd0ae9d9e9e2c0781e5ca8691bec4087e5a4701d5ac018dd4e90508091505090565b604051806102200160405280600081526020016000815260200160008152602001600081526020016000815260200160008152602001600081526020016000815260200160008152602001600081526020016000815260200160008152602001600081526020016060815260200160608152602001600015158152602001610e04610e0a565b81525090565b6040518060c001604052806000815260200160008152602001600081526020016000815260200160008152602001600081525090565b6000819050919050565b610e5381610e40565b82525050565b6000602082019050610e6e6000830184610e4a565b92915050565b6000604051905090565b600080fd5b600080fd5b610e9181610e40565b8114610e9c57600080fd5b50565b600081359050610eae81610e88565b92915050565b600060208284031215610eca57610ec9610e7e565b5b6000610ed884828501610e9f565b91505092915050565b600073ffffffffffffffffffffffffffffffffffffffff82169050919050565b6000610f0c82610ee1565b9050919050565b610f1c81610f01565b82525050565b6000602082019050610f376000830184610f13565b92915050565b610f4681610f01565b8114610f5157600080fd5b50565b600081359050610f6381610f3d565b92915050565b600060208284031215610f7f57610f7e610e7e565b5b6000610f8d84828501610f54565b91505092915050565b600081519050919050565b600082825260208201905092915050565b6000819050602082019050919050565b610fcb81610e40565b82525050565b6000610fdd8383610fc2565b60208301905092915050565b6000602082019050919050565b600061100182610f96565b61100b8185610fa1565b935061101683610fb2565b8060005b8381101561104757815161102e8882610fd1565b975061103983610fe9565b92505060018101905061101a565b5085935050505092915050565b6000602082019050818103600083015261106e8184610ff6565b905092915050565b600080fd5b600080fd5b6000601f19601f8301169050919050565b7f4e487b7100000000000000000000000000000000000000000000000000000000600052604160045260246000fd5b6110c982611080565b810181811067ffffffffffffffff821117156110e8576110e7611091565b5b80604052505050565b60006110fb610e74565b905061110782826110c0565b919050565b600067ffffffffffffffff82111561112757611126611091565b5b61113082611080565b9050602081019050919050565b82818337600083830152505050565b600061115f61115a8461110c565b6110f1565b90508281526020810184848401111561117b5761117a61107b565b5b61118684828561113d565b509392505050565b600082601f8301126111a3576111a2611076565b5b81356111b384826020860161114c565b91505092915050565b6000602082840312156111d2576111d1610e7e565b5b600082013567ffffffffffffffff8111156111f0576111ef610e83565b5b6111fc8482850161118e565b91505092915050565b60008115159050919050565b61121a81611205565b82525050565b60006020820190506112356000830184611211565b92915050565b61124481611205565b811461124f57600080fd5b50565b6000813590506112618161123b565b92915050565b6000806000606084860312156112805761127f610e7e565b5b600084013567ffffffffffffffff81111561129e5761129d610e83565b5b6112aa8682870161118e565b935050602084013567ffffffffffffffff8111156112cb576112ca610e83565b5b6112d78682870161118e565b92505060406112e886828701611252565b9150509250925092565b6000806040838503121561130957611308610e7e565b5b600061131785828601610e9f565b925050602083013567ffffffffffffffff81111561133857611337610e83565b5b6113448582860161118e565b9150509250929050565b600081519050919050565b600082825260208201905092915050565b60005b8381101561138857808201518184015260208101905061136d565b60008484015250505050565b600061139f8261134e565b6113a98185611359565b93506113b981856020860161136a565b6113c281611080565b840191505092915050565b6113d681611205565b82525050565b60c0820160008201516113f26000850182610fc2565b5060208201516114056020850182610fc2565b5060408201516114186040850182610fc2565b50606082015161142b6060850182610fc2565b50608082015161143e6080850182610fc2565b5060a082015161145160a0850182610fc2565b50505050565b60006102c0830160008301516114706000860182610fc2565b5060208301516114836020860182610fc2565b5060408301516114966040860182610fc2565b5060608301516114a96060860182610fc2565b5060808301516114bc6080860182610fc2565b5060a08301516114cf60a0860182610fc2565b5060c08301516114e260c0860182610fc2565b5060e08301516114f560e0860182610fc2565b5061010083015161150a610100860182610fc2565b5061012083015161151f610120860182610fc2565b50610140830151611534610140860182610fc2565b50610160830151611549610160860182610fc2565b5061018083015161155e610180860182610fc2565b506101a08301518482036101a08601526115788282611394565b9150506101c08301518482036101c08601526115948282611394565b9150506101e08301516115ab6101e08601826113cd565b506102008301516115c06102008601826113dc565b508091505092915050565b600060208201905081810360008301526115e58184611457565b905092915050565b600081905092915050565b60006116038261134e565b61160d81856115ed565b935061161d81856020860161136a565b80840191505092915050565b600061163582846115f8565b915081905092915050565b600082825260208201905092915050565b7f6e616d652069732074616b656e00000000000000000000000000000000000000600082015250565b6000611687600d83611640565b915061169282611651565b602082019050919050565b600060208201905081810360008301526116b68161167a565b9050919050565b7f4e487b7100000000000000000000000000000000000000000000000000000000600052601160045260246000fd5b60006116f782610e40565b91507fffffffffffffffffffffffffffffffffffffffffffffffffffffffffffffffff8203611729576117286116bd565b5b600182019050919050565b7f4e487b7100000000000000000000000000000000000000000000000000000000600052602260045260246000fd5b6000600282049050600182168061177b57607f821691505b60208210810361178e5761178d611734565b5b50919050565b60008190508160005260206000209050919050565b60006020601f8301049050919050565b600082821b905092915050565b6000600883026117f67fffffffffffffffffffffffffffffffffffffffffffffffffffffffffffffffff826117b9565b61180086836117b9565b95508019841693508086168417925050509392505050565b6000819050919050565b600061183d61183861183384610e40565b611818565b610e40565b9050919050565b6000819050919050565b61185783611822565b61186b61186382611844565b8484546117c6565b825550505050565b600090565b611880611873565b61188b81848461184e565b505050565b5b818110156118af576118a4600082611878565b600181019050611891565b5050565b601f8211156118f4576118c581611794565b6118ce846117a9565b810160208510156118dd578190505b6118f16118e9856117a9565b830182611890565b50505b505050565b600082821c905092915050565b6000611917600019846008026118f9565b1980831691505092915050565b60006119308383611906565b9150826002028217905092915050565b6119498261134e565b67ffffffffffffffff81111561196257611961611091565b5b61196c8254611763565b6119778282856118b3565b600060209050601f8311600181146119aa5760008415611998578287015190505b6119a28582611924565b865550611a0a565b601f1984166119b886611794565b60005b828110156119e0578489015182556001820191506020850194506020810190506119bb565b868310156119fd57848901516119f9601f891682611906565b8355505b6001600288020188555050505b505050505050565b7f43616e6e6f74207061737320616e20656d707479206861736800000000000000600082015250565b6000611a48601983611640565b9150611a5382611a12565b602082019050919050565b60006020820190508181036000830152611a7781611a3b565b9050919050565b7f43616e6e6f74206265206c6f6e676572207468616e2031362063686172730000600082015250565b6000611ab4601e83611640565b9150611abf82611a7e565b602082019050919050565b60006020820190508181036000830152611ae381611aa7565b905091905056fea26469706673582212207ba5ecce8e41d47eece3125d42fedd92dac23816ad0199016e8bcfba82dab17964736f6c63430008110033",
  "linkReferences": {},
  "deployedLinkReferences": {}
}