{
  "_format": "hh-sol-artifact-1",
  "contractName": "PlayerFacet",
  "sourceName": "contracts/facets/PlayerFacet.sol",
  "abi": [
    {
      "anonymous": false,
      "inputs": [
        {
          "indexed": true,
          "internalType": "address",
          "name": "_to",
          "type": "address"
        },
        {
          "indexed": false,
          "internalType": "uint256",
          "name": "_id",
          "type": "uint256"
        }
      ],
      "name": "Mint",
      "type": "event"
    },
    {
      "anonymous": false,
      "inputs": [
        {
          "indexed": true,
          "internalType": "address",
          "name": "_from",
          "type": "address"
        },
        {
          "indexed": true,
          "internalType": "address",
          "name": "_to",
          "type": "address"
        },
        {
          "indexed": false,
          "internalType": "uint256",
          "name": "_value",
          "type": "uint256"
        }
      ],
      "name": "Transfer",
      "type": "event"
    },
    {
      "inputs": [
        {
          "internalType": "uint256",
          "name": "_id",
          "type": "uint256"
        },
        {
          "internalType": "string",
          "name": "_newName",
          "type": "string"
        }
      ],
      "name": "changeName",
      "outputs": [],
      "stateMutability": "nonpayable",
      "type": "function"
    },
    {
      "inputs": [],
      "name": "getBlocktime",
      "outputs": [
        {
          "internalType": "uint256",
          "name": "",
          "type": "uint256"
        }
      ],
      "stateMutability": "view",
      "type": "function"
    },
    {
      "inputs": [
        {
          "internalType": "uint256",
          "name": "_playerId",
          "type": "uint256"
        }
      ],
      "name": "getPlayer",
      "outputs": [
        {
          "components": [
            {
              "internalType": "uint256",
              "name": "level",
              "type": "uint256"
            },
            {
              "internalType": "uint256",
              "name": "xp",
              "type": "uint256"
            },
            {
              "internalType": "uint256",
              "name": "status",
              "type": "uint256"
            },
            {
              "internalType": "uint256",
              "name": "strength",
              "type": "uint256"
            },
            {
              "internalType": "uint256",
              "name": "health",
              "type": "uint256"
            },
            {
              "internalType": "uint256",
              "name": "magic",
              "type": "uint256"
            },
            {
              "internalType": "uint256",
              "name": "mana",
              "type": "uint256"
            },
            {
              "internalType": "uint256",
              "name": "agility",
              "type": "uint256"
            },
            {
              "internalType": "uint256",
              "name": "luck",
              "type": "uint256"
            },
            {
              "internalType": "uint256",
              "name": "wisdom",
              "type": "uint256"
            },
            {
              "internalType": "uint256",
              "name": "haki",
              "type": "uint256"
            },
            {
              "internalType": "uint256",
              "name": "perception",
              "type": "uint256"
            },
            {
              "internalType": "uint256",
              "name": "defense",
              "type": "uint256"
            },
            {
              "internalType": "string",
              "name": "name",
              "type": "string"
            },
            {
              "internalType": "string",
              "name": "uri",
              "type": "string"
            },
            {
              "internalType": "bool",
              "name": "male",
              "type": "bool"
            },
            {
              "components": [
                {
                  "internalType": "uint256",
                  "name": "head",
                  "type": "uint256"
                },
                {
                  "internalType": "uint256",
                  "name": "body",
                  "type": "uint256"
                },
                {
                  "internalType": "uint256",
                  "name": "leftHand",
                  "type": "uint256"
                },
                {
                  "internalType": "uint256",
                  "name": "rightHand",
                  "type": "uint256"
                },
                {
                  "internalType": "uint256",
                  "name": "pants",
                  "type": "uint256"
                },
                {
                  "internalType": "uint256",
                  "name": "feet",
                  "type": "uint256"
                }
              ],
              "internalType": "struct Slot",
              "name": "slot",
              "type": "tuple"
            }
          ],
          "internalType": "struct Player",
          "name": "player",
          "type": "tuple"
        }
      ],
      "stateMutability": "view",
      "type": "function"
    },
    {
      "inputs": [
        {
          "internalType": "address",
          "name": "_address",
          "type": "address"
        }
      ],
      "name": "getPlayers",
      "outputs": [
        {
          "internalType": "uint256[]",
          "name": "",
          "type": "uint256[]"
        }
      ],
      "stateMutability": "view",
      "type": "function"
    },
    {
      "inputs": [
        {
          "internalType": "string",
          "name": "_name",
          "type": "string"
        },
        {
          "internalType": "string",
          "name": "_uri",
          "type": "string"
        },
        {
          "internalType": "bool",
          "name": "_isMale",
          "type": "bool"
        }
      ],
      "name": "mint",
      "outputs": [],
      "stateMutability": "nonpayable",
      "type": "function"
    },
    {
      "inputs": [
        {
          "internalType": "string",
          "name": "_name",
          "type": "string"
        }
      ],
      "name": "nameAvailable",
      "outputs": [
        {
          "internalType": "bool",
          "name": "available",
          "type": "bool"
        }
      ],
      "stateMutability": "view",
      "type": "function"
    },
    {
      "inputs": [
        {
          "internalType": "uint256",
          "name": "_id",
          "type": "uint256"
        }
      ],
      "name": "ownerOf",
      "outputs": [
        {
          "internalType": "address",
          "name": "owner",
          "type": "address"
        }
      ],
      "stateMutability": "view",
      "type": "function"
    },
    {
      "inputs": [],
      "name": "playerCount",
      "outputs": [
        {
          "internalType": "uint256",
          "name": "",
          "type": "uint256"
        }
      ],
      "stateMutability": "view",
      "type": "function"
    }
  ],
  "bytecode": "0x608060405234801561001057600080fd5b50611b3e806100206000396000f3fe608060405234801561001057600080fd5b50600436106100885760003560e01c806382bbdbec1161005b57806382bbdbec14610129578063c1d885b114610159578063c39cbef114610175578063e55ae4e81461019157610088565b80630501b79f1461008d578063302bcc57146100ab5780636352211e146100c95780637a80b6b4146100f9575b600080fd5b6100956101c1565b6040516100a29190610e77565b60405180910390f35b6100b36101c9565b6040516100c09190610e77565b60405180910390f35b6100e360048036038101906100de9190610ed2565b6101d8565b6040516100f09190610f40565b60405180910390f35b610113600480360381019061010e9190610f87565b6101ea565b6040516101209190611072565b60405180910390f35b610143600480360381019061013e91906111da565b6101fc565b604051610150919061123e565b60405180910390f35b610173600480360381019061016e9190611285565b61020e565b005b61018f600480360381019061018a9190611310565b610279565b005b6101ab60048036038101906101a69190610ed2565b610287565b6040516101b891906115e9565b60405180910390f35b600042905090565b60006101d361029f565b905090565b60006101e3826102b7565b9050919050565b60606101f582610302565b9050919050565b6000610207826103a8565b9050919050565b6102198383836103eb565b60006102236101c9565b90503373ffffffffffffffffffffffffffffffffffffffff167f0f6798a560793a54c3bcfe86a93cde1e73087d944c0ea20544137d41213968858260405161026b9190610e77565b60405180910390a250505050565b610283828261086d565b5050565b61028f610d9c565b61029882610b21565b9050919050565b6000806102aa610d6f565b9050806001015491505090565b6000806102c2610d6f565b905080600201600084815260200190815260200160002060009054906101000a900473ffffffffffffffffffffffffffffffffffffffff16915050919050565b6060600061030e610d6f565b90508060070160008473ffffffffffffffffffffffffffffffffffffffff1673ffffffffffffffffffffffffffffffffffffffff16815260200190815260200160002080548060200260200160405190810160405280929190818152602001828054801561039b57602002820191906000526020600020905b815481526020019060010190808311610387575b5050505050915050919050565b6000806103b3610d6f565b905080600601836040516103c79190611647565b908152602001604051809103902060009054906101000a900460ff16915050919050565b60006103f5610d6f565b905080600601846040516104099190611647565b908152602001604051809103902060009054906101000a900460ff1615610465576040517f08c379a000000000000000000000000000000000000000000000000000000000815260040161045c906116bb565b60405180910390fd5b60088451111561047457600080fd5b60038451101561048357600080fd5b8060010160008154809291906104989061170a565b919050555060405180610220016040528060018152602001600081526020016000815260200160018152602001600a8152602001600181526020016001815260200160018152602001600181526020016001815260200160018152602001600181526020016001815260200185815260200184815260200183151581526020016040518060c001604052806000815260200160008152602001600081526020016000815260200160008152602001600081525081525081600301600083600101548152602001908152602001600020600082015181600001556020820151816001015560408201518160020155606082015181600301556080820151816004015560a0820151816005015560c0820151816006015560e082015181600701556101008201518160080155610120820151816009015561014082015181600a015561016082015181600b015561018082015181600c01556101a082015181600d019081610604919061195e565b506101c082015181600e01908161061b919061195e565b506101e082015181600f0160006101000a81548160ff02191690831515021790555061020082015181601001600082015181600001556020820151816001015560408201518160020155606082015181600301556080820151816004015560a0820151816005015550509050506040518060c001604052806000815260200160008152602001600081526020016000815260200160008152602001600081525081600801600083600101548152602001908152602001600020600082015181600001556020820151816001015560408201518160020155606082015181600301556080820151816004015560a08201518160050155905050600181600601856040516107279190611647565b908152602001604051809103902060006101000a81548160ff021916908315150217905550338160020160008360010154815260200190815260200160002060006101000a81548173ffffffffffffffffffffffffffffffffffffffff021916908373ffffffffffffffffffffffffffffffffffffffff1602179055508060070160003373ffffffffffffffffffffffffffffffffffffffff1673ffffffffffffffffffffffffffffffffffffffff168152602001908152602001600020816001015490806001815401808255809150506001900390600052602060002001600090919091909150558060040160003373ffffffffffffffffffffffffffffffffffffffff1673ffffffffffffffffffffffffffffffffffffffff16815260200190815260200160002060008154809291906108629061170a565b919050555050505050565b6000610877610d6f565b90503373ffffffffffffffffffffffffffffffffffffffff1681600201600085815260200190815260200160002060009054906101000a900473ffffffffffffffffffffffffffffffffffffffff1673ffffffffffffffffffffffffffffffffffffffff16146108e657600080fd5b80600601826040516108f89190611647565b908152602001604051809103902060009054906101000a900460ff1615610954576040517f08c379a000000000000000000000000000000000000000000000000000000000815260040161094b906116bb565b60405180910390fd5b6000825111610998576040517f08c379a000000000000000000000000000000000000000000000000000000000815260040161098f90611a7c565b60405180910390fd5b60108251106109dc576040517f08c379a00000000000000000000000000000000000000000000000000000000081526004016109d390611ae8565b60405180910390fd5b6000816003016000858152602001908152602001600020600d018054610a0190611781565b80601f0160208091040260200160405190810160405280929190818152602001828054610a2d90611781565b8015610a7a5780601f10610a4f57610100808354040283529160200191610a7a565b820191906000526020600020905b815481529060010190602001808311610a5d57829003601f168201915b50505050509050600081511115610abc578160060181604051610a9d9190611647565b908152602001604051809103902060006101000a81549060ff02191690555b82826003016000868152602001908152602001600020600d019081610ae1919061195e565b5060018260060184604051610af69190611647565b908152602001604051809103902060006101000a81548160ff02191690831515021790555050505050565b610b29610d9c565b6000610b33610d6f565b90508060030160008481526020019081526020016000206040518061022001604052908160008201548152602001600182015481526020016002820154815260200160038201548152602001600482015481526020016005820154815260200160068201548152602001600782015481526020016008820154815260200160098201548152602001600a8201548152602001600b8201548152602001600c8201548152602001600d82018054610be890611781565b80601f0160208091040260200160405190810160405280929190818152602001828054610c1490611781565b8015610c615780601f10610c3657610100808354040283529160200191610c61565b820191906000526020600020905b815481529060010190602001808311610c4457829003601f168201915b50505050508152602001600e82018054610c7a90611781565b80601f0160208091040260200160405190810160405280929190818152602001828054610ca690611781565b8015610cf35780601f10610cc857610100808354040283529160200191610cf3565b820191906000526020600020905b815481529060010190602001808311610cd657829003601f168201915b50505050508152602001600f820160009054906101000a900460ff16151515158152602001601082016040518060c0016040529081600082015481526020016001820154815260200160028201548152602001600382015481526020016004820154815260200160058201548152505081525050915050919050565b6000807f3cab9a070a0c61cd0ae9d9e9e2c0781e5ca8691bec4087e5a4701d5ac018dd4e90508091505090565b604051806102200160405280600081526020016000815260200160008152602001600081526020016000815260200160008152602001600081526020016000815260200160008152602001600081526020016000815260200160008152602001600081526020016060815260200160608152602001600015158152602001610e22610e28565b81525090565b6040518060c001604052806000815260200160008152602001600081526020016000815260200160008152602001600081525090565b6000819050919050565b610e7181610e5e565b82525050565b6000602082019050610e8c6000830184610e68565b92915050565b6000604051905090565b600080fd5b600080fd5b610eaf81610e5e565b8114610eba57600080fd5b50565b600081359050610ecc81610ea6565b92915050565b600060208284031215610ee857610ee7610e9c565b5b6000610ef684828501610ebd565b91505092915050565b600073ffffffffffffffffffffffffffffffffffffffff82169050919050565b6000610f2a82610eff565b9050919050565b610f3a81610f1f565b82525050565b6000602082019050610f556000830184610f31565b92915050565b610f6481610f1f565b8114610f6f57600080fd5b50565b600081359050610f8181610f5b565b92915050565b600060208284031215610f9d57610f9c610e9c565b5b6000610fab84828501610f72565b91505092915050565b600081519050919050565b600082825260208201905092915050565b6000819050602082019050919050565b610fe981610e5e565b82525050565b6000610ffb8383610fe0565b60208301905092915050565b6000602082019050919050565b600061101f82610fb4565b6110298185610fbf565b935061103483610fd0565b8060005b8381101561106557815161104c8882610fef565b975061105783611007565b925050600181019050611038565b5085935050505092915050565b6000602082019050818103600083015261108c8184611014565b905092915050565b600080fd5b600080fd5b6000601f19601f8301169050919050565b7f4e487b7100000000000000000000000000000000000000000000000000000000600052604160045260246000fd5b6110e78261109e565b810181811067ffffffffffffffff82111715611106576111056110af565b5b80604052505050565b6000611119610e92565b905061112582826110de565b919050565b600067ffffffffffffffff821115611145576111446110af565b5b61114e8261109e565b9050602081019050919050565b82818337600083830152505050565b600061117d6111788461112a565b61110f565b90508281526020810184848401111561119957611198611099565b5b6111a484828561115b565b509392505050565b600082601f8301126111c1576111c0611094565b5b81356111d184826020860161116a565b91505092915050565b6000602082840312156111f0576111ef610e9c565b5b600082013567ffffffffffffffff81111561120e5761120d610ea1565b5b61121a848285016111ac565b91505092915050565b60008115159050919050565b61123881611223565b82525050565b6000602082019050611253600083018461122f565b92915050565b61126281611223565b811461126d57600080fd5b50565b60008135905061127f81611259565b92915050565b60008060006060848603121561129e5761129d610e9c565b5b600084013567ffffffffffffffff8111156112bc576112bb610ea1565b5b6112c8868287016111ac565b935050602084013567ffffffffffffffff8111156112e9576112e8610ea1565b5b6112f5868287016111ac565b925050604061130686828701611270565b9150509250925092565b6000806040838503121561132757611326610e9c565b5b600061133585828601610ebd565b925050602083013567ffffffffffffffff81111561135657611355610ea1565b5b611362858286016111ac565b9150509250929050565b600081519050919050565b600082825260208201905092915050565b60005b838110156113a657808201518184015260208101905061138b565b60008484015250505050565b60006113bd8261136c565b6113c78185611377565b93506113d7818560208601611388565b6113e08161109e565b840191505092915050565b6113f481611223565b82525050565b60c0820160008201516114106000850182610fe0565b5060208201516114236020850182610fe0565b5060408201516114366040850182610fe0565b5060608201516114496060850182610fe0565b50608082015161145c6080850182610fe0565b5060a082015161146f60a0850182610fe0565b50505050565b60006102c08301600083015161148e6000860182610fe0565b5060208301516114a16020860182610fe0565b5060408301516114b46040860182610fe0565b5060608301516114c76060860182610fe0565b5060808301516114da6080860182610fe0565b5060a08301516114ed60a0860182610fe0565b5060c083015161150060c0860182610fe0565b5060e083015161151360e0860182610fe0565b50610100830151611528610100860182610fe0565b5061012083015161153d610120860182610fe0565b50610140830151611552610140860182610fe0565b50610160830151611567610160860182610fe0565b5061018083015161157c610180860182610fe0565b506101a08301518482036101a086015261159682826113b2565b9150506101c08301518482036101c08601526115b282826113b2565b9150506101e08301516115c96101e08601826113eb565b506102008301516115de6102008601826113fa565b508091505092915050565b600060208201905081810360008301526116038184611475565b905092915050565b600081905092915050565b60006116218261136c565b61162b818561160b565b935061163b818560208601611388565b80840191505092915050565b60006116538284611616565b915081905092915050565b600082825260208201905092915050565b7f6e616d652069732074616b656e00000000000000000000000000000000000000600082015250565b60006116a5600d8361165e565b91506116b08261166f565b602082019050919050565b600060208201905081810360008301526116d481611698565b9050919050565b7f4e487b7100000000000000000000000000000000000000000000000000000000600052601160045260246000fd5b600061171582610e5e565b91507fffffffffffffffffffffffffffffffffffffffffffffffffffffffffffffffff8203611747576117466116db565b5b600182019050919050565b7f4e487b7100000000000000000000000000000000000000000000000000000000600052602260045260246000fd5b6000600282049050600182168061179957607f821691505b6020821081036117ac576117ab611752565b5b50919050565b60008190508160005260206000209050919050565b60006020601f8301049050919050565b600082821b905092915050565b6000600883026118147fffffffffffffffffffffffffffffffffffffffffffffffffffffffffffffffff826117d7565b61181e86836117d7565b95508019841693508086168417925050509392505050565b6000819050919050565b600061185b61185661185184610e5e565b611836565b610e5e565b9050919050565b6000819050919050565b61187583611840565b61188961188182611862565b8484546117e4565b825550505050565b600090565b61189e611891565b6118a981848461186c565b505050565b5b818110156118cd576118c2600082611896565b6001810190506118af565b5050565b601f821115611912576118e3816117b2565b6118ec846117c7565b810160208510156118fb578190505b61190f611907856117c7565b8301826118ae565b50505b505050565b600082821c905092915050565b600061193560001984600802611917565b1980831691505092915050565b600061194e8383611924565b9150826002028217905092915050565b6119678261136c565b67ffffffffffffffff8111156119805761197f6110af565b5b61198a8254611781565b6119958282856118d1565b600060209050601f8311600181146119c857600084156119b6578287015190505b6119c08582611942565b865550611a28565b601f1984166119d6866117b2565b60005b828110156119fe578489015182556001820191506020850194506020810190506119d9565b86831015611a1b5784890151611a17601f891682611924565b8355505b6001600288020188555050505b505050505050565b7f43616e6e6f74207061737320616e20656d707479206861736800000000000000600082015250565b6000611a6660198361165e565b9150611a7182611a30565b602082019050919050565b60006020820190508181036000830152611a9581611a59565b9050919050565b7f43616e6e6f74206265206c6f6e676572207468616e2031362063686172730000600082015250565b6000611ad2601e8361165e565b9150611add82611a9c565b602082019050919050565b60006020820190508181036000830152611b0181611ac5565b905091905056fea264697066735822122020060b1ab7832102a7118268ad5bebc68c08e745f9928130e40058a9d579c37d64736f6c63430008110033",
  "linkReferences": {},
  "deployedLinkReferences": {}
}