{
  "_format": "hh-sol-artifact-1",
  "contractName": "QuestFacet",
  "sourceName": "contracts/facets/QuestFacet.sol",
  "abi": [
    {
      "anonymous": false,
      "inputs": [
        {
          "indexed": true,
          "internalType": "address",
          "name": "_playerAddress",
          "type": "address"
        },
        {
          "indexed": false,
          "internalType": "uint256",
          "name": "_id",
          "type": "uint256"
        }
      ],
      "name": "BeginQuesting",
      "type": "event"
    },
    {
      "anonymous": false,
      "inputs": [
        {
          "indexed": true,
          "internalType": "address",
          "name": "_playerAddress",
          "type": "address"
        },
        {
          "indexed": false,
          "internalType": "uint256",
          "name": "_id",
          "type": "uint256"
        }
      ],
      "name": "EndQuesting",
      "type": "event"
    },
    {
      "inputs": [
        {
          "internalType": "uint256",
          "name": "_tokenId",
          "type": "uint256"
        }
      ],
      "name": "endQuestGem",
      "outputs": [],
      "stateMutability": "nonpayable",
      "type": "function"
    },
    {
      "inputs": [
        {
          "internalType": "uint256",
          "name": "_tokenId",
          "type": "uint256"
        }
      ],
      "name": "endQuestGold",
      "outputs": [],
      "stateMutability": "nonpayable",
      "type": "function"
    },
    {
      "inputs": [
        {
          "internalType": "address",
          "name": "_address",
          "type": "address"
        }
      ],
      "name": "getGemBalance",
      "outputs": [
        {
          "internalType": "uint256",
          "name": "",
          "type": "uint256"
        }
      ],
      "stateMutability": "view",
      "type": "function"
    },
    {
      "inputs": [
        {
          "internalType": "uint256",
          "name": "_playerId",
          "type": "uint256"
        }
      ],
      "name": "getGemStart",
      "outputs": [
        {
          "internalType": "uint256",
          "name": "",
          "type": "uint256"
        }
      ],
      "stateMutability": "view",
      "type": "function"
    },
    {
      "inputs": [
        {
          "internalType": "address",
          "name": "_address",
          "type": "address"
        }
      ],
      "name": "getGoldBalance",
      "outputs": [
        {
          "internalType": "uint256",
          "name": "",
          "type": "uint256"
        }
      ],
      "stateMutability": "view",
      "type": "function"
    },
    {
      "inputs": [
        {
          "internalType": "uint256",
          "name": "_playerId",
          "type": "uint256"
        }
      ],
      "name": "getGoldStart",
      "outputs": [
        {
          "internalType": "uint256",
          "name": "",
          "type": "uint256"
        }
      ],
      "stateMutability": "view",
      "type": "function"
    },
    {
      "inputs": [
        {
          "internalType": "uint256",
          "name": "_tokenId",
          "type": "uint256"
        }
      ],
      "name": "startQuestGem",
      "outputs": [],
      "stateMutability": "nonpayable",
      "type": "function"
    },
    {
      "inputs": [
        {
          "internalType": "uint256",
          "name": "_tokenId",
          "type": "uint256"
        }
      ],
      "name": "startQuestGold",
      "outputs": [],
      "stateMutability": "nonpayable",
      "type": "function"
    }
  ],
  "bytecode": "0x608060405234801561001057600080fd5b50610ce5806100206000396000f3fe608060405234801561001057600080fd5b50600436106100885760003560e01c8063929c2cc01161005b578063929c2cc014610139578063a174d3c214610169578063e42ce3cf14610185578063e6be6c66146101a157610088565b80633707caf21461008d5780633fc0287f146100bd57806368a06747146100d95780639208008014610109575b600080fd5b6100a760048036038101906100a29190610acd565b6101bd565b6040516100b49190610b13565b60405180910390f35b6100d760048036038101906100d29190610b5a565b6101cf565b005b6100f360048036038101906100ee9190610b5a565b610229565b6040516101009190610b13565b60405180910390f35b610123600480360381019061011e9190610b5a565b61023b565b6040516101309190610b13565b60405180910390f35b610153600480360381019061014e9190610acd565b61024d565b6040516101609190610b13565b60405180910390f35b610183600480360381019061017e9190610b5a565b61025f565b005b61019f600480360381019061019a9190610b5a565b6102b9565b005b6101bb60048036038101906101b69190610b5a565b610313565b005b60006101c88261036d565b9050919050565b6101d8816103c4565b3373ffffffffffffffffffffffffffffffffffffffff167fcae7c1c63e65edc05144a6b48d8cb6d31d4f693030fd9aeb70a966faaad0f2628260405161021e9190610b13565b60405180910390a250565b600061023482610572565b9050919050565b60006102468261059d565b9050919050565b6000610258826105c8565b9050919050565b6102688161061f565b3373ffffffffffffffffffffffffffffffffffffffff167f754ac03968a16df89a46742386b9770f63220c3d6eb2838f03971e18a1dba22a826040516102ae9190610b13565b60405180910390a250565b6102c281610734565b3373ffffffffffffffffffffffffffffffffffffffff167fcae7c1c63e65edc05144a6b48d8cb6d31d4f693030fd9aeb70a966faaad0f262826040516103089190610b13565b60405180910390a250565b61031c816108fc565b3373ffffffffffffffffffffffffffffffffffffffff167f754ac03968a16df89a46742386b9770f63220c3d6eb2838f03971e18a1dba22a826040516103629190610b13565b60405180910390a250565b6000806103786109e3565b90508060000160008473ffffffffffffffffffffffffffffffffffffffff1673ffffffffffffffffffffffffffffffffffffffff16815260200190815260200160002054915050919050565b60006103ce610a10565b905060006103da6109e3565b905060006103e6610a3d565b90503373ffffffffffffffffffffffffffffffffffffffff1683600201600086815260200190815260200160002060009054906101000a900473ffffffffffffffffffffffffffffffffffffffff1673ffffffffffffffffffffffffffffffffffffffff161461045557600080fd5b6002836003016000868152602001908152602001600020600201541461047a57600080fd5b60018160000160008681526020019081526020016000205461049c9190610bb6565b4210156104de576040517f08c379a00000000000000000000000000000000000000000000000000000000081526004016104d590610c47565b60405180910390fd5b600083600301600086815260200190815260200160002060020181905550806000016000858152602001908152602001600020600090558160000160003373ffffffffffffffffffffffffffffffffffffffff1673ffffffffffffffffffffffffffffffffffffffff168152602001908152602001600020600081548092919061056790610c67565b919050555050505050565b60008061057d610a3d565b905080600101600084815260200190815260200160002054915050919050565b6000806105a8610a3d565b905080600001600084815260200190815260200160002054915050919050565b6000806105d36109e3565b90508060010160008473ffffffffffffffffffffffffffffffffffffffff1673ffffffffffffffffffffffffffffffffffffffff16815260200190815260200160002054915050919050565b6000610629610a10565b90506000610635610a3d565b90506000826003016000858152602001908152602001600020600201541461065c57600080fd5b3373ffffffffffffffffffffffffffffffffffffffff1682600201600085815260200190815260200160002060009054906101000a900473ffffffffffffffffffffffffffffffffffffffff1673ffffffffffffffffffffffffffffffffffffffff16146106c957600080fd5b603c816004016000858152602001908152602001600020546106eb9190610bb6565b4210156106f757600080fd5b6005826003016000858152602001908152602001600020600201819055504281600101600085815260200190815260200160002081905550505050565b600061073e610a10565b9050600061074a6109e3565b90506000610756610a3d565b90503373ffffffffffffffffffffffffffffffffffffffff1683600201600086815260200190815260200160002060009054906101000a900473ffffffffffffffffffffffffffffffffffffffff1673ffffffffffffffffffffffffffffffffffffffff16146107c557600080fd5b600583600301600086815260200190815260200160002060020154146107ea57600080fd5b603c8160010160008681526020019081526020016000205461080c9190610bb6565b42101561084e576040517f08c379a000000000000000000000000000000000000000000000000000000000815260040161084590610c47565b60405180910390fd5b600083600301600086815260200190815260200160002060020181905550806001016000858152602001908152602001600020600090558160010160003373ffffffffffffffffffffffffffffffffffffffff1673ffffffffffffffffffffffffffffffffffffffff16815260200190815260200160002060008154809291906108d790610c67565b9190505550428160040160008681526020019081526020016000208190555050505050565b6000610906610a10565b90506000610912610a3d565b90506000826003016000858152602001908152602001600020600201541461093957600080fd5b3373ffffffffffffffffffffffffffffffffffffffff1682600201600085815260200190815260200160002060009054906101000a900473ffffffffffffffffffffffffffffffffffffffff1673ffffffffffffffffffffffffffffffffffffffff16146109a657600080fd5b6002826003016000858152602001908152602001600020600201819055504281600001600085815260200190815260200160002081905550505050565b6000807f2c89d74504b6ad8d4fbde22bc3474166bac5452a11195897f239d8bebe02d70790508091505090565b6000807f3cab9a070a0c61cd0ae9d9e9e2c0781e5ca8691bec4087e5a4701d5ac018dd4e90508091505090565b6000807ff76a8e66124dac83b46aecd7c4256d5158e69f6adf88592fd8146c79e007626e90508091505090565b600080fd5b600073ffffffffffffffffffffffffffffffffffffffff82169050919050565b6000610a9a82610a6f565b9050919050565b610aaa81610a8f565b8114610ab557600080fd5b50565b600081359050610ac781610aa1565b92915050565b600060208284031215610ae357610ae2610a6a565b5b6000610af184828501610ab8565b91505092915050565b6000819050919050565b610b0d81610afa565b82525050565b6000602082019050610b286000830184610b04565b92915050565b610b3781610afa565b8114610b4257600080fd5b50565b600081359050610b5481610b2e565b92915050565b600060208284031215610b7057610b6f610a6a565b5b6000610b7e84828501610b45565b91505092915050565b7f4e487b7100000000000000000000000000000000000000000000000000000000600052601160045260246000fd5b6000610bc182610afa565b9150610bcc83610afa565b9250828201905080821115610be457610be3610b87565b5b92915050565b600082825260208201905092915050565b7f6974277320746f6f206561726c7920746f2070756c6c206f7574000000000000600082015250565b6000610c31601a83610bea565b9150610c3c82610bfb565b602082019050919050565b60006020820190508181036000830152610c6081610c24565b9050919050565b6000610c7282610afa565b91507fffffffffffffffffffffffffffffffffffffffffffffffffffffffffffffffff8203610ca457610ca3610b87565b5b60018201905091905056fea26469706673582212202b911260f031801dd2a392c433ede519e50524cf153c482abb22b82b8f95389664736f6c63430008110033",
  "linkReferences": {},
  "deployedLinkReferences": {}
}