{
  "_format": "hh-sol-artifact-1",
  "contractName": "QuestFacet",
  "sourceName": "contracts/facets/QuestFacet.sol",
  "abi": [
    {
      "anonymous": false,
      "inputs": [
        {
          "indexed": true,
          "internalType": "address",
          "name": "_playerAddress",
          "type": "address"
        },
        {
          "indexed": false,
          "internalType": "uint256",
          "name": "_id",
          "type": "uint256"
        }
      ],
      "name": "BeginQuesting",
      "type": "event"
    },
    {
      "anonymous": false,
      "inputs": [
        {
          "indexed": true,
          "internalType": "uint256",
          "name": "_playerId",
          "type": "uint256"
        }
      ],
      "name": "DragonQuest",
      "type": "event"
    },
    {
      "anonymous": false,
      "inputs": [
        {
          "indexed": true,
          "internalType": "address",
          "name": "_playerAddress",
          "type": "address"
        },
        {
          "indexed": false,
          "internalType": "uint256",
          "name": "_id",
          "type": "uint256"
        }
      ],
      "name": "EndQuesting",
      "type": "event"
    },
    {
      "inputs": [
        {
          "internalType": "uint256",
          "name": "_playerId",
          "type": "uint256"
        }
      ],
      "name": "dragonQuest",
      "outputs": [
        {
          "internalType": "bool",
          "name": "result",
          "type": "bool"
        }
      ],
      "stateMutability": "nonpayable",
      "type": "function"
    },
    {
      "inputs": [
        {
          "internalType": "uint256",
          "name": "_tokenId",
          "type": "uint256"
        }
      ],
      "name": "endQuestGem",
      "outputs": [],
      "stateMutability": "nonpayable",
      "type": "function"
    },
    {
      "inputs": [
        {
          "internalType": "uint256",
          "name": "_tokenId",
          "type": "uint256"
        }
      ],
      "name": "endQuestGold",
      "outputs": [],
      "stateMutability": "nonpayable",
      "type": "function"
    },
    {
      "inputs": [
        {
          "internalType": "uint256",
          "name": "_playerId",
          "type": "uint256"
        }
      ],
      "name": "getCooldown",
      "outputs": [
        {
          "internalType": "uint256",
          "name": "",
          "type": "uint256"
        }
      ],
      "stateMutability": "view",
      "type": "function"
    },
    {
      "inputs": [
        {
          "internalType": "address",
          "name": "_address",
          "type": "address"
        }
      ],
      "name": "getGemBalance",
      "outputs": [
        {
          "internalType": "uint256",
          "name": "",
          "type": "uint256"
        }
      ],
      "stateMutability": "view",
      "type": "function"
    },
    {
      "inputs": [
        {
          "internalType": "uint256",
          "name": "_playerId",
          "type": "uint256"
        }
      ],
      "name": "getGemStart",
      "outputs": [
        {
          "internalType": "uint256",
          "name": "",
          "type": "uint256"
        }
      ],
      "stateMutability": "view",
      "type": "function"
    },
    {
      "inputs": [
        {
          "internalType": "address",
          "name": "_address",
          "type": "address"
        }
      ],
      "name": "getGoldBalance",
      "outputs": [
        {
          "internalType": "uint256",
          "name": "",
          "type": "uint256"
        }
      ],
      "stateMutability": "view",
      "type": "function"
    },
    {
      "inputs": [
        {
          "internalType": "uint256",
          "name": "_playerId",
          "type": "uint256"
        }
      ],
      "name": "getGoldStart",
      "outputs": [
        {
          "internalType": "uint256",
          "name": "",
          "type": "uint256"
        }
      ],
      "stateMutability": "view",
      "type": "function"
    },
    {
      "inputs": [
        {
          "internalType": "uint256",
          "name": "_treasureId",
          "type": "uint256"
        }
      ],
      "name": "getTreasure",
      "outputs": [
        {
          "components": [
            {
              "internalType": "uint256",
              "name": "id",
              "type": "uint256"
            },
            {
              "internalType": "uint256",
              "name": "rank",
              "type": "uint256"
            },
            {
              "internalType": "uint256",
              "name": "pointer",
              "type": "uint256"
            },
            {
              "internalType": "string",
              "name": "name",
              "type": "string"
            }
          ],
          "internalType": "struct Treasure",
          "name": "",
          "type": "tuple"
        }
      ],
      "stateMutability": "view",
      "type": "function"
    },
    {
      "inputs": [
        {
          "internalType": "uint256",
          "name": "_playerId",
          "type": "uint256"
        }
      ],
      "name": "getTreasures",
      "outputs": [
        {
          "internalType": "uint256[]",
          "name": "",
          "type": "uint256[]"
        }
      ],
      "stateMutability": "view",
      "type": "function"
    },
    {
      "inputs": [
        {
          "internalType": "uint256",
          "name": "_tokenId",
          "type": "uint256"
        }
      ],
      "name": "startQuestGem",
      "outputs": [],
      "stateMutability": "nonpayable",
      "type": "function"
    },
    {
      "inputs": [
        {
          "internalType": "uint256",
          "name": "_tokenId",
          "type": "uint256"
        }
      ],
      "name": "startQuestGold",
      "outputs": [],
      "stateMutability": "nonpayable",
      "type": "function"
    }
  ],
  "bytecode": "0x608060405234801561001057600080fd5b50611be6806100206000396000f3fe608060405234801561001057600080fd5b50600436106100b45760003560e01c8063920800801161007157806392080080146101c5578063929c2cc0146101f5578063a174d3c214610225578063cdf0641514610241578063e42ce3cf14610271578063e6be6c661461028d576100b4565b80630207f11f146100b957806329e203ab146100e95780633707caf2146101195780633fc0287f1461014957806368a06747146101655780637775049414610195575b600080fd5b6100d360048036038101906100ce919061122d565b6102a9565b6040516100e09190611275565b60405180910390f35b61010360048036038101906100fe919061122d565b6102ef565b604051610110919061129f565b60405180910390f35b610133600480360381019061012e9190611318565b610301565b604051610140919061129f565b60405180910390f35b610163600480360381019061015e919061122d565b610313565b005b61017f600480360381019061017a919061122d565b61036d565b60405161018c919061129f565b60405180910390f35b6101af60048036038101906101aa919061122d565b61037f565b6040516101bc9190611403565b60405180910390f35b6101df60048036038101906101da919061122d565b610391565b6040516101ec919061129f565b60405180910390f35b61020f600480360381019061020a9190611318565b6103a3565b60405161021c919061129f565b60405180910390f35b61023f600480360381019061023a919061122d565b6103b5565b005b61025b6004803603810190610256919061122d565b61040f565b6040516102689190611518565b60405180910390f35b61028b6004803603810190610286919061122d565b610427565b005b6102a760048036038101906102a2919061122d565b610481565b005b60006102b4826104db565b905080156102ea57817f897b5c7abcb9d1af199c95f7485f50c3e0dbed9b05f3068b69fd66613c34c38660405160405180910390a25b919050565b60006102fa8261087f565b9050919050565b600061030c826108aa565b9050919050565b61031c81610901565b3373ffffffffffffffffffffffffffffffffffffffff167fcae7c1c63e65edc05144a6b48d8cb6d31d4f693030fd9aeb70a966faaad0f26282604051610362919061129f565b60405180910390a250565b600061037882610aaf565b9050919050565b606061038a82610ada565b9050919050565b600061039c82610b54565b9050919050565b60006103ae82610b7f565b9050919050565b6103be81610bd6565b3373ffffffffffffffffffffffffffffffffffffffff167f754ac03968a16df89a46742386b9770f63220c3d6eb2838f03971e18a1dba22a82604051610404919061129f565b60405180910390a250565b6104176111ca565b61042082610ceb565b9050919050565b61043081610dd7565b3373ffffffffffffffffffffffffffffffffffffffff167fcae7c1c63e65edc05144a6b48d8cb6d31d4f693030fd9aeb70a966faaad0f26282604051610476919061129f565b60405180910390a250565b61048a81610f9f565b3373ffffffffffffffffffffffffffffffffffffffff167f754ac03968a16df89a46742386b9770f63220c3d6eb2838f03971e18a1dba22a826040516104d0919061129f565b60405180910390a250565b6000806104e6611086565b905060006104f26110b3565b905060006104fe6110e0565b9050600061050a61110d565b90506000846003016000888152602001908152602001600020600201541461053157600080fd5b3373ffffffffffffffffffffffffffffffffffffffff1684600201600088815260200190815260200160002060009054906101000a900473ffffffffffffffffffffffffffffffffffffffff1673ffffffffffffffffffffffffffffffffffffffff161461059e57600080fd5b61a8c0836005016000888152602001908152602001600020546105c19190611569565b4210156105cd57600080fd5b6040516020016105dc906115f4565b604051602081830303815290604052805190602001208260020160008660030160008a81526020019081526020016000206010016000015481526020019081526020016000206004016040516020016106359190611701565b604051602081830303815290604052805190602001201461068b576040517f08c379a000000000000000000000000000000000000000000000000000000000815260040161068290611775565b60405180910390fd5b4283600501600088815260200190815260200160002081905550601360146106b28861113a565b6106bc91906117c4565b10610871578060000160008154809291906106d6906117f5565b9190505550604051806080016040528082600001548152602001600181526020018260030160008981526020019081526020016000208054905081526020016040518060400160405280600681526020017f447363616c65000000000000000000000000000000000000000000000000000081525081525081600201600083600001548152602001908152602001600020600082015181600001556020820151816001015560408201518160020155606082015181600301908161079a9190611a03565b5090505080600301600087815260200190815260200160002081600001549080600181540180825580915050600190039060005260206000200160009091909190915055338160010160008360000154815260200190815260200160002060006101000a81548173ffffffffffffffffffffffffffffffffffffffff021916908373ffffffffffffffffffffffffffffffffffffffff160217905550836003016000878152602001908152602001600020600101600081548092919061085f906117f5565b9190505550600194505050505061087a565b60009450505050505b919050565b60008061088a6110b3565b905080600501600084815260200190815260200160002054915050919050565b6000806108b561119d565b90508060000160008473ffffffffffffffffffffffffffffffffffffffff1673ffffffffffffffffffffffffffffffffffffffff16815260200190815260200160002054915050919050565b600061090b611086565b9050600061091761119d565b905060006109236110b3565b90503373ffffffffffffffffffffffffffffffffffffffff1683600201600086815260200190815260200160002060009054906101000a900473ffffffffffffffffffffffffffffffffffffffff1673ffffffffffffffffffffffffffffffffffffffff161461099257600080fd5b600283600301600086815260200190815260200160002060020154146109b757600080fd5b6001816001016000868152602001908152602001600020546109d99190611569565b421015610a1b576040517f08c379a0000000000000000000000000000000000000000000000000000000008152600401610a1290611b21565b60405180910390fd5b600083600301600086815260200190815260200160002060020181905550806001016000858152602001908152602001600020600090558160000160003373ffffffffffffffffffffffffffffffffffffffff1673ffffffffffffffffffffffffffffffffffffffff1681526020019081526020016000206000815480929190610aa4906117f5565b919050555050505050565b600080610aba6110b3565b905080600201600084815260200190815260200160002054915050919050565b60606000610ae661110d565b9050806003016000848152602001908152602001600020805480602002602001604051908101604052809291908181526020018280548015610b4757602002820191906000526020600020905b815481526020019060010190808311610b33575b5050505050915050919050565b600080610b5f6110b3565b905080600101600084815260200190815260200160002054915050919050565b600080610b8a61119d565b90508060010160008473ffffffffffffffffffffffffffffffffffffffff1673ffffffffffffffffffffffffffffffffffffffff16815260200190815260200160002054915050919050565b6000610be0611086565b90506000610bec6110b3565b905060008260030160008581526020019081526020016000206002015414610c1357600080fd5b3373ffffffffffffffffffffffffffffffffffffffff1682600201600085815260200190815260200160002060009054906101000a900473ffffffffffffffffffffffffffffffffffffffff1673ffffffffffffffffffffffffffffffffffffffff1614610c8057600080fd5b603c81600501600085815260200190815260200160002054610ca29190611569565b421015610cae57600080fd5b6005826003016000858152602001908152602001600020600201819055504281600201600085815260200190815260200160002081905550505050565b610cf36111ca565b6000610cfd61110d565b9050806002016000848152602001908152602001600020604051806080016040529081600082015481526020016001820154815260200160028201548152602001600382018054610d4d90611638565b80601f0160208091040260200160405190810160405280929190818152602001828054610d7990611638565b8015610dc65780601f10610d9b57610100808354040283529160200191610dc6565b820191906000526020600020905b815481529060010190602001808311610da957829003601f168201915b505050505081525050915050919050565b6000610de1611086565b90506000610ded61119d565b90506000610df96110b3565b90503373ffffffffffffffffffffffffffffffffffffffff1683600201600086815260200190815260200160002060009054906101000a900473ffffffffffffffffffffffffffffffffffffffff1673ffffffffffffffffffffffffffffffffffffffff1614610e6857600080fd5b60058360030160008681526020019081526020016000206002015414610e8d57600080fd5b603c81600201600086815260200190815260200160002054610eaf9190611569565b421015610ef1576040517f08c379a0000000000000000000000000000000000000000000000000000000008152600401610ee890611b21565b60405180910390fd5b600083600301600086815260200190815260200160002060020181905550806002016000858152602001908152602001600020600090558160010160003373ffffffffffffffffffffffffffffffffffffffff1673ffffffffffffffffffffffffffffffffffffffff1681526020019081526020016000206000815480929190610f7a906117f5565b9190505550428160050160008681526020019081526020016000208190555050505050565b6000610fa9611086565b90506000610fb56110b3565b905060008260030160008581526020019081526020016000206002015414610fdc57600080fd5b3373ffffffffffffffffffffffffffffffffffffffff1682600201600085815260200190815260200160002060009054906101000a900473ffffffffffffffffffffffffffffffffffffffff1673ffffffffffffffffffffffffffffffffffffffff161461104957600080fd5b6002826003016000858152602001908152602001600020600201819055504281600101600085815260200190815260200160002081905550505050565b6000807f3cab9a070a0c61cd0ae9d9e9e2c0781e5ca8691bec4087e5a4701d5ac018dd4e90508091505090565b6000807ff76a8e66124dac83b46aecd7c4256d5158e69f6adf88592fd8146c79e007626e90508091505090565b6000807f04526f5583fe9d24ceb7f2a6da4ee61654b9eae62f9918e0e123f84a139b105890508091505090565b6000807fb5dbbc334907f600e1151190a68c4043043163a23a907389a2c6f6231ed4318b90508091505090565b6000806111456110b3565b905080600001600081548092919061115c906117f5565b9190505550424484836000015460405160200161117c9493929190611b62565b6040516020818303038152906040528051906020012060001c915050919050565b6000807f2c89d74504b6ad8d4fbde22bc3474166bac5452a11195897f239d8bebe02d70790508091505090565b6040518060800160405280600081526020016000815260200160008152602001606081525090565b600080fd5b6000819050919050565b61120a816111f7565b811461121557600080fd5b50565b60008135905061122781611201565b92915050565b600060208284031215611243576112426111f2565b5b600061125184828501611218565b91505092915050565b60008115159050919050565b61126f8161125a565b82525050565b600060208201905061128a6000830184611266565b92915050565b611299816111f7565b82525050565b60006020820190506112b46000830184611290565b92915050565b600073ffffffffffffffffffffffffffffffffffffffff82169050919050565b60006112e5826112ba565b9050919050565b6112f5816112da565b811461130057600080fd5b50565b600081359050611312816112ec565b92915050565b60006020828403121561132e5761132d6111f2565b5b600061133c84828501611303565b91505092915050565b600081519050919050565b600082825260208201905092915050565b6000819050602082019050919050565b61137a816111f7565b82525050565b600061138c8383611371565b60208301905092915050565b6000602082019050919050565b60006113b082611345565b6113ba8185611350565b93506113c583611361565b8060005b838110156113f65781516113dd8882611380565b97506113e883611398565b9250506001810190506113c9565b5085935050505092915050565b6000602082019050818103600083015261141d81846113a5565b905092915050565b600081519050919050565b600082825260208201905092915050565b60005b8381101561145f578082015181840152602081019050611444565b60008484015250505050565b6000601f19601f8301169050919050565b600061148782611425565b6114918185611430565b93506114a1818560208601611441565b6114aa8161146b565b840191505092915050565b60006080830160008301516114cd6000860182611371565b5060208301516114e06020860182611371565b5060408301516114f36040860182611371565b506060830151848203606086015261150b828261147c565b9150508091505092915050565b6000602082019050818103600083015261153281846114b5565b905092915050565b7f4e487b7100000000000000000000000000000000000000000000000000000000600052601160045260246000fd5b6000611574826111f7565b915061157f836111f7565b92508282019050808211156115975761159661153a565b5b92915050565b600081905092915050565b7f57697a4861740000000000000000000000000000000000000000000000000000600082015250565b60006115de60068361159d565b91506115e9826115a8565b600682019050919050565b60006115ff826115d1565b9150819050919050565b7f4e487b7100000000000000000000000000000000000000000000000000000000600052602260045260246000fd5b6000600282049050600182168061165057607f821691505b60208210810361166357611662611609565b5b50919050565b60008190508160005260206000209050919050565b6000815461168b81611638565b611695818661159d565b945060018216600081146116b057600181146116c5576116f8565b60ff19831686528115158202860193506116f8565b6116ce85611669565b60005b838110156116f0578154818901526001820191506020810190506116d1565b838801955050505b50505092915050565b600061170d828461167e565b915081905092915050565b600082825260208201905092915050565b7f6e6f742077656172696e67206861740000000000000000000000000000000000600082015250565b600061175f600f83611718565b915061176a82611729565b602082019050919050565b6000602082019050818103600083015261178e81611752565b9050919050565b7f4e487b7100000000000000000000000000000000000000000000000000000000600052601260045260246000fd5b60006117cf826111f7565b91506117da836111f7565b9250826117ea576117e9611795565b5b828206905092915050565b6000611800826111f7565b91507fffffffffffffffffffffffffffffffffffffffffffffffffffffffffffffffff82036118325761183161153a565b5b600182019050919050565b7f4e487b7100000000000000000000000000000000000000000000000000000000600052604160045260246000fd5b60006020601f8301049050919050565b600082821b905092915050565b6000600883026118b97fffffffffffffffffffffffffffffffffffffffffffffffffffffffffffffffff8261187c565b6118c3868361187c565b95508019841693508086168417925050509392505050565b6000819050919050565b60006119006118fb6118f6846111f7565b6118db565b6111f7565b9050919050565b6000819050919050565b61191a836118e5565b61192e61192682611907565b848454611889565b825550505050565b600090565b611943611936565b61194e818484611911565b505050565b5b818110156119725761196760008261193b565b600181019050611954565b5050565b601f8211156119b75761198881611669565b6119918461186c565b810160208510156119a0578190505b6119b46119ac8561186c565b830182611953565b50505b505050565b600082821c905092915050565b60006119da600019846008026119bc565b1980831691505092915050565b60006119f383836119c9565b9150826002028217905092915050565b611a0c82611425565b67ffffffffffffffff811115611a2557611a2461183d565b5b611a2f8254611638565b611a3a828285611976565b600060209050601f831160018114611a6d5760008415611a5b578287015190505b611a6585826119e7565b865550611acd565b601f198416611a7b86611669565b60005b82811015611aa357848901518255600182019150602085019450602081019050611a7e565b86831015611ac05784890151611abc601f8916826119c9565b8355505b6001600288020188555050505b505050505050565b7f6974277320746f6f206561726c7920746f2070756c6c206f7574000000000000600082015250565b6000611b0b601a83611718565b9150611b1682611ad5565b602082019050919050565b60006020820190508181036000830152611b3a81611afe565b9050919050565b6000819050919050565b611b5c611b57826111f7565b611b41565b82525050565b6000611b6e8287611b4b565b602082019150611b7e8286611b4b565b602082019150611b8e8285611b4b565b602082019150611b9e8284611b4b565b6020820191508190509594505050505056fea2646970667358221220d51885e8c52d73067b898ebc15080975a668e460c3d778080cf0cfe0a8e3532d64736f6c63430008110033",
  "linkReferences": {},
  "deployedLinkReferences": {}
}