{
  "_format": "hh-sol-artifact-1",
  "contractName": "QuestFacet",
  "sourceName": "contracts/facets/QuestFacet.sol",
  "abi": [
    {
      "anonymous": false,
      "inputs": [
        {
          "indexed": true,
          "internalType": "address",
          "name": "_playerAddress",
          "type": "address"
        },
        {
          "indexed": false,
          "internalType": "uint256",
          "name": "_id",
          "type": "uint256"
        }
      ],
      "name": "BeginQuesting",
      "type": "event"
    },
    {
      "anonymous": false,
      "inputs": [
        {
          "indexed": true,
          "internalType": "address",
          "name": "_playerAddress",
          "type": "address"
        },
        {
          "indexed": false,
          "internalType": "uint256",
          "name": "_id",
          "type": "uint256"
        }
      ],
      "name": "EndQuesting",
      "type": "event"
    },
    {
      "inputs": [
        {
          "internalType": "uint256",
          "name": "_playerId",
          "type": "uint256"
        }
      ],
      "name": "dragonQuest",
      "outputs": [
        {
          "internalType": "bool",
          "name": "",
          "type": "bool"
        }
      ],
      "stateMutability": "nonpayable",
      "type": "function"
    },
    {
      "inputs": [
        {
          "internalType": "uint256",
          "name": "_tokenId",
          "type": "uint256"
        }
      ],
      "name": "endQuestGem",
      "outputs": [],
      "stateMutability": "nonpayable",
      "type": "function"
    },
    {
      "inputs": [
        {
          "internalType": "uint256",
          "name": "_tokenId",
          "type": "uint256"
        }
      ],
      "name": "endQuestGold",
      "outputs": [],
      "stateMutability": "nonpayable",
      "type": "function"
    },
    {
      "inputs": [
        {
          "internalType": "uint256",
          "name": "_playerId",
          "type": "uint256"
        }
      ],
      "name": "getCooldown",
      "outputs": [
        {
          "internalType": "uint256",
          "name": "",
          "type": "uint256"
        }
      ],
      "stateMutability": "view",
      "type": "function"
    },
    {
      "inputs": [
        {
          "internalType": "address",
          "name": "_address",
          "type": "address"
        }
      ],
      "name": "getGemBalance",
      "outputs": [
        {
          "internalType": "uint256",
          "name": "",
          "type": "uint256"
        }
      ],
      "stateMutability": "view",
      "type": "function"
    },
    {
      "inputs": [
        {
          "internalType": "uint256",
          "name": "_playerId",
          "type": "uint256"
        }
      ],
      "name": "getGemStart",
      "outputs": [
        {
          "internalType": "uint256",
          "name": "",
          "type": "uint256"
        }
      ],
      "stateMutability": "view",
      "type": "function"
    },
    {
      "inputs": [
        {
          "internalType": "address",
          "name": "_address",
          "type": "address"
        }
      ],
      "name": "getGoldBalance",
      "outputs": [
        {
          "internalType": "uint256",
          "name": "",
          "type": "uint256"
        }
      ],
      "stateMutability": "view",
      "type": "function"
    },
    {
      "inputs": [
        {
          "internalType": "uint256",
          "name": "_playerId",
          "type": "uint256"
        }
      ],
      "name": "getGoldStart",
      "outputs": [
        {
          "internalType": "uint256",
          "name": "",
          "type": "uint256"
        }
      ],
      "stateMutability": "view",
      "type": "function"
    },
    {
      "inputs": [
        {
          "internalType": "uint256",
          "name": "_treasureId",
          "type": "uint256"
        }
      ],
      "name": "getTreasure",
      "outputs": [
        {
          "components": [
            {
              "internalType": "uint256",
              "name": "id",
              "type": "uint256"
            },
            {
              "internalType": "uint256",
              "name": "rank",
              "type": "uint256"
            },
            {
              "internalType": "uint256",
              "name": "pointer",
              "type": "uint256"
            },
            {
              "internalType": "string",
              "name": "name",
              "type": "string"
            }
          ],
          "internalType": "struct Treasure",
          "name": "",
          "type": "tuple"
        }
      ],
      "stateMutability": "view",
      "type": "function"
    },
    {
      "inputs": [
        {
          "internalType": "uint256",
          "name": "_playerId",
          "type": "uint256"
        }
      ],
      "name": "getTreasures",
      "outputs": [
        {
          "internalType": "uint256[]",
          "name": "",
          "type": "uint256[]"
        }
      ],
      "stateMutability": "view",
      "type": "function"
    },
    {
      "inputs": [
        {
          "internalType": "uint256",
          "name": "_tokenId",
          "type": "uint256"
        }
      ],
      "name": "startQuestGem",
      "outputs": [],
      "stateMutability": "nonpayable",
      "type": "function"
    },
    {
      "inputs": [
        {
          "internalType": "uint256",
          "name": "_tokenId",
          "type": "uint256"
        }
      ],
      "name": "startQuestGold",
      "outputs": [],
      "stateMutability": "nonpayable",
      "type": "function"
    }
  ],
  "bytecode": "0x608060405234801561001057600080fd5b50611bb2806100206000396000f3fe608060405234801561001057600080fd5b50600436106100b45760003560e01c8063920800801161007157806392080080146101c5578063929c2cc0146101f5578063a174d3c214610225578063cdf0641514610241578063e42ce3cf14610271578063e6be6c661461028d576100b4565b80630207f11f146100b957806329e203ab146100e95780633707caf2146101195780633fc0287f1461014957806368a06747146101655780637775049414610195575b600080fd5b6100d360048036038101906100ce91906111f9565b6102a9565b6040516100e09190611241565b60405180910390f35b61010360048036038101906100fe91906111f9565b6102bb565b604051610110919061126b565b60405180910390f35b610133600480360381019061012e91906112e4565b6102cd565b604051610140919061126b565b60405180910390f35b610163600480360381019061015e91906111f9565b6102df565b005b61017f600480360381019061017a91906111f9565b610339565b60405161018c919061126b565b60405180910390f35b6101af60048036038101906101aa91906111f9565b61034b565b6040516101bc91906113cf565b60405180910390f35b6101df60048036038101906101da91906111f9565b61035d565b6040516101ec919061126b565b60405180910390f35b61020f600480360381019061020a91906112e4565b61036f565b60405161021c919061126b565b60405180910390f35b61023f600480360381019061023a91906111f9565b610381565b005b61025b600480360381019061025691906111f9565b6103db565b60405161026891906114e4565b60405180910390f35b61028b600480360381019061028691906111f9565b6103f3565b005b6102a760048036038101906102a291906111f9565b61044d565b005b60006102b4826104a7565b9050919050565b60006102c68261084b565b9050919050565b60006102d882610876565b9050919050565b6102e8816108cd565b3373ffffffffffffffffffffffffffffffffffffffff167fcae7c1c63e65edc05144a6b48d8cb6d31d4f693030fd9aeb70a966faaad0f2628260405161032e919061126b565b60405180910390a250565b600061034482610a7b565b9050919050565b606061035682610aa6565b9050919050565b600061036882610b20565b9050919050565b600061037a82610b4b565b9050919050565b61038a81610ba2565b3373ffffffffffffffffffffffffffffffffffffffff167f754ac03968a16df89a46742386b9770f63220c3d6eb2838f03971e18a1dba22a826040516103d0919061126b565b60405180910390a250565b6103e3611196565b6103ec82610cb7565b9050919050565b6103fc81610da3565b3373ffffffffffffffffffffffffffffffffffffffff167fcae7c1c63e65edc05144a6b48d8cb6d31d4f693030fd9aeb70a966faaad0f26282604051610442919061126b565b60405180910390a250565b61045681610f6b565b3373ffffffffffffffffffffffffffffffffffffffff167f754ac03968a16df89a46742386b9770f63220c3d6eb2838f03971e18a1dba22a8260405161049c919061126b565b60405180910390a250565b6000806104b2611052565b905060006104be61107f565b905060006104ca6110ac565b905060006104d66110d9565b9050600084600301600088815260200190815260200160002060020154146104fd57600080fd5b3373ffffffffffffffffffffffffffffffffffffffff1684600201600088815260200190815260200160002060009054906101000a900473ffffffffffffffffffffffffffffffffffffffff1673ffffffffffffffffffffffffffffffffffffffff161461056a57600080fd5b61a8c08360050160008881526020019081526020016000205461058d9190611535565b42101561059957600080fd5b6040516020016105a8906115c0565b604051602081830303815290604052805190602001208260020160008660030160008a815260200190815260200160002060100160000154815260200190815260200160002060040160405160200161060191906116cd565b6040516020818303038152906040528051906020012014610657576040517f08c379a000000000000000000000000000000000000000000000000000000000815260040161064e90611741565b60405180910390fd5b42836005016000888152602001908152602001600020819055506013601461067e88611106565b6106889190611790565b1061083d578060000160008154809291906106a2906117c1565b9190505550604051806080016040528082600001548152602001600181526020018260030160008981526020019081526020016000208054905081526020016040518060400160405280600681526020017f447363616c65000000000000000000000000000000000000000000000000000081525081525081600201600083600001548152602001908152602001600020600082015181600001556020820151816001015560408201518160020155606082015181600301908161076691906119cf565b5090505080600301600087815260200190815260200160002081600001549080600181540180825580915050600190039060005260206000200160009091909190915055338160010160008360000154815260200190815260200160002060006101000a81548173ffffffffffffffffffffffffffffffffffffffff021916908373ffffffffffffffffffffffffffffffffffffffff160217905550836003016000878152602001908152602001600020600101600081548092919061082b906117c1565b91905055506001945050505050610846565b60009450505050505b919050565b60008061085661107f565b905080600501600084815260200190815260200160002054915050919050565b600080610881611169565b90508060000160008473ffffffffffffffffffffffffffffffffffffffff1673ffffffffffffffffffffffffffffffffffffffff16815260200190815260200160002054915050919050565b60006108d7611052565b905060006108e3611169565b905060006108ef61107f565b90503373ffffffffffffffffffffffffffffffffffffffff1683600201600086815260200190815260200160002060009054906101000a900473ffffffffffffffffffffffffffffffffffffffff1673ffffffffffffffffffffffffffffffffffffffff161461095e57600080fd5b6002836003016000868152602001908152602001600020600201541461098357600080fd5b6001816001016000868152602001908152602001600020546109a59190611535565b4210156109e7576040517f08c379a00000000000000000000000000000000000000000000000000000000081526004016109de90611aed565b60405180910390fd5b600083600301600086815260200190815260200160002060020181905550806001016000858152602001908152602001600020600090558160000160003373ffffffffffffffffffffffffffffffffffffffff1673ffffffffffffffffffffffffffffffffffffffff1681526020019081526020016000206000815480929190610a70906117c1565b919050555050505050565b600080610a8661107f565b905080600201600084815260200190815260200160002054915050919050565b60606000610ab26110d9565b9050806003016000848152602001908152602001600020805480602002602001604051908101604052809291908181526020018280548015610b1357602002820191906000526020600020905b815481526020019060010190808311610aff575b5050505050915050919050565b600080610b2b61107f565b905080600101600084815260200190815260200160002054915050919050565b600080610b56611169565b90508060010160008473ffffffffffffffffffffffffffffffffffffffff1673ffffffffffffffffffffffffffffffffffffffff16815260200190815260200160002054915050919050565b6000610bac611052565b90506000610bb861107f565b905060008260030160008581526020019081526020016000206002015414610bdf57600080fd5b3373ffffffffffffffffffffffffffffffffffffffff1682600201600085815260200190815260200160002060009054906101000a900473ffffffffffffffffffffffffffffffffffffffff1673ffffffffffffffffffffffffffffffffffffffff1614610c4c57600080fd5b603c81600501600085815260200190815260200160002054610c6e9190611535565b421015610c7a57600080fd5b6005826003016000858152602001908152602001600020600201819055504281600201600085815260200190815260200160002081905550505050565b610cbf611196565b6000610cc96110d9565b9050806002016000848152602001908152602001600020604051806080016040529081600082015481526020016001820154815260200160028201548152602001600382018054610d1990611604565b80601f0160208091040260200160405190810160405280929190818152602001828054610d4590611604565b8015610d925780601f10610d6757610100808354040283529160200191610d92565b820191906000526020600020905b815481529060010190602001808311610d7557829003601f168201915b505050505081525050915050919050565b6000610dad611052565b90506000610db9611169565b90506000610dc561107f565b90503373ffffffffffffffffffffffffffffffffffffffff1683600201600086815260200190815260200160002060009054906101000a900473ffffffffffffffffffffffffffffffffffffffff1673ffffffffffffffffffffffffffffffffffffffff1614610e3457600080fd5b60058360030160008681526020019081526020016000206002015414610e5957600080fd5b603c81600201600086815260200190815260200160002054610e7b9190611535565b421015610ebd576040517f08c379a0000000000000000000000000000000000000000000000000000000008152600401610eb490611aed565b60405180910390fd5b600083600301600086815260200190815260200160002060020181905550806002016000858152602001908152602001600020600090558160010160003373ffffffffffffffffffffffffffffffffffffffff1673ffffffffffffffffffffffffffffffffffffffff1681526020019081526020016000206000815480929190610f46906117c1565b9190505550428160050160008681526020019081526020016000208190555050505050565b6000610f75611052565b90506000610f8161107f565b905060008260030160008581526020019081526020016000206002015414610fa857600080fd5b3373ffffffffffffffffffffffffffffffffffffffff1682600201600085815260200190815260200160002060009054906101000a900473ffffffffffffffffffffffffffffffffffffffff1673ffffffffffffffffffffffffffffffffffffffff161461101557600080fd5b6002826003016000858152602001908152602001600020600201819055504281600101600085815260200190815260200160002081905550505050565b6000807f3cab9a070a0c61cd0ae9d9e9e2c0781e5ca8691bec4087e5a4701d5ac018dd4e90508091505090565b6000807ff76a8e66124dac83b46aecd7c4256d5158e69f6adf88592fd8146c79e007626e90508091505090565b6000807f04526f5583fe9d24ceb7f2a6da4ee61654b9eae62f9918e0e123f84a139b105890508091505090565b6000807fb5dbbc334907f600e1151190a68c4043043163a23a907389a2c6f6231ed4318b90508091505090565b60008061111161107f565b9050806000016000815480929190611128906117c1565b919050555042448483600001546040516020016111489493929190611b2e565b6040516020818303038152906040528051906020012060001c915050919050565b6000807f2c89d74504b6ad8d4fbde22bc3474166bac5452a11195897f239d8bebe02d70790508091505090565b6040518060800160405280600081526020016000815260200160008152602001606081525090565b600080fd5b6000819050919050565b6111d6816111c3565b81146111e157600080fd5b50565b6000813590506111f3816111cd565b92915050565b60006020828403121561120f5761120e6111be565b5b600061121d848285016111e4565b91505092915050565b60008115159050919050565b61123b81611226565b82525050565b60006020820190506112566000830184611232565b92915050565b611265816111c3565b82525050565b6000602082019050611280600083018461125c565b92915050565b600073ffffffffffffffffffffffffffffffffffffffff82169050919050565b60006112b182611286565b9050919050565b6112c1816112a6565b81146112cc57600080fd5b50565b6000813590506112de816112b8565b92915050565b6000602082840312156112fa576112f96111be565b5b6000611308848285016112cf565b91505092915050565b600081519050919050565b600082825260208201905092915050565b6000819050602082019050919050565b611346816111c3565b82525050565b6000611358838361133d565b60208301905092915050565b6000602082019050919050565b600061137c82611311565b611386818561131c565b93506113918361132d565b8060005b838110156113c25781516113a9888261134c565b97506113b483611364565b925050600181019050611395565b5085935050505092915050565b600060208201905081810360008301526113e98184611371565b905092915050565b600081519050919050565b600082825260208201905092915050565b60005b8381101561142b578082015181840152602081019050611410565b60008484015250505050565b6000601f19601f8301169050919050565b6000611453826113f1565b61145d81856113fc565b935061146d81856020860161140d565b61147681611437565b840191505092915050565b6000608083016000830151611499600086018261133d565b5060208301516114ac602086018261133d565b5060408301516114bf604086018261133d565b50606083015184820360608601526114d78282611448565b9150508091505092915050565b600060208201905081810360008301526114fe8184611481565b905092915050565b7f4e487b7100000000000000000000000000000000000000000000000000000000600052601160045260246000fd5b6000611540826111c3565b915061154b836111c3565b925082820190508082111561156357611562611506565b5b92915050565b600081905092915050565b7f57697a4861740000000000000000000000000000000000000000000000000000600082015250565b60006115aa600683611569565b91506115b582611574565b600682019050919050565b60006115cb8261159d565b9150819050919050565b7f4e487b7100000000000000000000000000000000000000000000000000000000600052602260045260246000fd5b6000600282049050600182168061161c57607f821691505b60208210810361162f5761162e6115d5565b5b50919050565b60008190508160005260206000209050919050565b6000815461165781611604565b6116618186611569565b9450600182166000811461167c5760018114611691576116c4565b60ff19831686528115158202860193506116c4565b61169a85611635565b60005b838110156116bc5781548189015260018201915060208101905061169d565b838801955050505b50505092915050565b60006116d9828461164a565b915081905092915050565b600082825260208201905092915050565b7f6e6f742077656172696e67206861740000000000000000000000000000000000600082015250565b600061172b600f836116e4565b9150611736826116f5565b602082019050919050565b6000602082019050818103600083015261175a8161171e565b9050919050565b7f4e487b7100000000000000000000000000000000000000000000000000000000600052601260045260246000fd5b600061179b826111c3565b91506117a6836111c3565b9250826117b6576117b5611761565b5b828206905092915050565b60006117cc826111c3565b91507fffffffffffffffffffffffffffffffffffffffffffffffffffffffffffffffff82036117fe576117fd611506565b5b600182019050919050565b7f4e487b7100000000000000000000000000000000000000000000000000000000600052604160045260246000fd5b60006020601f8301049050919050565b600082821b905092915050565b6000600883026118857fffffffffffffffffffffffffffffffffffffffffffffffffffffffffffffffff82611848565b61188f8683611848565b95508019841693508086168417925050509392505050565b6000819050919050565b60006118cc6118c76118c2846111c3565b6118a7565b6111c3565b9050919050565b6000819050919050565b6118e6836118b1565b6118fa6118f2826118d3565b848454611855565b825550505050565b600090565b61190f611902565b61191a8184846118dd565b505050565b5b8181101561193e57611933600082611907565b600181019050611920565b5050565b601f8211156119835761195481611635565b61195d84611838565b8101602085101561196c578190505b61198061197885611838565b83018261191f565b50505b505050565b600082821c905092915050565b60006119a660001984600802611988565b1980831691505092915050565b60006119bf8383611995565b9150826002028217905092915050565b6119d8826113f1565b67ffffffffffffffff8111156119f1576119f0611809565b5b6119fb8254611604565b611a06828285611942565b600060209050601f831160018114611a395760008415611a27578287015190505b611a3185826119b3565b865550611a99565b601f198416611a4786611635565b60005b82811015611a6f57848901518255600182019150602085019450602081019050611a4a565b86831015611a8c5784890151611a88601f891682611995565b8355505b6001600288020188555050505b505050505050565b7f6974277320746f6f206561726c7920746f2070756c6c206f7574000000000000600082015250565b6000611ad7601a836116e4565b9150611ae282611aa1565b602082019050919050565b60006020820190508181036000830152611b0681611aca565b9050919050565b6000819050919050565b611b28611b23826111c3565b611b0d565b82525050565b6000611b3a8287611b17565b602082019150611b4a8286611b17565b602082019150611b5a8285611b17565b602082019150611b6a8284611b17565b6020820191508190509594505050505056fea264697066735822122095caed2c4f835ec0ac0797b4532e7d011fd01932e61b4b93a24490bafb5af8c664736f6c63430008110033",
  "linkReferences": {},
  "deployedLinkReferences": {}
}