{
  "_format": "hh-sol-artifact-1",
  "contractName": "QuestFacet",
  "sourceName": "contracts/facets/QuestFacet.sol",
  "abi": [
    {
      "anonymous": false,
      "inputs": [
        {
          "indexed": true,
          "internalType": "address",
          "name": "_playerAddress",
          "type": "address"
        },
        {
          "indexed": false,
          "internalType": "uint256",
          "name": "_id",
          "type": "uint256"
        }
      ],
      "name": "BeginQuesting",
      "type": "event"
    },
    {
      "anonymous": false,
      "inputs": [
        {
          "indexed": true,
          "internalType": "address",
          "name": "_playerAddress",
          "type": "address"
        },
        {
          "indexed": false,
          "internalType": "uint256",
          "name": "_id",
          "type": "uint256"
        }
      ],
      "name": "EndQuesting",
      "type": "event"
    },
    {
      "inputs": [
        {
          "internalType": "uint256",
          "name": "_tokenId",
          "type": "uint256"
        }
      ],
      "name": "endQuestGem",
      "outputs": [],
      "stateMutability": "nonpayable",
      "type": "function"
    },
    {
      "inputs": [
        {
          "internalType": "uint256",
          "name": "_tokenId",
          "type": "uint256"
        }
      ],
      "name": "endQuestGold",
      "outputs": [],
      "stateMutability": "nonpayable",
      "type": "function"
    },
    {
      "inputs": [
        {
          "internalType": "uint256",
          "name": "_playerId",
          "type": "uint256"
        }
      ],
      "name": "getCooldown",
      "outputs": [
        {
          "internalType": "uint256",
          "name": "",
          "type": "uint256"
        }
      ],
      "stateMutability": "view",
      "type": "function"
    },
    {
      "inputs": [
        {
          "internalType": "address",
          "name": "_address",
          "type": "address"
        }
      ],
      "name": "getGemBalance",
      "outputs": [
        {
          "internalType": "uint256",
          "name": "",
          "type": "uint256"
        }
      ],
      "stateMutability": "view",
      "type": "function"
    },
    {
      "inputs": [
        {
          "internalType": "uint256",
          "name": "_playerId",
          "type": "uint256"
        }
      ],
      "name": "getGemStart",
      "outputs": [
        {
          "internalType": "uint256",
          "name": "",
          "type": "uint256"
        }
      ],
      "stateMutability": "view",
      "type": "function"
    },
    {
      "inputs": [
        {
          "internalType": "address",
          "name": "_address",
          "type": "address"
        }
      ],
      "name": "getGoldBalance",
      "outputs": [
        {
          "internalType": "uint256",
          "name": "",
          "type": "uint256"
        }
      ],
      "stateMutability": "view",
      "type": "function"
    },
    {
      "inputs": [
        {
          "internalType": "uint256",
          "name": "_playerId",
          "type": "uint256"
        }
      ],
      "name": "getGoldStart",
      "outputs": [
        {
          "internalType": "uint256",
          "name": "",
          "type": "uint256"
        }
      ],
      "stateMutability": "view",
      "type": "function"
    },
    {
      "inputs": [
        {
          "internalType": "uint256",
          "name": "_tokenId",
          "type": "uint256"
        }
      ],
      "name": "startQuestGem",
      "outputs": [],
      "stateMutability": "nonpayable",
      "type": "function"
    },
    {
      "inputs": [
        {
          "internalType": "uint256",
          "name": "_tokenId",
          "type": "uint256"
        }
      ],
      "name": "startQuestGold",
      "outputs": [],
      "stateMutability": "nonpayable",
      "type": "function"
    }
  ],
  "bytecode": "0x608060405234801561001057600080fd5b50610d5d806100206000396000f3fe608060405234801561001057600080fd5b50600436106100935760003560e01c806392080080116100665780639208008014610144578063929c2cc014610174578063a174d3c2146101a4578063e42ce3cf146101c0578063e6be6c66146101dc57610093565b806329e203ab146100985780633707caf2146100c85780633fc0287f146100f857806368a0674714610114575b600080fd5b6100b260048036038101906100ad9190610b1d565b6101f8565b6040516100bf9190610b59565b60405180910390f35b6100e260048036038101906100dd9190610bd2565b61020a565b6040516100ef9190610b59565b60405180910390f35b610112600480360381019061010d9190610b1d565b61021c565b005b61012e60048036038101906101299190610b1d565b610276565b60405161013b9190610b59565b60405180910390f35b61015e60048036038101906101599190610b1d565b610288565b60405161016b9190610b59565b60405180910390f35b61018e60048036038101906101899190610bd2565b61029a565b60405161019b9190610b59565b60405180910390f35b6101be60048036038101906101b99190610b1d565b6102ac565b005b6101da60048036038101906101d59190610b1d565b610306565b005b6101f660048036038101906101f19190610b1d565b610360565b005b6000610203826103ba565b9050919050565b6000610215826103e5565b9050919050565b6102258161043c565b3373ffffffffffffffffffffffffffffffffffffffff167fcae7c1c63e65edc05144a6b48d8cb6d31d4f693030fd9aeb70a966faaad0f2628260405161026b9190610b59565b60405180910390a250565b6000610281826105ea565b9050919050565b600061029382610615565b9050919050565b60006102a582610640565b9050919050565b6102b581610697565b3373ffffffffffffffffffffffffffffffffffffffff167f754ac03968a16df89a46742386b9770f63220c3d6eb2838f03971e18a1dba22a826040516102fb9190610b59565b60405180910390a250565b61030f816107ac565b3373ffffffffffffffffffffffffffffffffffffffff167fcae7c1c63e65edc05144a6b48d8cb6d31d4f693030fd9aeb70a966faaad0f262826040516103559190610b59565b60405180910390a250565b61036981610974565b3373ffffffffffffffffffffffffffffffffffffffff167f754ac03968a16df89a46742386b9770f63220c3d6eb2838f03971e18a1dba22a826040516103af9190610b59565b60405180910390a250565b6000806103c5610a5b565b905080600401600084815260200190815260200160002054915050919050565b6000806103f0610a88565b90508060000160008473ffffffffffffffffffffffffffffffffffffffff1673ffffffffffffffffffffffffffffffffffffffff16815260200190815260200160002054915050919050565b6000610446610ab5565b90506000610452610a88565b9050600061045e610a5b565b90503373ffffffffffffffffffffffffffffffffffffffff1683600201600086815260200190815260200160002060009054906101000a900473ffffffffffffffffffffffffffffffffffffffff1673ffffffffffffffffffffffffffffffffffffffff16146104cd57600080fd5b600283600301600086815260200190815260200160002060020154146104f257600080fd5b6001816000016000868152602001908152602001600020546105149190610c2e565b421015610556576040517f08c379a000000000000000000000000000000000000000000000000000000000815260040161054d90610cbf565b60405180910390fd5b600083600301600086815260200190815260200160002060020181905550806000016000858152602001908152602001600020600090558160000160003373ffffffffffffffffffffffffffffffffffffffff1673ffffffffffffffffffffffffffffffffffffffff16815260200190815260200160002060008154809291906105df90610cdf565b919050555050505050565b6000806105f5610a5b565b905080600101600084815260200190815260200160002054915050919050565b600080610620610a5b565b905080600001600084815260200190815260200160002054915050919050565b60008061064b610a88565b90508060010160008473ffffffffffffffffffffffffffffffffffffffff1673ffffffffffffffffffffffffffffffffffffffff16815260200190815260200160002054915050919050565b60006106a1610ab5565b905060006106ad610a5b565b9050600082600301600085815260200190815260200160002060020154146106d457600080fd5b3373ffffffffffffffffffffffffffffffffffffffff1682600201600085815260200190815260200160002060009054906101000a900473ffffffffffffffffffffffffffffffffffffffff1673ffffffffffffffffffffffffffffffffffffffff161461074157600080fd5b603c816004016000858152602001908152602001600020546107639190610c2e565b42101561076f57600080fd5b6005826003016000858152602001908152602001600020600201819055504281600101600085815260200190815260200160002081905550505050565b60006107b6610ab5565b905060006107c2610a88565b905060006107ce610a5b565b90503373ffffffffffffffffffffffffffffffffffffffff1683600201600086815260200190815260200160002060009054906101000a900473ffffffffffffffffffffffffffffffffffffffff1673ffffffffffffffffffffffffffffffffffffffff161461083d57600080fd5b6005836003016000868152602001908152602001600020600201541461086257600080fd5b603c816001016000868152602001908152602001600020546108849190610c2e565b4210156108c6576040517f08c379a00000000000000000000000000000000000000000000000000000000081526004016108bd90610cbf565b60405180910390fd5b600083600301600086815260200190815260200160002060020181905550806001016000858152602001908152602001600020600090558160010160003373ffffffffffffffffffffffffffffffffffffffff1673ffffffffffffffffffffffffffffffffffffffff168152602001908152602001600020600081548092919061094f90610cdf565b9190505550428160040160008681526020019081526020016000208190555050505050565b600061097e610ab5565b9050600061098a610a5b565b9050600082600301600085815260200190815260200160002060020154146109b157600080fd5b3373ffffffffffffffffffffffffffffffffffffffff1682600201600085815260200190815260200160002060009054906101000a900473ffffffffffffffffffffffffffffffffffffffff1673ffffffffffffffffffffffffffffffffffffffff1614610a1e57600080fd5b6002826003016000858152602001908152602001600020600201819055504281600001600085815260200190815260200160002081905550505050565b6000807ff76a8e66124dac83b46aecd7c4256d5158e69f6adf88592fd8146c79e007626e90508091505090565b6000807f2c89d74504b6ad8d4fbde22bc3474166bac5452a11195897f239d8bebe02d70790508091505090565b6000807f3cab9a070a0c61cd0ae9d9e9e2c0781e5ca8691bec4087e5a4701d5ac018dd4e90508091505090565b600080fd5b6000819050919050565b610afa81610ae7565b8114610b0557600080fd5b50565b600081359050610b1781610af1565b92915050565b600060208284031215610b3357610b32610ae2565b5b6000610b4184828501610b08565b91505092915050565b610b5381610ae7565b82525050565b6000602082019050610b6e6000830184610b4a565b92915050565b600073ffffffffffffffffffffffffffffffffffffffff82169050919050565b6000610b9f82610b74565b9050919050565b610baf81610b94565b8114610bba57600080fd5b50565b600081359050610bcc81610ba6565b92915050565b600060208284031215610be857610be7610ae2565b5b6000610bf684828501610bbd565b91505092915050565b7f4e487b7100000000000000000000000000000000000000000000000000000000600052601160045260246000fd5b6000610c3982610ae7565b9150610c4483610ae7565b9250828201905080821115610c5c57610c5b610bff565b5b92915050565b600082825260208201905092915050565b7f6974277320746f6f206561726c7920746f2070756c6c206f7574000000000000600082015250565b6000610ca9601a83610c62565b9150610cb482610c73565b602082019050919050565b60006020820190508181036000830152610cd881610c9c565b9050919050565b6000610cea82610ae7565b91507fffffffffffffffffffffffffffffffffffffffffffffffffffffffffffffffff8203610d1c57610d1b610bff565b5b60018201905091905056fea2646970667358221220c059c11221148aeded3c916ba1cd777151567bb6cbec0007e8bb288e9fb7e86c64736f6c63430008110033",
  "linkReferences": {},
  "deployedLinkReferences": {}
}