{
  "_format": "hh-sol-artifact-1",
  "contractName": "ScriptFacet",
  "sourceName": "contracts/facets/ScriptFacet.sol",
  "abi": [
    {
      "inputs": [
        {
          "internalType": "uint256",
          "name": "_playerId",
          "type": "uint256"
        }
      ],
      "name": "activeScript",
      "outputs": [],
      "stateMutability": "nonpayable",
      "type": "function"
    },
    {
      "inputs": [],
      "name": "openArena",
      "outputs": [],
      "stateMutability": "nonpayable",
      "type": "function"
    }
  ],
  "bytecode": "0x608060405234801561001057600080fd5b5061032e806100206000396000f3fe608060405234801561001057600080fd5b50600436106100365760003560e01c806378aafea21461003b5780639b25b84214610045575b600080fd5b610043610061565b005b61005f600480360381019061005a9190610268565b61006b565b005b610069610077565b565b610074816100a6565b50565b60006100816101a6565b905060018160020160000160006101000a81548160ff02191690831515021790555050565b60006100b06101d3565b905060006100bc610200565b9050603282600301600085815260200190815260200160002060060160008282546100e791906102c4565b9250508190555060328160010160003373ffffffffffffffffffffffffffffffffffffffff1673ffffffffffffffffffffffffffffffffffffffff168152602001908152602001600020600082825461014091906102c4565b925050819055506101f48160000160003373ffffffffffffffffffffffffffffffffffffffff1673ffffffffffffffffffffffffffffffffffffffff168152602001908152602001600020600082825461019a91906102c4565b92505081905550505050565b6000807f1b1c2350f60dba32e7a2436167ce3f8399cd1c51a95c8577f1448f53846d4cda90508091505090565b6000807f3cab9a070a0c61cd0ae9d9e9e2c0781e5ca8691bec4087e5a4701d5ac018dd4e90508091505090565b6000807f2c89d74504b6ad8d4fbde22bc3474166bac5452a11195897f239d8bebe02d70790508091505090565b600080fd5b6000819050919050565b61024581610232565b811461025057600080fd5b50565b6000813590506102628161023c565b92915050565b60006020828403121561027e5761027d61022d565b5b600061028c84828501610253565b91505092915050565b7f4e487b7100000000000000000000000000000000000000000000000000000000600052601160045260246000fd5b60006102cf82610232565b91506102da83610232565b92508282019050808211156102f2576102f1610295565b5b9291505056fea264697066735822122075794dae5fa87e8c123ee209c2e25f7ff843b1e354d3c4fafad1300b8dc0071964736f6c63430008110033",
  "linkReferences": {},
  "deployedLinkReferences": {}
}