{
  "_format": "hh-sol-artifact-1",
  "contractName": "ScriptFacet",
  "sourceName": "contracts/facets/ScriptFacet.sol",
  "abi": [
    {
      "inputs": [
        {
          "internalType": "uint256",
          "name": "_playerId",
          "type": "uint256"
        }
      ],
      "name": "activeScript",
      "outputs": [],
      "stateMutability": "nonpayable",
      "type": "function"
    },
    {
      "inputs": [],
      "name": "forceUnEquip",
      "outputs": [],
      "stateMutability": "nonpayable",
      "type": "function"
    }
  ],
  "bytecode": "0x608060405234801561001057600080fd5b506103cb806100206000396000f3fe608060405234801561001057600080fd5b50600436106100365760003560e01c80638c5a0dcc1461003b5780639b25b84214610045575b600080fd5b610043610061565b005b61005f600480360381019061005a91906102bd565b61006b565b005b610069610077565b565b610074816100fb565b50565b60006100816101fb565b905060005b81600001548110156100f757600082600201600083815260200190815260200160002060000154036100e457600082600201600083815260200190815260200160002060050160146101000a81548160ff0219169083151502179055505b80806100ef90610319565b915050610086565b5050565b6000610105610228565b90506000610111610255565b90506032826003016000858152602001908152602001600020600601600082825461013c9190610361565b9250508190555060328160010160003373ffffffffffffffffffffffffffffffffffffffff1673ffffffffffffffffffffffffffffffffffffffff16815260200190815260200160002060008282546101959190610361565b925050819055506101f48160000160003373ffffffffffffffffffffffffffffffffffffffff1673ffffffffffffffffffffffffffffffffffffffff16815260200190815260200160002060008282546101ef9190610361565b92505081905550505050565b6000807f04526f5583fe9d24ceb7f2a6da4ee61654b9eae62f9918e0e123f84a139b105890508091505090565b6000807f3cab9a070a0c61cd0ae9d9e9e2c0781e5ca8691bec4087e5a4701d5ac018dd4e90508091505090565b6000807f2c89d74504b6ad8d4fbde22bc3474166bac5452a11195897f239d8bebe02d70790508091505090565b600080fd5b6000819050919050565b61029a81610287565b81146102a557600080fd5b50565b6000813590506102b781610291565b92915050565b6000602082840312156102d3576102d2610282565b5b60006102e1848285016102a8565b91505092915050565b7f4e487b7100000000000000000000000000000000000000000000000000000000600052601160045260246000fd5b600061032482610287565b91507fffffffffffffffffffffffffffffffffffffffffffffffffffffffffffffffff8203610356576103556102ea565b5b600182019050919050565b600061036c82610287565b915061037783610287565b925082820190508082111561038f5761038e6102ea565b5b9291505056fea264697066735822122096af4684fb3a59ac887e6dcdeb8450c72ba2f01272b1b18eef90c59d480b2de964736f6c63430008110033",
  "linkReferences": {},
  "deployedLinkReferences": {}
}