{
  "_format": "hh-sol-artifact-1",
  "contractName": "ScriptFacet",
  "sourceName": "contracts/facets/ScriptFacet.sol",
  "abi": [
    {
      "inputs": [],
      "name": "openArena",
      "outputs": [],
      "stateMutability": "nonpayable",
      "type": "function"
    }
  ],
  "bytecode": "0x6080604052348015600f57600080fd5b5060cd8061001e6000396000f3fe6080604052348015600f57600080fd5b506004361060285760003560e01c806378aafea214602d575b600080fd5b60336035565b005b603b603d565b565b60006045606a565b905060018160020160000160006101000a81548160ff02191690831515021790555050565b6000807f1b1c2350f60dba32e7a2436167ce3f8399cd1c51a95c8577f1448f53846d4cda9050809150509056fea26469706673582212202f209169fadcd3b817073e1f1792b5c906c6a4942ac57e9c23580066ee84ba5864736f6c63430008110033",
  "linkReferences": {},
  "deployedLinkReferences": {}
}