{
  "_format": "hh-sol-artifact-1",
  "contractName": "ScriptFacet",
  "sourceName": "contracts/facets/ScriptFacet.sol",
  "abi": [
    {
      "inputs": [
        {
          "internalType": "uint256",
          "name": "_playerId",
          "type": "uint256"
        }
      ],
      "name": "activeScript",
      "outputs": [],
      "stateMutability": "nonpayable",
      "type": "function"
    }
  ],
  "bytecode": "0x608060405234801561001057600080fd5b50610259806100206000396000f3fe608060405234801561001057600080fd5b506004361061002b5760003560e01c80639b25b84214610030575b600080fd5b61004a60048036038101906100459190610193565b61004c565b005b61005581610058565b50565b60006100626100fe565b9050600061006e61012b565b90506032826003016000858152602001908152602001600020600601600082825461009991906101ef565b9250508190555060328160010160003373ffffffffffffffffffffffffffffffffffffffff1673ffffffffffffffffffffffffffffffffffffffff16815260200190815260200160002060008282546100f291906101ef565b92505081905550505050565b6000807f3cab9a070a0c61cd0ae9d9e9e2c0781e5ca8691bec4087e5a4701d5ac018dd4e90508091505090565b6000807f2c89d74504b6ad8d4fbde22bc3474166bac5452a11195897f239d8bebe02d70790508091505090565b600080fd5b6000819050919050565b6101708161015d565b811461017b57600080fd5b50565b60008135905061018d81610167565b92915050565b6000602082840312156101a9576101a8610158565b5b60006101b78482850161017e565b91505092915050565b7f4e487b7100000000000000000000000000000000000000000000000000000000600052601160045260246000fd5b60006101fa8261015d565b91506102058361015d565b925082820190508082111561021d5761021c6101c0565b5b9291505056fea2646970667358221220e1657cf217565fdc7a0f07b6b6b20140fd5995674ba0a6a9de5fa3e245e9ec5764736f6c63430008110033",
  "linkReferences": {},
  "deployedLinkReferences": {}
}