{
  "_format": "hh-sol-artifact-1",
  "contractName": "ScriptFacet",
  "sourceName": "contracts/facets/ScriptFacet.sol",
  "abi": [
    {
      "inputs": [],
      "name": "openSecondArena",
      "outputs": [],
      "stateMutability": "nonpayable",
      "type": "function"
    }
  ],
  "bytecode": "0x6080604052348015600f57600080fd5b5060cd8061001e6000396000f3fe6080604052348015600f57600080fd5b506004361060285760003560e01c806348307f3f14602d575b600080fd5b60336035565b005b603b603d565b565b60006045606a565b905060018160060160000160006101000a81548160ff02191690831515021790555050565b6000807f1b1c2350f60dba32e7a2436167ce3f8399cd1c51a95c8577f1448f53846d4cda9050809150509056fea26469706673582212200ba04ef4791403661ed5c4c9fe9498eb91b871fba77348590d956d324cbd5b2264736f6c63430008110033",
  "linkReferences": {},
  "deployedLinkReferences": {}
}