{
  "_format": "hh-sol-artifact-1",
  "contractName": "ScriptFacet",
  "sourceName": "contracts/facets/ScriptFacet.sol",
  "abi": [
    {
      "inputs": [
        {
          "internalType": "uint256",
          "name": "_playerId",
          "type": "uint256"
        }
      ],
      "name": "activeScript",
      "outputs": [],
      "stateMutability": "nonpayable",
      "type": "function"
    },
    {
      "inputs": [],
      "name": "forceUnEquip",
      "outputs": [],
      "stateMutability": "nonpayable",
      "type": "function"
    },
    {
      "inputs": [],
      "name": "openArenas",
      "outputs": [],
      "stateMutability": "nonpayable",
      "type": "function"
    }
  ],
  "bytecode": "0x608060405234801561001057600080fd5b506104e5806100206000396000f3fe608060405234801561001057600080fd5b50600436106100415760003560e01c806372a1e3cc146100465780638c5a0dcc146100505780639b25b8421461005a575b600080fd5b61004e610076565b005b610058610080565b005b610074600480360381019061006f91906103d7565b61008a565b005b61007e610096565b565b610088610164565b565b610093816101e8565b50565b60006100a06102e8565b9050600015158160000160009054906101000a900460ff161515146100c457600080fd5b60018160000160006101000a81548160ff02191690831515021790555060018160020160000160006101000a81548160ff02191690831515021790555060018160060160000160006101000a81548160ff021916908315150217905550600181600a0160000160006101000a81548160ff021916908315150217905550600181600e0160000160006101000a81548160ff02191690831515021790555050565b600061016e610315565b905060005b81600001548110156101e457600082600201600083815260200190815260200160002060000154036101d157600082600201600083815260200190815260200160002060050160146101000a81548160ff0219169083151502179055505b80806101dc90610433565b915050610173565b5050565b60006101f2610342565b905060006101fe61036f565b905060328260030160008581526020019081526020016000206006016000828254610229919061047b565b9250508190555060328160010160003373ffffffffffffffffffffffffffffffffffffffff1673ffffffffffffffffffffffffffffffffffffffff1681526020019081526020016000206000828254610282919061047b565b925050819055506101f48160000160003373ffffffffffffffffffffffffffffffffffffffff1673ffffffffffffffffffffffffffffffffffffffff16815260200190815260200160002060008282546102dc919061047b565b92505081905550505050565b6000807f1b1c2350f60dba32e7a2436167ce3f8399cd1c51a95c8577f1448f53846d4cda90508091505090565b6000807f04526f5583fe9d24ceb7f2a6da4ee61654b9eae62f9918e0e123f84a139b105890508091505090565b6000807f3cab9a070a0c61cd0ae9d9e9e2c0781e5ca8691bec4087e5a4701d5ac018dd4e90508091505090565b6000807f2c89d74504b6ad8d4fbde22bc3474166bac5452a11195897f239d8bebe02d70790508091505090565b600080fd5b6000819050919050565b6103b4816103a1565b81146103bf57600080fd5b50565b6000813590506103d1816103ab565b92915050565b6000602082840312156103ed576103ec61039c565b5b60006103fb848285016103c2565b91505092915050565b7f4e487b7100000000000000000000000000000000000000000000000000000000600052601160045260246000fd5b600061043e826103a1565b91507fffffffffffffffffffffffffffffffffffffffffffffffffffffffffffffffff82036104705761046f610404565b5b600182019050919050565b6000610486826103a1565b9150610491836103a1565b92508282019050808211156104a9576104a8610404565b5b9291505056fea2646970667358221220ddd80a5f053af89fa43b526fd4ec769a16400064beb050f77fc08ccca864112f64736f6c63430008110033",
  "linkReferences": {},
  "deployedLinkReferences": {}
}