{"contracts/facets/ArenaFacet.sol":{"ArenaFacet":{"abi":[{"inputs":[],"stateMutability":"nonpayable","type":"constructor"},{"anonymous":false,"inputs":[{"indexed":true,"internalType":"address","name":"_owner","type":"address"},{"indexed":false,"internalType":"uint256","name":"_player","type":"uint256"}],"name":"ItemCrafted","type":"event"},{"inputs":[{"internalType":"uint256","name":"_playerId","type":"uint256"}],"name":"enterMagicArena","outputs":[],"stateMutability":"nonpayable","type":"function"},{"inputs":[{"internalType":"uint256","name":"_playerId","type":"uint256"}],"name":"enterMainArena","outputs":[],"stateMutability":"nonpayable","type":"function"},{"inputs":[{"internalType":"uint256","name":"_challengerId","type":"uint256"}],"name":"fightMagicArena","outputs":[],"stateMutability":"nonpayable","type":"function"},{"inputs":[{"internalType":"uint256","name":"_challengerId","type":"uint256"}],"name":"fightMainArena","outputs":[],"stateMutability":"nonpayable","type":"function"},{"inputs":[],"name":"getMagicArena","outputs":[{"internalType":"bool","name":"","type":"bool"}],"stateMutability":"view","type":"function"},{"inputs":[],"name":"getMainArena","outputs":[{"internalType":"bool","name":"","type":"bool"}],"stateMutability":"view","type":"function"},{"inputs":[],"name":"getSecondArena","outputs":[{"internalType":"bool","name":"","type":"bool"}],"stateMutability":"view","type":"function"},{"inputs":[],"name":"getThirdArena","outputs":[{"internalType":"bool","name":"","type":"bool"}],"stateMutability":"view","type":"function"}],"evm":{"bytecode":{"linkReferences":{},"object":"608060405234801561001057600080fd5b5061002361002860201b6101e11760201c565b6100ea565b60006100386100bd60201b60201c565b905060018160000160000160006101000a81548160ff02191690831515021790555060018160040160000160006101000a81548160ff02191690831515021790555060018160080160000160006101000a81548160ff021916908315150217905550600181600c0160000160006101000a81548160ff02191690831515021790555050565b6000807f1b1c2350f60dba32e7a2436167ce3f8399cd1c51a95c8577f1448f53846d4cda90508091505090565b61169a806100f96000396000f3fe608060405234801561001057600080fd5b50600436106100885760003560e01c8063e774c70d1161005b578063e774c70d14610101578063eb88ff8d1461011d578063f09914511461013b578063f66ae4351461015757610088565b8063042953231461008d5780634cc31ab5146100ab578063935abcf6146100c7578063ce02121f146100e5575b600080fd5b610095610175565b6040516100a291906112cf565b60405180910390f35b6100c560048036038101906100c09190611325565b610184565b005b6100cf610190565b6040516100dc91906112cf565b60405180910390f35b6100ff60048036038101906100fa9190611325565b61019f565b005b61011b60048036038101906101169190611325565b6101ab565b005b6101256101b7565b60405161013291906112cf565b60405180910390f35b61015560048036038101906101509190611325565b6101c6565b005b61015f6101d2565b60405161016c91906112cf565b60405180910390f35b600061017f610270565b905090565b61018d81610298565b50565b600061019a610270565b905090565b6101a8816106aa565b50565b6101b481610abc565b50565b60006101c1610270565b905090565b6101cf81610d3a565b50565b60006101dc610270565b905090565b60006101eb610fb8565b905060018160000160000160006101000a81548160ff02191690831515021790555060018160040160000160006101000a81548160ff02191690831515021790555060018160080160000160006101000a81548160ff021916908315150217905550600181600c0160000160006101000a81548160ff02191690831515021790555050565b60008061027b610fb8565b90508060000160000160009054906101000a900460ff1691505090565b60006102a2610fe5565b905060006102ae611012565b905060006102ba610fb8565b905080600c0160000160009054906101000a900460ff1615610311576040517f08c379a0000000000000000000000000000000000000000000000000000000008152600401610308906113af565b60405180910390fd5b60018260000160003373ffffffffffffffffffffffffffffffffffffffff1673ffffffffffffffffffffffffffffffffffffffff168152602001908152602001600020541015610396576040517f08c379a000000000000000000000000000000000000000000000000000000000815260040161038d9061141b565b60405180910390fd5b60006103a982600c01600101548661103f565b90508481036104ca5781601601600086815260200190815260200160002060008154809291906103d89061146a565b919050555081601801600086815260200190815260200160002060008154809291906104039061146a565b91905055508160170160008360000160010154815260200190815260200160002060008154809291906104359061146a565b91905055508160190160008360000160010154815260200190815260200160002060008154809291906104679061146a565b919050555060018360000160003373ffffffffffffffffffffffffffffffffffffffff1673ffffffffffffffffffffffffffffffffffffffff16815260200190815260200160002060008282546104be91906114b2565b9250508190555061065e565b8160160160008360000160010154815260200190815260200160002060008154809291906104f79061146a565b91905055508160180160008360000160010154815260200190815260200160002060008154809291906105299061146a565b919050555081601701600086815260200190815260200160002060008154809291906105549061146a565b9190505550816019016000868152602001908152602001600020600081548092919061057f9061146a565b919050555060028360000160008460000160030160009054906101000a900473ffffffffffffffffffffffffffffffffffffffff1673ffffffffffffffffffffffffffffffffffffffff1673ffffffffffffffffffffffffffffffffffffffff16815260200190815260200160002060008282546105fd91906114b2565b9250508190555060018360000160003373ffffffffffffffffffffffffffffffffffffffff1673ffffffffffffffffffffffffffffffffffffffff168152602001908152602001600020600082825461065691906114e6565b925050819055505b600182600c0160000160006101000a81548160ff021916908315150217905550600084600301600084600c01600101548152602001908152602001600020600201819055505050505050565b60006106b4610fe5565b905060006106c0611012565b905060006106cc610fb8565b90508060000160000160009054906101000a900460ff1615610723576040517f08c379a000000000000000000000000000000000000000000000000000000000815260040161071a906113af565b60405180910390fd5b60018260000160003373ffffffffffffffffffffffffffffffffffffffff1673ffffffffffffffffffffffffffffffffffffffff1681526020019081526020016000205410156107a8576040517f08c379a000000000000000000000000000000000000000000000000000000000815260040161079f9061141b565b60405180910390fd5b60006107bb82600001600101548661114d565b90508481036108dc5781601001600086815260200190815260200160002060008154809291906107ea9061146a565b919050555081601801600086815260200190815260200160002060008154809291906108159061146a565b91905055508160110160008360000160010154815260200190815260200160002060008154809291906108479061146a565b91905055508160190160008360000160010154815260200190815260200160002060008154809291906108799061146a565b919050555060018360000160003373ffffffffffffffffffffffffffffffffffffffff1673ffffffffffffffffffffffffffffffffffffffff16815260200190815260200160002060008282546108d091906114b2565b92505081905550610a70565b8160100160008360000160010154815260200190815260200160002060008154809291906109099061146a565b919050555081601801600083600001600101548152602001908152602001600020600081548092919061093b9061146a565b919050555081601101600086815260200190815260200160002060008154809291906109669061146a565b919050555081601901600086815260200190815260200160002060008154809291906109919061146a565b919050555060028360000160008460000160030160009054906101000a900473ffffffffffffffffffffffffffffffffffffffff1673ffffffffffffffffffffffffffffffffffffffff1673ffffffffffffffffffffffffffffffffffffffff1681526020019081526020016000206000828254610a0f91906114b2565b9250508190555060018360000160003373ffffffffffffffffffffffffffffffffffffffff1673ffffffffffffffffffffffffffffffffffffffff1681526020019081526020016000206000828254610a6891906114e6565b925050819055505b60018260000160000160006101000a81548160ff021916908315150217905550600084600301600084600001600101548152602001908152602001600020600201819055505050505050565b6000610ac6610fe5565b90506000610ad2611012565b90506000610ade610fb8565b90508060000160000160009054906101000a900460ff16610b34576040517f08c379a0000000000000000000000000000000000000000000000000000000008152600401610b2b90611566565b60405180910390fd5b60018260000160003373ffffffffffffffffffffffffffffffffffffffff1673ffffffffffffffffffffffffffffffffffffffff168152602001908152602001600020541015610bb9576040517f08c379a0000000000000000000000000000000000000000000000000000000008152600401610bb09061141b565b60405180910390fd5b60008360030160008681526020019081526020016000206002015414610bde57600080fd5b3373ffffffffffffffffffffffffffffffffffffffff1683600201600086815260200190815260200160002060009054906101000a900473ffffffffffffffffffffffffffffffffffffffff1673ffffffffffffffffffffffffffffffffffffffff1614610c4b57600080fd5b60018260000160003373ffffffffffffffffffffffffffffffffffffffff1673ffffffffffffffffffffffffffffffffffffffff1681526020019081526020016000206000828254610c9d91906114e6565b9250508190555060048360030160008681526020019081526020016000206002018190555060008160000160000160006101000a81548160ff021916908315150217905550838160000160010181905550338160000160030160006101000a81548173ffffffffffffffffffffffffffffffffffffffff021916908373ffffffffffffffffffffffffffffffffffffffff16021790555050505050565b6000610d44610fe5565b90506000610d50611012565b90506000610d5c610fb8565b905080600c0160000160009054906101000a900460ff16610db2576040517f08c379a0000000000000000000000000000000000000000000000000000000008152600401610da990611566565b60405180910390fd5b60018260000160003373ffffffffffffffffffffffffffffffffffffffff1673ffffffffffffffffffffffffffffffffffffffff168152602001908152602001600020541015610e37576040517f08c379a0000000000000000000000000000000000000000000000000000000008152600401610e2e9061141b565b60405180910390fd5b60008360030160008681526020019081526020016000206002015414610e5c57600080fd5b3373ffffffffffffffffffffffffffffffffffffffff1683600201600086815260200190815260200160002060009054906101000a900473ffffffffffffffffffffffffffffffffffffffff1673ffffffffffffffffffffffffffffffffffffffff1614610ec957600080fd5b60018260000160003373ffffffffffffffffffffffffffffffffffffffff1673ffffffffffffffffffffffffffffffffffffffff1681526020019081526020016000206000828254610f1b91906114e6565b92505081905550600483600301600086815260200190815260200160002060020181905550600081600c0160000160006101000a81548160ff0219169083151502179055508381600c01600101819055503381600c0160030160006101000a81548173ffffffffffffffffffffffffffffffffffffffff021916908373ffffffffffffffffffffffffffffffffffffffff16021790555050505050565b6000807f1b1c2350f60dba32e7a2436167ce3f8399cd1c51a95c8577f1448f53846d4cda90508091505090565b6000807f3cab9a070a0c61cd0ae9d9e9e2c0781e5ca8691bec4087e5a4701d5ac018dd4e90508091505090565b6000807f2c89d74504b6ad8d4fbde22bc3474166bac5452a11195897f239d8bebe02d70790508091505090565b60008061104a610fe5565b905060008160030160008681526020019081526020016000209050600082600301600086815260200190815260200160002090506000600461108b8761125b565b61109591906115b5565b82600501546110a491906115e6565b60056110af8961125b565b6110b991906115b5565b84600401546110c891906115e6565b6110d291906114e6565b9050600060056110e18961125b565b6110eb91906115b5565b84600501546110fa91906115e6565b60056111058961125b565b61110f91906115b5565b846004015461111e91906115e6565b61112891906114e6565b905080821061113e578795505050505050611147565b86955050505050505b92915050565b600080611158610fe5565b90506000816003016000868152602001908152602001600020905060008260030160008681526020019081526020016000209050600060046111998761125b565b6111a391906115b5565b82600301546111b291906115e6565b60056111bd8961125b565b6111c791906115b5565b84600401546111d691906115e6565b6111e091906114e6565b9050600060056111ef8961125b565b6111f991906115b5565b846003015461120891906115e6565b60056112138961125b565b61121d91906115b5565b846004015461122c91906115e6565b61123691906114e6565b905080821061124c578795505050505050611255565b86955050505050505b92915050565b600080611266610fe5565b90508281600101544261127991906114b2565b61128391906114b2565b6040516020016112939190611649565b6040516020818303038152906040528051906020012060001c915050919050565b60008115159050919050565b6112c9816112b4565b82525050565b60006020820190506112e460008301846112c0565b92915050565b600080fd5b6000819050919050565b611302816112ef565b811461130d57600080fd5b50565b60008135905061131f816112f9565b92915050565b60006020828403121561133b5761133a6112ea565b5b600061134984828501611310565b91505092915050565b600082825260208201905092915050565b7f6172656e6120697320656d707479000000000000000000000000000000000000600082015250565b6000611399600e83611352565b91506113a482611363565b602082019050919050565b600060208201905081810360008301526113c88161138c565b9050919050565b7f6e6f7420656e6f75676820676f6c640000000000000000000000000000000000600082015250565b6000611405600f83611352565b9150611410826113cf565b602082019050919050565b60006020820190508181036000830152611434816113f8565b9050919050565b7f4e487b7100000000000000000000000000000000000000000000000000000000600052601160045260246000fd5b6000611475826112ef565b91507fffffffffffffffffffffffffffffffffffffffffffffffffffffffffffffffff82036114a7576114a661143b565b5b600182019050919050565b60006114bd826112ef565b91506114c8836112ef565b92508282019050808211156114e0576114df61143b565b5b92915050565b60006114f1826112ef565b91506114fc836112ef565b92508282039050818111156115145761151361143b565b5b92915050565b7f6172656e6120697320636c6f7365640000000000000000000000000000000000600082015250565b6000611550600f83611352565b915061155b8261151a565b602082019050919050565b6000602082019050818103600083015261157f81611543565b9050919050565b7f4e487b7100000000000000000000000000000000000000000000000000000000600052601260045260246000fd5b60006115c0826112ef565b91506115cb836112ef565b9250826115db576115da611586565b5b828206905092915050565b60006115f1826112ef565b91506115fc836112ef565b925082820261160a816112ef565b915082820484148315176116215761162061143b565b5b5092915050565b6000819050919050565b61164361163e826112ef565b611628565b82525050565b60006116558284611632565b6020820191508190509291505056fea26469706673582212206591c16c031dbd0e079765ecf08f4068f85dd67f2fbb4ac628e3a310d15f291c64736f6c63430008110033","opcodes":"PUSH1 0x80 PUSH1 0x40 MSTORE CALLVALUE DUP1 ISZERO PUSH2 0x10 JUMPI PUSH1 0x0 DUP1 REVERT JUMPDEST POP PUSH2 0x23 PUSH2 0x28 PUSH1 0x20 SHL PUSH2 0x1E1 OR PUSH1 0x20 SHR JUMP JUMPDEST PUSH2 0xEA JUMP JUMPDEST PUSH1 0x0 PUSH2 0x38 PUSH2 0xBD PUSH1 0x20 SHL PUSH1 0x20 SHR JUMP JUMPDEST SWAP1 POP PUSH1 0x1 DUP2 PUSH1 0x0 ADD PUSH1 0x0 ADD PUSH1 0x0 PUSH2 0x100 EXP DUP2 SLOAD DUP2 PUSH1 0xFF MUL NOT AND SWAP1 DUP4 ISZERO ISZERO MUL OR SWAP1 SSTORE POP PUSH1 0x1 DUP2 PUSH1 0x4 ADD PUSH1 0x0 ADD PUSH1 0x0 PUSH2 0x100 EXP DUP2 SLOAD DUP2 PUSH1 0xFF MUL NOT AND SWAP1 DUP4 ISZERO ISZERO MUL OR SWAP1 SSTORE POP PUSH1 0x1 DUP2 PUSH1 0x8 ADD PUSH1 0x0 ADD PUSH1 0x0 PUSH2 0x100 EXP DUP2 SLOAD DUP2 PUSH1 0xFF MUL NOT AND SWAP1 DUP4 ISZERO ISZERO MUL OR SWAP1 SSTORE POP PUSH1 0x1 DUP2 PUSH1 0xC ADD PUSH1 0x0 ADD PUSH1 0x0 PUSH2 0x100 EXP DUP2 SLOAD DUP2 PUSH1 0xFF MUL NOT AND SWAP1 DUP4 ISZERO ISZERO MUL OR SWAP1 SSTORE POP POP JUMP JUMPDEST PUSH1 0x0 DUP1 PUSH32 0x1B1C2350F60DBA32E7A2436167CE3F8399CD1C51A95C8577F1448F53846D4CDA SWAP1 POP DUP1 SWAP2 POP POP SWAP1 JUMP JUMPDEST PUSH2 0x169A DUP1 PUSH2 0xF9 PUSH1 0x0 CODECOPY PUSH1 0x0 RETURN INVALID PUSH1 0x80 PUSH1 0x40 MSTORE CALLVALUE DUP1 ISZERO PUSH2 0x10 JUMPI PUSH1 0x0 DUP1 REVERT JUMPDEST POP PUSH1 0x4 CALLDATASIZE LT PUSH2 0x88 JUMPI PUSH1 0x0 CALLDATALOAD PUSH1 0xE0 SHR DUP1 PUSH4 0xE774C70D GT PUSH2 0x5B JUMPI DUP1 PUSH4 0xE774C70D EQ PUSH2 0x101 JUMPI DUP1 PUSH4 0xEB88FF8D EQ PUSH2 0x11D JUMPI DUP1 PUSH4 0xF0991451 EQ PUSH2 0x13B JUMPI DUP1 PUSH4 0xF66AE435 EQ PUSH2 0x157 JUMPI PUSH2 0x88 JUMP JUMPDEST DUP1 PUSH4 0x4295323 EQ PUSH2 0x8D JUMPI DUP1 PUSH4 0x4CC31AB5 EQ PUSH2 0xAB JUMPI DUP1 PUSH4 0x935ABCF6 EQ PUSH2 0xC7 JUMPI DUP1 PUSH4 0xCE02121F EQ PUSH2 0xE5 JUMPI JUMPDEST PUSH1 0x0 DUP1 REVERT JUMPDEST PUSH2 0x95 PUSH2 0x175 JUMP JUMPDEST PUSH1 0x40 MLOAD PUSH2 0xA2 SWAP2 SWAP1 PUSH2 0x12CF JUMP JUMPDEST PUSH1 0x40 MLOAD DUP1 SWAP2 SUB SWAP1 RETURN JUMPDEST PUSH2 0xC5 PUSH1 0x4 DUP1 CALLDATASIZE SUB DUP2 ADD SWAP1 PUSH2 0xC0 SWAP2 SWAP1 PUSH2 0x1325 JUMP JUMPDEST PUSH2 0x184 JUMP JUMPDEST STOP JUMPDEST PUSH2 0xCF PUSH2 0x190 JUMP JUMPDEST PUSH1 0x40 MLOAD PUSH2 0xDC SWAP2 SWAP1 PUSH2 0x12CF JUMP JUMPDEST PUSH1 0x40 MLOAD DUP1 SWAP2 SUB SWAP1 RETURN JUMPDEST PUSH2 0xFF PUSH1 0x4 DUP1 CALLDATASIZE SUB DUP2 ADD SWAP1 PUSH2 0xFA SWAP2 SWAP1 PUSH2 0x1325 JUMP JUMPDEST PUSH2 0x19F JUMP JUMPDEST STOP JUMPDEST PUSH2 0x11B PUSH1 0x4 DUP1 CALLDATASIZE SUB DUP2 ADD SWAP1 PUSH2 0x116 SWAP2 SWAP1 PUSH2 0x1325 JUMP JUMPDEST PUSH2 0x1AB JUMP JUMPDEST STOP JUMPDEST PUSH2 0x125 PUSH2 0x1B7 JUMP JUMPDEST PUSH1 0x40 MLOAD PUSH2 0x132 SWAP2 SWAP1 PUSH2 0x12CF JUMP JUMPDEST PUSH1 0x40 MLOAD DUP1 SWAP2 SUB SWAP1 RETURN JUMPDEST PUSH2 0x155 PUSH1 0x4 DUP1 CALLDATASIZE SUB DUP2 ADD SWAP1 PUSH2 0x150 SWAP2 SWAP1 PUSH2 0x1325 JUMP JUMPDEST PUSH2 0x1C6 JUMP JUMPDEST STOP JUMPDEST PUSH2 0x15F PUSH2 0x1D2 JUMP JUMPDEST PUSH1 0x40 MLOAD PUSH2 0x16C SWAP2 SWAP1 PUSH2 0x12CF JUMP JUMPDEST PUSH1 0x40 MLOAD DUP1 SWAP2 SUB SWAP1 RETURN JUMPDEST PUSH1 0x0 PUSH2 0x17F PUSH2 0x270 JUMP JUMPDEST SWAP1 POP SWAP1 JUMP JUMPDEST PUSH2 0x18D DUP2 PUSH2 0x298 JUMP JUMPDEST POP JUMP JUMPDEST PUSH1 0x0 PUSH2 0x19A PUSH2 0x270 JUMP JUMPDEST SWAP1 POP SWAP1 JUMP JUMPDEST PUSH2 0x1A8 DUP2 PUSH2 0x6AA JUMP JUMPDEST POP JUMP JUMPDEST PUSH2 0x1B4 DUP2 PUSH2 0xABC JUMP JUMPDEST POP JUMP JUMPDEST PUSH1 0x0 PUSH2 0x1C1 PUSH2 0x270 JUMP JUMPDEST SWAP1 POP SWAP1 JUMP JUMPDEST PUSH2 0x1CF DUP2 PUSH2 0xD3A JUMP JUMPDEST POP JUMP JUMPDEST PUSH1 0x0 PUSH2 0x1DC PUSH2 0x270 JUMP JUMPDEST SWAP1 POP SWAP1 JUMP JUMPDEST PUSH1 0x0 PUSH2 0x1EB PUSH2 0xFB8 JUMP JUMPDEST SWAP1 POP PUSH1 0x1 DUP2 PUSH1 0x0 ADD PUSH1 0x0 ADD PUSH1 0x0 PUSH2 0x100 EXP DUP2 SLOAD DUP2 PUSH1 0xFF MUL NOT AND SWAP1 DUP4 ISZERO ISZERO MUL OR SWAP1 SSTORE POP PUSH1 0x1 DUP2 PUSH1 0x4 ADD PUSH1 0x0 ADD PUSH1 0x0 PUSH2 0x100 EXP DUP2 SLOAD DUP2 PUSH1 0xFF MUL NOT AND SWAP1 DUP4 ISZERO ISZERO MUL OR SWAP1 SSTORE POP PUSH1 0x1 DUP2 PUSH1 0x8 ADD PUSH1 0x0 ADD PUSH1 0x0 PUSH2 0x100 EXP DUP2 SLOAD DUP2 PUSH1 0xFF MUL NOT AND SWAP1 DUP4 ISZERO ISZERO MUL OR SWAP1 SSTORE POP PUSH1 0x1 DUP2 PUSH1 0xC ADD PUSH1 0x0 ADD PUSH1 0x0 PUSH2 0x100 EXP DUP2 SLOAD DUP2 PUSH1 0xFF MUL NOT AND SWAP1 DUP4 ISZERO ISZERO MUL OR SWAP1 SSTORE POP POP JUMP JUMPDEST PUSH1 0x0 DUP1 PUSH2 0x27B PUSH2 0xFB8 JUMP JUMPDEST SWAP1 POP DUP1 PUSH1 0x0 ADD PUSH1 0x0 ADD PUSH1 0x0 SWAP1 SLOAD SWAP1 PUSH2 0x100 EXP SWAP1 DIV PUSH1 0xFF AND SWAP2 POP POP SWAP1 JUMP JUMPDEST PUSH1 0x0 PUSH2 0x2A2 PUSH2 0xFE5 JUMP JUMPDEST SWAP1 POP PUSH1 0x0 PUSH2 0x2AE PUSH2 0x1012 JUMP JUMPDEST SWAP1 POP PUSH1 0x0 PUSH2 0x2BA PUSH2 0xFB8 JUMP JUMPDEST SWAP1 POP DUP1 PUSH1 0xC ADD PUSH1 0x0 ADD PUSH1 0x0 SWAP1 SLOAD SWAP1 PUSH2 0x100 EXP SWAP1 DIV PUSH1 0xFF AND ISZERO PUSH2 0x311 JUMPI PUSH1 0x40 MLOAD PUSH32 0x8C379A000000000000000000000000000000000000000000000000000000000 DUP2 MSTORE PUSH1 0x4 ADD PUSH2 0x308 SWAP1 PUSH2 0x13AF JUMP JUMPDEST PUSH1 0x40 MLOAD DUP1 SWAP2 SUB SWAP1 REVERT JUMPDEST PUSH1 0x1 DUP3 PUSH1 0x0 ADD PUSH1 0x0 CALLER PUSH20 0xFFFFFFFFFFFFFFFFFFFFFFFFFFFFFFFFFFFFFFFF AND PUSH20 0xFFFFFFFFFFFFFFFFFFFFFFFFFFFFFFFFFFFFFFFF AND DUP2 MSTORE PUSH1 0x20 ADD SWAP1 DUP2 MSTORE PUSH1 0x20 ADD PUSH1 0x0 KECCAK256 SLOAD LT ISZERO PUSH2 0x396 JUMPI PUSH1 0x40 MLOAD PUSH32 0x8C379A000000000000000000000000000000000000000000000000000000000 DUP2 MSTORE PUSH1 0x4 ADD PUSH2 0x38D SWAP1 PUSH2 0x141B JUMP JUMPDEST PUSH1 0x40 MLOAD DUP1 SWAP2 SUB SWAP1 REVERT JUMPDEST PUSH1 0x0 PUSH2 0x3A9 DUP3 PUSH1 0xC ADD PUSH1 0x1 ADD SLOAD DUP7 PUSH2 0x103F JUMP JUMPDEST SWAP1 POP DUP5 DUP2 SUB PUSH2 0x4CA JUMPI DUP2 PUSH1 0x16 ADD PUSH1 0x0 DUP7 DUP2 MSTORE PUSH1 0x20 ADD SWAP1 DUP2 MSTORE PUSH1 0x20 ADD PUSH1 0x0 KECCAK256 PUSH1 0x0 DUP2 SLOAD DUP1 SWAP3 SWAP2 SWAP1 PUSH2 0x3D8 SWAP1 PUSH2 0x146A JUMP JUMPDEST SWAP2 SWAP1 POP SSTORE POP DUP2 PUSH1 0x18 ADD PUSH1 0x0 DUP7 DUP2 MSTORE PUSH1 0x20 ADD SWAP1 DUP2 MSTORE PUSH1 0x20 ADD PUSH1 0x0 KECCAK256 PUSH1 0x0 DUP2 SLOAD DUP1 SWAP3 SWAP2 SWAP1 PUSH2 0x403 SWAP1 PUSH2 0x146A JUMP JUMPDEST SWAP2 SWAP1 POP SSTORE POP DUP2 PUSH1 0x17 ADD PUSH1 0x0 DUP4 PUSH1 0x0 ADD PUSH1 0x1 ADD SLOAD DUP2 MSTORE PUSH1 0x20 ADD SWAP1 DUP2 MSTORE PUSH1 0x20 ADD PUSH1 0x0 KECCAK256 PUSH1 0x0 DUP2 SLOAD DUP1 SWAP3 SWAP2 SWAP1 PUSH2 0x435 SWAP1 PUSH2 0x146A JUMP JUMPDEST SWAP2 SWAP1 POP SSTORE POP DUP2 PUSH1 0x19 ADD PUSH1 0x0 DUP4 PUSH1 0x0 ADD PUSH1 0x1 ADD SLOAD DUP2 MSTORE PUSH1 0x20 ADD SWAP1 DUP2 MSTORE PUSH1 0x20 ADD PUSH1 0x0 KECCAK256 PUSH1 0x0 DUP2 SLOAD DUP1 SWAP3 SWAP2 SWAP1 PUSH2 0x467 SWAP1 PUSH2 0x146A JUMP JUMPDEST SWAP2 SWAP1 POP SSTORE POP PUSH1 0x1 DUP4 PUSH1 0x0 ADD PUSH1 0x0 CALLER PUSH20 0xFFFFFFFFFFFFFFFFFFFFFFFFFFFFFFFFFFFFFFFF AND PUSH20 0xFFFFFFFFFFFFFFFFFFFFFFFFFFFFFFFFFFFFFFFF AND DUP2 MSTORE PUSH1 0x20 ADD SWAP1 DUP2 MSTORE PUSH1 0x20 ADD PUSH1 0x0 KECCAK256 PUSH1 0x0 DUP3 DUP3 SLOAD PUSH2 0x4BE SWAP2 SWAP1 PUSH2 0x14B2 JUMP JUMPDEST SWAP3 POP POP DUP2 SWAP1 SSTORE POP PUSH2 0x65E JUMP JUMPDEST DUP2 PUSH1 0x16 ADD PUSH1 0x0 DUP4 PUSH1 0x0 ADD PUSH1 0x1 ADD SLOAD DUP2 MSTORE PUSH1 0x20 ADD SWAP1 DUP2 MSTORE PUSH1 0x20 ADD PUSH1 0x0 KECCAK256 PUSH1 0x0 DUP2 SLOAD DUP1 SWAP3 SWAP2 SWAP1 PUSH2 0x4F7 SWAP1 PUSH2 0x146A JUMP JUMPDEST SWAP2 SWAP1 POP SSTORE POP DUP2 PUSH1 0x18 ADD PUSH1 0x0 DUP4 PUSH1 0x0 ADD PUSH1 0x1 ADD SLOAD DUP2 MSTORE PUSH1 0x20 ADD SWAP1 DUP2 MSTORE PUSH1 0x20 ADD PUSH1 0x0 KECCAK256 PUSH1 0x0 DUP2 SLOAD DUP1 SWAP3 SWAP2 SWAP1 PUSH2 0x529 SWAP1 PUSH2 0x146A JUMP JUMPDEST SWAP2 SWAP1 POP SSTORE POP DUP2 PUSH1 0x17 ADD PUSH1 0x0 DUP7 DUP2 MSTORE PUSH1 0x20 ADD SWAP1 DUP2 MSTORE PUSH1 0x20 ADD PUSH1 0x0 KECCAK256 PUSH1 0x0 DUP2 SLOAD DUP1 SWAP3 SWAP2 SWAP1 PUSH2 0x554 SWAP1 PUSH2 0x146A JUMP JUMPDEST SWAP2 SWAP1 POP SSTORE POP DUP2 PUSH1 0x19 ADD PUSH1 0x0 DUP7 DUP2 MSTORE PUSH1 0x20 ADD SWAP1 DUP2 MSTORE PUSH1 0x20 ADD PUSH1 0x0 KECCAK256 PUSH1 0x0 DUP2 SLOAD DUP1 SWAP3 SWAP2 SWAP1 PUSH2 0x57F SWAP1 PUSH2 0x146A JUMP JUMPDEST SWAP2 SWAP1 POP SSTORE POP PUSH1 0x2 DUP4 PUSH1 0x0 ADD PUSH1 0x0 DUP5 PUSH1 0x0 ADD PUSH1 0x3 ADD PUSH1 0x0 SWAP1 SLOAD SWAP1 PUSH2 0x100 EXP SWAP1 DIV PUSH20 0xFFFFFFFFFFFFFFFFFFFFFFFFFFFFFFFFFFFFFFFF AND PUSH20 0xFFFFFFFFFFFFFFFFFFFFFFFFFFFFFFFFFFFFFFFF AND PUSH20 0xFFFFFFFFFFFFFFFFFFFFFFFFFFFFFFFFFFFFFFFF AND DUP2 MSTORE PUSH1 0x20 ADD SWAP1 DUP2 MSTORE PUSH1 0x20 ADD PUSH1 0x0 KECCAK256 PUSH1 0x0 DUP3 DUP3 SLOAD PUSH2 0x5FD SWAP2 SWAP1 PUSH2 0x14B2 JUMP JUMPDEST SWAP3 POP POP DUP2 SWAP1 SSTORE POP PUSH1 0x1 DUP4 PUSH1 0x0 ADD PUSH1 0x0 CALLER PUSH20 0xFFFFFFFFFFFFFFFFFFFFFFFFFFFFFFFFFFFFFFFF AND PUSH20 0xFFFFFFFFFFFFFFFFFFFFFFFFFFFFFFFFFFFFFFFF AND DUP2 MSTORE PUSH1 0x20 ADD SWAP1 DUP2 MSTORE PUSH1 0x20 ADD PUSH1 0x0 KECCAK256 PUSH1 0x0 DUP3 DUP3 SLOAD PUSH2 0x656 SWAP2 SWAP1 PUSH2 0x14E6 JUMP JUMPDEST SWAP3 POP POP DUP2 SWAP1 SSTORE POP JUMPDEST PUSH1 0x1 DUP3 PUSH1 0xC ADD PUSH1 0x0 ADD PUSH1 0x0 PUSH2 0x100 EXP DUP2 SLOAD DUP2 PUSH1 0xFF MUL NOT AND SWAP1 DUP4 ISZERO ISZERO MUL OR SWAP1 SSTORE POP PUSH1 0x0 DUP5 PUSH1 0x3 ADD PUSH1 0x0 DUP5 PUSH1 0xC ADD PUSH1 0x1 ADD SLOAD DUP2 MSTORE PUSH1 0x20 ADD SWAP1 DUP2 MSTORE PUSH1 0x20 ADD PUSH1 0x0 KECCAK256 PUSH1 0x2 ADD DUP2 SWAP1 SSTORE POP POP POP POP POP POP JUMP JUMPDEST PUSH1 0x0 PUSH2 0x6B4 PUSH2 0xFE5 JUMP JUMPDEST SWAP1 POP PUSH1 0x0 PUSH2 0x6C0 PUSH2 0x1012 JUMP JUMPDEST SWAP1 POP PUSH1 0x0 PUSH2 0x6CC PUSH2 0xFB8 JUMP JUMPDEST SWAP1 POP DUP1 PUSH1 0x0 ADD PUSH1 0x0 ADD PUSH1 0x0 SWAP1 SLOAD SWAP1 PUSH2 0x100 EXP SWAP1 DIV PUSH1 0xFF AND ISZERO PUSH2 0x723 JUMPI PUSH1 0x40 MLOAD PUSH32 0x8C379A000000000000000000000000000000000000000000000000000000000 DUP2 MSTORE PUSH1 0x4 ADD PUSH2 0x71A SWAP1 PUSH2 0x13AF JUMP JUMPDEST PUSH1 0x40 MLOAD DUP1 SWAP2 SUB SWAP1 REVERT JUMPDEST PUSH1 0x1 DUP3 PUSH1 0x0 ADD PUSH1 0x0 CALLER PUSH20 0xFFFFFFFFFFFFFFFFFFFFFFFFFFFFFFFFFFFFFFFF AND PUSH20 0xFFFFFFFFFFFFFFFFFFFFFFFFFFFFFFFFFFFFFFFF AND DUP2 MSTORE PUSH1 0x20 ADD SWAP1 DUP2 MSTORE PUSH1 0x20 ADD PUSH1 0x0 KECCAK256 SLOAD LT ISZERO PUSH2 0x7A8 JUMPI PUSH1 0x40 MLOAD PUSH32 0x8C379A000000000000000000000000000000000000000000000000000000000 DUP2 MSTORE PUSH1 0x4 ADD PUSH2 0x79F SWAP1 PUSH2 0x141B JUMP JUMPDEST PUSH1 0x40 MLOAD DUP1 SWAP2 SUB SWAP1 REVERT JUMPDEST PUSH1 0x0 PUSH2 0x7BB DUP3 PUSH1 0x0 ADD PUSH1 0x1 ADD SLOAD DUP7 PUSH2 0x114D JUMP JUMPDEST SWAP1 POP DUP5 DUP2 SUB PUSH2 0x8DC JUMPI DUP2 PUSH1 0x10 ADD PUSH1 0x0 DUP7 DUP2 MSTORE PUSH1 0x20 ADD SWAP1 DUP2 MSTORE PUSH1 0x20 ADD PUSH1 0x0 KECCAK256 PUSH1 0x0 DUP2 SLOAD DUP1 SWAP3 SWAP2 SWAP1 PUSH2 0x7EA SWAP1 PUSH2 0x146A JUMP JUMPDEST SWAP2 SWAP1 POP SSTORE POP DUP2 PUSH1 0x18 ADD PUSH1 0x0 DUP7 DUP2 MSTORE PUSH1 0x20 ADD SWAP1 DUP2 MSTORE PUSH1 0x20 ADD PUSH1 0x0 KECCAK256 PUSH1 0x0 DUP2 SLOAD DUP1 SWAP3 SWAP2 SWAP1 PUSH2 0x815 SWAP1 PUSH2 0x146A JUMP JUMPDEST SWAP2 SWAP1 POP SSTORE POP DUP2 PUSH1 0x11 ADD PUSH1 0x0 DUP4 PUSH1 0x0 ADD PUSH1 0x1 ADD SLOAD DUP2 MSTORE PUSH1 0x20 ADD SWAP1 DUP2 MSTORE PUSH1 0x20 ADD PUSH1 0x0 KECCAK256 PUSH1 0x0 DUP2 SLOAD DUP1 SWAP3 SWAP2 SWAP1 PUSH2 0x847 SWAP1 PUSH2 0x146A JUMP JUMPDEST SWAP2 SWAP1 POP SSTORE POP DUP2 PUSH1 0x19 ADD PUSH1 0x0 DUP4 PUSH1 0x0 ADD PUSH1 0x1 ADD SLOAD DUP2 MSTORE PUSH1 0x20 ADD SWAP1 DUP2 MSTORE PUSH1 0x20 ADD PUSH1 0x0 KECCAK256 PUSH1 0x0 DUP2 SLOAD DUP1 SWAP3 SWAP2 SWAP1 PUSH2 0x879 SWAP1 PUSH2 0x146A JUMP JUMPDEST SWAP2 SWAP1 POP SSTORE POP PUSH1 0x1 DUP4 PUSH1 0x0 ADD PUSH1 0x0 CALLER PUSH20 0xFFFFFFFFFFFFFFFFFFFFFFFFFFFFFFFFFFFFFFFF AND PUSH20 0xFFFFFFFFFFFFFFFFFFFFFFFFFFFFFFFFFFFFFFFF AND DUP2 MSTORE PUSH1 0x20 ADD SWAP1 DUP2 MSTORE PUSH1 0x20 ADD PUSH1 0x0 KECCAK256 PUSH1 0x0 DUP3 DUP3 SLOAD PUSH2 0x8D0 SWAP2 SWAP1 PUSH2 0x14B2 JUMP JUMPDEST SWAP3 POP POP DUP2 SWAP1 SSTORE POP PUSH2 0xA70 JUMP JUMPDEST DUP2 PUSH1 0x10 ADD PUSH1 0x0 DUP4 PUSH1 0x0 ADD PUSH1 0x1 ADD SLOAD DUP2 MSTORE PUSH1 0x20 ADD SWAP1 DUP2 MSTORE PUSH1 0x20 ADD PUSH1 0x0 KECCAK256 PUSH1 0x0 DUP2 SLOAD DUP1 SWAP3 SWAP2 SWAP1 PUSH2 0x909 SWAP1 PUSH2 0x146A JUMP JUMPDEST SWAP2 SWAP1 POP SSTORE POP DUP2 PUSH1 0x18 ADD PUSH1 0x0 DUP4 PUSH1 0x0 ADD PUSH1 0x1 ADD SLOAD DUP2 MSTORE PUSH1 0x20 ADD SWAP1 DUP2 MSTORE PUSH1 0x20 ADD PUSH1 0x0 KECCAK256 PUSH1 0x0 DUP2 SLOAD DUP1 SWAP3 SWAP2 SWAP1 PUSH2 0x93B SWAP1 PUSH2 0x146A JUMP JUMPDEST SWAP2 SWAP1 POP SSTORE POP DUP2 PUSH1 0x11 ADD PUSH1 0x0 DUP7 DUP2 MSTORE PUSH1 0x20 ADD SWAP1 DUP2 MSTORE PUSH1 0x20 ADD PUSH1 0x0 KECCAK256 PUSH1 0x0 DUP2 SLOAD DUP1 SWAP3 SWAP2 SWAP1 PUSH2 0x966 SWAP1 PUSH2 0x146A JUMP JUMPDEST SWAP2 SWAP1 POP SSTORE POP DUP2 PUSH1 0x19 ADD PUSH1 0x0 DUP7 DUP2 MSTORE PUSH1 0x20 ADD SWAP1 DUP2 MSTORE PUSH1 0x20 ADD PUSH1 0x0 KECCAK256 PUSH1 0x0 DUP2 SLOAD DUP1 SWAP3 SWAP2 SWAP1 PUSH2 0x991 SWAP1 PUSH2 0x146A JUMP JUMPDEST SWAP2 SWAP1 POP SSTORE POP PUSH1 0x2 DUP4 PUSH1 0x0 ADD PUSH1 0x0 DUP5 PUSH1 0x0 ADD PUSH1 0x3 ADD PUSH1 0x0 SWAP1 SLOAD SWAP1 PUSH2 0x100 EXP SWAP1 DIV PUSH20 0xFFFFFFFFFFFFFFFFFFFFFFFFFFFFFFFFFFFFFFFF AND PUSH20 0xFFFFFFFFFFFFFFFFFFFFFFFFFFFFFFFFFFFFFFFF AND PUSH20 0xFFFFFFFFFFFFFFFFFFFFFFFFFFFFFFFFFFFFFFFF AND DUP2 MSTORE PUSH1 0x20 ADD SWAP1 DUP2 MSTORE PUSH1 0x20 ADD PUSH1 0x0 KECCAK256 PUSH1 0x0 DUP3 DUP3 SLOAD PUSH2 0xA0F SWAP2 SWAP1 PUSH2 0x14B2 JUMP JUMPDEST SWAP3 POP POP DUP2 SWAP1 SSTORE POP PUSH1 0x1 DUP4 PUSH1 0x0 ADD PUSH1 0x0 CALLER PUSH20 0xFFFFFFFFFFFFFFFFFFFFFFFFFFFFFFFFFFFFFFFF AND PUSH20 0xFFFFFFFFFFFFFFFFFFFFFFFFFFFFFFFFFFFFFFFF AND DUP2 MSTORE PUSH1 0x20 ADD SWAP1 DUP2 MSTORE PUSH1 0x20 ADD PUSH1 0x0 KECCAK256 PUSH1 0x0 DUP3 DUP3 SLOAD PUSH2 0xA68 SWAP2 SWAP1 PUSH2 0x14E6 JUMP JUMPDEST SWAP3 POP POP DUP2 SWAP1 SSTORE POP JUMPDEST PUSH1 0x1 DUP3 PUSH1 0x0 ADD PUSH1 0x0 ADD PUSH1 0x0 PUSH2 0x100 EXP DUP2 SLOAD DUP2 PUSH1 0xFF MUL NOT AND SWAP1 DUP4 ISZERO ISZERO MUL OR SWAP1 SSTORE POP PUSH1 0x0 DUP5 PUSH1 0x3 ADD PUSH1 0x0 DUP5 PUSH1 0x0 ADD PUSH1 0x1 ADD SLOAD DUP2 MSTORE PUSH1 0x20 ADD SWAP1 DUP2 MSTORE PUSH1 0x20 ADD PUSH1 0x0 KECCAK256 PUSH1 0x2 ADD DUP2 SWAP1 SSTORE POP POP POP POP POP POP JUMP JUMPDEST PUSH1 0x0 PUSH2 0xAC6 PUSH2 0xFE5 JUMP JUMPDEST SWAP1 POP PUSH1 0x0 PUSH2 0xAD2 PUSH2 0x1012 JUMP JUMPDEST SWAP1 POP PUSH1 0x0 PUSH2 0xADE PUSH2 0xFB8 JUMP JUMPDEST SWAP1 POP DUP1 PUSH1 0x0 ADD PUSH1 0x0 ADD PUSH1 0x0 SWAP1 SLOAD SWAP1 PUSH2 0x100 EXP SWAP1 DIV PUSH1 0xFF AND PUSH2 0xB34 JUMPI PUSH1 0x40 MLOAD PUSH32 0x8C379A000000000000000000000000000000000000000000000000000000000 DUP2 MSTORE PUSH1 0x4 ADD PUSH2 0xB2B SWAP1 PUSH2 0x1566 JUMP JUMPDEST PUSH1 0x40 MLOAD DUP1 SWAP2 SUB SWAP1 REVERT JUMPDEST PUSH1 0x1 DUP3 PUSH1 0x0 ADD PUSH1 0x0 CALLER PUSH20 0xFFFFFFFFFFFFFFFFFFFFFFFFFFFFFFFFFFFFFFFF AND PUSH20 0xFFFFFFFFFFFFFFFFFFFFFFFFFFFFFFFFFFFFFFFF AND DUP2 MSTORE PUSH1 0x20 ADD SWAP1 DUP2 MSTORE PUSH1 0x20 ADD PUSH1 0x0 KECCAK256 SLOAD LT ISZERO PUSH2 0xBB9 JUMPI PUSH1 0x40 MLOAD PUSH32 0x8C379A000000000000000000000000000000000000000000000000000000000 DUP2 MSTORE PUSH1 0x4 ADD PUSH2 0xBB0 SWAP1 PUSH2 0x141B JUMP JUMPDEST PUSH1 0x40 MLOAD DUP1 SWAP2 SUB SWAP1 REVERT JUMPDEST PUSH1 0x0 DUP4 PUSH1 0x3 ADD PUSH1 0x0 DUP7 DUP2 MSTORE PUSH1 0x20 ADD SWAP1 DUP2 MSTORE PUSH1 0x20 ADD PUSH1 0x0 KECCAK256 PUSH1 0x2 ADD SLOAD EQ PUSH2 0xBDE JUMPI PUSH1 0x0 DUP1 REVERT JUMPDEST CALLER PUSH20 0xFFFFFFFFFFFFFFFFFFFFFFFFFFFFFFFFFFFFFFFF AND DUP4 PUSH1 0x2 ADD PUSH1 0x0 DUP7 DUP2 MSTORE PUSH1 0x20 ADD SWAP1 DUP2 MSTORE PUSH1 0x20 ADD PUSH1 0x0 KECCAK256 PUSH1 0x0 SWAP1 SLOAD SWAP1 PUSH2 0x100 EXP SWAP1 DIV PUSH20 0xFFFFFFFFFFFFFFFFFFFFFFFFFFFFFFFFFFFFFFFF AND PUSH20 0xFFFFFFFFFFFFFFFFFFFFFFFFFFFFFFFFFFFFFFFF AND EQ PUSH2 0xC4B JUMPI PUSH1 0x0 DUP1 REVERT JUMPDEST PUSH1 0x1 DUP3 PUSH1 0x0 ADD PUSH1 0x0 CALLER PUSH20 0xFFFFFFFFFFFFFFFFFFFFFFFFFFFFFFFFFFFFFFFF AND PUSH20 0xFFFFFFFFFFFFFFFFFFFFFFFFFFFFFFFFFFFFFFFF AND DUP2 MSTORE PUSH1 0x20 ADD SWAP1 DUP2 MSTORE PUSH1 0x20 ADD PUSH1 0x0 KECCAK256 PUSH1 0x0 DUP3 DUP3 SLOAD PUSH2 0xC9D SWAP2 SWAP1 PUSH2 0x14E6 JUMP JUMPDEST SWAP3 POP POP DUP2 SWAP1 SSTORE POP PUSH1 0x4 DUP4 PUSH1 0x3 ADD PUSH1 0x0 DUP7 DUP2 MSTORE PUSH1 0x20 ADD SWAP1 DUP2 MSTORE PUSH1 0x20 ADD PUSH1 0x0 KECCAK256 PUSH1 0x2 ADD DUP2 SWAP1 SSTORE POP PUSH1 0x0 DUP2 PUSH1 0x0 ADD PUSH1 0x0 ADD PUSH1 0x0 PUSH2 0x100 EXP DUP2 SLOAD DUP2 PUSH1 0xFF MUL NOT AND SWAP1 DUP4 ISZERO ISZERO MUL OR SWAP1 SSTORE POP DUP4 DUP2 PUSH1 0x0 ADD PUSH1 0x1 ADD DUP2 SWAP1 SSTORE POP CALLER DUP2 PUSH1 0x0 ADD PUSH1 0x3 ADD PUSH1 0x0 PUSH2 0x100 EXP DUP2 SLOAD DUP2 PUSH20 0xFFFFFFFFFFFFFFFFFFFFFFFFFFFFFFFFFFFFFFFF MUL NOT AND SWAP1 DUP4 PUSH20 0xFFFFFFFFFFFFFFFFFFFFFFFFFFFFFFFFFFFFFFFF AND MUL OR SWAP1 SSTORE POP POP POP POP POP JUMP JUMPDEST PUSH1 0x0 PUSH2 0xD44 PUSH2 0xFE5 JUMP JUMPDEST SWAP1 POP PUSH1 0x0 PUSH2 0xD50 PUSH2 0x1012 JUMP JUMPDEST SWAP1 POP PUSH1 0x0 PUSH2 0xD5C PUSH2 0xFB8 JUMP JUMPDEST SWAP1 POP DUP1 PUSH1 0xC ADD PUSH1 0x0 ADD PUSH1 0x0 SWAP1 SLOAD SWAP1 PUSH2 0x100 EXP SWAP1 DIV PUSH1 0xFF AND PUSH2 0xDB2 JUMPI PUSH1 0x40 MLOAD PUSH32 0x8C379A000000000000000000000000000000000000000000000000000000000 DUP2 MSTORE PUSH1 0x4 ADD PUSH2 0xDA9 SWAP1 PUSH2 0x1566 JUMP JUMPDEST PUSH1 0x40 MLOAD DUP1 SWAP2 SUB SWAP1 REVERT JUMPDEST PUSH1 0x1 DUP3 PUSH1 0x0 ADD PUSH1 0x0 CALLER PUSH20 0xFFFFFFFFFFFFFFFFFFFFFFFFFFFFFFFFFFFFFFFF AND PUSH20 0xFFFFFFFFFFFFFFFFFFFFFFFFFFFFFFFFFFFFFFFF AND DUP2 MSTORE PUSH1 0x20 ADD SWAP1 DUP2 MSTORE PUSH1 0x20 ADD PUSH1 0x0 KECCAK256 SLOAD LT ISZERO PUSH2 0xE37 JUMPI PUSH1 0x40 MLOAD PUSH32 0x8C379A000000000000000000000000000000000000000000000000000000000 DUP2 MSTORE PUSH1 0x4 ADD PUSH2 0xE2E SWAP1 PUSH2 0x141B JUMP JUMPDEST PUSH1 0x40 MLOAD DUP1 SWAP2 SUB SWAP1 REVERT JUMPDEST PUSH1 0x0 DUP4 PUSH1 0x3 ADD PUSH1 0x0 DUP7 DUP2 MSTORE PUSH1 0x20 ADD SWAP1 DUP2 MSTORE PUSH1 0x20 ADD PUSH1 0x0 KECCAK256 PUSH1 0x2 ADD SLOAD EQ PUSH2 0xE5C JUMPI PUSH1 0x0 DUP1 REVERT JUMPDEST CALLER PUSH20 0xFFFFFFFFFFFFFFFFFFFFFFFFFFFFFFFFFFFFFFFF AND DUP4 PUSH1 0x2 ADD PUSH1 0x0 DUP7 DUP2 MSTORE PUSH1 0x20 ADD SWAP1 DUP2 MSTORE PUSH1 0x20 ADD PUSH1 0x0 KECCAK256 PUSH1 0x0 SWAP1 SLOAD SWAP1 PUSH2 0x100 EXP SWAP1 DIV PUSH20 0xFFFFFFFFFFFFFFFFFFFFFFFFFFFFFFFFFFFFFFFF AND PUSH20 0xFFFFFFFFFFFFFFFFFFFFFFFFFFFFFFFFFFFFFFFF AND EQ PUSH2 0xEC9 JUMPI PUSH1 0x0 DUP1 REVERT JUMPDEST PUSH1 0x1 DUP3 PUSH1 0x0 ADD PUSH1 0x0 CALLER PUSH20 0xFFFFFFFFFFFFFFFFFFFFFFFFFFFFFFFFFFFFFFFF AND PUSH20 0xFFFFFFFFFFFFFFFFFFFFFFFFFFFFFFFFFFFFFFFF AND DUP2 MSTORE PUSH1 0x20 ADD SWAP1 DUP2 MSTORE PUSH1 0x20 ADD PUSH1 0x0 KECCAK256 PUSH1 0x0 DUP3 DUP3 SLOAD PUSH2 0xF1B SWAP2 SWAP1 PUSH2 0x14E6 JUMP JUMPDEST SWAP3 POP POP DUP2 SWAP1 SSTORE POP PUSH1 0x4 DUP4 PUSH1 0x3 ADD PUSH1 0x0 DUP7 DUP2 MSTORE PUSH1 0x20 ADD SWAP1 DUP2 MSTORE PUSH1 0x20 ADD PUSH1 0x0 KECCAK256 PUSH1 0x2 ADD DUP2 SWAP1 SSTORE POP PUSH1 0x0 DUP2 PUSH1 0xC ADD PUSH1 0x0 ADD PUSH1 0x0 PUSH2 0x100 EXP DUP2 SLOAD DUP2 PUSH1 0xFF MUL NOT AND SWAP1 DUP4 ISZERO ISZERO MUL OR SWAP1 SSTORE POP DUP4 DUP2 PUSH1 0xC ADD PUSH1 0x1 ADD DUP2 SWAP1 SSTORE POP CALLER DUP2 PUSH1 0xC ADD PUSH1 0x3 ADD PUSH1 0x0 PUSH2 0x100 EXP DUP2 SLOAD DUP2 PUSH20 0xFFFFFFFFFFFFFFFFFFFFFFFFFFFFFFFFFFFFFFFF MUL NOT AND SWAP1 DUP4 PUSH20 0xFFFFFFFFFFFFFFFFFFFFFFFFFFFFFFFFFFFFFFFF AND MUL OR SWAP1 SSTORE POP POP POP POP POP JUMP JUMPDEST PUSH1 0x0 DUP1 PUSH32 0x1B1C2350F60DBA32E7A2436167CE3F8399CD1C51A95C8577F1448F53846D4CDA SWAP1 POP DUP1 SWAP2 POP POP SWAP1 JUMP JUMPDEST PUSH1 0x0 DUP1 PUSH32 0x3CAB9A070A0C61CD0AE9D9E9E2C0781E5CA8691BEC4087E5A4701D5AC018DD4E SWAP1 POP DUP1 SWAP2 POP POP SWAP1 JUMP JUMPDEST PUSH1 0x0 DUP1 PUSH32 0x2C89D74504B6AD8D4FBDE22BC3474166BAC5452A11195897F239D8BEBE02D707 SWAP1 POP DUP1 SWAP2 POP POP SWAP1 JUMP JUMPDEST PUSH1 0x0 DUP1 PUSH2 0x104A PUSH2 0xFE5 JUMP JUMPDEST SWAP1 POP PUSH1 0x0 DUP2 PUSH1 0x3 ADD PUSH1 0x0 DUP7 DUP2 MSTORE PUSH1 0x20 ADD SWAP1 DUP2 MSTORE PUSH1 0x20 ADD PUSH1 0x0 KECCAK256 SWAP1 POP PUSH1 0x0 DUP3 PUSH1 0x3 ADD PUSH1 0x0 DUP7 DUP2 MSTORE PUSH1 0x20 ADD SWAP1 DUP2 MSTORE PUSH1 0x20 ADD PUSH1 0x0 KECCAK256 SWAP1 POP PUSH1 0x0 PUSH1 0x4 PUSH2 0x108B DUP8 PUSH2 0x125B JUMP JUMPDEST PUSH2 0x1095 SWAP2 SWAP1 PUSH2 0x15B5 JUMP JUMPDEST DUP3 PUSH1 0x5 ADD SLOAD PUSH2 0x10A4 SWAP2 SWAP1 PUSH2 0x15E6 JUMP JUMPDEST PUSH1 0x5 PUSH2 0x10AF DUP10 PUSH2 0x125B JUMP JUMPDEST PUSH2 0x10B9 SWAP2 SWAP1 PUSH2 0x15B5 JUMP JUMPDEST DUP5 PUSH1 0x4 ADD SLOAD PUSH2 0x10C8 SWAP2 SWAP1 PUSH2 0x15E6 JUMP JUMPDEST PUSH2 0x10D2 SWAP2 SWAP1 PUSH2 0x14E6 JUMP JUMPDEST SWAP1 POP PUSH1 0x0 PUSH1 0x5 PUSH2 0x10E1 DUP10 PUSH2 0x125B JUMP JUMPDEST PUSH2 0x10EB SWAP2 SWAP1 PUSH2 0x15B5 JUMP JUMPDEST DUP5 PUSH1 0x5 ADD SLOAD PUSH2 0x10FA SWAP2 SWAP1 PUSH2 0x15E6 JUMP JUMPDEST PUSH1 0x5 PUSH2 0x1105 DUP10 PUSH2 0x125B JUMP JUMPDEST PUSH2 0x110F SWAP2 SWAP1 PUSH2 0x15B5 JUMP JUMPDEST DUP5 PUSH1 0x4 ADD SLOAD PUSH2 0x111E SWAP2 SWAP1 PUSH2 0x15E6 JUMP JUMPDEST PUSH2 0x1128 SWAP2 SWAP1 PUSH2 0x14E6 JUMP JUMPDEST SWAP1 POP DUP1 DUP3 LT PUSH2 0x113E JUMPI DUP8 SWAP6 POP POP POP POP POP POP PUSH2 0x1147 JUMP JUMPDEST DUP7 SWAP6 POP POP POP POP POP POP JUMPDEST SWAP3 SWAP2 POP POP JUMP JUMPDEST PUSH1 0x0 DUP1 PUSH2 0x1158 PUSH2 0xFE5 JUMP JUMPDEST SWAP1 POP PUSH1 0x0 DUP2 PUSH1 0x3 ADD PUSH1 0x0 DUP7 DUP2 MSTORE PUSH1 0x20 ADD SWAP1 DUP2 MSTORE PUSH1 0x20 ADD PUSH1 0x0 KECCAK256 SWAP1 POP PUSH1 0x0 DUP3 PUSH1 0x3 ADD PUSH1 0x0 DUP7 DUP2 MSTORE PUSH1 0x20 ADD SWAP1 DUP2 MSTORE PUSH1 0x20 ADD PUSH1 0x0 KECCAK256 SWAP1 POP PUSH1 0x0 PUSH1 0x4 PUSH2 0x1199 DUP8 PUSH2 0x125B JUMP JUMPDEST PUSH2 0x11A3 SWAP2 SWAP1 PUSH2 0x15B5 JUMP JUMPDEST DUP3 PUSH1 0x3 ADD SLOAD PUSH2 0x11B2 SWAP2 SWAP1 PUSH2 0x15E6 JUMP JUMPDEST PUSH1 0x5 PUSH2 0x11BD DUP10 PUSH2 0x125B JUMP JUMPDEST PUSH2 0x11C7 SWAP2 SWAP1 PUSH2 0x15B5 JUMP JUMPDEST DUP5 PUSH1 0x4 ADD SLOAD PUSH2 0x11D6 SWAP2 SWAP1 PUSH2 0x15E6 JUMP JUMPDEST PUSH2 0x11E0 SWAP2 SWAP1 PUSH2 0x14E6 JUMP JUMPDEST SWAP1 POP PUSH1 0x0 PUSH1 0x5 PUSH2 0x11EF DUP10 PUSH2 0x125B JUMP JUMPDEST PUSH2 0x11F9 SWAP2 SWAP1 PUSH2 0x15B5 JUMP JUMPDEST DUP5 PUSH1 0x3 ADD SLOAD PUSH2 0x1208 SWAP2 SWAP1 PUSH2 0x15E6 JUMP JUMPDEST PUSH1 0x5 PUSH2 0x1213 DUP10 PUSH2 0x125B JUMP JUMPDEST PUSH2 0x121D SWAP2 SWAP1 PUSH2 0x15B5 JUMP JUMPDEST DUP5 PUSH1 0x4 ADD SLOAD PUSH2 0x122C SWAP2 SWAP1 PUSH2 0x15E6 JUMP JUMPDEST PUSH2 0x1236 SWAP2 SWAP1 PUSH2 0x14E6 JUMP JUMPDEST SWAP1 POP DUP1 DUP3 LT PUSH2 0x124C JUMPI DUP8 SWAP6 POP POP POP POP POP POP PUSH2 0x1255 JUMP JUMPDEST DUP7 SWAP6 POP POP POP POP POP POP JUMPDEST SWAP3 SWAP2 POP POP JUMP JUMPDEST PUSH1 0x0 DUP1 PUSH2 0x1266 PUSH2 0xFE5 JUMP JUMPDEST SWAP1 POP DUP3 DUP2 PUSH1 0x1 ADD SLOAD TIMESTAMP PUSH2 0x1279 SWAP2 SWAP1 PUSH2 0x14B2 JUMP JUMPDEST PUSH2 0x1283 SWAP2 SWAP1 PUSH2 0x14B2 JUMP JUMPDEST PUSH1 0x40 MLOAD PUSH1 0x20 ADD PUSH2 0x1293 SWAP2 SWAP1 PUSH2 0x1649 JUMP JUMPDEST PUSH1 0x40 MLOAD PUSH1 0x20 DUP2 DUP4 SUB SUB DUP2 MSTORE SWAP1 PUSH1 0x40 MSTORE DUP1 MLOAD SWAP1 PUSH1 0x20 ADD KECCAK256 PUSH1 0x0 SHR SWAP2 POP POP SWAP2 SWAP1 POP JUMP JUMPDEST PUSH1 0x0 DUP2 ISZERO ISZERO SWAP1 POP SWAP2 SWAP1 POP JUMP JUMPDEST PUSH2 0x12C9 DUP2 PUSH2 0x12B4 JUMP JUMPDEST DUP3 MSTORE POP POP JUMP JUMPDEST PUSH1 0x0 PUSH1 0x20 DUP3 ADD SWAP1 POP PUSH2 0x12E4 PUSH1 0x0 DUP4 ADD DUP5 PUSH2 0x12C0 JUMP JUMPDEST SWAP3 SWAP2 POP POP JUMP JUMPDEST PUSH1 0x0 DUP1 REVERT JUMPDEST PUSH1 0x0 DUP2 SWAP1 POP SWAP2 SWAP1 POP JUMP JUMPDEST PUSH2 0x1302 DUP2 PUSH2 0x12EF JUMP JUMPDEST DUP2 EQ PUSH2 0x130D JUMPI PUSH1 0x0 DUP1 REVERT JUMPDEST POP JUMP JUMPDEST PUSH1 0x0 DUP2 CALLDATALOAD SWAP1 POP PUSH2 0x131F DUP2 PUSH2 0x12F9 JUMP JUMPDEST SWAP3 SWAP2 POP POP JUMP JUMPDEST PUSH1 0x0 PUSH1 0x20 DUP3 DUP5 SUB SLT ISZERO PUSH2 0x133B JUMPI PUSH2 0x133A PUSH2 0x12EA JUMP JUMPDEST JUMPDEST PUSH1 0x0 PUSH2 0x1349 DUP5 DUP3 DUP6 ADD PUSH2 0x1310 JUMP JUMPDEST SWAP2 POP POP SWAP3 SWAP2 POP POP JUMP JUMPDEST PUSH1 0x0 DUP3 DUP3 MSTORE PUSH1 0x20 DUP3 ADD SWAP1 POP SWAP3 SWAP2 POP POP JUMP JUMPDEST PUSH32 0x6172656E6120697320656D707479000000000000000000000000000000000000 PUSH1 0x0 DUP3 ADD MSTORE POP JUMP JUMPDEST PUSH1 0x0 PUSH2 0x1399 PUSH1 0xE DUP4 PUSH2 0x1352 JUMP JUMPDEST SWAP2 POP PUSH2 0x13A4 DUP3 PUSH2 0x1363 JUMP JUMPDEST PUSH1 0x20 DUP3 ADD SWAP1 POP SWAP2 SWAP1 POP JUMP JUMPDEST PUSH1 0x0 PUSH1 0x20 DUP3 ADD SWAP1 POP DUP2 DUP2 SUB PUSH1 0x0 DUP4 ADD MSTORE PUSH2 0x13C8 DUP2 PUSH2 0x138C JUMP JUMPDEST SWAP1 POP SWAP2 SWAP1 POP JUMP JUMPDEST PUSH32 0x6E6F7420656E6F75676820676F6C640000000000000000000000000000000000 PUSH1 0x0 DUP3 ADD MSTORE POP JUMP JUMPDEST PUSH1 0x0 PUSH2 0x1405 PUSH1 0xF DUP4 PUSH2 0x1352 JUMP JUMPDEST SWAP2 POP PUSH2 0x1410 DUP3 PUSH2 0x13CF JUMP JUMPDEST PUSH1 0x20 DUP3 ADD SWAP1 POP SWAP2 SWAP1 POP JUMP JUMPDEST PUSH1 0x0 PUSH1 0x20 DUP3 ADD SWAP1 POP DUP2 DUP2 SUB PUSH1 0x0 DUP4 ADD MSTORE PUSH2 0x1434 DUP2 PUSH2 0x13F8 JUMP JUMPDEST SWAP1 POP SWAP2 SWAP1 POP JUMP JUMPDEST PUSH32 0x4E487B7100000000000000000000000000000000000000000000000000000000 PUSH1 0x0 MSTORE PUSH1 0x11 PUSH1 0x4 MSTORE PUSH1 0x24 PUSH1 0x0 REVERT JUMPDEST PUSH1 0x0 PUSH2 0x1475 DUP3 PUSH2 0x12EF JUMP JUMPDEST SWAP2 POP PUSH32 0xFFFFFFFFFFFFFFFFFFFFFFFFFFFFFFFFFFFFFFFFFFFFFFFFFFFFFFFFFFFFFFFF DUP3 SUB PUSH2 0x14A7 JUMPI PUSH2 0x14A6 PUSH2 0x143B JUMP JUMPDEST JUMPDEST PUSH1 0x1 DUP3 ADD SWAP1 POP SWAP2 SWAP1 POP JUMP JUMPDEST PUSH1 0x0 PUSH2 0x14BD DUP3 PUSH2 0x12EF JUMP JUMPDEST SWAP2 POP PUSH2 0x14C8 DUP4 PUSH2 0x12EF JUMP JUMPDEST SWAP3 POP DUP3 DUP3 ADD SWAP1 POP DUP1 DUP3 GT ISZERO PUSH2 0x14E0 JUMPI PUSH2 0x14DF PUSH2 0x143B JUMP JUMPDEST JUMPDEST SWAP3 SWAP2 POP POP JUMP JUMPDEST PUSH1 0x0 PUSH2 0x14F1 DUP3 PUSH2 0x12EF JUMP JUMPDEST SWAP2 POP PUSH2 0x14FC DUP4 PUSH2 0x12EF JUMP JUMPDEST SWAP3 POP DUP3 DUP3 SUB SWAP1 POP DUP2 DUP2 GT ISZERO PUSH2 0x1514 JUMPI PUSH2 0x1513 PUSH2 0x143B JUMP JUMPDEST JUMPDEST SWAP3 SWAP2 POP POP JUMP JUMPDEST PUSH32 0x6172656E6120697320636C6F7365640000000000000000000000000000000000 PUSH1 0x0 DUP3 ADD MSTORE POP JUMP JUMPDEST PUSH1 0x0 PUSH2 0x1550 PUSH1 0xF DUP4 PUSH2 0x1352 JUMP JUMPDEST SWAP2 POP PUSH2 0x155B DUP3 PUSH2 0x151A JUMP JUMPDEST PUSH1 0x20 DUP3 ADD SWAP1 POP SWAP2 SWAP1 POP JUMP JUMPDEST PUSH1 0x0 PUSH1 0x20 DUP3 ADD SWAP1 POP DUP2 DUP2 SUB PUSH1 0x0 DUP4 ADD MSTORE PUSH2 0x157F DUP2 PUSH2 0x1543 JUMP JUMPDEST SWAP1 POP SWAP2 SWAP1 POP JUMP JUMPDEST PUSH32 0x4E487B7100000000000000000000000000000000000000000000000000000000 PUSH1 0x0 MSTORE PUSH1 0x12 PUSH1 0x4 MSTORE PUSH1 0x24 PUSH1 0x0 REVERT JUMPDEST PUSH1 0x0 PUSH2 0x15C0 DUP3 PUSH2 0x12EF JUMP JUMPDEST SWAP2 POP PUSH2 0x15CB DUP4 PUSH2 0x12EF JUMP JUMPDEST SWAP3 POP DUP3 PUSH2 0x15DB JUMPI PUSH2 0x15DA PUSH2 0x1586 JUMP JUMPDEST JUMPDEST DUP3 DUP3 MOD SWAP1 POP SWAP3 SWAP2 POP POP JUMP JUMPDEST PUSH1 0x0 PUSH2 0x15F1 DUP3 PUSH2 0x12EF JUMP JUMPDEST SWAP2 POP PUSH2 0x15FC DUP4 PUSH2 0x12EF JUMP JUMPDEST SWAP3 POP DUP3 DUP3 MUL PUSH2 0x160A DUP2 PUSH2 0x12EF JUMP JUMPDEST SWAP2 POP DUP3 DUP3 DIV DUP5 EQ DUP4 ISZERO OR PUSH2 0x1621 JUMPI PUSH2 0x1620 PUSH2 0x143B JUMP JUMPDEST JUMPDEST POP SWAP3 SWAP2 POP POP JUMP JUMPDEST PUSH1 0x0 DUP2 SWAP1 POP SWAP2 SWAP1 POP JUMP JUMPDEST PUSH2 0x1643 PUSH2 0x163E DUP3 PUSH2 0x12EF JUMP JUMPDEST PUSH2 0x1628 JUMP JUMPDEST DUP3 MSTORE POP POP JUMP JUMPDEST PUSH1 0x0 PUSH2 0x1655 DUP3 DUP5 PUSH2 0x1632 JUMP JUMPDEST PUSH1 0x20 DUP3 ADD SWAP2 POP DUP2 SWAP1 POP SWAP3 SWAP2 POP POP JUMP INVALID LOG2 PUSH5 0x6970667358 0x22 SLT KECCAK256 PUSH6 0x91C16C031DBD 0xE SMOD SWAP8 PUSH6 0xECF08F4068F8 0x5D 0xD6 PUSH32 0x2FBB4AC628E3A310D15F291C64736F6C63430008110033000000000000000000 "},"methodIdentifiers":{"enterMagicArena(uint256)":"f0991451","enterMainArena(uint256)":"e774c70d","fightMagicArena(uint256)":"4cc31ab5","fightMainArena(uint256)":"ce02121f","getMagicArena()":"935abcf6","getMainArena()":"eb88ff8d","getSecondArena()":"04295323","getThirdArena()":"f66ae435"}}}}}