{"contracts/facets/ArenaFacet.sol":{"ArenaFacet":{"abi":[{"anonymous":false,"inputs":[{"indexed":true,"internalType":"address","name":"_owner","type":"address"},{"indexed":false,"internalType":"uint256","name":"_player","type":"uint256"}],"name":"ItemCrafted","type":"event"},{"inputs":[{"internalType":"uint256","name":"_playerId","type":"uint256"}],"name":"enterMagicArena","outputs":[],"stateMutability":"nonpayable","type":"function"},{"inputs":[{"internalType":"uint256","name":"_playerId","type":"uint256"}],"name":"enterMainArena","outputs":[],"stateMutability":"nonpayable","type":"function"},{"inputs":[{"internalType":"uint256","name":"_challengerId","type":"uint256"}],"name":"fightMagicArena","outputs":[],"stateMutability":"nonpayable","type":"function"},{"inputs":[{"internalType":"uint256","name":"_challengerId","type":"uint256"}],"name":"fightMainArena","outputs":[],"stateMutability":"nonpayable","type":"function"},{"inputs":[],"name":"getMagicArena","outputs":[{"internalType":"bool","name":"","type":"bool"},{"internalType":"uint256","name":"","type":"uint256"}],"stateMutability":"view","type":"function"},{"inputs":[{"internalType":"uint256","name":"_playerId","type":"uint256"}],"name":"getMagicArenaWins","outputs":[{"internalType":"uint256","name":"","type":"uint256"}],"stateMutability":"view","type":"function"},{"inputs":[],"name":"getMainArena","outputs":[{"internalType":"bool","name":"","type":"bool"},{"internalType":"uint256","name":"","type":"uint256"}],"stateMutability":"view","type":"function"},{"inputs":[{"internalType":"uint256","name":"_playerId","type":"uint256"}],"name":"getMainArenaWins","outputs":[{"internalType":"uint256","name":"","type":"uint256"}],"stateMutability":"view","type":"function"},{"inputs":[{"internalType":"uint256","name":"_playerId","type":"uint256"}],"name":"getTotalWins","outputs":[{"internalType":"uint256","name":"","type":"uint256"}],"stateMutability":"view","type":"function"},{"inputs":[],"name":"openArenas","outputs":[],"stateMutability":"nonpayable","type":"function"}],"evm":{"bytecode":{"linkReferences":{},"object":"608060405234801561001057600080fd5b506118be806100206000396000f3fe608060405234801561001057600080fd5b506004361061009e5760003560e01c80639e42de22116100665780639e42de2214610148578063ce02121f14610178578063e774c70d14610194578063eb88ff8d146101b0578063f0991451146101cf5761009e565b80634cc31ab5146100a35780634f7d08e5146100bf57806372a1e3cc146100ef5780638255e903146100f9578063935abcf614610129575b600080fd5b6100bd60048036038101906100b891906114db565b6101eb565b005b6100d960048036038101906100d491906114db565b6101f7565b6040516100e69190611517565b60405180910390f35b6100f7610209565b005b610113600480360381019061010e91906114db565b610213565b6040516101209190611517565b60405180910390f35b610131610225565b60405161013f92919061154d565b60405180910390f35b610162600480360381019061015d91906114db565b610238565b60405161016f9190611517565b60405180910390f35b610192600480360381019061018d91906114db565b61024a565b005b6101ae60048036038101906101a991906114db565b610256565b005b6101b8610262565b6040516101c692919061154d565b60405180910390f35b6101e960048036038101906101e491906114db565b610275565b005b6101f481610281565b50565b6000610202826106b8565b9050919050565b6102116106e3565b565b600061021e826107b1565b9050919050565b6000806102306107dc565b915091509091565b600061024382610811565b9050919050565b6102538161083c565b50565b61025f81610c73565b50565b60008061026d610ef1565b915091509091565b61027e81610f26565b50565b600061028b6111a4565b905060006102976111d1565b905060006102a36111fe565b905080600d0160000160009054906101000a900460ff16156102fa576040517f08c379a00000000000000000000000000000000000000000000000000000000081526004016102f1906115d3565b60405180910390fd5b6000836003016000868152602001908152602001600020600201541461031f57600080fd5b60018260000160003373ffffffffffffffffffffffffffffffffffffffff1673ffffffffffffffffffffffffffffffffffffffff1681526020019081526020016000205410156103a4576040517f08c379a000000000000000000000000000000000000000000000000000000000815260040161039b9061163f565b60405180910390fd5b60006103b782600d01600101548661122b565b90508481036104d85781601701600086815260200190815260200160002060008154809291906103e69061168e565b919050555081601901600086815260200190815260200160002060008154809291906104119061168e565b91905055508160180160008360010160010154815260200190815260200160002060008154809291906104439061168e565b919050555081601a0160008360010160010154815260200190815260200160002060008154809291906104759061168e565b919050555060018360000160003373ffffffffffffffffffffffffffffffffffffffff1673ffffffffffffffffffffffffffffffffffffffff16815260200190815260200160002060008282546104cc91906116d6565b9250508190555061066c565b8160170160008360010160010154815260200190815260200160002060008154809291906105059061168e565b91905055508160190160008360010160010154815260200190815260200160002060008154809291906105379061168e565b919050555081601801600086815260200190815260200160002060008154809291906105629061168e565b919050555081601a016000868152602001908152602001600020600081548092919061058d9061168e565b919050555060028360000160008460010160030160009054906101000a900473ffffffffffffffffffffffffffffffffffffffff1673ffffffffffffffffffffffffffffffffffffffff1673ffffffffffffffffffffffffffffffffffffffff168152602001908152602001600020600082825461060b91906116d6565b9250508190555060018360000160003373ffffffffffffffffffffffffffffffffffffffff1673ffffffffffffffffffffffffffffffffffffffff1681526020019081526020016000206000828254610664919061170a565b925050819055505b600182600d0160000160006101000a81548160ff021916908315150217905550600084600301600084600d01600101548152602001908152602001600020600201819055505050505050565b6000806106c36111fe565b905080601901600084815260200190815260200160002054915050919050565b60006106ed6111fe565b9050600015158160000160009054906101000a900460ff1615151461071157600080fd5b60018160000160006101000a81548160ff02191690831515021790555060018160010160000160006101000a81548160ff02191690831515021790555060018160050160000160006101000a81548160ff02191690831515021790555060018160090160000160006101000a81548160ff021916908315150217905550600181600d0160000160006101000a81548160ff02191690831515021790555050565b6000806107bc6111fe565b905080601101600084815260200190815260200160002054915050919050565b60008060006107e96111fe565b905080600d0160000160009054906101000a900460ff1681600d016001015492509250509091565b60008061081c6111fe565b905080601701600084815260200190815260200160002054915050919050565b60006108466111a4565b905060006108526111d1565b9050600061085e6111fe565b90508060010160000160009054906101000a900460ff16156108b5576040517f08c379a00000000000000000000000000000000000000000000000000000000081526004016108ac906115d3565b60405180910390fd5b600083600301600086815260200190815260200160002060020154146108da57600080fd5b60018260000160003373ffffffffffffffffffffffffffffffffffffffff1673ffffffffffffffffffffffffffffffffffffffff16815260200190815260200160002054101561095f576040517f08c379a00000000000000000000000000000000000000000000000000000000081526004016109569061163f565b60405180910390fd5b6000610972826001016001015486611339565b9050848103610a935781601101600086815260200190815260200160002060008154809291906109a19061168e565b919050555081601901600086815260200190815260200160002060008154809291906109cc9061168e565b91905055508160120160008360010160010154815260200190815260200160002060008154809291906109fe9061168e565b919050555081601a016000836001016001015481526020019081526020016000206000815480929190610a309061168e565b919050555060018360000160003373ffffffffffffffffffffffffffffffffffffffff1673ffffffffffffffffffffffffffffffffffffffff1681526020019081526020016000206000828254610a8791906116d6565b92505081905550610c27565b816011016000836001016001015481526020019081526020016000206000815480929190610ac09061168e565b9190505550816019016000836001016001015481526020019081526020016000206000815480929190610af29061168e565b91905055508160120160008681526020019081526020016000206000815480929190610b1d9061168e565b919050555081601a0160008681526020019081526020016000206000815480929190610b489061168e565b919050555060028360000160008460010160030160009054906101000a900473ffffffffffffffffffffffffffffffffffffffff1673ffffffffffffffffffffffffffffffffffffffff1673ffffffffffffffffffffffffffffffffffffffff1681526020019081526020016000206000828254610bc691906116d6565b9250508190555060018360000160003373ffffffffffffffffffffffffffffffffffffffff1673ffffffffffffffffffffffffffffffffffffffff1681526020019081526020016000206000828254610c1f919061170a565b925050819055505b60018260010160000160006101000a81548160ff021916908315150217905550600084600301600084600101600101548152602001908152602001600020600201819055505050505050565b6000610c7d6111a4565b90506000610c896111d1565b90506000610c956111fe565b90508060010160000160009054906101000a900460ff16610ceb576040517f08c379a0000000000000000000000000000000000000000000000000000000008152600401610ce29061178a565b60405180910390fd5b60018260000160003373ffffffffffffffffffffffffffffffffffffffff1673ffffffffffffffffffffffffffffffffffffffff168152602001908152602001600020541015610d70576040517f08c379a0000000000000000000000000000000000000000000000000000000008152600401610d679061163f565b60405180910390fd5b60008360030160008681526020019081526020016000206002015414610d9557600080fd5b3373ffffffffffffffffffffffffffffffffffffffff1683600201600086815260200190815260200160002060009054906101000a900473ffffffffffffffffffffffffffffffffffffffff1673ffffffffffffffffffffffffffffffffffffffff1614610e0257600080fd5b60018260000160003373ffffffffffffffffffffffffffffffffffffffff1673ffffffffffffffffffffffffffffffffffffffff1681526020019081526020016000206000828254610e54919061170a565b9250508190555060048360030160008681526020019081526020016000206002018190555060008160010160000160006101000a81548160ff021916908315150217905550838160010160010181905550338160010160030160006101000a81548173ffffffffffffffffffffffffffffffffffffffff021916908373ffffffffffffffffffffffffffffffffffffffff16021790555050505050565b6000806000610efe6111fe565b90508060010160000160009054906101000a900460ff16816001016001015492509250509091565b6000610f306111a4565b90506000610f3c6111d1565b90506000610f486111fe565b905080600d0160000160009054906101000a900460ff16610f9e576040517f08c379a0000000000000000000000000000000000000000000000000000000008152600401610f959061178a565b60405180910390fd5b60018260000160003373ffffffffffffffffffffffffffffffffffffffff1673ffffffffffffffffffffffffffffffffffffffff168152602001908152602001600020541015611023576040517f08c379a000000000000000000000000000000000000000000000000000000000815260040161101a9061163f565b60405180910390fd5b6000836003016000868152602001908152602001600020600201541461104857600080fd5b3373ffffffffffffffffffffffffffffffffffffffff1683600201600086815260200190815260200160002060009054906101000a900473ffffffffffffffffffffffffffffffffffffffff1673ffffffffffffffffffffffffffffffffffffffff16146110b557600080fd5b60018260000160003373ffffffffffffffffffffffffffffffffffffffff1673ffffffffffffffffffffffffffffffffffffffff1681526020019081526020016000206000828254611107919061170a565b92505081905550600483600301600086815260200190815260200160002060020181905550600081600d0160000160006101000a81548160ff0219169083151502179055508381600d01600101819055503381600d0160030160006101000a81548173ffffffffffffffffffffffffffffffffffffffff021916908373ffffffffffffffffffffffffffffffffffffffff16021790555050505050565b6000807f3cab9a070a0c61cd0ae9d9e9e2c0781e5ca8691bec4087e5a4701d5ac018dd4e90508091505090565b6000807f2c89d74504b6ad8d4fbde22bc3474166bac5452a11195897f239d8bebe02d70790508091505090565b6000807f1b1c2350f60dba32e7a2436167ce3f8399cd1c51a95c8577f1448f53846d4cda90508091505090565b6000806112366111a4565b905060008160030160008681526020019081526020016000209050600082600301600086815260200190815260200160002090506000600461127787611447565b61128191906117d9565b8260050154611290919061180a565b600561129b89611447565b6112a591906117d9565b84600401546112b4919061180a565b6112be919061170a565b9050600060056112cd89611447565b6112d791906117d9565b84600501546112e6919061180a565b60056112f189611447565b6112fb91906117d9565b846004015461130a919061180a565b611314919061170a565b905080821061132a578795505050505050611333565b86955050505050505b92915050565b6000806113446111a4565b905060008160030160008681526020019081526020016000209050600082600301600086815260200190815260200160002090506000600461138587611447565b61138f91906117d9565b826003015461139e919061180a565b60056113a989611447565b6113b391906117d9565b84600401546113c2919061180a565b6113cc919061170a565b9050600060056113db89611447565b6113e591906117d9565b84600301546113f4919061180a565b60056113ff89611447565b61140991906117d9565b8460040154611418919061180a565b611422919061170a565b9050808210611438578795505050505050611441565b86955050505050505b92915050565b6000806114526111a4565b90508281600101544261146591906116d6565b61146f91906116d6565b60405160200161147f919061186d565b6040516020818303038152906040528051906020012060001c915050919050565b600080fd5b6000819050919050565b6114b8816114a5565b81146114c357600080fd5b50565b6000813590506114d5816114af565b92915050565b6000602082840312156114f1576114f06114a0565b5b60006114ff848285016114c6565b91505092915050565b611511816114a5565b82525050565b600060208201905061152c6000830184611508565b92915050565b60008115159050919050565b61154781611532565b82525050565b6000604082019050611562600083018561153e565b61156f6020830184611508565b9392505050565b600082825260208201905092915050565b7f6172656e6120697320656d707479000000000000000000000000000000000000600082015250565b60006115bd600e83611576565b91506115c882611587565b602082019050919050565b600060208201905081810360008301526115ec816115b0565b9050919050565b7f6e6f7420656e6f75676820676f6c640000000000000000000000000000000000600082015250565b6000611629600f83611576565b9150611634826115f3565b602082019050919050565b600060208201905081810360008301526116588161161c565b9050919050565b7f4e487b7100000000000000000000000000000000000000000000000000000000600052601160045260246000fd5b6000611699826114a5565b91507fffffffffffffffffffffffffffffffffffffffffffffffffffffffffffffffff82036116cb576116ca61165f565b5b600182019050919050565b60006116e1826114a5565b91506116ec836114a5565b92508282019050808211156117045761170361165f565b5b92915050565b6000611715826114a5565b9150611720836114a5565b92508282039050818111156117385761173761165f565b5b92915050565b7f6172656e6120697320636c6f7365640000000000000000000000000000000000600082015250565b6000611774600f83611576565b915061177f8261173e565b602082019050919050565b600060208201905081810360008301526117a381611767565b9050919050565b7f4e487b7100000000000000000000000000000000000000000000000000000000600052601260045260246000fd5b60006117e4826114a5565b91506117ef836114a5565b9250826117ff576117fe6117aa565b5b828206905092915050565b6000611815826114a5565b9150611820836114a5565b925082820261182e816114a5565b915082820484148315176118455761184461165f565b5b5092915050565b6000819050919050565b611867611862826114a5565b61184c565b82525050565b60006118798284611856565b6020820191508190509291505056fea2646970667358221220b4a84b404925b1e033048314f26b28367837f065dbde6100bf65c50ed6eea0da64736f6c63430008110033","opcodes":"PUSH1 0x80 PUSH1 0x40 MSTORE CALLVALUE DUP1 ISZERO PUSH2 0x10 JUMPI PUSH1 0x0 DUP1 REVERT JUMPDEST POP PUSH2 0x18BE DUP1 PUSH2 0x20 PUSH1 0x0 CODECOPY PUSH1 0x0 RETURN INVALID PUSH1 0x80 PUSH1 0x40 MSTORE CALLVALUE DUP1 ISZERO PUSH2 0x10 JUMPI PUSH1 0x0 DUP1 REVERT JUMPDEST POP PUSH1 0x4 CALLDATASIZE LT PUSH2 0x9E JUMPI PUSH1 0x0 CALLDATALOAD PUSH1 0xE0 SHR DUP1 PUSH4 0x9E42DE22 GT PUSH2 0x66 JUMPI DUP1 PUSH4 0x9E42DE22 EQ PUSH2 0x148 JUMPI DUP1 PUSH4 0xCE02121F EQ PUSH2 0x178 JUMPI DUP1 PUSH4 0xE774C70D EQ PUSH2 0x194 JUMPI DUP1 PUSH4 0xEB88FF8D EQ PUSH2 0x1B0 JUMPI DUP1 PUSH4 0xF0991451 EQ PUSH2 0x1CF JUMPI PUSH2 0x9E JUMP JUMPDEST DUP1 PUSH4 0x4CC31AB5 EQ PUSH2 0xA3 JUMPI DUP1 PUSH4 0x4F7D08E5 EQ PUSH2 0xBF JUMPI DUP1 PUSH4 0x72A1E3CC EQ PUSH2 0xEF JUMPI DUP1 PUSH4 0x8255E903 EQ PUSH2 0xF9 JUMPI DUP1 PUSH4 0x935ABCF6 EQ PUSH2 0x129 JUMPI JUMPDEST PUSH1 0x0 DUP1 REVERT JUMPDEST PUSH2 0xBD PUSH1 0x4 DUP1 CALLDATASIZE SUB DUP2 ADD SWAP1 PUSH2 0xB8 SWAP2 SWAP1 PUSH2 0x14DB JUMP JUMPDEST PUSH2 0x1EB JUMP JUMPDEST STOP JUMPDEST PUSH2 0xD9 PUSH1 0x4 DUP1 CALLDATASIZE SUB DUP2 ADD SWAP1 PUSH2 0xD4 SWAP2 SWAP1 PUSH2 0x14DB JUMP JUMPDEST PUSH2 0x1F7 JUMP JUMPDEST PUSH1 0x40 MLOAD PUSH2 0xE6 SWAP2 SWAP1 PUSH2 0x1517 JUMP JUMPDEST PUSH1 0x40 MLOAD DUP1 SWAP2 SUB SWAP1 RETURN JUMPDEST PUSH2 0xF7 PUSH2 0x209 JUMP JUMPDEST STOP JUMPDEST PUSH2 0x113 PUSH1 0x4 DUP1 CALLDATASIZE SUB DUP2 ADD SWAP1 PUSH2 0x10E SWAP2 SWAP1 PUSH2 0x14DB JUMP JUMPDEST PUSH2 0x213 JUMP JUMPDEST PUSH1 0x40 MLOAD PUSH2 0x120 SWAP2 SWAP1 PUSH2 0x1517 JUMP JUMPDEST PUSH1 0x40 MLOAD DUP1 SWAP2 SUB SWAP1 RETURN JUMPDEST PUSH2 0x131 PUSH2 0x225 JUMP JUMPDEST PUSH1 0x40 MLOAD PUSH2 0x13F SWAP3 SWAP2 SWAP1 PUSH2 0x154D JUMP JUMPDEST PUSH1 0x40 MLOAD DUP1 SWAP2 SUB SWAP1 RETURN JUMPDEST PUSH2 0x162 PUSH1 0x4 DUP1 CALLDATASIZE SUB DUP2 ADD SWAP1 PUSH2 0x15D SWAP2 SWAP1 PUSH2 0x14DB JUMP JUMPDEST PUSH2 0x238 JUMP JUMPDEST PUSH1 0x40 MLOAD PUSH2 0x16F SWAP2 SWAP1 PUSH2 0x1517 JUMP JUMPDEST PUSH1 0x40 MLOAD DUP1 SWAP2 SUB SWAP1 RETURN JUMPDEST PUSH2 0x192 PUSH1 0x4 DUP1 CALLDATASIZE SUB DUP2 ADD SWAP1 PUSH2 0x18D SWAP2 SWAP1 PUSH2 0x14DB JUMP JUMPDEST PUSH2 0x24A JUMP JUMPDEST STOP JUMPDEST PUSH2 0x1AE PUSH1 0x4 DUP1 CALLDATASIZE SUB DUP2 ADD SWAP1 PUSH2 0x1A9 SWAP2 SWAP1 PUSH2 0x14DB JUMP JUMPDEST PUSH2 0x256 JUMP JUMPDEST STOP JUMPDEST PUSH2 0x1B8 PUSH2 0x262 JUMP JUMPDEST PUSH1 0x40 MLOAD PUSH2 0x1C6 SWAP3 SWAP2 SWAP1 PUSH2 0x154D JUMP JUMPDEST PUSH1 0x40 MLOAD DUP1 SWAP2 SUB SWAP1 RETURN JUMPDEST PUSH2 0x1E9 PUSH1 0x4 DUP1 CALLDATASIZE SUB DUP2 ADD SWAP1 PUSH2 0x1E4 SWAP2 SWAP1 PUSH2 0x14DB JUMP JUMPDEST PUSH2 0x275 JUMP JUMPDEST STOP JUMPDEST PUSH2 0x1F4 DUP2 PUSH2 0x281 JUMP JUMPDEST POP JUMP JUMPDEST PUSH1 0x0 PUSH2 0x202 DUP3 PUSH2 0x6B8 JUMP JUMPDEST SWAP1 POP SWAP2 SWAP1 POP JUMP JUMPDEST PUSH2 0x211 PUSH2 0x6E3 JUMP JUMPDEST JUMP JUMPDEST PUSH1 0x0 PUSH2 0x21E DUP3 PUSH2 0x7B1 JUMP JUMPDEST SWAP1 POP SWAP2 SWAP1 POP JUMP JUMPDEST PUSH1 0x0 DUP1 PUSH2 0x230 PUSH2 0x7DC JUMP JUMPDEST SWAP2 POP SWAP2 POP SWAP1 SWAP2 JUMP JUMPDEST PUSH1 0x0 PUSH2 0x243 DUP3 PUSH2 0x811 JUMP JUMPDEST SWAP1 POP SWAP2 SWAP1 POP JUMP JUMPDEST PUSH2 0x253 DUP2 PUSH2 0x83C JUMP JUMPDEST POP JUMP JUMPDEST PUSH2 0x25F DUP2 PUSH2 0xC73 JUMP JUMPDEST POP JUMP JUMPDEST PUSH1 0x0 DUP1 PUSH2 0x26D PUSH2 0xEF1 JUMP JUMPDEST SWAP2 POP SWAP2 POP SWAP1 SWAP2 JUMP JUMPDEST PUSH2 0x27E DUP2 PUSH2 0xF26 JUMP JUMPDEST POP JUMP JUMPDEST PUSH1 0x0 PUSH2 0x28B PUSH2 0x11A4 JUMP JUMPDEST SWAP1 POP PUSH1 0x0 PUSH2 0x297 PUSH2 0x11D1 JUMP JUMPDEST SWAP1 POP PUSH1 0x0 PUSH2 0x2A3 PUSH2 0x11FE JUMP JUMPDEST SWAP1 POP DUP1 PUSH1 0xD ADD PUSH1 0x0 ADD PUSH1 0x0 SWAP1 SLOAD SWAP1 PUSH2 0x100 EXP SWAP1 DIV PUSH1 0xFF AND ISZERO PUSH2 0x2FA JUMPI PUSH1 0x40 MLOAD PUSH32 0x8C379A000000000000000000000000000000000000000000000000000000000 DUP2 MSTORE PUSH1 0x4 ADD PUSH2 0x2F1 SWAP1 PUSH2 0x15D3 JUMP JUMPDEST PUSH1 0x40 MLOAD DUP1 SWAP2 SUB SWAP1 REVERT JUMPDEST PUSH1 0x0 DUP4 PUSH1 0x3 ADD PUSH1 0x0 DUP7 DUP2 MSTORE PUSH1 0x20 ADD SWAP1 DUP2 MSTORE PUSH1 0x20 ADD PUSH1 0x0 KECCAK256 PUSH1 0x2 ADD SLOAD EQ PUSH2 0x31F JUMPI PUSH1 0x0 DUP1 REVERT JUMPDEST PUSH1 0x1 DUP3 PUSH1 0x0 ADD PUSH1 0x0 CALLER PUSH20 0xFFFFFFFFFFFFFFFFFFFFFFFFFFFFFFFFFFFFFFFF AND PUSH20 0xFFFFFFFFFFFFFFFFFFFFFFFFFFFFFFFFFFFFFFFF AND DUP2 MSTORE PUSH1 0x20 ADD SWAP1 DUP2 MSTORE PUSH1 0x20 ADD PUSH1 0x0 KECCAK256 SLOAD LT ISZERO PUSH2 0x3A4 JUMPI PUSH1 0x40 MLOAD PUSH32 0x8C379A000000000000000000000000000000000000000000000000000000000 DUP2 MSTORE PUSH1 0x4 ADD PUSH2 0x39B SWAP1 PUSH2 0x163F JUMP JUMPDEST PUSH1 0x40 MLOAD DUP1 SWAP2 SUB SWAP1 REVERT JUMPDEST PUSH1 0x0 PUSH2 0x3B7 DUP3 PUSH1 0xD ADD PUSH1 0x1 ADD SLOAD DUP7 PUSH2 0x122B JUMP JUMPDEST SWAP1 POP DUP5 DUP2 SUB PUSH2 0x4D8 JUMPI DUP2 PUSH1 0x17 ADD PUSH1 0x0 DUP7 DUP2 MSTORE PUSH1 0x20 ADD SWAP1 DUP2 MSTORE PUSH1 0x20 ADD PUSH1 0x0 KECCAK256 PUSH1 0x0 DUP2 SLOAD DUP1 SWAP3 SWAP2 SWAP1 PUSH2 0x3E6 SWAP1 PUSH2 0x168E JUMP JUMPDEST SWAP2 SWAP1 POP SSTORE POP DUP2 PUSH1 0x19 ADD PUSH1 0x0 DUP7 DUP2 MSTORE PUSH1 0x20 ADD SWAP1 DUP2 MSTORE PUSH1 0x20 ADD PUSH1 0x0 KECCAK256 PUSH1 0x0 DUP2 SLOAD DUP1 SWAP3 SWAP2 SWAP1 PUSH2 0x411 SWAP1 PUSH2 0x168E JUMP JUMPDEST SWAP2 SWAP1 POP SSTORE POP DUP2 PUSH1 0x18 ADD PUSH1 0x0 DUP4 PUSH1 0x1 ADD PUSH1 0x1 ADD SLOAD DUP2 MSTORE PUSH1 0x20 ADD SWAP1 DUP2 MSTORE PUSH1 0x20 ADD PUSH1 0x0 KECCAK256 PUSH1 0x0 DUP2 SLOAD DUP1 SWAP3 SWAP2 SWAP1 PUSH2 0x443 SWAP1 PUSH2 0x168E JUMP JUMPDEST SWAP2 SWAP1 POP SSTORE POP DUP2 PUSH1 0x1A ADD PUSH1 0x0 DUP4 PUSH1 0x1 ADD PUSH1 0x1 ADD SLOAD DUP2 MSTORE PUSH1 0x20 ADD SWAP1 DUP2 MSTORE PUSH1 0x20 ADD PUSH1 0x0 KECCAK256 PUSH1 0x0 DUP2 SLOAD DUP1 SWAP3 SWAP2 SWAP1 PUSH2 0x475 SWAP1 PUSH2 0x168E JUMP JUMPDEST SWAP2 SWAP1 POP SSTORE POP PUSH1 0x1 DUP4 PUSH1 0x0 ADD PUSH1 0x0 CALLER PUSH20 0xFFFFFFFFFFFFFFFFFFFFFFFFFFFFFFFFFFFFFFFF AND PUSH20 0xFFFFFFFFFFFFFFFFFFFFFFFFFFFFFFFFFFFFFFFF AND DUP2 MSTORE PUSH1 0x20 ADD SWAP1 DUP2 MSTORE PUSH1 0x20 ADD PUSH1 0x0 KECCAK256 PUSH1 0x0 DUP3 DUP3 SLOAD PUSH2 0x4CC SWAP2 SWAP1 PUSH2 0x16D6 JUMP JUMPDEST SWAP3 POP POP DUP2 SWAP1 SSTORE POP PUSH2 0x66C JUMP JUMPDEST DUP2 PUSH1 0x17 ADD PUSH1 0x0 DUP4 PUSH1 0x1 ADD PUSH1 0x1 ADD SLOAD DUP2 MSTORE PUSH1 0x20 ADD SWAP1 DUP2 MSTORE PUSH1 0x20 ADD PUSH1 0x0 KECCAK256 PUSH1 0x0 DUP2 SLOAD DUP1 SWAP3 SWAP2 SWAP1 PUSH2 0x505 SWAP1 PUSH2 0x168E JUMP JUMPDEST SWAP2 SWAP1 POP SSTORE POP DUP2 PUSH1 0x19 ADD PUSH1 0x0 DUP4 PUSH1 0x1 ADD PUSH1 0x1 ADD SLOAD DUP2 MSTORE PUSH1 0x20 ADD SWAP1 DUP2 MSTORE PUSH1 0x20 ADD PUSH1 0x0 KECCAK256 PUSH1 0x0 DUP2 SLOAD DUP1 SWAP3 SWAP2 SWAP1 PUSH2 0x537 SWAP1 PUSH2 0x168E JUMP JUMPDEST SWAP2 SWAP1 POP SSTORE POP DUP2 PUSH1 0x18 ADD PUSH1 0x0 DUP7 DUP2 MSTORE PUSH1 0x20 ADD SWAP1 DUP2 MSTORE PUSH1 0x20 ADD PUSH1 0x0 KECCAK256 PUSH1 0x0 DUP2 SLOAD DUP1 SWAP3 SWAP2 SWAP1 PUSH2 0x562 SWAP1 PUSH2 0x168E JUMP JUMPDEST SWAP2 SWAP1 POP SSTORE POP DUP2 PUSH1 0x1A ADD PUSH1 0x0 DUP7 DUP2 MSTORE PUSH1 0x20 ADD SWAP1 DUP2 MSTORE PUSH1 0x20 ADD PUSH1 0x0 KECCAK256 PUSH1 0x0 DUP2 SLOAD DUP1 SWAP3 SWAP2 SWAP1 PUSH2 0x58D SWAP1 PUSH2 0x168E JUMP JUMPDEST SWAP2 SWAP1 POP SSTORE POP PUSH1 0x2 DUP4 PUSH1 0x0 ADD PUSH1 0x0 DUP5 PUSH1 0x1 ADD PUSH1 0x3 ADD PUSH1 0x0 SWAP1 SLOAD SWAP1 PUSH2 0x100 EXP SWAP1 DIV PUSH20 0xFFFFFFFFFFFFFFFFFFFFFFFFFFFFFFFFFFFFFFFF AND PUSH20 0xFFFFFFFFFFFFFFFFFFFFFFFFFFFFFFFFFFFFFFFF AND PUSH20 0xFFFFFFFFFFFFFFFFFFFFFFFFFFFFFFFFFFFFFFFF AND DUP2 MSTORE PUSH1 0x20 ADD SWAP1 DUP2 MSTORE PUSH1 0x20 ADD PUSH1 0x0 KECCAK256 PUSH1 0x0 DUP3 DUP3 SLOAD PUSH2 0x60B SWAP2 SWAP1 PUSH2 0x16D6 JUMP JUMPDEST SWAP3 POP POP DUP2 SWAP1 SSTORE POP PUSH1 0x1 DUP4 PUSH1 0x0 ADD PUSH1 0x0 CALLER PUSH20 0xFFFFFFFFFFFFFFFFFFFFFFFFFFFFFFFFFFFFFFFF AND PUSH20 0xFFFFFFFFFFFFFFFFFFFFFFFFFFFFFFFFFFFFFFFF AND DUP2 MSTORE PUSH1 0x20 ADD SWAP1 DUP2 MSTORE PUSH1 0x20 ADD PUSH1 0x0 KECCAK256 PUSH1 0x0 DUP3 DUP3 SLOAD PUSH2 0x664 SWAP2 SWAP1 PUSH2 0x170A JUMP JUMPDEST SWAP3 POP POP DUP2 SWAP1 SSTORE POP JUMPDEST PUSH1 0x1 DUP3 PUSH1 0xD ADD PUSH1 0x0 ADD PUSH1 0x0 PUSH2 0x100 EXP DUP2 SLOAD DUP2 PUSH1 0xFF MUL NOT AND SWAP1 DUP4 ISZERO ISZERO MUL OR SWAP1 SSTORE POP PUSH1 0x0 DUP5 PUSH1 0x3 ADD PUSH1 0x0 DUP5 PUSH1 0xD ADD PUSH1 0x1 ADD SLOAD DUP2 MSTORE PUSH1 0x20 ADD SWAP1 DUP2 MSTORE PUSH1 0x20 ADD PUSH1 0x0 KECCAK256 PUSH1 0x2 ADD DUP2 SWAP1 SSTORE POP POP POP POP POP POP JUMP JUMPDEST PUSH1 0x0 DUP1 PUSH2 0x6C3 PUSH2 0x11FE JUMP JUMPDEST SWAP1 POP DUP1 PUSH1 0x19 ADD PUSH1 0x0 DUP5 DUP2 MSTORE PUSH1 0x20 ADD SWAP1 DUP2 MSTORE PUSH1 0x20 ADD PUSH1 0x0 KECCAK256 SLOAD SWAP2 POP POP SWAP2 SWAP1 POP JUMP JUMPDEST PUSH1 0x0 PUSH2 0x6ED PUSH2 0x11FE JUMP JUMPDEST SWAP1 POP PUSH1 0x0 ISZERO ISZERO DUP2 PUSH1 0x0 ADD PUSH1 0x0 SWAP1 SLOAD SWAP1 PUSH2 0x100 EXP SWAP1 DIV PUSH1 0xFF AND ISZERO ISZERO EQ PUSH2 0x711 JUMPI PUSH1 0x0 DUP1 REVERT JUMPDEST PUSH1 0x1 DUP2 PUSH1 0x0 ADD PUSH1 0x0 PUSH2 0x100 EXP DUP2 SLOAD DUP2 PUSH1 0xFF MUL NOT AND SWAP1 DUP4 ISZERO ISZERO MUL OR SWAP1 SSTORE POP PUSH1 0x1 DUP2 PUSH1 0x1 ADD PUSH1 0x0 ADD PUSH1 0x0 PUSH2 0x100 EXP DUP2 SLOAD DUP2 PUSH1 0xFF MUL NOT AND SWAP1 DUP4 ISZERO ISZERO MUL OR SWAP1 SSTORE POP PUSH1 0x1 DUP2 PUSH1 0x5 ADD PUSH1 0x0 ADD PUSH1 0x0 PUSH2 0x100 EXP DUP2 SLOAD DUP2 PUSH1 0xFF MUL NOT AND SWAP1 DUP4 ISZERO ISZERO MUL OR SWAP1 SSTORE POP PUSH1 0x1 DUP2 PUSH1 0x9 ADD PUSH1 0x0 ADD PUSH1 0x0 PUSH2 0x100 EXP DUP2 SLOAD DUP2 PUSH1 0xFF MUL NOT AND SWAP1 DUP4 ISZERO ISZERO MUL OR SWAP1 SSTORE POP PUSH1 0x1 DUP2 PUSH1 0xD ADD PUSH1 0x0 ADD PUSH1 0x0 PUSH2 0x100 EXP DUP2 SLOAD DUP2 PUSH1 0xFF MUL NOT AND SWAP1 DUP4 ISZERO ISZERO MUL OR SWAP1 SSTORE POP POP JUMP JUMPDEST PUSH1 0x0 DUP1 PUSH2 0x7BC PUSH2 0x11FE JUMP JUMPDEST SWAP1 POP DUP1 PUSH1 0x11 ADD PUSH1 0x0 DUP5 DUP2 MSTORE PUSH1 0x20 ADD SWAP1 DUP2 MSTORE PUSH1 0x20 ADD PUSH1 0x0 KECCAK256 SLOAD SWAP2 POP POP SWAP2 SWAP1 POP JUMP JUMPDEST PUSH1 0x0 DUP1 PUSH1 0x0 PUSH2 0x7E9 PUSH2 0x11FE JUMP JUMPDEST SWAP1 POP DUP1 PUSH1 0xD ADD PUSH1 0x0 ADD PUSH1 0x0 SWAP1 SLOAD SWAP1 PUSH2 0x100 EXP SWAP1 DIV PUSH1 0xFF AND DUP2 PUSH1 0xD ADD PUSH1 0x1 ADD SLOAD SWAP3 POP SWAP3 POP POP SWAP1 SWAP2 JUMP JUMPDEST PUSH1 0x0 DUP1 PUSH2 0x81C PUSH2 0x11FE JUMP JUMPDEST SWAP1 POP DUP1 PUSH1 0x17 ADD PUSH1 0x0 DUP5 DUP2 MSTORE PUSH1 0x20 ADD SWAP1 DUP2 MSTORE PUSH1 0x20 ADD PUSH1 0x0 KECCAK256 SLOAD SWAP2 POP POP SWAP2 SWAP1 POP JUMP JUMPDEST PUSH1 0x0 PUSH2 0x846 PUSH2 0x11A4 JUMP JUMPDEST SWAP1 POP PUSH1 0x0 PUSH2 0x852 PUSH2 0x11D1 JUMP JUMPDEST SWAP1 POP PUSH1 0x0 PUSH2 0x85E PUSH2 0x11FE JUMP JUMPDEST SWAP1 POP DUP1 PUSH1 0x1 ADD PUSH1 0x0 ADD PUSH1 0x0 SWAP1 SLOAD SWAP1 PUSH2 0x100 EXP SWAP1 DIV PUSH1 0xFF AND ISZERO PUSH2 0x8B5 JUMPI PUSH1 0x40 MLOAD PUSH32 0x8C379A000000000000000000000000000000000000000000000000000000000 DUP2 MSTORE PUSH1 0x4 ADD PUSH2 0x8AC SWAP1 PUSH2 0x15D3 JUMP JUMPDEST PUSH1 0x40 MLOAD DUP1 SWAP2 SUB SWAP1 REVERT JUMPDEST PUSH1 0x0 DUP4 PUSH1 0x3 ADD PUSH1 0x0 DUP7 DUP2 MSTORE PUSH1 0x20 ADD SWAP1 DUP2 MSTORE PUSH1 0x20 ADD PUSH1 0x0 KECCAK256 PUSH1 0x2 ADD SLOAD EQ PUSH2 0x8DA JUMPI PUSH1 0x0 DUP1 REVERT JUMPDEST PUSH1 0x1 DUP3 PUSH1 0x0 ADD PUSH1 0x0 CALLER PUSH20 0xFFFFFFFFFFFFFFFFFFFFFFFFFFFFFFFFFFFFFFFF AND PUSH20 0xFFFFFFFFFFFFFFFFFFFFFFFFFFFFFFFFFFFFFFFF AND DUP2 MSTORE PUSH1 0x20 ADD SWAP1 DUP2 MSTORE PUSH1 0x20 ADD PUSH1 0x0 KECCAK256 SLOAD LT ISZERO PUSH2 0x95F JUMPI PUSH1 0x40 MLOAD PUSH32 0x8C379A000000000000000000000000000000000000000000000000000000000 DUP2 MSTORE PUSH1 0x4 ADD PUSH2 0x956 SWAP1 PUSH2 0x163F JUMP JUMPDEST PUSH1 0x40 MLOAD DUP1 SWAP2 SUB SWAP1 REVERT JUMPDEST PUSH1 0x0 PUSH2 0x972 DUP3 PUSH1 0x1 ADD PUSH1 0x1 ADD SLOAD DUP7 PUSH2 0x1339 JUMP JUMPDEST SWAP1 POP DUP5 DUP2 SUB PUSH2 0xA93 JUMPI DUP2 PUSH1 0x11 ADD PUSH1 0x0 DUP7 DUP2 MSTORE PUSH1 0x20 ADD SWAP1 DUP2 MSTORE PUSH1 0x20 ADD PUSH1 0x0 KECCAK256 PUSH1 0x0 DUP2 SLOAD DUP1 SWAP3 SWAP2 SWAP1 PUSH2 0x9A1 SWAP1 PUSH2 0x168E JUMP JUMPDEST SWAP2 SWAP1 POP SSTORE POP DUP2 PUSH1 0x19 ADD PUSH1 0x0 DUP7 DUP2 MSTORE PUSH1 0x20 ADD SWAP1 DUP2 MSTORE PUSH1 0x20 ADD PUSH1 0x0 KECCAK256 PUSH1 0x0 DUP2 SLOAD DUP1 SWAP3 SWAP2 SWAP1 PUSH2 0x9CC SWAP1 PUSH2 0x168E JUMP JUMPDEST SWAP2 SWAP1 POP SSTORE POP DUP2 PUSH1 0x12 ADD PUSH1 0x0 DUP4 PUSH1 0x1 ADD PUSH1 0x1 ADD SLOAD DUP2 MSTORE PUSH1 0x20 ADD SWAP1 DUP2 MSTORE PUSH1 0x20 ADD PUSH1 0x0 KECCAK256 PUSH1 0x0 DUP2 SLOAD DUP1 SWAP3 SWAP2 SWAP1 PUSH2 0x9FE SWAP1 PUSH2 0x168E JUMP JUMPDEST SWAP2 SWAP1 POP SSTORE POP DUP2 PUSH1 0x1A ADD PUSH1 0x0 DUP4 PUSH1 0x1 ADD PUSH1 0x1 ADD SLOAD DUP2 MSTORE PUSH1 0x20 ADD SWAP1 DUP2 MSTORE PUSH1 0x20 ADD PUSH1 0x0 KECCAK256 PUSH1 0x0 DUP2 SLOAD DUP1 SWAP3 SWAP2 SWAP1 PUSH2 0xA30 SWAP1 PUSH2 0x168E JUMP JUMPDEST SWAP2 SWAP1 POP SSTORE POP PUSH1 0x1 DUP4 PUSH1 0x0 ADD PUSH1 0x0 CALLER PUSH20 0xFFFFFFFFFFFFFFFFFFFFFFFFFFFFFFFFFFFFFFFF AND PUSH20 0xFFFFFFFFFFFFFFFFFFFFFFFFFFFFFFFFFFFFFFFF AND DUP2 MSTORE PUSH1 0x20 ADD SWAP1 DUP2 MSTORE PUSH1 0x20 ADD PUSH1 0x0 KECCAK256 PUSH1 0x0 DUP3 DUP3 SLOAD PUSH2 0xA87 SWAP2 SWAP1 PUSH2 0x16D6 JUMP JUMPDEST SWAP3 POP POP DUP2 SWAP1 SSTORE POP PUSH2 0xC27 JUMP JUMPDEST DUP2 PUSH1 0x11 ADD PUSH1 0x0 DUP4 PUSH1 0x1 ADD PUSH1 0x1 ADD SLOAD DUP2 MSTORE PUSH1 0x20 ADD SWAP1 DUP2 MSTORE PUSH1 0x20 ADD PUSH1 0x0 KECCAK256 PUSH1 0x0 DUP2 SLOAD DUP1 SWAP3 SWAP2 SWAP1 PUSH2 0xAC0 SWAP1 PUSH2 0x168E JUMP JUMPDEST SWAP2 SWAP1 POP SSTORE POP DUP2 PUSH1 0x19 ADD PUSH1 0x0 DUP4 PUSH1 0x1 ADD PUSH1 0x1 ADD SLOAD DUP2 MSTORE PUSH1 0x20 ADD SWAP1 DUP2 MSTORE PUSH1 0x20 ADD PUSH1 0x0 KECCAK256 PUSH1 0x0 DUP2 SLOAD DUP1 SWAP3 SWAP2 SWAP1 PUSH2 0xAF2 SWAP1 PUSH2 0x168E JUMP JUMPDEST SWAP2 SWAP1 POP SSTORE POP DUP2 PUSH1 0x12 ADD PUSH1 0x0 DUP7 DUP2 MSTORE PUSH1 0x20 ADD SWAP1 DUP2 MSTORE PUSH1 0x20 ADD PUSH1 0x0 KECCAK256 PUSH1 0x0 DUP2 SLOAD DUP1 SWAP3 SWAP2 SWAP1 PUSH2 0xB1D SWAP1 PUSH2 0x168E JUMP JUMPDEST SWAP2 SWAP1 POP SSTORE POP DUP2 PUSH1 0x1A ADD PUSH1 0x0 DUP7 DUP2 MSTORE PUSH1 0x20 ADD SWAP1 DUP2 MSTORE PUSH1 0x20 ADD PUSH1 0x0 KECCAK256 PUSH1 0x0 DUP2 SLOAD DUP1 SWAP3 SWAP2 SWAP1 PUSH2 0xB48 SWAP1 PUSH2 0x168E JUMP JUMPDEST SWAP2 SWAP1 POP SSTORE POP PUSH1 0x2 DUP4 PUSH1 0x0 ADD PUSH1 0x0 DUP5 PUSH1 0x1 ADD PUSH1 0x3 ADD PUSH1 0x0 SWAP1 SLOAD SWAP1 PUSH2 0x100 EXP SWAP1 DIV PUSH20 0xFFFFFFFFFFFFFFFFFFFFFFFFFFFFFFFFFFFFFFFF AND PUSH20 0xFFFFFFFFFFFFFFFFFFFFFFFFFFFFFFFFFFFFFFFF AND PUSH20 0xFFFFFFFFFFFFFFFFFFFFFFFFFFFFFFFFFFFFFFFF AND DUP2 MSTORE PUSH1 0x20 ADD SWAP1 DUP2 MSTORE PUSH1 0x20 ADD PUSH1 0x0 KECCAK256 PUSH1 0x0 DUP3 DUP3 SLOAD PUSH2 0xBC6 SWAP2 SWAP1 PUSH2 0x16D6 JUMP JUMPDEST SWAP3 POP POP DUP2 SWAP1 SSTORE POP PUSH1 0x1 DUP4 PUSH1 0x0 ADD PUSH1 0x0 CALLER PUSH20 0xFFFFFFFFFFFFFFFFFFFFFFFFFFFFFFFFFFFFFFFF AND PUSH20 0xFFFFFFFFFFFFFFFFFFFFFFFFFFFFFFFFFFFFFFFF AND DUP2 MSTORE PUSH1 0x20 ADD SWAP1 DUP2 MSTORE PUSH1 0x20 ADD PUSH1 0x0 KECCAK256 PUSH1 0x0 DUP3 DUP3 SLOAD PUSH2 0xC1F SWAP2 SWAP1 PUSH2 0x170A JUMP JUMPDEST SWAP3 POP POP DUP2 SWAP1 SSTORE POP JUMPDEST PUSH1 0x1 DUP3 PUSH1 0x1 ADD PUSH1 0x0 ADD PUSH1 0x0 PUSH2 0x100 EXP DUP2 SLOAD DUP2 PUSH1 0xFF MUL NOT AND SWAP1 DUP4 ISZERO ISZERO MUL OR SWAP1 SSTORE POP PUSH1 0x0 DUP5 PUSH1 0x3 ADD PUSH1 0x0 DUP5 PUSH1 0x1 ADD PUSH1 0x1 ADD SLOAD DUP2 MSTORE PUSH1 0x20 ADD SWAP1 DUP2 MSTORE PUSH1 0x20 ADD PUSH1 0x0 KECCAK256 PUSH1 0x2 ADD DUP2 SWAP1 SSTORE POP POP POP POP POP POP JUMP JUMPDEST PUSH1 0x0 PUSH2 0xC7D PUSH2 0x11A4 JUMP JUMPDEST SWAP1 POP PUSH1 0x0 PUSH2 0xC89 PUSH2 0x11D1 JUMP JUMPDEST SWAP1 POP PUSH1 0x0 PUSH2 0xC95 PUSH2 0x11FE JUMP JUMPDEST SWAP1 POP DUP1 PUSH1 0x1 ADD PUSH1 0x0 ADD PUSH1 0x0 SWAP1 SLOAD SWAP1 PUSH2 0x100 EXP SWAP1 DIV PUSH1 0xFF AND PUSH2 0xCEB JUMPI PUSH1 0x40 MLOAD PUSH32 0x8C379A000000000000000000000000000000000000000000000000000000000 DUP2 MSTORE PUSH1 0x4 ADD PUSH2 0xCE2 SWAP1 PUSH2 0x178A JUMP JUMPDEST PUSH1 0x40 MLOAD DUP1 SWAP2 SUB SWAP1 REVERT JUMPDEST PUSH1 0x1 DUP3 PUSH1 0x0 ADD PUSH1 0x0 CALLER PUSH20 0xFFFFFFFFFFFFFFFFFFFFFFFFFFFFFFFFFFFFFFFF AND PUSH20 0xFFFFFFFFFFFFFFFFFFFFFFFFFFFFFFFFFFFFFFFF AND DUP2 MSTORE PUSH1 0x20 ADD SWAP1 DUP2 MSTORE PUSH1 0x20 ADD PUSH1 0x0 KECCAK256 SLOAD LT ISZERO PUSH2 0xD70 JUMPI PUSH1 0x40 MLOAD PUSH32 0x8C379A000000000000000000000000000000000000000000000000000000000 DUP2 MSTORE PUSH1 0x4 ADD PUSH2 0xD67 SWAP1 PUSH2 0x163F JUMP JUMPDEST PUSH1 0x40 MLOAD DUP1 SWAP2 SUB SWAP1 REVERT JUMPDEST PUSH1 0x0 DUP4 PUSH1 0x3 ADD PUSH1 0x0 DUP7 DUP2 MSTORE PUSH1 0x20 ADD SWAP1 DUP2 MSTORE PUSH1 0x20 ADD PUSH1 0x0 KECCAK256 PUSH1 0x2 ADD SLOAD EQ PUSH2 0xD95 JUMPI PUSH1 0x0 DUP1 REVERT JUMPDEST CALLER PUSH20 0xFFFFFFFFFFFFFFFFFFFFFFFFFFFFFFFFFFFFFFFF AND DUP4 PUSH1 0x2 ADD PUSH1 0x0 DUP7 DUP2 MSTORE PUSH1 0x20 ADD SWAP1 DUP2 MSTORE PUSH1 0x20 ADD PUSH1 0x0 KECCAK256 PUSH1 0x0 SWAP1 SLOAD SWAP1 PUSH2 0x100 EXP SWAP1 DIV PUSH20 0xFFFFFFFFFFFFFFFFFFFFFFFFFFFFFFFFFFFFFFFF AND PUSH20 0xFFFFFFFFFFFFFFFFFFFFFFFFFFFFFFFFFFFFFFFF AND EQ PUSH2 0xE02 JUMPI PUSH1 0x0 DUP1 REVERT JUMPDEST PUSH1 0x1 DUP3 PUSH1 0x0 ADD PUSH1 0x0 CALLER PUSH20 0xFFFFFFFFFFFFFFFFFFFFFFFFFFFFFFFFFFFFFFFF AND PUSH20 0xFFFFFFFFFFFFFFFFFFFFFFFFFFFFFFFFFFFFFFFF AND DUP2 MSTORE PUSH1 0x20 ADD SWAP1 DUP2 MSTORE PUSH1 0x20 ADD PUSH1 0x0 KECCAK256 PUSH1 0x0 DUP3 DUP3 SLOAD PUSH2 0xE54 SWAP2 SWAP1 PUSH2 0x170A JUMP JUMPDEST SWAP3 POP POP DUP2 SWAP1 SSTORE POP PUSH1 0x4 DUP4 PUSH1 0x3 ADD PUSH1 0x0 DUP7 DUP2 MSTORE PUSH1 0x20 ADD SWAP1 DUP2 MSTORE PUSH1 0x20 ADD PUSH1 0x0 KECCAK256 PUSH1 0x2 ADD DUP2 SWAP1 SSTORE POP PUSH1 0x0 DUP2 PUSH1 0x1 ADD PUSH1 0x0 ADD PUSH1 0x0 PUSH2 0x100 EXP DUP2 SLOAD DUP2 PUSH1 0xFF MUL NOT AND SWAP1 DUP4 ISZERO ISZERO MUL OR SWAP1 SSTORE POP DUP4 DUP2 PUSH1 0x1 ADD PUSH1 0x1 ADD DUP2 SWAP1 SSTORE POP CALLER DUP2 PUSH1 0x1 ADD PUSH1 0x3 ADD PUSH1 0x0 PUSH2 0x100 EXP DUP2 SLOAD DUP2 PUSH20 0xFFFFFFFFFFFFFFFFFFFFFFFFFFFFFFFFFFFFFFFF MUL NOT AND SWAP1 DUP4 PUSH20 0xFFFFFFFFFFFFFFFFFFFFFFFFFFFFFFFFFFFFFFFF AND MUL OR SWAP1 SSTORE POP POP POP POP POP JUMP JUMPDEST PUSH1 0x0 DUP1 PUSH1 0x0 PUSH2 0xEFE PUSH2 0x11FE JUMP JUMPDEST SWAP1 POP DUP1 PUSH1 0x1 ADD PUSH1 0x0 ADD PUSH1 0x0 SWAP1 SLOAD SWAP1 PUSH2 0x100 EXP SWAP1 DIV PUSH1 0xFF AND DUP2 PUSH1 0x1 ADD PUSH1 0x1 ADD SLOAD SWAP3 POP SWAP3 POP POP SWAP1 SWAP2 JUMP JUMPDEST PUSH1 0x0 PUSH2 0xF30 PUSH2 0x11A4 JUMP JUMPDEST SWAP1 POP PUSH1 0x0 PUSH2 0xF3C PUSH2 0x11D1 JUMP JUMPDEST SWAP1 POP PUSH1 0x0 PUSH2 0xF48 PUSH2 0x11FE JUMP JUMPDEST SWAP1 POP DUP1 PUSH1 0xD ADD PUSH1 0x0 ADD PUSH1 0x0 SWAP1 SLOAD SWAP1 PUSH2 0x100 EXP SWAP1 DIV PUSH1 0xFF AND PUSH2 0xF9E JUMPI PUSH1 0x40 MLOAD PUSH32 0x8C379A000000000000000000000000000000000000000000000000000000000 DUP2 MSTORE PUSH1 0x4 ADD PUSH2 0xF95 SWAP1 PUSH2 0x178A JUMP JUMPDEST PUSH1 0x40 MLOAD DUP1 SWAP2 SUB SWAP1 REVERT JUMPDEST PUSH1 0x1 DUP3 PUSH1 0x0 ADD PUSH1 0x0 CALLER PUSH20 0xFFFFFFFFFFFFFFFFFFFFFFFFFFFFFFFFFFFFFFFF AND PUSH20 0xFFFFFFFFFFFFFFFFFFFFFFFFFFFFFFFFFFFFFFFF AND DUP2 MSTORE PUSH1 0x20 ADD SWAP1 DUP2 MSTORE PUSH1 0x20 ADD PUSH1 0x0 KECCAK256 SLOAD LT ISZERO PUSH2 0x1023 JUMPI PUSH1 0x40 MLOAD PUSH32 0x8C379A000000000000000000000000000000000000000000000000000000000 DUP2 MSTORE PUSH1 0x4 ADD PUSH2 0x101A SWAP1 PUSH2 0x163F JUMP JUMPDEST PUSH1 0x40 MLOAD DUP1 SWAP2 SUB SWAP1 REVERT JUMPDEST PUSH1 0x0 DUP4 PUSH1 0x3 ADD PUSH1 0x0 DUP7 DUP2 MSTORE PUSH1 0x20 ADD SWAP1 DUP2 MSTORE PUSH1 0x20 ADD PUSH1 0x0 KECCAK256 PUSH1 0x2 ADD SLOAD EQ PUSH2 0x1048 JUMPI PUSH1 0x0 DUP1 REVERT JUMPDEST CALLER PUSH20 0xFFFFFFFFFFFFFFFFFFFFFFFFFFFFFFFFFFFFFFFF AND DUP4 PUSH1 0x2 ADD PUSH1 0x0 DUP7 DUP2 MSTORE PUSH1 0x20 ADD SWAP1 DUP2 MSTORE PUSH1 0x20 ADD PUSH1 0x0 KECCAK256 PUSH1 0x0 SWAP1 SLOAD SWAP1 PUSH2 0x100 EXP SWAP1 DIV PUSH20 0xFFFFFFFFFFFFFFFFFFFFFFFFFFFFFFFFFFFFFFFF AND PUSH20 0xFFFFFFFFFFFFFFFFFFFFFFFFFFFFFFFFFFFFFFFF AND EQ PUSH2 0x10B5 JUMPI PUSH1 0x0 DUP1 REVERT JUMPDEST PUSH1 0x1 DUP3 PUSH1 0x0 ADD PUSH1 0x0 CALLER PUSH20 0xFFFFFFFFFFFFFFFFFFFFFFFFFFFFFFFFFFFFFFFF AND PUSH20 0xFFFFFFFFFFFFFFFFFFFFFFFFFFFFFFFFFFFFFFFF AND DUP2 MSTORE PUSH1 0x20 ADD SWAP1 DUP2 MSTORE PUSH1 0x20 ADD PUSH1 0x0 KECCAK256 PUSH1 0x0 DUP3 DUP3 SLOAD PUSH2 0x1107 SWAP2 SWAP1 PUSH2 0x170A JUMP JUMPDEST SWAP3 POP POP DUP2 SWAP1 SSTORE POP PUSH1 0x4 DUP4 PUSH1 0x3 ADD PUSH1 0x0 DUP7 DUP2 MSTORE PUSH1 0x20 ADD SWAP1 DUP2 MSTORE PUSH1 0x20 ADD PUSH1 0x0 KECCAK256 PUSH1 0x2 ADD DUP2 SWAP1 SSTORE POP PUSH1 0x0 DUP2 PUSH1 0xD ADD PUSH1 0x0 ADD PUSH1 0x0 PUSH2 0x100 EXP DUP2 SLOAD DUP2 PUSH1 0xFF MUL NOT AND SWAP1 DUP4 ISZERO ISZERO MUL OR SWAP1 SSTORE POP DUP4 DUP2 PUSH1 0xD ADD PUSH1 0x1 ADD DUP2 SWAP1 SSTORE POP CALLER DUP2 PUSH1 0xD ADD PUSH1 0x3 ADD PUSH1 0x0 PUSH2 0x100 EXP DUP2 SLOAD DUP2 PUSH20 0xFFFFFFFFFFFFFFFFFFFFFFFFFFFFFFFFFFFFFFFF MUL NOT AND SWAP1 DUP4 PUSH20 0xFFFFFFFFFFFFFFFFFFFFFFFFFFFFFFFFFFFFFFFF AND MUL OR SWAP1 SSTORE POP POP POP POP POP JUMP JUMPDEST PUSH1 0x0 DUP1 PUSH32 0x3CAB9A070A0C61CD0AE9D9E9E2C0781E5CA8691BEC4087E5A4701D5AC018DD4E SWAP1 POP DUP1 SWAP2 POP POP SWAP1 JUMP JUMPDEST PUSH1 0x0 DUP1 PUSH32 0x2C89D74504B6AD8D4FBDE22BC3474166BAC5452A11195897F239D8BEBE02D707 SWAP1 POP DUP1 SWAP2 POP POP SWAP1 JUMP JUMPDEST PUSH1 0x0 DUP1 PUSH32 0x1B1C2350F60DBA32E7A2436167CE3F8399CD1C51A95C8577F1448F53846D4CDA SWAP1 POP DUP1 SWAP2 POP POP SWAP1 JUMP JUMPDEST PUSH1 0x0 DUP1 PUSH2 0x1236 PUSH2 0x11A4 JUMP JUMPDEST SWAP1 POP PUSH1 0x0 DUP2 PUSH1 0x3 ADD PUSH1 0x0 DUP7 DUP2 MSTORE PUSH1 0x20 ADD SWAP1 DUP2 MSTORE PUSH1 0x20 ADD PUSH1 0x0 KECCAK256 SWAP1 POP PUSH1 0x0 DUP3 PUSH1 0x3 ADD PUSH1 0x0 DUP7 DUP2 MSTORE PUSH1 0x20 ADD SWAP1 DUP2 MSTORE PUSH1 0x20 ADD PUSH1 0x0 KECCAK256 SWAP1 POP PUSH1 0x0 PUSH1 0x4 PUSH2 0x1277 DUP8 PUSH2 0x1447 JUMP JUMPDEST PUSH2 0x1281 SWAP2 SWAP1 PUSH2 0x17D9 JUMP JUMPDEST DUP3 PUSH1 0x5 ADD SLOAD PUSH2 0x1290 SWAP2 SWAP1 PUSH2 0x180A JUMP JUMPDEST PUSH1 0x5 PUSH2 0x129B DUP10 PUSH2 0x1447 JUMP JUMPDEST PUSH2 0x12A5 SWAP2 SWAP1 PUSH2 0x17D9 JUMP JUMPDEST DUP5 PUSH1 0x4 ADD SLOAD PUSH2 0x12B4 SWAP2 SWAP1 PUSH2 0x180A JUMP JUMPDEST PUSH2 0x12BE SWAP2 SWAP1 PUSH2 0x170A JUMP JUMPDEST SWAP1 POP PUSH1 0x0 PUSH1 0x5 PUSH2 0x12CD DUP10 PUSH2 0x1447 JUMP JUMPDEST PUSH2 0x12D7 SWAP2 SWAP1 PUSH2 0x17D9 JUMP JUMPDEST DUP5 PUSH1 0x5 ADD SLOAD PUSH2 0x12E6 SWAP2 SWAP1 PUSH2 0x180A JUMP JUMPDEST PUSH1 0x5 PUSH2 0x12F1 DUP10 PUSH2 0x1447 JUMP JUMPDEST PUSH2 0x12FB SWAP2 SWAP1 PUSH2 0x17D9 JUMP JUMPDEST DUP5 PUSH1 0x4 ADD SLOAD PUSH2 0x130A SWAP2 SWAP1 PUSH2 0x180A JUMP JUMPDEST PUSH2 0x1314 SWAP2 SWAP1 PUSH2 0x170A JUMP JUMPDEST SWAP1 POP DUP1 DUP3 LT PUSH2 0x132A JUMPI DUP8 SWAP6 POP POP POP POP POP POP PUSH2 0x1333 JUMP JUMPDEST DUP7 SWAP6 POP POP POP POP POP POP JUMPDEST SWAP3 SWAP2 POP POP JUMP JUMPDEST PUSH1 0x0 DUP1 PUSH2 0x1344 PUSH2 0x11A4 JUMP JUMPDEST SWAP1 POP PUSH1 0x0 DUP2 PUSH1 0x3 ADD PUSH1 0x0 DUP7 DUP2 MSTORE PUSH1 0x20 ADD SWAP1 DUP2 MSTORE PUSH1 0x20 ADD PUSH1 0x0 KECCAK256 SWAP1 POP PUSH1 0x0 DUP3 PUSH1 0x3 ADD PUSH1 0x0 DUP7 DUP2 MSTORE PUSH1 0x20 ADD SWAP1 DUP2 MSTORE PUSH1 0x20 ADD PUSH1 0x0 KECCAK256 SWAP1 POP PUSH1 0x0 PUSH1 0x4 PUSH2 0x1385 DUP8 PUSH2 0x1447 JUMP JUMPDEST PUSH2 0x138F SWAP2 SWAP1 PUSH2 0x17D9 JUMP JUMPDEST DUP3 PUSH1 0x3 ADD SLOAD PUSH2 0x139E SWAP2 SWAP1 PUSH2 0x180A JUMP JUMPDEST PUSH1 0x5 PUSH2 0x13A9 DUP10 PUSH2 0x1447 JUMP JUMPDEST PUSH2 0x13B3 SWAP2 SWAP1 PUSH2 0x17D9 JUMP JUMPDEST DUP5 PUSH1 0x4 ADD SLOAD PUSH2 0x13C2 SWAP2 SWAP1 PUSH2 0x180A JUMP JUMPDEST PUSH2 0x13CC SWAP2 SWAP1 PUSH2 0x170A JUMP JUMPDEST SWAP1 POP PUSH1 0x0 PUSH1 0x5 PUSH2 0x13DB DUP10 PUSH2 0x1447 JUMP JUMPDEST PUSH2 0x13E5 SWAP2 SWAP1 PUSH2 0x17D9 JUMP JUMPDEST DUP5 PUSH1 0x3 ADD SLOAD PUSH2 0x13F4 SWAP2 SWAP1 PUSH2 0x180A JUMP JUMPDEST PUSH1 0x5 PUSH2 0x13FF DUP10 PUSH2 0x1447 JUMP JUMPDEST PUSH2 0x1409 SWAP2 SWAP1 PUSH2 0x17D9 JUMP JUMPDEST DUP5 PUSH1 0x4 ADD SLOAD PUSH2 0x1418 SWAP2 SWAP1 PUSH2 0x180A JUMP JUMPDEST PUSH2 0x1422 SWAP2 SWAP1 PUSH2 0x170A JUMP JUMPDEST SWAP1 POP DUP1 DUP3 LT PUSH2 0x1438 JUMPI DUP8 SWAP6 POP POP POP POP POP POP PUSH2 0x1441 JUMP JUMPDEST DUP7 SWAP6 POP POP POP POP POP POP JUMPDEST SWAP3 SWAP2 POP POP JUMP JUMPDEST PUSH1 0x0 DUP1 PUSH2 0x1452 PUSH2 0x11A4 JUMP JUMPDEST SWAP1 POP DUP3 DUP2 PUSH1 0x1 ADD SLOAD TIMESTAMP PUSH2 0x1465 SWAP2 SWAP1 PUSH2 0x16D6 JUMP JUMPDEST PUSH2 0x146F SWAP2 SWAP1 PUSH2 0x16D6 JUMP JUMPDEST PUSH1 0x40 MLOAD PUSH1 0x20 ADD PUSH2 0x147F SWAP2 SWAP1 PUSH2 0x186D JUMP JUMPDEST PUSH1 0x40 MLOAD PUSH1 0x20 DUP2 DUP4 SUB SUB DUP2 MSTORE SWAP1 PUSH1 0x40 MSTORE DUP1 MLOAD SWAP1 PUSH1 0x20 ADD KECCAK256 PUSH1 0x0 SHR SWAP2 POP POP SWAP2 SWAP1 POP JUMP JUMPDEST PUSH1 0x0 DUP1 REVERT JUMPDEST PUSH1 0x0 DUP2 SWAP1 POP SWAP2 SWAP1 POP JUMP JUMPDEST PUSH2 0x14B8 DUP2 PUSH2 0x14A5 JUMP JUMPDEST DUP2 EQ PUSH2 0x14C3 JUMPI PUSH1 0x0 DUP1 REVERT JUMPDEST POP JUMP JUMPDEST PUSH1 0x0 DUP2 CALLDATALOAD SWAP1 POP PUSH2 0x14D5 DUP2 PUSH2 0x14AF JUMP JUMPDEST SWAP3 SWAP2 POP POP JUMP JUMPDEST PUSH1 0x0 PUSH1 0x20 DUP3 DUP5 SUB SLT ISZERO PUSH2 0x14F1 JUMPI PUSH2 0x14F0 PUSH2 0x14A0 JUMP JUMPDEST JUMPDEST PUSH1 0x0 PUSH2 0x14FF DUP5 DUP3 DUP6 ADD PUSH2 0x14C6 JUMP JUMPDEST SWAP2 POP POP SWAP3 SWAP2 POP POP JUMP JUMPDEST PUSH2 0x1511 DUP2 PUSH2 0x14A5 JUMP JUMPDEST DUP3 MSTORE POP POP JUMP JUMPDEST PUSH1 0x0 PUSH1 0x20 DUP3 ADD SWAP1 POP PUSH2 0x152C PUSH1 0x0 DUP4 ADD DUP5 PUSH2 0x1508 JUMP JUMPDEST SWAP3 SWAP2 POP POP JUMP JUMPDEST PUSH1 0x0 DUP2 ISZERO ISZERO SWAP1 POP SWAP2 SWAP1 POP JUMP JUMPDEST PUSH2 0x1547 DUP2 PUSH2 0x1532 JUMP JUMPDEST DUP3 MSTORE POP POP JUMP JUMPDEST PUSH1 0x0 PUSH1 0x40 DUP3 ADD SWAP1 POP PUSH2 0x1562 PUSH1 0x0 DUP4 ADD DUP6 PUSH2 0x153E JUMP JUMPDEST PUSH2 0x156F PUSH1 0x20 DUP4 ADD DUP5 PUSH2 0x1508 JUMP JUMPDEST SWAP4 SWAP3 POP POP POP JUMP JUMPDEST PUSH1 0x0 DUP3 DUP3 MSTORE PUSH1 0x20 DUP3 ADD SWAP1 POP SWAP3 SWAP2 POP POP JUMP JUMPDEST PUSH32 0x6172656E6120697320656D707479000000000000000000000000000000000000 PUSH1 0x0 DUP3 ADD MSTORE POP JUMP JUMPDEST PUSH1 0x0 PUSH2 0x15BD PUSH1 0xE DUP4 PUSH2 0x1576 JUMP JUMPDEST SWAP2 POP PUSH2 0x15C8 DUP3 PUSH2 0x1587 JUMP JUMPDEST PUSH1 0x20 DUP3 ADD SWAP1 POP SWAP2 SWAP1 POP JUMP JUMPDEST PUSH1 0x0 PUSH1 0x20 DUP3 ADD SWAP1 POP DUP2 DUP2 SUB PUSH1 0x0 DUP4 ADD MSTORE PUSH2 0x15EC DUP2 PUSH2 0x15B0 JUMP JUMPDEST SWAP1 POP SWAP2 SWAP1 POP JUMP JUMPDEST PUSH32 0x6E6F7420656E6F75676820676F6C640000000000000000000000000000000000 PUSH1 0x0 DUP3 ADD MSTORE POP JUMP JUMPDEST PUSH1 0x0 PUSH2 0x1629 PUSH1 0xF DUP4 PUSH2 0x1576 JUMP JUMPDEST SWAP2 POP PUSH2 0x1634 DUP3 PUSH2 0x15F3 JUMP JUMPDEST PUSH1 0x20 DUP3 ADD SWAP1 POP SWAP2 SWAP1 POP JUMP JUMPDEST PUSH1 0x0 PUSH1 0x20 DUP3 ADD SWAP1 POP DUP2 DUP2 SUB PUSH1 0x0 DUP4 ADD MSTORE PUSH2 0x1658 DUP2 PUSH2 0x161C JUMP JUMPDEST SWAP1 POP SWAP2 SWAP1 POP JUMP JUMPDEST PUSH32 0x4E487B7100000000000000000000000000000000000000000000000000000000 PUSH1 0x0 MSTORE PUSH1 0x11 PUSH1 0x4 MSTORE PUSH1 0x24 PUSH1 0x0 REVERT JUMPDEST PUSH1 0x0 PUSH2 0x1699 DUP3 PUSH2 0x14A5 JUMP JUMPDEST SWAP2 POP PUSH32 0xFFFFFFFFFFFFFFFFFFFFFFFFFFFFFFFFFFFFFFFFFFFFFFFFFFFFFFFFFFFFFFFF DUP3 SUB PUSH2 0x16CB JUMPI PUSH2 0x16CA PUSH2 0x165F JUMP JUMPDEST JUMPDEST PUSH1 0x1 DUP3 ADD SWAP1 POP SWAP2 SWAP1 POP JUMP JUMPDEST PUSH1 0x0 PUSH2 0x16E1 DUP3 PUSH2 0x14A5 JUMP JUMPDEST SWAP2 POP PUSH2 0x16EC DUP4 PUSH2 0x14A5 JUMP JUMPDEST SWAP3 POP DUP3 DUP3 ADD SWAP1 POP DUP1 DUP3 GT ISZERO PUSH2 0x1704 JUMPI PUSH2 0x1703 PUSH2 0x165F JUMP JUMPDEST JUMPDEST SWAP3 SWAP2 POP POP JUMP JUMPDEST PUSH1 0x0 PUSH2 0x1715 DUP3 PUSH2 0x14A5 JUMP JUMPDEST SWAP2 POP PUSH2 0x1720 DUP4 PUSH2 0x14A5 JUMP JUMPDEST SWAP3 POP DUP3 DUP3 SUB SWAP1 POP DUP2 DUP2 GT ISZERO PUSH2 0x1738 JUMPI PUSH2 0x1737 PUSH2 0x165F JUMP JUMPDEST JUMPDEST SWAP3 SWAP2 POP POP JUMP JUMPDEST PUSH32 0x6172656E6120697320636C6F7365640000000000000000000000000000000000 PUSH1 0x0 DUP3 ADD MSTORE POP JUMP JUMPDEST PUSH1 0x0 PUSH2 0x1774 PUSH1 0xF DUP4 PUSH2 0x1576 JUMP JUMPDEST SWAP2 POP PUSH2 0x177F DUP3 PUSH2 0x173E JUMP JUMPDEST PUSH1 0x20 DUP3 ADD SWAP1 POP SWAP2 SWAP1 POP JUMP JUMPDEST PUSH1 0x0 PUSH1 0x20 DUP3 ADD SWAP1 POP DUP2 DUP2 SUB PUSH1 0x0 DUP4 ADD MSTORE PUSH2 0x17A3 DUP2 PUSH2 0x1767 JUMP JUMPDEST SWAP1 POP SWAP2 SWAP1 POP JUMP JUMPDEST PUSH32 0x4E487B7100000000000000000000000000000000000000000000000000000000 PUSH1 0x0 MSTORE PUSH1 0x12 PUSH1 0x4 MSTORE PUSH1 0x24 PUSH1 0x0 REVERT JUMPDEST PUSH1 0x0 PUSH2 0x17E4 DUP3 PUSH2 0x14A5 JUMP JUMPDEST SWAP2 POP PUSH2 0x17EF DUP4 PUSH2 0x14A5 JUMP JUMPDEST SWAP3 POP DUP3 PUSH2 0x17FF JUMPI PUSH2 0x17FE PUSH2 0x17AA JUMP JUMPDEST JUMPDEST DUP3 DUP3 MOD SWAP1 POP SWAP3 SWAP2 POP POP JUMP JUMPDEST PUSH1 0x0 PUSH2 0x1815 DUP3 PUSH2 0x14A5 JUMP JUMPDEST SWAP2 POP PUSH2 0x1820 DUP4 PUSH2 0x14A5 JUMP JUMPDEST SWAP3 POP DUP3 DUP3 MUL PUSH2 0x182E DUP2 PUSH2 0x14A5 JUMP JUMPDEST SWAP2 POP DUP3 DUP3 DIV DUP5 EQ DUP4 ISZERO OR PUSH2 0x1845 JUMPI PUSH2 0x1844 PUSH2 0x165F JUMP JUMPDEST JUMPDEST POP SWAP3 SWAP2 POP POP JUMP JUMPDEST PUSH1 0x0 DUP2 SWAP1 POP SWAP2 SWAP1 POP JUMP JUMPDEST PUSH2 0x1867 PUSH2 0x1862 DUP3 PUSH2 0x14A5 JUMP JUMPDEST PUSH2 0x184C JUMP JUMPDEST DUP3 MSTORE POP POP JUMP JUMPDEST PUSH1 0x0 PUSH2 0x1879 DUP3 DUP5 PUSH2 0x1856 JUMP JUMPDEST PUSH1 0x20 DUP3 ADD SWAP2 POP DUP2 SWAP1 POP SWAP3 SWAP2 POP POP JUMP INVALID LOG2 PUSH5 0x6970667358 0x22 SLT KECCAK256 0xB4 0xA8 0x4B BLOCKHASH 0x49 0x25 0xB1 0xE0 CALLER DIV DUP4 EQ CALLCODE PUSH12 0x28367837F065DBDE6100BF65 0xC5 0xE 0xD6 0xEE LOG0 0xDA PUSH5 0x736F6C6343 STOP ADDMOD GT STOP CALLER "},"methodIdentifiers":{"enterMagicArena(uint256)":"f0991451","enterMainArena(uint256)":"e774c70d","fightMagicArena(uint256)":"4cc31ab5","fightMainArena(uint256)":"ce02121f","getMagicArena()":"935abcf6","getMagicArenaWins(uint256)":"9e42de22","getMainArena()":"eb88ff8d","getMainArenaWins(uint256)":"8255e903","getTotalWins(uint256)":"4f7d08e5","openArenas()":"72a1e3cc"}}}}}