{
  "_format": "hh-sol-artifact-1",
  "contractName": "DiamondLoupeFacet",
  "sourceName": "contracts/facets/DiamondLoupeFacet.sol",
  "abi": [
    {
      "inputs": [
        {
          "internalType": "bytes4",
          "name": "_functionSelector",
          "type": "bytes4"
        }
      ],
      "name": "facetAddress",
      "outputs": [
        {
          "internalType": "address",
          "name": "facetAddress_",
          "type": "address"
        }
      ],
      "stateMutability": "view",
      "type": "function"
    },
    {
      "inputs": [],
      "name": "facetAddresses",
      "outputs": [
        {
          "internalType": "address[]",
          "name": "facetAddresses_",
          "type": "address[]"
        }
      ],
      "stateMutability": "view",
      "type": "function"
    },
    {
      "inputs": [
        {
          "internalType": "address",
          "name": "_facet",
          "type": "address"
        }
      ],
      "name": "facetFunctionSelectors",
      "outputs": [
        {
          "internalType": "bytes4[]",
          "name": "_facetFunctionSelectors",
          "type": "bytes4[]"
        }
      ],
      "stateMutability": "view",
      "type": "function"
    },
    {
      "inputs": [],
      "name": "facets",
      "outputs": [
        {
          "components": [
            {
              "internalType": "address",
              "name": "facetAddress",
              "type": "address"
            },
            {
              "internalType": "bytes4[]",
              "name": "functionSelectors",
              "type": "bytes4[]"
            }
          ],
          "internalType": "struct IDiamondLoupe.Facet[]",
          "name": "facets_",
          "type": "tuple[]"
        }
      ],
      "stateMutability": "view",
      "type": "function"
    },
    {
      "inputs": [
        {
          "internalType": "bytes4",
          "name": "_interfaceId",
          "type": "bytes4"
        }
      ],
      "name": "supportsInterface",
      "outputs": [
        {
          "internalType": "bool",
          "name": "",
          "type": "bool"
        }
      ],
      "stateMutability": "view",
      "type": "function"
    }
  ],
  "bytecode": "0x608060405234801561001057600080fd5b50611192806100206000396000f3fe608060405234801561001057600080fd5b50600436106100575760003560e01c806301ffc9a71461005c57806352ef6b2c1461008c5780637a0ed627146100aa578063adfca15e146100c8578063cdffacc6146100f8575b600080fd5b61007660048036038101906100719190610bdd565b610128565b6040516100839190610c25565b60405180910390f35b61009461019e565b6040516100a19190610d30565b60405180910390f35b6100b26103cc565b6040516100bf9190610f0f565b60405180910390f35b6100e260048036038101906100dd9190610f5d565b6108aa565b6040516100ef9190610ff9565b60405180910390f35b610112600480360381019061010d9190610bdd565b610a97565b60405161011f919061102a565b60405180910390f35b600080610133610b23565b9050806002016000847bffffffffffffffffffffffffffffffffffffffffffffffffffffffff19167bffffffffffffffffffffffffffffffffffffffffffffffffffffffff1916815260200190815260200160002060009054906101000a900460ff16915050919050565b606060006101aa610b23565b90506000816001018054905090508067ffffffffffffffff8111156101d2576101d1611045565b5b6040519080825280602002602001820160405280156102005781602001602082028036833780820191505090505b5092506000805b828110156103c257600084600101828154811061022757610226611074565b5b90600052602060002090600891828204019190066004029054906101000a900460e01b90506000856000016000837bffffffffffffffffffffffffffffffffffffffffffffffffffffffff19167bffffffffffffffffffffffffffffffffffffffffffffffffffffffff1916815260200190815260200160002060000160009054906101000a900473ffffffffffffffffffffffffffffffffffffffff1690506000805b8581101561033c578881815181106102e6576102e5611074565b5b602002602001015173ffffffffffffffffffffffffffffffffffffffff168373ffffffffffffffffffffffffffffffffffffffff1603610329576001915061033c565b8080610334906110dc565b9150506102cb565b50801561034f57600090505050506103af565b8188868151811061036357610362611074565b5b602002602001019073ffffffffffffffffffffffffffffffffffffffff16908173ffffffffffffffffffffffffffffffffffffffff168152505084806103a8906110dc565b9550505050505b80806103ba906110dc565b915050610207565b5080845250505090565b606060006103d8610b23565b90506000816001018054905090508067ffffffffffffffff811115610400576103ff611045565b5b60405190808252806020026020018201604052801561043957816020015b610426610b50565b81526020019060019003908161041e5790505b50925060008167ffffffffffffffff81111561045857610457611045565b5b6040519080825280602002602001820160405280156104865781602001602082028036833780820191505090505b5090506000805b838110156108355760008560010182815481106104ad576104ac611074565b5b90600052602060002090600891828204019190066004029054906101000a900460e01b90506000866000016000837bffffffffffffffffffffffffffffffffffffffffffffffffffffffff19167bffffffffffffffffffffffffffffffffffffffffffffffffffffffff1916815260200190815260200160002060000160009054906101000a900473ffffffffffffffffffffffffffffffffffffffff1690506000805b85811015610696578273ffffffffffffffffffffffffffffffffffffffff168a828151811061058357610582611074565b5b60200260200101516000015173ffffffffffffffffffffffffffffffffffffffff160361068357838a82815181106105be576105bd611074565b5b6020026020010151602001518883815181106105dd576105dc611074565b5b602002602001015161ffff16815181106105fa576105f9611074565b5b60200260200101907bffffffffffffffffffffffffffffffffffffffffffffffffffffffff191690817bffffffffffffffffffffffffffffffffffffffffffffffffffffffff19168152505086818151811061065957610658611074565b5b60200260200101805180919061066e90611132565b61ffff1661ffff168152505060019150610696565b808061068e906110dc565b915050610551565b5080156106a95760009050505050610822565b818986815181106106bd576106bc611074565b5b60200260200101516000019073ffffffffffffffffffffffffffffffffffffffff16908173ffffffffffffffffffffffffffffffffffffffff16815250508667ffffffffffffffff81111561071557610714611045565b5b6040519080825280602002602001820160405280156107435781602001602082028036833780820191505090505b5089868151811061075757610756611074565b5b6020026020010151602001819052508289868151811061077a57610779611074565b5b60200260200101516020015160008151811061079957610798611074565b5b60200260200101907bffffffffffffffffffffffffffffffffffffffffffffffffffffffff191690817bffffffffffffffffffffffffffffffffffffffffffffffffffffffff19168152505060018686815181106107fa576107f9611074565b5b602002602001019061ffff16908161ffff1681525050848061081b906110dc565b9550505050505b808061082d906110dc565b91505061048d565b5060005b8181101561089f57600083828151811061085657610855611074565b5b602002602001015161ffff169050600087838151811061087957610878611074565b5b602002602001015160200151905081815250508080610897906110dc565b915050610839565b508085525050505090565b606060006108b6610b23565b905060008160010180549050905060008167ffffffffffffffff8111156108e0576108df611045565b5b60405190808252806020026020018201604052801561090e5781602001602082028036833780820191505090505b50935060005b82811015610a8b57600084600101828154811061093457610933611074565b5b90600052602060002090600891828204019190066004029054906101000a900460e01b90506000856000016000837bffffffffffffffffffffffffffffffffffffffffffffffffffffffff19167bffffffffffffffffffffffffffffffffffffffffffffffffffffffff1916815260200190815260200160002060000160009054906101000a900473ffffffffffffffffffffffffffffffffffffffff1690508073ffffffffffffffffffffffffffffffffffffffff168873ffffffffffffffffffffffffffffffffffffffff1603610a765781878581518110610a1b57610a1a611074565b5b60200260200101907bffffffffffffffffffffffffffffffffffffffffffffffffffffffff191690817bffffffffffffffffffffffffffffffffffffffffffffffffffffffff1916815250508380610a72906110dc565b9450505b50508080610a83906110dc565b915050610914565b50808452505050919050565b600080610aa2610b23565b9050806000016000847bffffffffffffffffffffffffffffffffffffffffffffffffffffffff19167bffffffffffffffffffffffffffffffffffffffffffffffffffffffff1916815260200190815260200160002060000160009054906101000a900473ffffffffffffffffffffffffffffffffffffffff16915050919050565b6000807fc8fcad8db84d3cc18b4c41d551ea0ee66dd599cde068d998e57d5e09332c131c90508091505090565b6040518060400160405280600073ffffffffffffffffffffffffffffffffffffffff168152602001606081525090565b600080fd5b60007fffffffff0000000000000000000000000000000000000000000000000000000082169050919050565b610bba81610b85565b8114610bc557600080fd5b50565b600081359050610bd781610bb1565b92915050565b600060208284031215610bf357610bf2610b80565b5b6000610c0184828501610bc8565b91505092915050565b60008115159050919050565b610c1f81610c0a565b82525050565b6000602082019050610c3a6000830184610c16565b92915050565b600081519050919050565b600082825260208201905092915050565b6000819050602082019050919050565b600073ffffffffffffffffffffffffffffffffffffffff82169050919050565b6000610c9782610c6c565b9050919050565b610ca781610c8c565b82525050565b6000610cb98383610c9e565b60208301905092915050565b6000602082019050919050565b6000610cdd82610c40565b610ce78185610c4b565b9350610cf283610c5c565b8060005b83811015610d23578151610d0a8882610cad565b9750610d1583610cc5565b925050600181019050610cf6565b5085935050505092915050565b60006020820190508181036000830152610d4a8184610cd2565b905092915050565b600081519050919050565b600082825260208201905092915050565b6000819050602082019050919050565b600081519050919050565b600082825260208201905092915050565b6000819050602082019050919050565b610db381610b85565b82525050565b6000610dc58383610daa565b60208301905092915050565b6000602082019050919050565b6000610de982610d7e565b610df38185610d89565b9350610dfe83610d9a565b8060005b83811015610e2f578151610e168882610db9565b9750610e2183610dd1565b925050600181019050610e02565b5085935050505092915050565b6000604083016000830151610e546000860182610c9e565b5060208301518482036020860152610e6c8282610dde565b9150508091505092915050565b6000610e858383610e3c565b905092915050565b6000602082019050919050565b6000610ea582610d52565b610eaf8185610d5d565b935083602082028501610ec185610d6e565b8060005b85811015610efd5784840389528151610ede8582610e79565b9450610ee983610e8d565b925060208a01995050600181019050610ec5565b50829750879550505050505092915050565b60006020820190508181036000830152610f298184610e9a565b905092915050565b610f3a81610c8c565b8114610f4557600080fd5b50565b600081359050610f5781610f31565b92915050565b600060208284031215610f7357610f72610b80565b5b6000610f8184828501610f48565b91505092915050565b600082825260208201905092915050565b6000610fa682610d7e565b610fb08185610f8a565b9350610fbb83610d9a565b8060005b83811015610fec578151610fd38882610db9565b9750610fde83610dd1565b925050600181019050610fbf565b5085935050505092915050565b600060208201905081810360008301526110138184610f9b565b905092915050565b61102481610c8c565b82525050565b600060208201905061103f600083018461101b565b92915050565b7f4e487b7100000000000000000000000000000000000000000000000000000000600052604160045260246000fd5b7f4e487b7100000000000000000000000000000000000000000000000000000000600052603260045260246000fd5b7f4e487b7100000000000000000000000000000000000000000000000000000000600052601160045260246000fd5b6000819050919050565b60006110e7826110d2565b91507fffffffffffffffffffffffffffffffffffffffffffffffffffffffffffffffff8203611119576111186110a3565b5b600182019050919050565b600061ffff82169050919050565b600061113d82611124565b915061ffff8203611151576111506110a3565b5b60018201905091905056fea26469706673582212208e12f85feffbc54e67f07d534b3a09794c1f51bc8117323d7f1725c40b96f96964736f6c63430008110033",
  "linkReferences": {},
  "deployedLinkReferences": {}
}