{
  "_format": "hh-sol-artifact-1",
  "contractName": "ArenaFacet",
  "sourceName": "contracts/facets/ArenaFacet.sol",
  "abi": [
    {
      "anonymous": false,
      "inputs": [
        {
          "indexed": true,
          "internalType": "uint256",
          "name": "_playerId",
          "type": "uint256"
        }
      ],
      "name": "EnterMagic",
      "type": "event"
    },
    {
      "anonymous": false,
      "inputs": [
        {
          "indexed": true,
          "internalType": "uint256",
          "name": "_playerId",
          "type": "uint256"
        }
      ],
      "name": "EnterMain",
      "type": "event"
    },
    {
      "anonymous": false,
      "inputs": [
        {
          "indexed": true,
          "internalType": "uint256",
          "name": "_playerId",
          "type": "uint256"
        }
      ],
      "name": "EnterSecond",
      "type": "event"
    },
    {
      "anonymous": false,
      "inputs": [
        {
          "indexed": true,
          "internalType": "uint256",
          "name": "_playerId",
          "type": "uint256"
        }
      ],
      "name": "MagicLoss",
      "type": "event"
    },
    {
      "anonymous": false,
      "inputs": [
        {
          "indexed": true,
          "internalType": "uint256",
          "name": "_playerId",
          "type": "uint256"
        }
      ],
      "name": "MagicWin",
      "type": "event"
    },
    {
      "anonymous": false,
      "inputs": [
        {
          "indexed": true,
          "internalType": "uint256",
          "name": "_playerId",
          "type": "uint256"
        }
      ],
      "name": "MainLoss",
      "type": "event"
    },
    {
      "anonymous": false,
      "inputs": [
        {
          "indexed": true,
          "internalType": "uint256",
          "name": "_playerId",
          "type": "uint256"
        }
      ],
      "name": "MainWin",
      "type": "event"
    },
    {
      "anonymous": false,
      "inputs": [
        {
          "indexed": true,
          "internalType": "uint256",
          "name": "_playerId",
          "type": "uint256"
        }
      ],
      "name": "SecondLoss",
      "type": "event"
    },
    {
      "anonymous": false,
      "inputs": [
        {
          "indexed": true,
          "internalType": "uint256",
          "name": "_playerId",
          "type": "uint256"
        }
      ],
      "name": "SecondWin",
      "type": "event"
    },
    {
      "inputs": [
        {
          "internalType": "uint256",
          "name": "_playerId",
          "type": "uint256"
        }
      ],
      "name": "enterMagicArena",
      "outputs": [],
      "stateMutability": "nonpayable",
      "type": "function"
    },
    {
      "inputs": [
        {
          "internalType": "uint256",
          "name": "_playerId",
          "type": "uint256"
        }
      ],
      "name": "enterMainArena",
      "outputs": [],
      "stateMutability": "nonpayable",
      "type": "function"
    },
    {
      "inputs": [
        {
          "internalType": "uint256",
          "name": "_playerId",
          "type": "uint256"
        }
      ],
      "name": "enterSecondArena",
      "outputs": [],
      "stateMutability": "nonpayable",
      "type": "function"
    },
    {
      "inputs": [
        {
          "internalType": "uint256",
          "name": "_challengerId",
          "type": "uint256"
        }
      ],
      "name": "fightMagicArena",
      "outputs": [],
      "stateMutability": "nonpayable",
      "type": "function"
    },
    {
      "inputs": [
        {
          "internalType": "uint256",
          "name": "_challengerId",
          "type": "uint256"
        }
      ],
      "name": "fightMainArena",
      "outputs": [],
      "stateMutability": "nonpayable",
      "type": "function"
    },
    {
      "inputs": [
        {
          "internalType": "uint256",
          "name": "_challengerId",
          "type": "uint256"
        }
      ],
      "name": "fightSecondArena",
      "outputs": [],
      "stateMutability": "nonpayable",
      "type": "function"
    },
    {
      "inputs": [],
      "name": "getMagicArena",
      "outputs": [
        {
          "internalType": "bool",
          "name": "",
          "type": "bool"
        },
        {
          "internalType": "uint256",
          "name": "",
          "type": "uint256"
        }
      ],
      "stateMutability": "view",
      "type": "function"
    },
    {
      "inputs": [
        {
          "internalType": "uint256",
          "name": "_playerId",
          "type": "uint256"
        }
      ],
      "name": "getMagicArenaLosses",
      "outputs": [
        {
          "internalType": "uint256",
          "name": "",
          "type": "uint256"
        }
      ],
      "stateMutability": "view",
      "type": "function"
    },
    {
      "inputs": [
        {
          "internalType": "uint256",
          "name": "_playerId",
          "type": "uint256"
        }
      ],
      "name": "getMagicArenaWins",
      "outputs": [
        {
          "internalType": "uint256",
          "name": "",
          "type": "uint256"
        }
      ],
      "stateMutability": "view",
      "type": "function"
    },
    {
      "inputs": [],
      "name": "getMainArena",
      "outputs": [
        {
          "internalType": "bool",
          "name": "",
          "type": "bool"
        },
        {
          "internalType": "uint256",
          "name": "",
          "type": "uint256"
        }
      ],
      "stateMutability": "view",
      "type": "function"
    },
    {
      "inputs": [
        {
          "internalType": "uint256",
          "name": "_playerId",
          "type": "uint256"
        }
      ],
      "name": "getMainArenaLosses",
      "outputs": [
        {
          "internalType": "uint256",
          "name": "",
          "type": "uint256"
        }
      ],
      "stateMutability": "view",
      "type": "function"
    },
    {
      "inputs": [
        {
          "internalType": "uint256",
          "name": "_playerId",
          "type": "uint256"
        }
      ],
      "name": "getMainArenaWins",
      "outputs": [
        {
          "internalType": "uint256",
          "name": "",
          "type": "uint256"
        }
      ],
      "stateMutability": "view",
      "type": "function"
    },
    {
      "inputs": [],
      "name": "getSecondArena",
      "outputs": [
        {
          "internalType": "bool",
          "name": "",
          "type": "bool"
        },
        {
          "internalType": "uint256",
          "name": "",
          "type": "uint256"
        }
      ],
      "stateMutability": "view",
      "type": "function"
    },
    {
      "inputs": [
        {
          "internalType": "uint256",
          "name": "_playerId",
          "type": "uint256"
        }
      ],
      "name": "getTotalLosses",
      "outputs": [
        {
          "internalType": "uint256",
          "name": "",
          "type": "uint256"
        }
      ],
      "stateMutability": "view",
      "type": "function"
    },
    {
      "inputs": [
        {
          "internalType": "uint256",
          "name": "_playerId",
          "type": "uint256"
        }
      ],
      "name": "getTotalWins",
      "outputs": [
        {
          "internalType": "uint256",
          "name": "",
          "type": "uint256"
        }
      ],
      "stateMutability": "view",
      "type": "function"
    },
    {
      "inputs": [
        {
          "internalType": "uint256",
          "name": "_playerId",
          "type": "uint256"
        }
      ],
      "name": "leaveMainArena",
      "outputs": [],
      "stateMutability": "nonpayable",
      "type": "function"
    },
    {
      "inputs": [],
      "name": "openArenas",
      "outputs": [],
      "stateMutability": "nonpayable",
      "type": "function"
    }
  ],
  "bytecode": "0x608060405234801561001057600080fd5b50612713806100206000396000f3fe608060405234801561001057600080fd5b506004361061010b5760003560e01c8063935abcf6116100a2578063ce02121f11610071578063ce02121f146102b8578063e774c70d146102d4578063eb88ff8d146102f0578063f09914511461030f578063fb944ffc1461032b5761010b565b8063935abcf6146102315780639e42de2214610250578063a8dcd90d14610280578063c5d9ee821461029c5761010b565b8063636c2fe7116100de578063636c2fe71461019757806372a1e3cc146101c75780638255e903146101d157806382567771146102015761010b565b806304295323146101105780633e5d339c1461012f5780634cc31ab51461014b5780634f7d08e514610167575b600080fd5b61011861035b565b60405161012692919061222f565b60405180910390f35b61014960048036038101906101449190612289565b61036e565b005b61016560048036038101906101609190612289565b61037a565b005b610181600480360381019061017c9190612289565b6103ed565b60405161018e91906122b6565b60405180910390f35b6101b160048036038101906101ac9190612289565b6103ff565b6040516101be91906122b6565b60405180910390f35b6101cf610411565b005b6101eb60048036038101906101e69190612289565b61041b565b6040516101f891906122b6565b60405180910390f35b61021b60048036038101906102169190612289565b61042d565b60405161022891906122b6565b60405180910390f35b61023961043f565b60405161024792919061222f565b60405180910390f35b61026a60048036038101906102659190612289565b610452565b60405161027791906122b6565b60405180910390f35b61029a60048036038101906102959190612289565b610464565b005b6102b660048036038101906102b19190612289565b6104d7565b005b6102d260048036038101906102cd9190612289565b610510565b005b6102ee60048036038101906102e99190612289565b610583565b005b6102f86105bc565b60405161030692919061222f565b60405180910390f35b61032960048036038101906103249190612289565b6105cf565b005b61034560048036038101906103409190612289565b610608565b60405161035291906122b6565b60405180910390f35b60008061036661061a565b915091509091565b6103778161064f565b50565b6000806103868361073b565b8092508193505050817f5b8d5960e28aa2e632f071463a0b86b97186239d9f80bce0ef792129df28781a60405160405180910390a2807f325aad9d170785e4cef15433ddac3f9bb2897c1df086a14e353c56fb0ba6fbf560405160405180910390a2505050565b60006103f882610b9c565b9050919050565b600061040a82610bc7565b9050919050565b610419610bf2565b565b600061042682610cc0565b9050919050565b600061043882610ceb565b9050919050565b60008061044a610d16565b915091509091565b600061045d82610d4b565b9050919050565b60008061047083610d76565b8092508193505050817f7f6bd6aa2f70e3cf6d1271981eb69a90a9fd72c25b86eb41cba70a2247eba62d60405160405180910390a2807ff4f4eb30bb1d26ae81f89a6d81478ee3d649c1e79544d225f2beb5f1eca8ce8860405160405180910390a2505050565b6104e0816111e4565b807f0879a19b12564127de37e414eb119f4ba433c76bb81d6ab23b7326f98946cbbc60405160405180910390a250565b60008061051c83611462565b8092508193505050817f2a1949a44eb7c43972e39a564a8797225bf45929dfcb20897f90389a8cc1b6df60405160405180910390a2807f155586aefb5285f1d6fc85d541f9feaf03bc3ceae95b1fdd2b1830e1bd2e2a7760405160405180910390a2505050565b61058c816118d0565b807fef2a34cb7d27c37e23ed4fde1dca46351d53f1ee711a2569816e1c020eb03e7660405160405180910390a250565b6000806105c7611b4e565b915091509091565b6105d881611b83565b807f7d4685d5e927fa2461758f5c12de56103a29fecdf09fad0b8215f165573cecd360405160405180910390a250565b600061061382611e01565b9050919050565b6000806000610627611e2c565b90508060060160000160009054906101000a900460ff16816006016001015492509250509091565b6000610659611e2c565b90506000610665611e59565b9050828260020160010154146106b0576040517f08c379a00000000000000000000000000000000000000000000000000000000081526004016106a79061232e565b60405180910390fd5b6004816003016000858152602001908152602001600020600201541461070b576040517f08c379a00000000000000000000000000000000000000000000000000000000081526004016107029061239a565b60405180910390fd5b60008260020160010181905550600081600301600085815260200190815260200160002060020181905550505050565b6000806000610748611e59565b90506000610754611e86565b90506000610760611e2c565b905080600e0160000160009054906101000a900460ff16156107b7576040517f08c379a00000000000000000000000000000000000000000000000000000000081526004016107ae90612406565b60405180910390fd5b600083600301600088815260200190815260200160002060020154146107dc57600080fd5b60018260000160003373ffffffffffffffffffffffffffffffffffffffff1673ffffffffffffffffffffffffffffffffffffffff168152602001908152602001600020541015610861576040517f08c379a000000000000000000000000000000000000000000000000000000000815260040161085890612472565b60405180910390fd5b600061087482600e016001015488611eb3565b90506000808883036109a557889150836002016001015490508360180160008a815260200190815260200160002060008154809291906108b3906124c1565b919050555083601a0160008a815260200190815260200160002060008154809291906108de906124c1565b9190505550836019016000856002016001015481526020019081526020016000206000815480929190610910906124c1565b919050555083601b016000856002016001015481526020019081526020016000206000815480929190610942906124c1565b919050555060018560000160003373ffffffffffffffffffffffffffffffffffffffff1673ffffffffffffffffffffffffffffffffffffffff16815260200190815260200160002060008282546109999190612509565b92505081905550610b46565b889050836002016001015491508360180160008560020160010154815260200190815260200160002060008154809291906109df906124c1565b919050555083601a016000856002016001015481526020019081526020016000206000815480929190610a11906124c1565b91905055508360190160008a81526020019081526020016000206000815480929190610a3c906124c1565b919050555083601b0160008a81526020019081526020016000206000815480929190610a67906124c1565b919050555060028560000160008660020160030160009054906101000a900473ffffffffffffffffffffffffffffffffffffffff1673ffffffffffffffffffffffffffffffffffffffff1673ffffffffffffffffffffffffffffffffffffffff1681526020019081526020016000206000828254610ae59190612509565b9250508190555060018560000160003373ffffffffffffffffffffffffffffffffffffffff1673ffffffffffffffffffffffffffffffffffffffff1681526020019081526020016000206000828254610b3e919061253d565b925050819055505b600184600e0160000160006101000a81548160ff021916908315150217905550600086600301600086600e0160010154815260200190815260200160002060020181905550818197509750505050505050915091565b600080610ba7611e2c565b905080601a01600084815260200190815260200160002054915050919050565b600080610bd2611e2c565b905080601301600084815260200190815260200160002054915050919050565b6000610bfc611e2c565b9050600015158160000160009054906101000a900460ff16151514610c2057600080fd5b60018160000160006101000a81548160ff02191690831515021790555060018160020160000160006101000a81548160ff02191690831515021790555060018160060160000160006101000a81548160ff021916908315150217905550600181600a0160000160006101000a81548160ff021916908315150217905550600181600e0160000160006101000a81548160ff02191690831515021790555050565b600080610ccb611e2c565b905080601201600084815260200190815260200160002054915050919050565b600080610cf6611e2c565b905080601901600084815260200190815260200160002054915050919050565b6000806000610d23611e2c565b905080600e0160000160009054906101000a900460ff1681600e016001015492509250509091565b600080610d56611e2c565b905080601801600084815260200190815260200160002054915050919050565b6000806000610d83611e59565b90506000610d8f611e86565b90506000610d9b611e2c565b90508060060160000160009054906101000a900460ff1615610df2576040517f08c379a0000000000000000000000000000000000000000000000000000000008152600401610de990612406565b60405180910390fd5b60008360030160008881526020019081526020016000206002015414610e1757600080fd5b60018260000160003373ffffffffffffffffffffffffffffffffffffffff1673ffffffffffffffffffffffffffffffffffffffff168152602001908152602001600020541015610e9c576040517f08c379a0000000000000000000000000000000000000000000000000000000008152600401610e9390612472565b60405180910390fd5b6000610eaf826006016001015488611f55565b9050600080888303610fe057889150836006016001015490508360140160008a81526020019081526020016000206000815480929190610eee906124c1565b919050555083601a0160008a81526020019081526020016000206000815480929190610f19906124c1565b9190505550836015016000856006016001015481526020019081526020016000206000815480929190610f4b906124c1565b919050555083601b016000856006016001015481526020019081526020016000206000815480929190610f7d906124c1565b919050555060018560000160003373ffffffffffffffffffffffffffffffffffffffff1673ffffffffffffffffffffffffffffffffffffffff1681526020019081526020016000206000828254610fd49190612509565b92505081905550611181565b8890508360060160010154915083601401600085600601600101548152602001908152602001600020600081548092919061101a906124c1565b919050555083601a01600085600601600101548152602001908152602001600020600081548092919061104c906124c1565b91905055508360150160008a81526020019081526020016000206000815480929190611077906124c1565b919050555083601b0160008a815260200190815260200160002060008154809291906110a2906124c1565b919050555060028560000160008660060160030160009054906101000a900473ffffffffffffffffffffffffffffffffffffffff1673ffffffffffffffffffffffffffffffffffffffff1673ffffffffffffffffffffffffffffffffffffffff16815260200190815260200160002060008282546111209190612509565b9250508190555060018560000160003373ffffffffffffffffffffffffffffffffffffffff1673ffffffffffffffffffffffffffffffffffffffff1681526020019081526020016000206000828254611179919061253d565b925050819055505b60018460060160000160006101000a81548160ff0219169083151502179055506000866003016000866006016001015481526020019081526020016000206002018190555060008460060160010181905550818197509750505050505050915091565b60006111ee611e59565b905060006111fa611e86565b90506000611206611e2c565b90508060060160000160009054906101000a900460ff1661125c576040517f08c379a0000000000000000000000000000000000000000000000000000000008152600401611253906125bd565b60405180910390fd5b60018260000160003373ffffffffffffffffffffffffffffffffffffffff1673ffffffffffffffffffffffffffffffffffffffff1681526020019081526020016000205410156112e1576040517f08c379a00000000000000000000000000000000000000000000000000000000081526004016112d890612472565b60405180910390fd5b6000836003016000868152602001908152602001600020600201541461130657600080fd5b3373ffffffffffffffffffffffffffffffffffffffff1683600201600086815260200190815260200160002060009054906101000a900473ffffffffffffffffffffffffffffffffffffffff1673ffffffffffffffffffffffffffffffffffffffff161461137357600080fd5b60018260000160003373ffffffffffffffffffffffffffffffffffffffff1673ffffffffffffffffffffffffffffffffffffffff16815260200190815260200160002060008282546113c5919061253d565b9250508190555060048360030160008681526020019081526020016000206002018190555060008160060160000160006101000a81548160ff021916908315150217905550838160060160010181905550338160060160030160006101000a81548173ffffffffffffffffffffffffffffffffffffffff021916908373ffffffffffffffffffffffffffffffffffffffff16021790555050505050565b600080600061146f611e59565b9050600061147b611e86565b90506000611487611e2c565b90508060020160000160009054906101000a900460ff16156114de576040517f08c379a00000000000000000000000000000000000000000000000000000000081526004016114d590612406565b60405180910390fd5b6000836003016000888152602001908152602001600020600201541461150357600080fd5b60018260000160003373ffffffffffffffffffffffffffffffffffffffff1673ffffffffffffffffffffffffffffffffffffffff168152602001908152602001600020541015611588576040517f08c379a000000000000000000000000000000000000000000000000000000000815260040161157f90612472565b60405180910390fd5b600061159b826002016001015488611f55565b90506000808883036116cc57889150836002016001015490508360120160008a815260200190815260200160002060008154809291906115da906124c1565b919050555083601a0160008a81526020019081526020016000206000815480929190611605906124c1565b9190505550836013016000856002016001015481526020019081526020016000206000815480929190611637906124c1565b919050555083601b016000856002016001015481526020019081526020016000206000815480929190611669906124c1565b919050555060018560000160003373ffffffffffffffffffffffffffffffffffffffff1673ffffffffffffffffffffffffffffffffffffffff16815260200190815260200160002060008282546116c09190612509565b9250508190555061186d565b88905083600201600101549150836012016000856002016001015481526020019081526020016000206000815480929190611706906124c1565b919050555083601a016000856002016001015481526020019081526020016000206000815480929190611738906124c1565b91905055508360130160008a81526020019081526020016000206000815480929190611763906124c1565b919050555083601b0160008a8152602001908152602001600020600081548092919061178e906124c1565b919050555060028560000160008660020160030160009054906101000a900473ffffffffffffffffffffffffffffffffffffffff1673ffffffffffffffffffffffffffffffffffffffff1673ffffffffffffffffffffffffffffffffffffffff168152602001908152602001600020600082825461180c9190612509565b9250508190555060018560000160003373ffffffffffffffffffffffffffffffffffffffff1673ffffffffffffffffffffffffffffffffffffffff1681526020019081526020016000206000828254611865919061253d565b925050819055505b60018460020160000160006101000a81548160ff0219169083151502179055506000866003016000866002016001015481526020019081526020016000206002018190555060008460020160010181905550818197509750505050505050915091565b60006118da611e59565b905060006118e6611e86565b905060006118f2611e2c565b90508060020160000160009054906101000a900460ff16611948576040517f08c379a000000000000000000000000000000000000000000000000000000000815260040161193f906125bd565b60405180910390fd5b60018260000160003373ffffffffffffffffffffffffffffffffffffffff1673ffffffffffffffffffffffffffffffffffffffff1681526020019081526020016000205410156119cd576040517f08c379a00000000000000000000000000000000000000000000000000000000081526004016119c490612472565b60405180910390fd5b600083600301600086815260200190815260200160002060020154146119f257600080fd5b3373ffffffffffffffffffffffffffffffffffffffff1683600201600086815260200190815260200160002060009054906101000a900473ffffffffffffffffffffffffffffffffffffffff1673ffffffffffffffffffffffffffffffffffffffff1614611a5f57600080fd5b60018260000160003373ffffffffffffffffffffffffffffffffffffffff1673ffffffffffffffffffffffffffffffffffffffff1681526020019081526020016000206000828254611ab1919061253d565b9250508190555060048360030160008681526020019081526020016000206002018190555060008160020160000160006101000a81548160ff021916908315150217905550838160020160010181905550338160020160030160006101000a81548173ffffffffffffffffffffffffffffffffffffffff021916908373ffffffffffffffffffffffffffffffffffffffff16021790555050505050565b6000806000611b5b611e2c565b90508060020160000160009054906101000a900460ff16816002016001015492509250509091565b6000611b8d611e59565b90506000611b99611e86565b90506000611ba5611e2c565b905080600e0160000160009054906101000a900460ff16611bfb576040517f08c379a0000000000000000000000000000000000000000000000000000000008152600401611bf2906125bd565b60405180910390fd5b60018260000160003373ffffffffffffffffffffffffffffffffffffffff1673ffffffffffffffffffffffffffffffffffffffff168152602001908152602001600020541015611c80576040517f08c379a0000000000000000000000000000000000000000000000000000000008152600401611c7790612472565b60405180910390fd5b60008360030160008681526020019081526020016000206002015414611ca557600080fd5b3373ffffffffffffffffffffffffffffffffffffffff1683600201600086815260200190815260200160002060009054906101000a900473ffffffffffffffffffffffffffffffffffffffff1673ffffffffffffffffffffffffffffffffffffffff1614611d1257600080fd5b60018260000160003373ffffffffffffffffffffffffffffffffffffffff1673ffffffffffffffffffffffffffffffffffffffff1681526020019081526020016000206000828254611d64919061253d565b92505081905550600483600301600086815260200190815260200160002060020181905550600081600e0160000160006101000a81548160ff0219169083151502179055508381600e01600101819055503381600e0160030160006101000a81548173ffffffffffffffffffffffffffffffffffffffff021916908373ffffffffffffffffffffffffffffffffffffffff16021790555050505050565b600080611e0c611e2c565b905080601b01600084815260200190815260200160002054915050919050565b6000807f1b1c2350f60dba32e7a2436167ce3f8399cd1c51a95c8577f1448f53846d4cda90508091505090565b6000807f3cab9a070a0c61cd0ae9d9e9e2c0781e5ca8691bec4087e5a4701d5ac018dd4e90508091505090565b6000807f2c89d74504b6ad8d4fbde22bc3474166bac5452a11195897f239d8bebe02d70790508091505090565b600080611ebe611e59565b90506000816003016000868152602001908152602001600020905060008260030160008681526020019081526020016000209050600082600501548360040154611f089190612509565b9050600082600501548360040154611f209190612509565b90506000611f2e8383611ff7565b9050828103611f4557889650505050505050611f4f565b8796505050505050505b92915050565b600080611f60611e59565b90506000816003016000868152602001908152602001600020905060008260030160008681526020019081526020016000209050600082600301548360040154611faa9190612509565b9050600082600301548360040154611fc29190612509565b90506000611fd08383611ff7565b9050828103611fe757889650505050505050611ff1565b8796505050505050505b92915050565b6000818311156120ba576001828461200f919061260c565b0361203457600461201f84612175565b1061202c5782905061216f565b81905061216f565b60028284612042919061260c565b0361206757600361205284612175565b1061205f5782905061216f565b81905061216f565b60038284612075919061260c565b0361209a57600261208584612175565b106120925782905061216f565b81905061216f565b60016120a584612175565b106120b25782905061216f565b81905061216f565b600183836120c8919061260c565b036120ed5760046120d883612175565b106120e55781905061216f565b82905061216f565b600283836120fb919061260c565b0361212057600361210b83612175565b106121185781905061216f565b82905061216f565b6003838361212e919061260c565b0361215357600261213e83612175565b1061214b5781905061216f565b82905061216f565b600161215e83612175565b1061216b5781905061216f565b8290505b92915050565b60008061218183612198565b9050600a81612190919061263d565b915050919050565b6000806121a3611e2c565b90508060010160008154809291906121ba906124c1565b919050555042448483600101546040516020016121da949392919061268f565b6040516020818303038152906040528051906020012060001c915050919050565b60008115159050919050565b612210816121fb565b82525050565b6000819050919050565b61222981612216565b82525050565b60006040820190506122446000830185612207565b6122516020830184612220565b9392505050565b600080fd5b61226681612216565b811461227157600080fd5b50565b6000813590506122838161225d565b92915050565b60006020828403121561229f5761229e612258565b5b60006122ad84828501612274565b91505092915050565b60006020820190506122cb6000830184612220565b92915050565b600082825260208201905092915050565b7f796f7520617265206e6f742074686520686f7374000000000000000000000000600082015250565b60006123186014836122d1565b9150612323826122e2565b602082019050919050565b600060208201905081810360008301526123478161230b565b9050919050565b7f796f7520617265206e6f7420696e20746865206172656e610000000000000000600082015250565b60006123846018836122d1565b915061238f8261234e565b602082019050919050565b600060208201905081810360008301526123b381612377565b9050919050565b7f6172656e6120697320656d707479000000000000000000000000000000000000600082015250565b60006123f0600e836122d1565b91506123fb826123ba565b602082019050919050565b6000602082019050818103600083015261241f816123e3565b9050919050565b7f6e6f7420656e6f75676820676f6c640000000000000000000000000000000000600082015250565b600061245c600f836122d1565b915061246782612426565b602082019050919050565b6000602082019050818103600083015261248b8161244f565b9050919050565b7f4e487b7100000000000000000000000000000000000000000000000000000000600052601160045260246000fd5b60006124cc82612216565b91507fffffffffffffffffffffffffffffffffffffffffffffffffffffffffffffffff82036124fe576124fd612492565b5b600182019050919050565b600061251482612216565b915061251f83612216565b925082820190508082111561253757612536612492565b5b92915050565b600061254882612216565b915061255383612216565b925082820390508181111561256b5761256a612492565b5b92915050565b7f6172656e6120697320636c6f7365640000000000000000000000000000000000600082015250565b60006125a7600f836122d1565b91506125b282612571565b602082019050919050565b600060208201905081810360008301526125d68161259a565b9050919050565b7f4e487b7100000000000000000000000000000000000000000000000000000000600052601260045260246000fd5b600061261782612216565b915061262283612216565b925082612632576126316125dd565b5b828204905092915050565b600061264882612216565b915061265383612216565b925082612663576126626125dd565b5b828206905092915050565b6000819050919050565b61268961268482612216565b61266e565b82525050565b600061269b8287612678565b6020820191506126ab8286612678565b6020820191506126bb8285612678565b6020820191506126cb8284612678565b6020820191508190509594505050505056fea26469706673582212209de6006a854377650b0fd8468b16812078fd00b070c6f03fac5d630e48faba4f64736f6c63430008110033",
  "linkReferences": {},
  "deployedLinkReferences": {}
}