{
  "_format": "hh-sol-artifact-1",
  "contractName": "ArenaFacet",
  "sourceName": "contracts/facets/ArenaFacet.sol",
  "abi": [
    {
      "anonymous": false,
      "inputs": [
        {
          "indexed": true,
          "internalType": "uint256",
          "name": "_playerId",
          "type": "uint256"
        }
      ],
      "name": "EnterMagic",
      "type": "event"
    },
    {
      "anonymous": false,
      "inputs": [
        {
          "indexed": true,
          "internalType": "uint256",
          "name": "_playerId",
          "type": "uint256"
        }
      ],
      "name": "EnterMain",
      "type": "event"
    },
    {
      "anonymous": false,
      "inputs": [
        {
          "indexed": true,
          "internalType": "uint256",
          "name": "_playerId",
          "type": "uint256"
        }
      ],
      "name": "EnterSecond",
      "type": "event"
    },
    {
      "anonymous": false,
      "inputs": [
        {
          "indexed": true,
          "internalType": "uint256",
          "name": "_playerId",
          "type": "uint256"
        }
      ],
      "name": "MagicLoss",
      "type": "event"
    },
    {
      "anonymous": false,
      "inputs": [
        {
          "indexed": true,
          "internalType": "uint256",
          "name": "_playerId",
          "type": "uint256"
        }
      ],
      "name": "MagicWin",
      "type": "event"
    },
    {
      "anonymous": false,
      "inputs": [
        {
          "indexed": true,
          "internalType": "uint256",
          "name": "_playerId",
          "type": "uint256"
        }
      ],
      "name": "MainLoss",
      "type": "event"
    },
    {
      "anonymous": false,
      "inputs": [
        {
          "indexed": true,
          "internalType": "uint256",
          "name": "_playerId",
          "type": "uint256"
        }
      ],
      "name": "MainWin",
      "type": "event"
    },
    {
      "anonymous": false,
      "inputs": [
        {
          "indexed": true,
          "internalType": "uint256",
          "name": "_playerId",
          "type": "uint256"
        }
      ],
      "name": "SecondLoss",
      "type": "event"
    },
    {
      "anonymous": false,
      "inputs": [
        {
          "indexed": true,
          "internalType": "uint256",
          "name": "_playerId",
          "type": "uint256"
        }
      ],
      "name": "SecondWin",
      "type": "event"
    },
    {
      "inputs": [
        {
          "internalType": "uint256",
          "name": "_playerId",
          "type": "uint256"
        }
      ],
      "name": "enterMagicArena",
      "outputs": [],
      "stateMutability": "nonpayable",
      "type": "function"
    },
    {
      "inputs": [
        {
          "internalType": "uint256",
          "name": "_playerId",
          "type": "uint256"
        }
      ],
      "name": "enterMainArena",
      "outputs": [],
      "stateMutability": "nonpayable",
      "type": "function"
    },
    {
      "inputs": [
        {
          "internalType": "uint256",
          "name": "_playerId",
          "type": "uint256"
        }
      ],
      "name": "enterSecondArena",
      "outputs": [],
      "stateMutability": "nonpayable",
      "type": "function"
    },
    {
      "inputs": [
        {
          "internalType": "uint256",
          "name": "_challengerId",
          "type": "uint256"
        }
      ],
      "name": "fightMagicArena",
      "outputs": [],
      "stateMutability": "nonpayable",
      "type": "function"
    },
    {
      "inputs": [
        {
          "internalType": "uint256",
          "name": "_challengerId",
          "type": "uint256"
        }
      ],
      "name": "fightMainArena",
      "outputs": [],
      "stateMutability": "nonpayable",
      "type": "function"
    },
    {
      "inputs": [
        {
          "internalType": "uint256",
          "name": "_challengerId",
          "type": "uint256"
        }
      ],
      "name": "fightSecondArena",
      "outputs": [],
      "stateMutability": "nonpayable",
      "type": "function"
    },
    {
      "inputs": [],
      "name": "getMagicArena",
      "outputs": [
        {
          "internalType": "bool",
          "name": "",
          "type": "bool"
        },
        {
          "internalType": "uint256",
          "name": "",
          "type": "uint256"
        }
      ],
      "stateMutability": "view",
      "type": "function"
    },
    {
      "inputs": [
        {
          "internalType": "uint256",
          "name": "_playerId",
          "type": "uint256"
        }
      ],
      "name": "getMagicArenaLosses",
      "outputs": [
        {
          "internalType": "uint256",
          "name": "",
          "type": "uint256"
        }
      ],
      "stateMutability": "view",
      "type": "function"
    },
    {
      "inputs": [
        {
          "internalType": "uint256",
          "name": "_playerId",
          "type": "uint256"
        }
      ],
      "name": "getMagicArenaWins",
      "outputs": [
        {
          "internalType": "uint256",
          "name": "",
          "type": "uint256"
        }
      ],
      "stateMutability": "view",
      "type": "function"
    },
    {
      "inputs": [],
      "name": "getMainArena",
      "outputs": [
        {
          "internalType": "bool",
          "name": "",
          "type": "bool"
        },
        {
          "internalType": "uint256",
          "name": "",
          "type": "uint256"
        }
      ],
      "stateMutability": "view",
      "type": "function"
    },
    {
      "inputs": [
        {
          "internalType": "uint256",
          "name": "_playerId",
          "type": "uint256"
        }
      ],
      "name": "getMainArenaLosses",
      "outputs": [
        {
          "internalType": "uint256",
          "name": "",
          "type": "uint256"
        }
      ],
      "stateMutability": "view",
      "type": "function"
    },
    {
      "inputs": [
        {
          "internalType": "uint256",
          "name": "_playerId",
          "type": "uint256"
        }
      ],
      "name": "getMainArenaWins",
      "outputs": [
        {
          "internalType": "uint256",
          "name": "",
          "type": "uint256"
        }
      ],
      "stateMutability": "view",
      "type": "function"
    },
    {
      "inputs": [],
      "name": "getSecondArena",
      "outputs": [
        {
          "internalType": "bool",
          "name": "",
          "type": "bool"
        },
        {
          "internalType": "uint256",
          "name": "",
          "type": "uint256"
        }
      ],
      "stateMutability": "view",
      "type": "function"
    },
    {
      "inputs": [
        {
          "internalType": "uint256",
          "name": "_playerId",
          "type": "uint256"
        }
      ],
      "name": "getTotalLosses",
      "outputs": [
        {
          "internalType": "uint256",
          "name": "",
          "type": "uint256"
        }
      ],
      "stateMutability": "view",
      "type": "function"
    },
    {
      "inputs": [
        {
          "internalType": "uint256",
          "name": "_playerId",
          "type": "uint256"
        }
      ],
      "name": "getTotalWins",
      "outputs": [
        {
          "internalType": "uint256",
          "name": "",
          "type": "uint256"
        }
      ],
      "stateMutability": "view",
      "type": "function"
    },
    {
      "inputs": [],
      "name": "openArenas",
      "outputs": [],
      "stateMutability": "nonpayable",
      "type": "function"
    }
  ],
  "bytecode": "0x608060405234801561001057600080fd5b506123d8806100206000396000f3fe608060405234801561001057600080fd5b50600436106101005760003560e01c80639e42de2211610097578063e774c70d11610066578063e774c70d146102ad578063eb88ff8d146102c9578063f0991451146102e8578063fb944ffc1461030457610100565b80639e42de2214610229578063a8dcd90d14610259578063c5d9ee8214610275578063ce02121f1461029157610100565b806372a1e3cc116100d357806372a1e3cc146101a05780638255e903146101aa57806382567771146101da578063935abcf61461020a57610100565b806304295323146101055780634cc31ab5146101245780634f7d08e514610140578063636c2fe714610170575b600080fd5b61010d610334565b60405161011b929190611fee565b60405180910390f35b61013e60048036038101906101399190612048565b610347565b005b61015a60048036038101906101559190612048565b6103ba565b6040516101679190612075565b60405180910390f35b61018a60048036038101906101859190612048565b6103cc565b6040516101979190612075565b60405180910390f35b6101a86103de565b005b6101c460048036038101906101bf9190612048565b6103e8565b6040516101d19190612075565b60405180910390f35b6101f460048036038101906101ef9190612048565b6103fa565b6040516102019190612075565b60405180910390f35b61021261040c565b604051610220929190611fee565b60405180910390f35b610243600480360381019061023e9190612048565b61041f565b6040516102509190612075565b60405180910390f35b610273600480360381019061026e9190612048565b610431565b005b61028f600480360381019061028a9190612048565b6104a4565b005b6102ab60048036038101906102a69190612048565b6104dd565b005b6102c760048036038101906102c29190612048565b610550565b005b6102d1610589565b6040516102df929190611fee565b60405180910390f35b61030260048036038101906102fd9190612048565b61059c565b005b61031e60048036038101906103199190612048565b6105d5565b60405161032b9190612075565b60405180910390f35b60008061033f6105e7565b915091509091565b6000806103538361061c565b8092508193505050817f5b8d5960e28aa2e632f071463a0b86b97186239d9f80bce0ef792129df28781a60405160405180910390a2807f325aad9d170785e4cef15433ddac3f9bb2897c1df086a14e353c56fb0ba6fbf560405160405180910390a2505050565b60006103c582610a7d565b9050919050565b60006103d782610aa8565b9050919050565b6103e6610ad3565b565b60006103f382610ba1565b9050919050565b600061040582610bcc565b9050919050565b600080610417610bf7565b915091509091565b600061042a82610c2c565b9050919050565b60008061043d83610c57565b8092508193505050817f7f6bd6aa2f70e3cf6d1271981eb69a90a9fd72c25b86eb41cba70a2247eba62d60405160405180910390a2807ff4f4eb30bb1d26ae81f89a6d81478ee3d649c1e79544d225f2beb5f1eca8ce8860405160405180910390a2505050565b6104ad816110b8565b807f0879a19b12564127de37e414eb119f4ba433c76bb81d6ab23b7326f98946cbbc60405160405180910390a250565b6000806104e983611336565b8092508193505050817f2a1949a44eb7c43972e39a564a8797225bf45929dfcb20897f90389a8cc1b6df60405160405180910390a2807f155586aefb5285f1d6fc85d541f9feaf03bc3ceae95b1fdd2b1830e1bd2e2a7760405160405180910390a2505050565b61055981611797565b807fef2a34cb7d27c37e23ed4fde1dca46351d53f1ee711a2569816e1c020eb03e7660405160405180910390a250565b6000806105946105e7565b915091509091565b6105a581611a15565b807f7d4685d5e927fa2461758f5c12de56103a29fecdf09fad0b8215f165573cecd360405160405180910390a250565b60006105e082611c93565b9050919050565b60008060006105f4611cbe565b90508060010160000160009054906101000a900460ff16816001016001015492509250509091565b6000806000610629611ceb565b90506000610635611d18565b90506000610641611cbe565b905080600d0160000160009054906101000a900460ff1615610698576040517f08c379a000000000000000000000000000000000000000000000000000000000815260040161068f906120ed565b60405180910390fd5b600083600301600088815260200190815260200160002060020154146106bd57600080fd5b60018260000160003373ffffffffffffffffffffffffffffffffffffffff1673ffffffffffffffffffffffffffffffffffffffff168152602001908152602001600020541015610742576040517f08c379a000000000000000000000000000000000000000000000000000000000815260040161073990612159565b60405180910390fd5b600061075582600d016001015488611d45565b905060008088830361088657889150836001016001015490508360170160008a81526020019081526020016000206000815480929190610794906121a8565b91905055508360190160008a815260200190815260200160002060008154809291906107bf906121a8565b91905055508360180160008560010160010154815260200190815260200160002060008154809291906107f1906121a8565b919050555083601a016000856001016001015481526020019081526020016000206000815480929190610823906121a8565b919050555060018560000160003373ffffffffffffffffffffffffffffffffffffffff1673ffffffffffffffffffffffffffffffffffffffff168152602001908152602001600020600082825461087a91906121f0565b92505081905550610a27565b889050836001016001015491508360170160008560010160010154815260200190815260200160002060008154809291906108c0906121a8565b91905055508360190160008560010160010154815260200190815260200160002060008154809291906108f2906121a8565b91905055508360180160008a8152602001908152602001600020600081548092919061091d906121a8565b919050555083601a0160008a81526020019081526020016000206000815480929190610948906121a8565b919050555060028560000160008660010160030160009054906101000a900473ffffffffffffffffffffffffffffffffffffffff1673ffffffffffffffffffffffffffffffffffffffff1673ffffffffffffffffffffffffffffffffffffffff16815260200190815260200160002060008282546109c691906121f0565b9250508190555060018560000160003373ffffffffffffffffffffffffffffffffffffffff1673ffffffffffffffffffffffffffffffffffffffff1681526020019081526020016000206000828254610a1f9190612224565b925050819055505b600184600d0160000160006101000a81548160ff021916908315150217905550600086600301600086600d0160010154815260200190815260200160002060020181905550818197509750505050505050915091565b600080610a88611cbe565b905080601901600084815260200190815260200160002054915050919050565b600080610ab3611cbe565b905080601201600084815260200190815260200160002054915050919050565b6000610add611cbe565b9050600015158160000160009054906101000a900460ff16151514610b0157600080fd5b60018160000160006101000a81548160ff02191690831515021790555060018160010160000160006101000a81548160ff02191690831515021790555060018160050160000160006101000a81548160ff02191690831515021790555060018160090160000160006101000a81548160ff021916908315150217905550600181600d0160000160006101000a81548160ff02191690831515021790555050565b600080610bac611cbe565b905080601101600084815260200190815260200160002054915050919050565b600080610bd7611cbe565b905080601801600084815260200190815260200160002054915050919050565b6000806000610c04611cbe565b905080600d0160000160009054906101000a900460ff1681600d016001015492509250509091565b600080610c37611cbe565b905080601701600084815260200190815260200160002054915050919050565b6000806000610c64611ceb565b90506000610c70611d18565b90506000610c7c611cbe565b90508060050160000160009054906101000a900460ff1615610cd3576040517f08c379a0000000000000000000000000000000000000000000000000000000008152600401610cca906120ed565b60405180910390fd5b60008360030160008881526020019081526020016000206002015414610cf857600080fd5b60018260000160003373ffffffffffffffffffffffffffffffffffffffff1673ffffffffffffffffffffffffffffffffffffffff168152602001908152602001600020541015610d7d576040517f08c379a0000000000000000000000000000000000000000000000000000000008152600401610d7490612159565b60405180910390fd5b6000610d90826005016001015488611e53565b9050600080888303610ec157889150836005016001015490508360130160008a81526020019081526020016000206000815480929190610dcf906121a8565b91905055508360190160008a81526020019081526020016000206000815480929190610dfa906121a8565b9190505550836014016000856005016001015481526020019081526020016000206000815480929190610e2c906121a8565b919050555083601a016000856005016001015481526020019081526020016000206000815480929190610e5e906121a8565b919050555060018560000160003373ffffffffffffffffffffffffffffffffffffffff1673ffffffffffffffffffffffffffffffffffffffff1681526020019081526020016000206000828254610eb591906121f0565b92505081905550611062565b88905083600501600101549150836013016000856005016001015481526020019081526020016000206000815480929190610efb906121a8565b9190505550836019016000856005016001015481526020019081526020016000206000815480929190610f2d906121a8565b91905055508360140160008a81526020019081526020016000206000815480929190610f58906121a8565b919050555083601a0160008a81526020019081526020016000206000815480929190610f83906121a8565b919050555060028560000160008660050160030160009054906101000a900473ffffffffffffffffffffffffffffffffffffffff1673ffffffffffffffffffffffffffffffffffffffff1673ffffffffffffffffffffffffffffffffffffffff168152602001908152602001600020600082825461100191906121f0565b9250508190555060018560000160003373ffffffffffffffffffffffffffffffffffffffff1673ffffffffffffffffffffffffffffffffffffffff168152602001908152602001600020600082825461105a9190612224565b925050819055505b60018460050160000160006101000a81548160ff02191690831515021790555060008660030160008660050160010154815260200190815260200160002060020181905550818197509750505050505050915091565b60006110c2611ceb565b905060006110ce611d18565b905060006110da611cbe565b90508060050160000160009054906101000a900460ff16611130576040517f08c379a0000000000000000000000000000000000000000000000000000000008152600401611127906122a4565b60405180910390fd5b60018260000160003373ffffffffffffffffffffffffffffffffffffffff1673ffffffffffffffffffffffffffffffffffffffff1681526020019081526020016000205410156111b5576040517f08c379a00000000000000000000000000000000000000000000000000000000081526004016111ac90612159565b60405180910390fd5b600083600301600086815260200190815260200160002060020154146111da57600080fd5b3373ffffffffffffffffffffffffffffffffffffffff1683600201600086815260200190815260200160002060009054906101000a900473ffffffffffffffffffffffffffffffffffffffff1673ffffffffffffffffffffffffffffffffffffffff161461124757600080fd5b60018260000160003373ffffffffffffffffffffffffffffffffffffffff1673ffffffffffffffffffffffffffffffffffffffff16815260200190815260200160002060008282546112999190612224565b9250508190555060048360030160008681526020019081526020016000206002018190555060008160050160000160006101000a81548160ff021916908315150217905550838160050160010181905550338160050160030160006101000a81548173ffffffffffffffffffffffffffffffffffffffff021916908373ffffffffffffffffffffffffffffffffffffffff16021790555050505050565b6000806000611343611ceb565b9050600061134f611d18565b9050600061135b611cbe565b90508060010160000160009054906101000a900460ff16156113b2576040517f08c379a00000000000000000000000000000000000000000000000000000000081526004016113a9906120ed565b60405180910390fd5b600083600301600088815260200190815260200160002060020154146113d757600080fd5b60018260000160003373ffffffffffffffffffffffffffffffffffffffff1673ffffffffffffffffffffffffffffffffffffffff16815260200190815260200160002054101561145c576040517f08c379a000000000000000000000000000000000000000000000000000000000815260040161145390612159565b60405180910390fd5b600061146f826001016001015488611e53565b90506000808883036115a057889150836001016001015490508360110160008a815260200190815260200160002060008154809291906114ae906121a8565b91905055508360190160008a815260200190815260200160002060008154809291906114d9906121a8565b919050555083601201600085600101600101548152602001908152602001600020600081548092919061150b906121a8565b919050555083601a01600085600101600101548152602001908152602001600020600081548092919061153d906121a8565b919050555060018560000160003373ffffffffffffffffffffffffffffffffffffffff1673ffffffffffffffffffffffffffffffffffffffff168152602001908152602001600020600082825461159491906121f0565b92505081905550611741565b889050836001016001015491508360110160008560010160010154815260200190815260200160002060008154809291906115da906121a8565b919050555083601901600085600101600101548152602001908152602001600020600081548092919061160c906121a8565b91905055508360120160008a81526020019081526020016000206000815480929190611637906121a8565b919050555083601a0160008a81526020019081526020016000206000815480929190611662906121a8565b919050555060028560000160008660010160030160009054906101000a900473ffffffffffffffffffffffffffffffffffffffff1673ffffffffffffffffffffffffffffffffffffffff1673ffffffffffffffffffffffffffffffffffffffff16815260200190815260200160002060008282546116e091906121f0565b9250508190555060018560000160003373ffffffffffffffffffffffffffffffffffffffff1673ffffffffffffffffffffffffffffffffffffffff16815260200190815260200160002060008282546117399190612224565b925050819055505b60018460010160000160006101000a81548160ff02191690831515021790555060008660030160008660010160010154815260200190815260200160002060020181905550818197509750505050505050915091565b60006117a1611ceb565b905060006117ad611d18565b905060006117b9611cbe565b90508060010160000160009054906101000a900460ff1661180f576040517f08c379a0000000000000000000000000000000000000000000000000000000008152600401611806906122a4565b60405180910390fd5b60018260000160003373ffffffffffffffffffffffffffffffffffffffff1673ffffffffffffffffffffffffffffffffffffffff168152602001908152602001600020541015611894576040517f08c379a000000000000000000000000000000000000000000000000000000000815260040161188b90612159565b60405180910390fd5b600083600301600086815260200190815260200160002060020154146118b957600080fd5b3373ffffffffffffffffffffffffffffffffffffffff1683600201600086815260200190815260200160002060009054906101000a900473ffffffffffffffffffffffffffffffffffffffff1673ffffffffffffffffffffffffffffffffffffffff161461192657600080fd5b60018260000160003373ffffffffffffffffffffffffffffffffffffffff1673ffffffffffffffffffffffffffffffffffffffff16815260200190815260200160002060008282546119789190612224565b9250508190555060048360030160008681526020019081526020016000206002018190555060008160010160000160006101000a81548160ff021916908315150217905550838160010160010181905550338160010160030160006101000a81548173ffffffffffffffffffffffffffffffffffffffff021916908373ffffffffffffffffffffffffffffffffffffffff16021790555050505050565b6000611a1f611ceb565b90506000611a2b611d18565b90506000611a37611cbe565b905080600d0160000160009054906101000a900460ff16611a8d576040517f08c379a0000000000000000000000000000000000000000000000000000000008152600401611a84906122a4565b60405180910390fd5b60018260000160003373ffffffffffffffffffffffffffffffffffffffff1673ffffffffffffffffffffffffffffffffffffffff168152602001908152602001600020541015611b12576040517f08c379a0000000000000000000000000000000000000000000000000000000008152600401611b0990612159565b60405180910390fd5b60008360030160008681526020019081526020016000206002015414611b3757600080fd5b3373ffffffffffffffffffffffffffffffffffffffff1683600201600086815260200190815260200160002060009054906101000a900473ffffffffffffffffffffffffffffffffffffffff1673ffffffffffffffffffffffffffffffffffffffff1614611ba457600080fd5b60018260000160003373ffffffffffffffffffffffffffffffffffffffff1673ffffffffffffffffffffffffffffffffffffffff1681526020019081526020016000206000828254611bf69190612224565b92505081905550600483600301600086815260200190815260200160002060020181905550600081600d0160000160006101000a81548160ff0219169083151502179055508381600d01600101819055503381600d0160030160006101000a81548173ffffffffffffffffffffffffffffffffffffffff021916908373ffffffffffffffffffffffffffffffffffffffff16021790555050505050565b600080611c9e611cbe565b905080601a01600084815260200190815260200160002054915050919050565b6000807f1b1c2350f60dba32e7a2436167ce3f8399cd1c51a95c8577f1448f53846d4cda90508091505090565b6000807f3cab9a070a0c61cd0ae9d9e9e2c0781e5ca8691bec4087e5a4701d5ac018dd4e90508091505090565b6000807f2c89d74504b6ad8d4fbde22bc3474166bac5452a11195897f239d8bebe02d70790508091505090565b600080611d50611ceb565b9050600081600301600086815260200190815260200160002090506000826003016000868152602001908152602001600020905060006004611d9187611f61565b611d9b91906122f3565b8260050154611daa9190612324565b6005611db589611f61565b611dbf91906122f3565b8460040154611dce9190612324565b611dd89190612224565b905060006005611de789611f61565b611df191906122f3565b8460050154611e009190612324565b6005611e0b89611f61565b611e1591906122f3565b8460040154611e249190612324565b611e2e9190612224565b9050808210611e44578795505050505050611e4d565b86955050505050505b92915050565b600080611e5e611ceb565b9050600081600301600086815260200190815260200160002090506000826003016000868152602001908152602001600020905060006004611e9f87611f61565b611ea991906122f3565b8260030154611eb89190612324565b6005611ec389611f61565b611ecd91906122f3565b8460040154611edc9190612324565b611ee69190612224565b905060006005611ef589611f61565b611eff91906122f3565b8460030154611f0e9190612324565b6005611f1989611f61565b611f2391906122f3565b8460040154611f329190612324565b611f3c9190612224565b9050808210611f52578795505050505050611f5b565b86955050505050505b92915050565b600080611f6c611ceb565b905082816001015442611f7f91906121f0565b611f8991906121f0565b604051602001611f999190612387565b6040516020818303038152906040528051906020012060001c915050919050565b60008115159050919050565b611fcf81611fba565b82525050565b6000819050919050565b611fe881611fd5565b82525050565b60006040820190506120036000830185611fc6565b6120106020830184611fdf565b9392505050565b600080fd5b61202581611fd5565b811461203057600080fd5b50565b6000813590506120428161201c565b92915050565b60006020828403121561205e5761205d612017565b5b600061206c84828501612033565b91505092915050565b600060208201905061208a6000830184611fdf565b92915050565b600082825260208201905092915050565b7f6172656e6120697320656d707479000000000000000000000000000000000000600082015250565b60006120d7600e83612090565b91506120e2826120a1565b602082019050919050565b60006020820190508181036000830152612106816120ca565b9050919050565b7f6e6f7420656e6f75676820676f6c640000000000000000000000000000000000600082015250565b6000612143600f83612090565b915061214e8261210d565b602082019050919050565b6000602082019050818103600083015261217281612136565b9050919050565b7f4e487b7100000000000000000000000000000000000000000000000000000000600052601160045260246000fd5b60006121b382611fd5565b91507fffffffffffffffffffffffffffffffffffffffffffffffffffffffffffffffff82036121e5576121e4612179565b5b600182019050919050565b60006121fb82611fd5565b915061220683611fd5565b925082820190508082111561221e5761221d612179565b5b92915050565b600061222f82611fd5565b915061223a83611fd5565b925082820390508181111561225257612251612179565b5b92915050565b7f6172656e6120697320636c6f7365640000000000000000000000000000000000600082015250565b600061228e600f83612090565b915061229982612258565b602082019050919050565b600060208201905081810360008301526122bd81612281565b9050919050565b7f4e487b7100000000000000000000000000000000000000000000000000000000600052601260045260246000fd5b60006122fe82611fd5565b915061230983611fd5565b925082612319576123186122c4565b5b828206905092915050565b600061232f82611fd5565b915061233a83611fd5565b925082820261234881611fd5565b9150828204841483151761235f5761235e612179565b5b5092915050565b6000819050919050565b61238161237c82611fd5565b612366565b82525050565b60006123938284612370565b6020820191508190509291505056fea264697066735822122054e4365a9bffbcf15e1027762ea36a9302146da6b6132c63a63acd748f65b99164736f6c63430008110033",
  "linkReferences": {},
  "deployedLinkReferences": {}
}