{
  "_format": "hh-sol-artifact-1",
  "contractName": "ArenaFacet",
  "sourceName": "contracts/facets/ArenaFacet.sol",
  "abi": [
    {
      "inputs": [],
      "stateMutability": "nonpayable",
      "type": "constructor"
    },
    {
      "anonymous": false,
      "inputs": [
        {
          "indexed": true,
          "internalType": "address",
          "name": "_owner",
          "type": "address"
        },
        {
          "indexed": false,
          "internalType": "uint256",
          "name": "_player",
          "type": "uint256"
        }
      ],
      "name": "ItemCrafted",
      "type": "event"
    },
    {
      "inputs": [
        {
          "internalType": "uint256",
          "name": "_playerId",
          "type": "uint256"
        }
      ],
      "name": "enterMagicArena",
      "outputs": [],
      "stateMutability": "nonpayable",
      "type": "function"
    },
    {
      "inputs": [
        {
          "internalType": "uint256",
          "name": "_playerId",
          "type": "uint256"
        }
      ],
      "name": "enterMainArena",
      "outputs": [],
      "stateMutability": "nonpayable",
      "type": "function"
    },
    {
      "inputs": [
        {
          "internalType": "uint256",
          "name": "_challengerId",
          "type": "uint256"
        }
      ],
      "name": "fightMagicArena",
      "outputs": [],
      "stateMutability": "nonpayable",
      "type": "function"
    },
    {
      "inputs": [
        {
          "internalType": "uint256",
          "name": "_challengerId",
          "type": "uint256"
        }
      ],
      "name": "fightMainArena",
      "outputs": [],
      "stateMutability": "nonpayable",
      "type": "function"
    },
    {
      "inputs": [],
      "name": "getMagicArena",
      "outputs": [
        {
          "internalType": "bool",
          "name": "",
          "type": "bool"
        }
      ],
      "stateMutability": "view",
      "type": "function"
    },
    {
      "inputs": [],
      "name": "getMainArena",
      "outputs": [
        {
          "internalType": "bool",
          "name": "",
          "type": "bool"
        }
      ],
      "stateMutability": "view",
      "type": "function"
    },
    {
      "inputs": [],
      "name": "getSecondArena",
      "outputs": [
        {
          "internalType": "bool",
          "name": "",
          "type": "bool"
        }
      ],
      "stateMutability": "view",
      "type": "function"
    },
    {
      "inputs": [],
      "name": "getThirdArena",
      "outputs": [
        {
          "internalType": "bool",
          "name": "",
          "type": "bool"
        }
      ],
      "stateMutability": "view",
      "type": "function"
    }
  ],
  "bytecode": "0x608060405234801561001057600080fd5b5061002361002860201b6101e11760201c565b6100ea565b60006100386100bd60201b60201c565b905060018160000160000160006101000a81548160ff02191690831515021790555060018160040160000160006101000a81548160ff02191690831515021790555060018160080160000160006101000a81548160ff021916908315150217905550600181600c0160000160006101000a81548160ff02191690831515021790555050565b6000807f1b1c2350f60dba32e7a2436167ce3f8399cd1c51a95c8577f1448f53846d4cda90508091505090565b61169a806100f96000396000f3fe608060405234801561001057600080fd5b50600436106100885760003560e01c8063e774c70d1161005b578063e774c70d14610101578063eb88ff8d1461011d578063f09914511461013b578063f66ae4351461015757610088565b8063042953231461008d5780634cc31ab5146100ab578063935abcf6146100c7578063ce02121f146100e5575b600080fd5b610095610175565b6040516100a291906112cf565b60405180910390f35b6100c560048036038101906100c09190611325565b610184565b005b6100cf610190565b6040516100dc91906112cf565b60405180910390f35b6100ff60048036038101906100fa9190611325565b61019f565b005b61011b60048036038101906101169190611325565b6101ab565b005b6101256101b7565b60405161013291906112cf565b60405180910390f35b61015560048036038101906101509190611325565b6101c6565b005b61015f6101d2565b60405161016c91906112cf565b60405180910390f35b600061017f610270565b905090565b61018d81610298565b50565b600061019a610270565b905090565b6101a8816106aa565b50565b6101b481610abc565b50565b60006101c1610270565b905090565b6101cf81610d3a565b50565b60006101dc610270565b905090565b60006101eb610fb8565b905060018160000160000160006101000a81548160ff02191690831515021790555060018160040160000160006101000a81548160ff02191690831515021790555060018160080160000160006101000a81548160ff021916908315150217905550600181600c0160000160006101000a81548160ff02191690831515021790555050565b60008061027b610fb8565b90508060000160000160009054906101000a900460ff1691505090565b60006102a2610fe5565b905060006102ae611012565b905060006102ba610fb8565b905080600c0160000160009054906101000a900460ff1615610311576040517f08c379a0000000000000000000000000000000000000000000000000000000008152600401610308906113af565b60405180910390fd5b60018260000160003373ffffffffffffffffffffffffffffffffffffffff1673ffffffffffffffffffffffffffffffffffffffff168152602001908152602001600020541015610396576040517f08c379a000000000000000000000000000000000000000000000000000000000815260040161038d9061141b565b60405180910390fd5b60006103a982600c01600101548661103f565b90508481036104ca5781601601600086815260200190815260200160002060008154809291906103d89061146a565b919050555081601801600086815260200190815260200160002060008154809291906104039061146a565b91905055508160170160008360000160010154815260200190815260200160002060008154809291906104359061146a565b91905055508160190160008360000160010154815260200190815260200160002060008154809291906104679061146a565b919050555060018360000160003373ffffffffffffffffffffffffffffffffffffffff1673ffffffffffffffffffffffffffffffffffffffff16815260200190815260200160002060008282546104be91906114b2565b9250508190555061065e565b8160160160008360000160010154815260200190815260200160002060008154809291906104f79061146a565b91905055508160180160008360000160010154815260200190815260200160002060008154809291906105299061146a565b919050555081601701600086815260200190815260200160002060008154809291906105549061146a565b9190505550816019016000868152602001908152602001600020600081548092919061057f9061146a565b919050555060028360000160008460000160030160009054906101000a900473ffffffffffffffffffffffffffffffffffffffff1673ffffffffffffffffffffffffffffffffffffffff1673ffffffffffffffffffffffffffffffffffffffff16815260200190815260200160002060008282546105fd91906114b2565b9250508190555060018360000160003373ffffffffffffffffffffffffffffffffffffffff1673ffffffffffffffffffffffffffffffffffffffff168152602001908152602001600020600082825461065691906114e6565b925050819055505b600182600c0160000160006101000a81548160ff021916908315150217905550600084600301600084600c01600101548152602001908152602001600020600201819055505050505050565b60006106b4610fe5565b905060006106c0611012565b905060006106cc610fb8565b90508060000160000160009054906101000a900460ff1615610723576040517f08c379a000000000000000000000000000000000000000000000000000000000815260040161071a906113af565b60405180910390fd5b60018260000160003373ffffffffffffffffffffffffffffffffffffffff1673ffffffffffffffffffffffffffffffffffffffff1681526020019081526020016000205410156107a8576040517f08c379a000000000000000000000000000000000000000000000000000000000815260040161079f9061141b565b60405180910390fd5b60006107bb82600001600101548661114d565b90508481036108dc5781601001600086815260200190815260200160002060008154809291906107ea9061146a565b919050555081601801600086815260200190815260200160002060008154809291906108159061146a565b91905055508160110160008360000160010154815260200190815260200160002060008154809291906108479061146a565b91905055508160190160008360000160010154815260200190815260200160002060008154809291906108799061146a565b919050555060018360000160003373ffffffffffffffffffffffffffffffffffffffff1673ffffffffffffffffffffffffffffffffffffffff16815260200190815260200160002060008282546108d091906114b2565b92505081905550610a70565b8160100160008360000160010154815260200190815260200160002060008154809291906109099061146a565b919050555081601801600083600001600101548152602001908152602001600020600081548092919061093b9061146a565b919050555081601101600086815260200190815260200160002060008154809291906109669061146a565b919050555081601901600086815260200190815260200160002060008154809291906109919061146a565b919050555060028360000160008460000160030160009054906101000a900473ffffffffffffffffffffffffffffffffffffffff1673ffffffffffffffffffffffffffffffffffffffff1673ffffffffffffffffffffffffffffffffffffffff1681526020019081526020016000206000828254610a0f91906114b2565b9250508190555060018360000160003373ffffffffffffffffffffffffffffffffffffffff1673ffffffffffffffffffffffffffffffffffffffff1681526020019081526020016000206000828254610a6891906114e6565b925050819055505b60018260000160000160006101000a81548160ff021916908315150217905550600084600301600084600001600101548152602001908152602001600020600201819055505050505050565b6000610ac6610fe5565b90506000610ad2611012565b90506000610ade610fb8565b90508060000160000160009054906101000a900460ff16610b34576040517f08c379a0000000000000000000000000000000000000000000000000000000008152600401610b2b90611566565b60405180910390fd5b60018260000160003373ffffffffffffffffffffffffffffffffffffffff1673ffffffffffffffffffffffffffffffffffffffff168152602001908152602001600020541015610bb9576040517f08c379a0000000000000000000000000000000000000000000000000000000008152600401610bb09061141b565b60405180910390fd5b60008360030160008681526020019081526020016000206002015414610bde57600080fd5b3373ffffffffffffffffffffffffffffffffffffffff1683600201600086815260200190815260200160002060009054906101000a900473ffffffffffffffffffffffffffffffffffffffff1673ffffffffffffffffffffffffffffffffffffffff1614610c4b57600080fd5b60018260000160003373ffffffffffffffffffffffffffffffffffffffff1673ffffffffffffffffffffffffffffffffffffffff1681526020019081526020016000206000828254610c9d91906114e6565b9250508190555060048360030160008681526020019081526020016000206002018190555060008160000160000160006101000a81548160ff021916908315150217905550838160000160010181905550338160000160030160006101000a81548173ffffffffffffffffffffffffffffffffffffffff021916908373ffffffffffffffffffffffffffffffffffffffff16021790555050505050565b6000610d44610fe5565b90506000610d50611012565b90506000610d5c610fb8565b905080600c0160000160009054906101000a900460ff16610db2576040517f08c379a0000000000000000000000000000000000000000000000000000000008152600401610da990611566565b60405180910390fd5b60018260000160003373ffffffffffffffffffffffffffffffffffffffff1673ffffffffffffffffffffffffffffffffffffffff168152602001908152602001600020541015610e37576040517f08c379a0000000000000000000000000000000000000000000000000000000008152600401610e2e9061141b565b60405180910390fd5b60008360030160008681526020019081526020016000206002015414610e5c57600080fd5b3373ffffffffffffffffffffffffffffffffffffffff1683600201600086815260200190815260200160002060009054906101000a900473ffffffffffffffffffffffffffffffffffffffff1673ffffffffffffffffffffffffffffffffffffffff1614610ec957600080fd5b60018260000160003373ffffffffffffffffffffffffffffffffffffffff1673ffffffffffffffffffffffffffffffffffffffff1681526020019081526020016000206000828254610f1b91906114e6565b92505081905550600483600301600086815260200190815260200160002060020181905550600081600c0160000160006101000a81548160ff0219169083151502179055508381600c01600101819055503381600c0160030160006101000a81548173ffffffffffffffffffffffffffffffffffffffff021916908373ffffffffffffffffffffffffffffffffffffffff16021790555050505050565b6000807f1b1c2350f60dba32e7a2436167ce3f8399cd1c51a95c8577f1448f53846d4cda90508091505090565b6000807f3cab9a070a0c61cd0ae9d9e9e2c0781e5ca8691bec4087e5a4701d5ac018dd4e90508091505090565b6000807f2c89d74504b6ad8d4fbde22bc3474166bac5452a11195897f239d8bebe02d70790508091505090565b60008061104a610fe5565b905060008160030160008681526020019081526020016000209050600082600301600086815260200190815260200160002090506000600461108b8761125b565b61109591906115b5565b82600501546110a491906115e6565b60056110af8961125b565b6110b991906115b5565b84600401546110c891906115e6565b6110d291906114e6565b9050600060056110e18961125b565b6110eb91906115b5565b84600501546110fa91906115e6565b60056111058961125b565b61110f91906115b5565b846004015461111e91906115e6565b61112891906114e6565b905080821061113e578795505050505050611147565b86955050505050505b92915050565b600080611158610fe5565b90506000816003016000868152602001908152602001600020905060008260030160008681526020019081526020016000209050600060046111998761125b565b6111a391906115b5565b82600301546111b291906115e6565b60056111bd8961125b565b6111c791906115b5565b84600401546111d691906115e6565b6111e091906114e6565b9050600060056111ef8961125b565b6111f991906115b5565b846003015461120891906115e6565b60056112138961125b565b61121d91906115b5565b846004015461122c91906115e6565b61123691906114e6565b905080821061124c578795505050505050611255565b86955050505050505b92915050565b600080611266610fe5565b90508281600101544261127991906114b2565b61128391906114b2565b6040516020016112939190611649565b6040516020818303038152906040528051906020012060001c915050919050565b60008115159050919050565b6112c9816112b4565b82525050565b60006020820190506112e460008301846112c0565b92915050565b600080fd5b6000819050919050565b611302816112ef565b811461130d57600080fd5b50565b60008135905061131f816112f9565b92915050565b60006020828403121561133b5761133a6112ea565b5b600061134984828501611310565b91505092915050565b600082825260208201905092915050565b7f6172656e6120697320656d707479000000000000000000000000000000000000600082015250565b6000611399600e83611352565b91506113a482611363565b602082019050919050565b600060208201905081810360008301526113c88161138c565b9050919050565b7f6e6f7420656e6f75676820676f6c640000000000000000000000000000000000600082015250565b6000611405600f83611352565b9150611410826113cf565b602082019050919050565b60006020820190508181036000830152611434816113f8565b9050919050565b7f4e487b7100000000000000000000000000000000000000000000000000000000600052601160045260246000fd5b6000611475826112ef565b91507fffffffffffffffffffffffffffffffffffffffffffffffffffffffffffffffff82036114a7576114a661143b565b5b600182019050919050565b60006114bd826112ef565b91506114c8836112ef565b92508282019050808211156114e0576114df61143b565b5b92915050565b60006114f1826112ef565b91506114fc836112ef565b92508282039050818111156115145761151361143b565b5b92915050565b7f6172656e6120697320636c6f7365640000000000000000000000000000000000600082015250565b6000611550600f83611352565b915061155b8261151a565b602082019050919050565b6000602082019050818103600083015261157f81611543565b9050919050565b7f4e487b7100000000000000000000000000000000000000000000000000000000600052601260045260246000fd5b60006115c0826112ef565b91506115cb836112ef565b9250826115db576115da611586565b5b828206905092915050565b60006115f1826112ef565b91506115fc836112ef565b925082820261160a816112ef565b915082820484148315176116215761162061143b565b5b5092915050565b6000819050919050565b61164361163e826112ef565b611628565b82525050565b60006116558284611632565b6020820191508190509291505056fea26469706673582212206591c16c031dbd0e079765ecf08f4068f85dd67f2fbb4ac628e3a310d15f291c64736f6c63430008110033",
  "linkReferences": {},
  "deployedLinkReferences": {}
}