{
  "_format": "hh-sol-artifact-1",
  "contractName": "ArenaFacet",
  "sourceName": "contracts/facets/ArenaFacet.sol",
  "abi": [
    {
      "anonymous": false,
      "inputs": [
        {
          "indexed": true,
          "internalType": "uint256",
          "name": "_playerId",
          "type": "uint256"
        }
      ],
      "name": "EnterMagic",
      "type": "event"
    },
    {
      "anonymous": false,
      "inputs": [
        {
          "indexed": true,
          "internalType": "uint256",
          "name": "_playerId",
          "type": "uint256"
        }
      ],
      "name": "EnterMain",
      "type": "event"
    },
    {
      "anonymous": false,
      "inputs": [
        {
          "indexed": true,
          "internalType": "uint256",
          "name": "_playerId",
          "type": "uint256"
        }
      ],
      "name": "MagicLoss",
      "type": "event"
    },
    {
      "anonymous": false,
      "inputs": [
        {
          "indexed": true,
          "internalType": "uint256",
          "name": "_playerId",
          "type": "uint256"
        }
      ],
      "name": "MagicWin",
      "type": "event"
    },
    {
      "anonymous": false,
      "inputs": [
        {
          "indexed": true,
          "internalType": "uint256",
          "name": "_playerId",
          "type": "uint256"
        }
      ],
      "name": "MainLoss",
      "type": "event"
    },
    {
      "anonymous": false,
      "inputs": [
        {
          "indexed": true,
          "internalType": "uint256",
          "name": "_playerId",
          "type": "uint256"
        }
      ],
      "name": "MainWin",
      "type": "event"
    },
    {
      "inputs": [
        {
          "internalType": "uint256",
          "name": "_playerId",
          "type": "uint256"
        }
      ],
      "name": "enterMagicArena",
      "outputs": [],
      "stateMutability": "nonpayable",
      "type": "function"
    },
    {
      "inputs": [
        {
          "internalType": "uint256",
          "name": "_playerId",
          "type": "uint256"
        }
      ],
      "name": "enterMainArena",
      "outputs": [],
      "stateMutability": "nonpayable",
      "type": "function"
    },
    {
      "inputs": [
        {
          "internalType": "uint256",
          "name": "_challengerId",
          "type": "uint256"
        }
      ],
      "name": "fightMagicArena",
      "outputs": [],
      "stateMutability": "nonpayable",
      "type": "function"
    },
    {
      "inputs": [
        {
          "internalType": "uint256",
          "name": "_challengerId",
          "type": "uint256"
        }
      ],
      "name": "fightMainArena",
      "outputs": [],
      "stateMutability": "nonpayable",
      "type": "function"
    },
    {
      "inputs": [],
      "name": "getMagicArena",
      "outputs": [
        {
          "internalType": "bool",
          "name": "",
          "type": "bool"
        },
        {
          "internalType": "uint256",
          "name": "",
          "type": "uint256"
        }
      ],
      "stateMutability": "view",
      "type": "function"
    },
    {
      "inputs": [
        {
          "internalType": "uint256",
          "name": "_playerId",
          "type": "uint256"
        }
      ],
      "name": "getMagicArenaLosses",
      "outputs": [
        {
          "internalType": "uint256",
          "name": "",
          "type": "uint256"
        }
      ],
      "stateMutability": "view",
      "type": "function"
    },
    {
      "inputs": [
        {
          "internalType": "uint256",
          "name": "_playerId",
          "type": "uint256"
        }
      ],
      "name": "getMagicArenaWins",
      "outputs": [
        {
          "internalType": "uint256",
          "name": "",
          "type": "uint256"
        }
      ],
      "stateMutability": "view",
      "type": "function"
    },
    {
      "inputs": [],
      "name": "getMainArena",
      "outputs": [
        {
          "internalType": "bool",
          "name": "",
          "type": "bool"
        },
        {
          "internalType": "uint256",
          "name": "",
          "type": "uint256"
        }
      ],
      "stateMutability": "view",
      "type": "function"
    },
    {
      "inputs": [
        {
          "internalType": "uint256",
          "name": "_playerId",
          "type": "uint256"
        }
      ],
      "name": "getMainArenaLosses",
      "outputs": [
        {
          "internalType": "uint256",
          "name": "",
          "type": "uint256"
        }
      ],
      "stateMutability": "view",
      "type": "function"
    },
    {
      "inputs": [
        {
          "internalType": "uint256",
          "name": "_playerId",
          "type": "uint256"
        }
      ],
      "name": "getMainArenaWins",
      "outputs": [
        {
          "internalType": "uint256",
          "name": "",
          "type": "uint256"
        }
      ],
      "stateMutability": "view",
      "type": "function"
    },
    {
      "inputs": [
        {
          "internalType": "uint256",
          "name": "_playerId",
          "type": "uint256"
        }
      ],
      "name": "getTotalLosses",
      "outputs": [
        {
          "internalType": "uint256",
          "name": "",
          "type": "uint256"
        }
      ],
      "stateMutability": "view",
      "type": "function"
    },
    {
      "inputs": [
        {
          "internalType": "uint256",
          "name": "_playerId",
          "type": "uint256"
        }
      ],
      "name": "getTotalWins",
      "outputs": [
        {
          "internalType": "uint256",
          "name": "",
          "type": "uint256"
        }
      ],
      "stateMutability": "view",
      "type": "function"
    },
    {
      "inputs": [],
      "name": "openArenas",
      "outputs": [],
      "stateMutability": "nonpayable",
      "type": "function"
    }
  ],
  "bytecode": "0x608060405234801561001057600080fd5b50611cbf806100206000396000f3fe608060405234801561001057600080fd5b50600436106100cf5760003560e01c8063935abcf61161008c578063e774c70d11610066578063e774c70d14610225578063eb88ff8d14610241578063f099145114610260578063fb944ffc1461027c576100cf565b8063935abcf6146101ba5780639e42de22146101d9578063ce02121f14610209576100cf565b80634cc31ab5146100d45780634f7d08e5146100f0578063636c2fe71461012057806372a1e3cc146101505780638255e9031461015a578063825677711461018a575b600080fd5b6100ee60048036038101906100e991906118ad565b6102ac565b005b61010a600480360381019061010591906118ad565b61034d565b60405161011791906118e9565b60405180910390f35b61013a600480360381019061013591906118ad565b61035f565b60405161014791906118e9565b60405180910390f35b610158610371565b005b610174600480360381019061016f91906118ad565b61037b565b60405161018191906118e9565b60405180910390f35b6101a4600480360381019061019f91906118ad565b61038d565b6040516101b191906118e9565b60405180910390f35b6101c261039f565b6040516101d092919061191f565b60405180910390f35b6101f360048036038101906101ee91906118ad565b6103b2565b60405161020091906118e9565b60405180910390f35b610223600480360381019061021e91906118ad565b6103c4565b005b61023f600480360381019061023a91906118ad565b610465565b005b61024961049e565b60405161025792919061191f565b60405180910390f35b61027a600480360381019061027591906118ad565b6104b1565b005b610296600480360381019061029191906118ad565b6104ea565b6040516102a391906118e9565b60405180910390f35b60006102b7826104fc565b9050806000815181106102cd576102cc611948565b5b60200260200101517f5b8d5960e28aa2e632f071463a0b86b97186239d9f80bce0ef792129df28781a60405160405180910390a28060018151811061031557610314611948565b5b60200260200101517f325aad9d170785e4cef15433ddac3f9bb2897c1df086a14e353c56fb0ba6fbf560405160405180910390a25050565b60006103588261099e565b9050919050565b600061036a826109c9565b9050919050565b6103796109f4565b565b600061038682610ac2565b9050919050565b600061039882610aed565b9050919050565b6000806103aa610b18565b915091509091565b60006103bd82610b4d565b9050919050565b60006103cf82610b78565b9050806000815181106103e5576103e4611948565b5b60200260200101517f2a1949a44eb7c43972e39a564a8797225bf45929dfcb20897f90389a8cc1b6df60405160405180910390a28060018151811061042d5761042c611948565b5b60200260200101517f155586aefb5285f1d6fc85d541f9feaf03bc3ceae95b1fdd2b1830e1bd2e2a7760405160405180910390a25050565b61046e8161101a565b807fef2a34cb7d27c37e23ed4fde1dca46351d53f1ee711a2569816e1c020eb03e7660405160405180910390a250565b6000806104a9611298565b915091509091565b6104ba816112cd565b807f7d4685d5e927fa2461758f5c12de56103a29fecdf09fad0b8215f165573cecd360405160405180910390a250565b60006104f58261154b565b9050919050565b60606000610508611576565b905060006105146115a3565b905060006105206115d0565b905080600d0160000160009054906101000a900460ff1615610577576040517f08c379a000000000000000000000000000000000000000000000000000000000815260040161056e906119d4565b60405180910390fd5b6000836003016000878152602001908152602001600020600201541461059c57600080fd5b60018260000160003373ffffffffffffffffffffffffffffffffffffffff1673ffffffffffffffffffffffffffffffffffffffff168152602001908152602001600020541015610621576040517f08c379a000000000000000000000000000000000000000000000000000000000815260040161061890611a40565b60405180910390fd5b600061063482600d0160010154876115fd565b90506000808783036107655787915083600101600101549050836017016000898152602001908152602001600020600081548092919061067390611a8f565b9190505550836019016000898152602001908152602001600020600081548092919061069e90611a8f565b91905055508360180160008560010160010154815260200190815260200160002060008154809291906106d090611a8f565b919050555083601a01600085600101600101548152602001908152602001600020600081548092919061070290611a8f565b919050555060018560000160003373ffffffffffffffffffffffffffffffffffffffff1673ffffffffffffffffffffffffffffffffffffffff16815260200190815260200160002060008282546107599190611ad7565b92505081905550610906565b8790508360010160010154915083601701600085600101600101548152602001908152602001600020600081548092919061079f90611a8f565b91905055508360190160008560010160010154815260200190815260200160002060008154809291906107d190611a8f565b919050555083601801600089815260200190815260200160002060008154809291906107fc90611a8f565b919050555083601a016000898152602001908152602001600020600081548092919061082790611a8f565b919050555060028560000160008660010160030160009054906101000a900473ffffffffffffffffffffffffffffffffffffffff1673ffffffffffffffffffffffffffffffffffffffff1673ffffffffffffffffffffffffffffffffffffffff16815260200190815260200160002060008282546108a59190611ad7565b9250508190555060018560000160003373ffffffffffffffffffffffffffffffffffffffff1673ffffffffffffffffffffffffffffffffffffffff16815260200190815260200160002060008282546108fe9190611b0b565b925050819055505b600184600d0160000160006101000a81548160ff021916908315150217905550600086600301600086600d01600101548152602001908152602001600020600201819055506060828160008151811061096257610961611948565b5b602002602001018181525050818160018151811061098357610982611948565b5b60200260200101818152505080975050505050505050919050565b6000806109a96115d0565b905080601901600084815260200190815260200160002054915050919050565b6000806109d46115d0565b905080601201600084815260200190815260200160002054915050919050565b60006109fe6115d0565b9050600015158160000160009054906101000a900460ff16151514610a2257600080fd5b60018160000160006101000a81548160ff02191690831515021790555060018160010160000160006101000a81548160ff02191690831515021790555060018160050160000160006101000a81548160ff02191690831515021790555060018160090160000160006101000a81548160ff021916908315150217905550600181600d0160000160006101000a81548160ff02191690831515021790555050565b600080610acd6115d0565b905080601101600084815260200190815260200160002054915050919050565b600080610af86115d0565b905080601801600084815260200190815260200160002054915050919050565b6000806000610b256115d0565b905080600d0160000160009054906101000a900460ff1681600d016001015492509250509091565b600080610b586115d0565b905080601701600084815260200190815260200160002054915050919050565b60606000610b84611576565b90506000610b906115a3565b90506000610b9c6115d0565b90508060010160000160009054906101000a900460ff1615610bf3576040517f08c379a0000000000000000000000000000000000000000000000000000000008152600401610bea906119d4565b60405180910390fd5b60008360030160008781526020019081526020016000206002015414610c1857600080fd5b60018260000160003373ffffffffffffffffffffffffffffffffffffffff1673ffffffffffffffffffffffffffffffffffffffff168152602001908152602001600020541015610c9d576040517f08c379a0000000000000000000000000000000000000000000000000000000008152600401610c9490611a40565b60405180910390fd5b6000610cb082600101600101548761170b565b9050600080878303610de157879150836001016001015490508360110160008981526020019081526020016000206000815480929190610cef90611a8f565b91905055508360190160008981526020019081526020016000206000815480929190610d1a90611a8f565b9190505550836012016000856001016001015481526020019081526020016000206000815480929190610d4c90611a8f565b919050555083601a016000856001016001015481526020019081526020016000206000815480929190610d7e90611a8f565b919050555060018560000160003373ffffffffffffffffffffffffffffffffffffffff1673ffffffffffffffffffffffffffffffffffffffff1681526020019081526020016000206000828254610dd59190611ad7565b92505081905550610f82565b87905083600101600101549150836011016000856001016001015481526020019081526020016000206000815480929190610e1b90611a8f565b9190505550836019016000856001016001015481526020019081526020016000206000815480929190610e4d90611a8f565b91905055508360120160008981526020019081526020016000206000815480929190610e7890611a8f565b919050555083601a0160008981526020019081526020016000206000815480929190610ea390611a8f565b919050555060028560000160008660010160030160009054906101000a900473ffffffffffffffffffffffffffffffffffffffff1673ffffffffffffffffffffffffffffffffffffffff1673ffffffffffffffffffffffffffffffffffffffff1681526020019081526020016000206000828254610f219190611ad7565b9250508190555060018560000160003373ffffffffffffffffffffffffffffffffffffffff1673ffffffffffffffffffffffffffffffffffffffff1681526020019081526020016000206000828254610f7a9190611b0b565b925050819055505b60018460010160000160006101000a81548160ff0219169083151502179055506000866003016000866001016001015481526020019081526020016000206002018190555060608281600081518110610fde57610fdd611948565b5b6020026020010181815250508181600181518110610fff57610ffe611948565b5b60200260200101818152505080975050505050505050919050565b6000611024611576565b905060006110306115a3565b9050600061103c6115d0565b90508060010160000160009054906101000a900460ff16611092576040517f08c379a000000000000000000000000000000000000000000000000000000000815260040161108990611b8b565b60405180910390fd5b60018260000160003373ffffffffffffffffffffffffffffffffffffffff1673ffffffffffffffffffffffffffffffffffffffff168152602001908152602001600020541015611117576040517f08c379a000000000000000000000000000000000000000000000000000000000815260040161110e90611a40565b60405180910390fd5b6000836003016000868152602001908152602001600020600201541461113c57600080fd5b3373ffffffffffffffffffffffffffffffffffffffff1683600201600086815260200190815260200160002060009054906101000a900473ffffffffffffffffffffffffffffffffffffffff1673ffffffffffffffffffffffffffffffffffffffff16146111a957600080fd5b60018260000160003373ffffffffffffffffffffffffffffffffffffffff1673ffffffffffffffffffffffffffffffffffffffff16815260200190815260200160002060008282546111fb9190611b0b565b9250508190555060048360030160008681526020019081526020016000206002018190555060008160010160000160006101000a81548160ff021916908315150217905550838160010160010181905550338160010160030160006101000a81548173ffffffffffffffffffffffffffffffffffffffff021916908373ffffffffffffffffffffffffffffffffffffffff16021790555050505050565b60008060006112a56115d0565b90508060010160000160009054906101000a900460ff16816001016001015492509250509091565b60006112d7611576565b905060006112e36115a3565b905060006112ef6115d0565b905080600d0160000160009054906101000a900460ff16611345576040517f08c379a000000000000000000000000000000000000000000000000000000000815260040161133c90611b8b565b60405180910390fd5b60018260000160003373ffffffffffffffffffffffffffffffffffffffff1673ffffffffffffffffffffffffffffffffffffffff1681526020019081526020016000205410156113ca576040517f08c379a00000000000000000000000000000000000000000000000000000000081526004016113c190611a40565b60405180910390fd5b600083600301600086815260200190815260200160002060020154146113ef57600080fd5b3373ffffffffffffffffffffffffffffffffffffffff1683600201600086815260200190815260200160002060009054906101000a900473ffffffffffffffffffffffffffffffffffffffff1673ffffffffffffffffffffffffffffffffffffffff161461145c57600080fd5b60018260000160003373ffffffffffffffffffffffffffffffffffffffff1673ffffffffffffffffffffffffffffffffffffffff16815260200190815260200160002060008282546114ae9190611b0b565b92505081905550600483600301600086815260200190815260200160002060020181905550600081600d0160000160006101000a81548160ff0219169083151502179055508381600d01600101819055503381600d0160030160006101000a81548173ffffffffffffffffffffffffffffffffffffffff021916908373ffffffffffffffffffffffffffffffffffffffff16021790555050505050565b6000806115566115d0565b905080601a01600084815260200190815260200160002054915050919050565b6000807f3cab9a070a0c61cd0ae9d9e9e2c0781e5ca8691bec4087e5a4701d5ac018dd4e90508091505090565b6000807f2c89d74504b6ad8d4fbde22bc3474166bac5452a11195897f239d8bebe02d70790508091505090565b6000807f1b1c2350f60dba32e7a2436167ce3f8399cd1c51a95c8577f1448f53846d4cda90508091505090565b600080611608611576565b905060008160030160008681526020019081526020016000209050600082600301600086815260200190815260200160002090506000600461164987611819565b6116539190611bda565b82600501546116629190611c0b565b600561166d89611819565b6116779190611bda565b84600401546116869190611c0b565b6116909190611b0b565b90506000600561169f89611819565b6116a99190611bda565b84600501546116b89190611c0b565b60056116c389611819565b6116cd9190611bda565b84600401546116dc9190611c0b565b6116e69190611b0b565b90508082106116fc578795505050505050611705565b86955050505050505b92915050565b600080611716611576565b905060008160030160008681526020019081526020016000209050600082600301600086815260200190815260200160002090506000600461175787611819565b6117619190611bda565b82600301546117709190611c0b565b600561177b89611819565b6117859190611bda565b84600401546117949190611c0b565b61179e9190611b0b565b9050600060056117ad89611819565b6117b79190611bda565b84600301546117c69190611c0b565b60056117d189611819565b6117db9190611bda565b84600401546117ea9190611c0b565b6117f49190611b0b565b905080821061180a578795505050505050611813565b86955050505050505b92915050565b600080611824611576565b9050828160010154426118379190611ad7565b6118419190611ad7565b6040516020016118519190611c6e565b6040516020818303038152906040528051906020012060001c915050919050565b600080fd5b6000819050919050565b61188a81611877565b811461189557600080fd5b50565b6000813590506118a781611881565b92915050565b6000602082840312156118c3576118c2611872565b5b60006118d184828501611898565b91505092915050565b6118e381611877565b82525050565b60006020820190506118fe60008301846118da565b92915050565b60008115159050919050565b61191981611904565b82525050565b60006040820190506119346000830185611910565b61194160208301846118da565b9392505050565b7f4e487b7100000000000000000000000000000000000000000000000000000000600052603260045260246000fd5b600082825260208201905092915050565b7f6172656e6120697320656d707479000000000000000000000000000000000000600082015250565b60006119be600e83611977565b91506119c982611988565b602082019050919050565b600060208201905081810360008301526119ed816119b1565b9050919050565b7f6e6f7420656e6f75676820676f6c640000000000000000000000000000000000600082015250565b6000611a2a600f83611977565b9150611a35826119f4565b602082019050919050565b60006020820190508181036000830152611a5981611a1d565b9050919050565b7f4e487b7100000000000000000000000000000000000000000000000000000000600052601160045260246000fd5b6000611a9a82611877565b91507fffffffffffffffffffffffffffffffffffffffffffffffffffffffffffffffff8203611acc57611acb611a60565b5b600182019050919050565b6000611ae282611877565b9150611aed83611877565b9250828201905080821115611b0557611b04611a60565b5b92915050565b6000611b1682611877565b9150611b2183611877565b9250828203905081811115611b3957611b38611a60565b5b92915050565b7f6172656e6120697320636c6f7365640000000000000000000000000000000000600082015250565b6000611b75600f83611977565b9150611b8082611b3f565b602082019050919050565b60006020820190508181036000830152611ba481611b68565b9050919050565b7f4e487b7100000000000000000000000000000000000000000000000000000000600052601260045260246000fd5b6000611be582611877565b9150611bf083611877565b925082611c0057611bff611bab565b5b828206905092915050565b6000611c1682611877565b9150611c2183611877565b9250828202611c2f81611877565b91508282048414831517611c4657611c45611a60565b5b5092915050565b6000819050919050565b611c68611c6382611877565b611c4d565b82525050565b6000611c7a8284611c57565b6020820191508190509291505056fea2646970667358221220255f5c2a45b4eabb7ec706fa7fb71b079d6a0eb18bfa7b51c0dae9b50a1b9aa364736f6c63430008110033",
  "linkReferences": {},
  "deployedLinkReferences": {}
}