{
  "_format": "hh-sol-artifact-1",
  "contractName": "ArenaFacet",
  "sourceName": "contracts/facets/ArenaFacet.sol",
  "abi": [
    {
      "anonymous": false,
      "inputs": [
        {
          "indexed": true,
          "internalType": "uint256",
          "name": "_playerId",
          "type": "uint256"
        }
      ],
      "name": "EnterMagic",
      "type": "event"
    },
    {
      "anonymous": false,
      "inputs": [
        {
          "indexed": true,
          "internalType": "uint256",
          "name": "_playerId",
          "type": "uint256"
        }
      ],
      "name": "EnterMain",
      "type": "event"
    },
    {
      "anonymous": false,
      "inputs": [
        {
          "indexed": true,
          "internalType": "uint256",
          "name": "_playerId",
          "type": "uint256"
        }
      ],
      "name": "MagicLoss",
      "type": "event"
    },
    {
      "anonymous": false,
      "inputs": [
        {
          "indexed": true,
          "internalType": "uint256",
          "name": "_playerId",
          "type": "uint256"
        }
      ],
      "name": "MagicWin",
      "type": "event"
    },
    {
      "anonymous": false,
      "inputs": [
        {
          "indexed": true,
          "internalType": "uint256",
          "name": "_playerId",
          "type": "uint256"
        }
      ],
      "name": "MainLoss",
      "type": "event"
    },
    {
      "anonymous": false,
      "inputs": [
        {
          "indexed": true,
          "internalType": "uint256",
          "name": "_playerId",
          "type": "uint256"
        }
      ],
      "name": "MainWin",
      "type": "event"
    },
    {
      "inputs": [
        {
          "internalType": "uint256",
          "name": "_playerId",
          "type": "uint256"
        }
      ],
      "name": "enterMagicArena",
      "outputs": [],
      "stateMutability": "nonpayable",
      "type": "function"
    },
    {
      "inputs": [
        {
          "internalType": "uint256",
          "name": "_playerId",
          "type": "uint256"
        }
      ],
      "name": "enterMainArena",
      "outputs": [],
      "stateMutability": "nonpayable",
      "type": "function"
    },
    {
      "inputs": [
        {
          "internalType": "uint256",
          "name": "_challengerId",
          "type": "uint256"
        }
      ],
      "name": "fightMagicArena",
      "outputs": [],
      "stateMutability": "nonpayable",
      "type": "function"
    },
    {
      "inputs": [
        {
          "internalType": "uint256",
          "name": "_challengerId",
          "type": "uint256"
        }
      ],
      "name": "fightMainArena",
      "outputs": [],
      "stateMutability": "nonpayable",
      "type": "function"
    },
    {
      "inputs": [],
      "name": "getMagicArena",
      "outputs": [
        {
          "internalType": "bool",
          "name": "",
          "type": "bool"
        },
        {
          "internalType": "uint256",
          "name": "",
          "type": "uint256"
        }
      ],
      "stateMutability": "view",
      "type": "function"
    },
    {
      "inputs": [
        {
          "internalType": "uint256",
          "name": "_playerId",
          "type": "uint256"
        }
      ],
      "name": "getMagicArenaLosses",
      "outputs": [
        {
          "internalType": "uint256",
          "name": "",
          "type": "uint256"
        }
      ],
      "stateMutability": "view",
      "type": "function"
    },
    {
      "inputs": [
        {
          "internalType": "uint256",
          "name": "_playerId",
          "type": "uint256"
        }
      ],
      "name": "getMagicArenaWins",
      "outputs": [
        {
          "internalType": "uint256",
          "name": "",
          "type": "uint256"
        }
      ],
      "stateMutability": "view",
      "type": "function"
    },
    {
      "inputs": [],
      "name": "getMainArena",
      "outputs": [
        {
          "internalType": "bool",
          "name": "",
          "type": "bool"
        },
        {
          "internalType": "uint256",
          "name": "",
          "type": "uint256"
        }
      ],
      "stateMutability": "view",
      "type": "function"
    },
    {
      "inputs": [
        {
          "internalType": "uint256",
          "name": "_playerId",
          "type": "uint256"
        }
      ],
      "name": "getMainArenaLosses",
      "outputs": [
        {
          "internalType": "uint256",
          "name": "",
          "type": "uint256"
        }
      ],
      "stateMutability": "view",
      "type": "function"
    },
    {
      "inputs": [
        {
          "internalType": "uint256",
          "name": "_playerId",
          "type": "uint256"
        }
      ],
      "name": "getMainArenaWins",
      "outputs": [
        {
          "internalType": "uint256",
          "name": "",
          "type": "uint256"
        }
      ],
      "stateMutability": "view",
      "type": "function"
    },
    {
      "inputs": [
        {
          "internalType": "uint256",
          "name": "_playerId",
          "type": "uint256"
        }
      ],
      "name": "getTotalLosses",
      "outputs": [
        {
          "internalType": "uint256",
          "name": "",
          "type": "uint256"
        }
      ],
      "stateMutability": "view",
      "type": "function"
    },
    {
      "inputs": [
        {
          "internalType": "uint256",
          "name": "_playerId",
          "type": "uint256"
        }
      ],
      "name": "getTotalWins",
      "outputs": [
        {
          "internalType": "uint256",
          "name": "",
          "type": "uint256"
        }
      ],
      "stateMutability": "view",
      "type": "function"
    },
    {
      "inputs": [],
      "name": "openArenas",
      "outputs": [],
      "stateMutability": "nonpayable",
      "type": "function"
    }
  ],
  "bytecode": "0x608060405234801561001057600080fd5b50611c50806100206000396000f3fe608060405234801561001057600080fd5b50600436106100cf5760003560e01c8063935abcf61161008c578063e774c70d11610066578063e774c70d14610225578063eb88ff8d14610241578063f099145114610260578063fb944ffc1461027c576100cf565b8063935abcf6146101ba5780639e42de22146101d9578063ce02121f14610209576100cf565b80634cc31ab5146100d45780634f7d08e5146100f0578063636c2fe71461012057806372a1e3cc146101505780638255e9031461015a578063825677711461018a575b600080fd5b6100ee60048036038101906100e9919061183e565b6102ac565b005b61010a6004803603810190610105919061183e565b61034d565b604051610117919061187a565b60405180910390f35b61013a6004803603810190610135919061183e565b61035f565b604051610147919061187a565b60405180910390f35b610158610371565b005b610174600480360381019061016f919061183e565b61037b565b604051610181919061187a565b60405180910390f35b6101a4600480360381019061019f919061183e565b61038d565b6040516101b1919061187a565b60405180910390f35b6101c261039f565b6040516101d09291906118b0565b60405180910390f35b6101f360048036038101906101ee919061183e565b6103b2565b604051610200919061187a565b60405180910390f35b610223600480360381019061021e919061183e565b6103c4565b005b61023f600480360381019061023a919061183e565b610437565b005b610249610470565b6040516102579291906118b0565b60405180910390f35b61027a6004803603810190610275919061183e565b610483565b005b6102966004803603810190610291919061183e565b6104bc565b6040516102a3919061187a565b60405180910390f35b60006102b7826104ce565b9050806000815181106102cd576102cc6118d9565b5b60200260200101517f5b8d5960e28aa2e632f071463a0b86b97186239d9f80bce0ef792129df28781a60405160405180910390a280600181518110610315576103146118d9565b5b60200260200101517f325aad9d170785e4cef15433ddac3f9bb2897c1df086a14e353c56fb0ba6fbf560405160405180910390a25050565b600061035882610970565b9050919050565b600061036a8261099b565b9050919050565b6103796109c6565b565b600061038682610a94565b9050919050565b600061039882610abf565b9050919050565b6000806103aa610aea565b915091509091565b60006103bd82610b1f565b9050919050565b6000806103d083610b4a565b8092508193505050817f2a1949a44eb7c43972e39a564a8797225bf45929dfcb20897f90389a8cc1b6df60405160405180910390a2807f155586aefb5285f1d6fc85d541f9feaf03bc3ceae95b1fdd2b1830e1bd2e2a7760405160405180910390a2505050565b61044081610fab565b807fef2a34cb7d27c37e23ed4fde1dca46351d53f1ee711a2569816e1c020eb03e7660405160405180910390a250565b60008061047b611229565b915091509091565b61048c8161125e565b807f7d4685d5e927fa2461758f5c12de56103a29fecdf09fad0b8215f165573cecd360405160405180910390a250565b60006104c7826114dc565b9050919050565b606060006104da611507565b905060006104e6611534565b905060006104f2611561565b905080600d0160000160009054906101000a900460ff1615610549576040517f08c379a000000000000000000000000000000000000000000000000000000000815260040161054090611965565b60405180910390fd5b6000836003016000878152602001908152602001600020600201541461056e57600080fd5b60018260000160003373ffffffffffffffffffffffffffffffffffffffff1673ffffffffffffffffffffffffffffffffffffffff1681526020019081526020016000205410156105f3576040517f08c379a00000000000000000000000000000000000000000000000000000000081526004016105ea906119d1565b60405180910390fd5b600061060682600d01600101548761158e565b90506000808783036107375787915083600101600101549050836017016000898152602001908152602001600020600081548092919061064590611a20565b9190505550836019016000898152602001908152602001600020600081548092919061067090611a20565b91905055508360180160008560010160010154815260200190815260200160002060008154809291906106a290611a20565b919050555083601a0160008560010160010154815260200190815260200160002060008154809291906106d490611a20565b919050555060018560000160003373ffffffffffffffffffffffffffffffffffffffff1673ffffffffffffffffffffffffffffffffffffffff168152602001908152602001600020600082825461072b9190611a68565b925050819055506108d8565b8790508360010160010154915083601701600085600101600101548152602001908152602001600020600081548092919061077190611a20565b91905055508360190160008560010160010154815260200190815260200160002060008154809291906107a390611a20565b919050555083601801600089815260200190815260200160002060008154809291906107ce90611a20565b919050555083601a01600089815260200190815260200160002060008154809291906107f990611a20565b919050555060028560000160008660010160030160009054906101000a900473ffffffffffffffffffffffffffffffffffffffff1673ffffffffffffffffffffffffffffffffffffffff1673ffffffffffffffffffffffffffffffffffffffff16815260200190815260200160002060008282546108779190611a68565b9250508190555060018560000160003373ffffffffffffffffffffffffffffffffffffffff1673ffffffffffffffffffffffffffffffffffffffff16815260200190815260200160002060008282546108d09190611a9c565b925050819055505b600184600d0160000160006101000a81548160ff021916908315150217905550600086600301600086600d016001015481526020019081526020016000206002018190555060608281600081518110610934576109336118d9565b5b6020026020010181815250508181600181518110610955576109546118d9565b5b60200260200101818152505080975050505050505050919050565b60008061097b611561565b905080601901600084815260200190815260200160002054915050919050565b6000806109a6611561565b905080601201600084815260200190815260200160002054915050919050565b60006109d0611561565b9050600015158160000160009054906101000a900460ff161515146109f457600080fd5b60018160000160006101000a81548160ff02191690831515021790555060018160010160000160006101000a81548160ff02191690831515021790555060018160050160000160006101000a81548160ff02191690831515021790555060018160090160000160006101000a81548160ff021916908315150217905550600181600d0160000160006101000a81548160ff02191690831515021790555050565b600080610a9f611561565b905080601101600084815260200190815260200160002054915050919050565b600080610aca611561565b905080601801600084815260200190815260200160002054915050919050565b6000806000610af7611561565b905080600d0160000160009054906101000a900460ff1681600d016001015492509250509091565b600080610b2a611561565b905080601701600084815260200190815260200160002054915050919050565b6000806000610b57611507565b90506000610b63611534565b90506000610b6f611561565b90508060010160000160009054906101000a900460ff1615610bc6576040517f08c379a0000000000000000000000000000000000000000000000000000000008152600401610bbd90611965565b60405180910390fd5b60008360030160008881526020019081526020016000206002015414610beb57600080fd5b60018260000160003373ffffffffffffffffffffffffffffffffffffffff1673ffffffffffffffffffffffffffffffffffffffff168152602001908152602001600020541015610c70576040517f08c379a0000000000000000000000000000000000000000000000000000000008152600401610c67906119d1565b60405180910390fd5b6000610c8382600101600101548861169c565b9050600080888303610db457889150836001016001015490508360110160008a81526020019081526020016000206000815480929190610cc290611a20565b91905055508360190160008a81526020019081526020016000206000815480929190610ced90611a20565b9190505550836012016000856001016001015481526020019081526020016000206000815480929190610d1f90611a20565b919050555083601a016000856001016001015481526020019081526020016000206000815480929190610d5190611a20565b919050555060018560000160003373ffffffffffffffffffffffffffffffffffffffff1673ffffffffffffffffffffffffffffffffffffffff1681526020019081526020016000206000828254610da89190611a68565b92505081905550610f55565b88905083600101600101549150836011016000856001016001015481526020019081526020016000206000815480929190610dee90611a20565b9190505550836019016000856001016001015481526020019081526020016000206000815480929190610e2090611a20565b91905055508360120160008a81526020019081526020016000206000815480929190610e4b90611a20565b919050555083601a0160008a81526020019081526020016000206000815480929190610e7690611a20565b919050555060028560000160008660010160030160009054906101000a900473ffffffffffffffffffffffffffffffffffffffff1673ffffffffffffffffffffffffffffffffffffffff1673ffffffffffffffffffffffffffffffffffffffff1681526020019081526020016000206000828254610ef49190611a68565b9250508190555060018560000160003373ffffffffffffffffffffffffffffffffffffffff1673ffffffffffffffffffffffffffffffffffffffff1681526020019081526020016000206000828254610f4d9190611a9c565b925050819055505b60018460010160000160006101000a81548160ff02191690831515021790555060008660030160008660010160010154815260200190815260200160002060020181905550818197509750505050505050915091565b6000610fb5611507565b90506000610fc1611534565b90506000610fcd611561565b90508060010160000160009054906101000a900460ff16611023576040517f08c379a000000000000000000000000000000000000000000000000000000000815260040161101a90611b1c565b60405180910390fd5b60018260000160003373ffffffffffffffffffffffffffffffffffffffff1673ffffffffffffffffffffffffffffffffffffffff1681526020019081526020016000205410156110a8576040517f08c379a000000000000000000000000000000000000000000000000000000000815260040161109f906119d1565b60405180910390fd5b600083600301600086815260200190815260200160002060020154146110cd57600080fd5b3373ffffffffffffffffffffffffffffffffffffffff1683600201600086815260200190815260200160002060009054906101000a900473ffffffffffffffffffffffffffffffffffffffff1673ffffffffffffffffffffffffffffffffffffffff161461113a57600080fd5b60018260000160003373ffffffffffffffffffffffffffffffffffffffff1673ffffffffffffffffffffffffffffffffffffffff168152602001908152602001600020600082825461118c9190611a9c565b9250508190555060048360030160008681526020019081526020016000206002018190555060008160010160000160006101000a81548160ff021916908315150217905550838160010160010181905550338160010160030160006101000a81548173ffffffffffffffffffffffffffffffffffffffff021916908373ffffffffffffffffffffffffffffffffffffffff16021790555050505050565b6000806000611236611561565b90508060010160000160009054906101000a900460ff16816001016001015492509250509091565b6000611268611507565b90506000611274611534565b90506000611280611561565b905080600d0160000160009054906101000a900460ff166112d6576040517f08c379a00000000000000000000000000000000000000000000000000000000081526004016112cd90611b1c565b60405180910390fd5b60018260000160003373ffffffffffffffffffffffffffffffffffffffff1673ffffffffffffffffffffffffffffffffffffffff16815260200190815260200160002054101561135b576040517f08c379a0000000000000000000000000000000000000000000000000000000008152600401611352906119d1565b60405180910390fd5b6000836003016000868152602001908152602001600020600201541461138057600080fd5b3373ffffffffffffffffffffffffffffffffffffffff1683600201600086815260200190815260200160002060009054906101000a900473ffffffffffffffffffffffffffffffffffffffff1673ffffffffffffffffffffffffffffffffffffffff16146113ed57600080fd5b60018260000160003373ffffffffffffffffffffffffffffffffffffffff1673ffffffffffffffffffffffffffffffffffffffff168152602001908152602001600020600082825461143f9190611a9c565b92505081905550600483600301600086815260200190815260200160002060020181905550600081600d0160000160006101000a81548160ff0219169083151502179055508381600d01600101819055503381600d0160030160006101000a81548173ffffffffffffffffffffffffffffffffffffffff021916908373ffffffffffffffffffffffffffffffffffffffff16021790555050505050565b6000806114e7611561565b905080601a01600084815260200190815260200160002054915050919050565b6000807f3cab9a070a0c61cd0ae9d9e9e2c0781e5ca8691bec4087e5a4701d5ac018dd4e90508091505090565b6000807f2c89d74504b6ad8d4fbde22bc3474166bac5452a11195897f239d8bebe02d70790508091505090565b6000807f1b1c2350f60dba32e7a2436167ce3f8399cd1c51a95c8577f1448f53846d4cda90508091505090565b600080611599611507565b90506000816003016000868152602001908152602001600020905060008260030160008681526020019081526020016000209050600060046115da876117aa565b6115e49190611b6b565b82600501546115f39190611b9c565b60056115fe896117aa565b6116089190611b6b565b84600401546116179190611b9c565b6116219190611a9c565b905060006005611630896117aa565b61163a9190611b6b565b84600501546116499190611b9c565b6005611654896117aa565b61165e9190611b6b565b846004015461166d9190611b9c565b6116779190611a9c565b905080821061168d578795505050505050611696565b86955050505050505b92915050565b6000806116a7611507565b90506000816003016000868152602001908152602001600020905060008260030160008681526020019081526020016000209050600060046116e8876117aa565b6116f29190611b6b565b82600301546117019190611b9c565b600561170c896117aa565b6117169190611b6b565b84600401546117259190611b9c565b61172f9190611a9c565b90506000600561173e896117aa565b6117489190611b6b565b84600301546117579190611b9c565b6005611762896117aa565b61176c9190611b6b565b846004015461177b9190611b9c565b6117859190611a9c565b905080821061179b5787955050505050506117a4565b86955050505050505b92915050565b6000806117b5611507565b9050828160010154426117c89190611a68565b6117d29190611a68565b6040516020016117e29190611bff565b6040516020818303038152906040528051906020012060001c915050919050565b600080fd5b6000819050919050565b61181b81611808565b811461182657600080fd5b50565b60008135905061183881611812565b92915050565b60006020828403121561185457611853611803565b5b600061186284828501611829565b91505092915050565b61187481611808565b82525050565b600060208201905061188f600083018461186b565b92915050565b60008115159050919050565b6118aa81611895565b82525050565b60006040820190506118c560008301856118a1565b6118d2602083018461186b565b9392505050565b7f4e487b7100000000000000000000000000000000000000000000000000000000600052603260045260246000fd5b600082825260208201905092915050565b7f6172656e6120697320656d707479000000000000000000000000000000000000600082015250565b600061194f600e83611908565b915061195a82611919565b602082019050919050565b6000602082019050818103600083015261197e81611942565b9050919050565b7f6e6f7420656e6f75676820676f6c640000000000000000000000000000000000600082015250565b60006119bb600f83611908565b91506119c682611985565b602082019050919050565b600060208201905081810360008301526119ea816119ae565b9050919050565b7f4e487b7100000000000000000000000000000000000000000000000000000000600052601160045260246000fd5b6000611a2b82611808565b91507fffffffffffffffffffffffffffffffffffffffffffffffffffffffffffffffff8203611a5d57611a5c6119f1565b5b600182019050919050565b6000611a7382611808565b9150611a7e83611808565b9250828201905080821115611a9657611a956119f1565b5b92915050565b6000611aa782611808565b9150611ab283611808565b9250828203905081811115611aca57611ac96119f1565b5b92915050565b7f6172656e6120697320636c6f7365640000000000000000000000000000000000600082015250565b6000611b06600f83611908565b9150611b1182611ad0565b602082019050919050565b60006020820190508181036000830152611b3581611af9565b9050919050565b7f4e487b7100000000000000000000000000000000000000000000000000000000600052601260045260246000fd5b6000611b7682611808565b9150611b8183611808565b925082611b9157611b90611b3c565b5b828206905092915050565b6000611ba782611808565b9150611bb283611808565b9250828202611bc081611808565b91508282048414831517611bd757611bd66119f1565b5b5092915050565b6000819050919050565b611bf9611bf482611808565b611bde565b82525050565b6000611c0b8284611be8565b6020820191508190509291505056fea2646970667358221220d024524911fbb2903e23e274fdaf4878fe82c3fd0e2166724239df3cfff11b3f64736f6c63430008110033",
  "linkReferences": {},
  "deployedLinkReferences": {}
}