{
  "_format": "hh-sol-artifact-1",
  "contractName": "ArenaFacet",
  "sourceName": "contracts/facets/ArenaFacet.sol",
  "abi": [
    {
      "anonymous": false,
      "inputs": [
        {
          "indexed": true,
          "internalType": "address",
          "name": "_owner",
          "type": "address"
        },
        {
          "indexed": false,
          "internalType": "uint256",
          "name": "_player",
          "type": "uint256"
        }
      ],
      "name": "ItemCrafted",
      "type": "event"
    },
    {
      "inputs": [
        {
          "internalType": "uint256",
          "name": "_playerId",
          "type": "uint256"
        }
      ],
      "name": "enterMagicArena",
      "outputs": [],
      "stateMutability": "nonpayable",
      "type": "function"
    },
    {
      "inputs": [
        {
          "internalType": "uint256",
          "name": "_playerId",
          "type": "uint256"
        }
      ],
      "name": "enterMainArena",
      "outputs": [],
      "stateMutability": "nonpayable",
      "type": "function"
    },
    {
      "inputs": [
        {
          "internalType": "uint256",
          "name": "_challengerId",
          "type": "uint256"
        }
      ],
      "name": "fightMagicArena",
      "outputs": [],
      "stateMutability": "nonpayable",
      "type": "function"
    },
    {
      "inputs": [
        {
          "internalType": "uint256",
          "name": "_challengerId",
          "type": "uint256"
        }
      ],
      "name": "fightMainArena",
      "outputs": [],
      "stateMutability": "nonpayable",
      "type": "function"
    },
    {
      "inputs": [],
      "name": "getMagicArena",
      "outputs": [
        {
          "internalType": "bool",
          "name": "",
          "type": "bool"
        }
      ],
      "stateMutability": "view",
      "type": "function"
    },
    {
      "inputs": [],
      "name": "getMainArena",
      "outputs": [
        {
          "internalType": "bool",
          "name": "",
          "type": "bool"
        },
        {
          "internalType": "uint256",
          "name": "",
          "type": "uint256"
        }
      ],
      "stateMutability": "view",
      "type": "function"
    },
    {
      "inputs": [],
      "name": "openArenas",
      "outputs": [],
      "stateMutability": "nonpayable",
      "type": "function"
    }
  ],
  "bytecode": "0x608060405234801561001057600080fd5b50611705806100206000396000f3fe608060405234801561001057600080fd5b506004361061007d5760003560e01c8063ce02121f1161005b578063ce02121f146100c6578063e774c70d146100e2578063eb88ff8d146100fe578063f09914511461011d5761007d565b80634cc31ab51461008257806372a1e3cc1461009e578063935abcf6146100a8575b600080fd5b61009c60048036038101906100979190611322565b610139565b005b6100a6610145565b005b6100b061014f565b6040516100bd919061136a565b60405180910390f35b6100e060048036038101906100db9190611322565b61015e565b005b6100fc60048036038101906100f79190611322565b61016a565b005b610106610176565b604051610114929190611394565b60405180910390f35b61013760048036038101906101329190611322565b610189565b005b61014281610195565b50565b61014d6105cc565b565b600061015961065b565b905090565b61016781610683565b50565b61017381610aba565b50565b600080610181610d38565b915091509091565b61019281610d6d565b50565b600061019f610feb565b905060006101ab611018565b905060006101b7611045565b905080600c0160000160009054906101000a900460ff161561020e576040517f08c379a00000000000000000000000000000000000000000000000000000000081526004016102059061141a565b60405180910390fd5b6000836003016000868152602001908152602001600020600201541461023357600080fd5b60018260000160003373ffffffffffffffffffffffffffffffffffffffff1673ffffffffffffffffffffffffffffffffffffffff1681526020019081526020016000205410156102b8576040517f08c379a00000000000000000000000000000000000000000000000000000000081526004016102af90611486565b60405180910390fd5b60006102cb82600c016001015486611072565b90508481036103ec5781601601600086815260200190815260200160002060008154809291906102fa906114d5565b91905055508160180160008681526020019081526020016000206000815480929190610325906114d5565b9190505550816017016000836000016001015481526020019081526020016000206000815480929190610357906114d5565b9190505550816019016000836000016001015481526020019081526020016000206000815480929190610389906114d5565b919050555060018360000160003373ffffffffffffffffffffffffffffffffffffffff1673ffffffffffffffffffffffffffffffffffffffff16815260200190815260200160002060008282546103e0919061151d565b92505081905550610580565b816016016000836000016001015481526020019081526020016000206000815480929190610419906114d5565b919050555081601801600083600001600101548152602001908152602001600020600081548092919061044b906114d5565b91905055508160170160008681526020019081526020016000206000815480929190610476906114d5565b919050555081601901600086815260200190815260200160002060008154809291906104a1906114d5565b919050555060028360000160008460000160030160009054906101000a900473ffffffffffffffffffffffffffffffffffffffff1673ffffffffffffffffffffffffffffffffffffffff1673ffffffffffffffffffffffffffffffffffffffff168152602001908152602001600020600082825461051f919061151d565b9250508190555060018360000160003373ffffffffffffffffffffffffffffffffffffffff1673ffffffffffffffffffffffffffffffffffffffff16815260200190815260200160002060008282546105789190611551565b925050819055505b600182600c0160000160006101000a81548160ff021916908315150217905550600084600301600084600c01600101548152602001908152602001600020600201819055505050505050565b60006105d6611045565b905060018160000160000160006101000a81548160ff02191690831515021790555060018160040160000160006101000a81548160ff02191690831515021790555060018160080160000160006101000a81548160ff021916908315150217905550600181600c0160000160006101000a81548160ff02191690831515021790555050565b600080610666611045565b90508060000160000160009054906101000a900460ff1691505090565b600061068d610feb565b90506000610699611018565b905060006106a5611045565b90508060000160000160009054906101000a900460ff16156106fc576040517f08c379a00000000000000000000000000000000000000000000000000000000081526004016106f39061141a565b60405180910390fd5b6000836003016000868152602001908152602001600020600201541461072157600080fd5b60018260000160003373ffffffffffffffffffffffffffffffffffffffff1673ffffffffffffffffffffffffffffffffffffffff1681526020019081526020016000205410156107a6576040517f08c379a000000000000000000000000000000000000000000000000000000000815260040161079d90611486565b60405180910390fd5b60006107b9826000016001015486611180565b90508481036108da5781601001600086815260200190815260200160002060008154809291906107e8906114d5565b91905055508160180160008681526020019081526020016000206000815480929190610813906114d5565b9190505550816011016000836000016001015481526020019081526020016000206000815480929190610845906114d5565b9190505550816019016000836000016001015481526020019081526020016000206000815480929190610877906114d5565b919050555060018360000160003373ffffffffffffffffffffffffffffffffffffffff1673ffffffffffffffffffffffffffffffffffffffff16815260200190815260200160002060008282546108ce919061151d565b92505081905550610a6e565b816010016000836000016001015481526020019081526020016000206000815480929190610907906114d5565b9190505550816018016000836000016001015481526020019081526020016000206000815480929190610939906114d5565b91905055508160110160008681526020019081526020016000206000815480929190610964906114d5565b9190505550816019016000868152602001908152602001600020600081548092919061098f906114d5565b919050555060028360000160008460000160030160009054906101000a900473ffffffffffffffffffffffffffffffffffffffff1673ffffffffffffffffffffffffffffffffffffffff1673ffffffffffffffffffffffffffffffffffffffff1681526020019081526020016000206000828254610a0d919061151d565b9250508190555060018360000160003373ffffffffffffffffffffffffffffffffffffffff1673ffffffffffffffffffffffffffffffffffffffff1681526020019081526020016000206000828254610a669190611551565b925050819055505b60018260000160000160006101000a81548160ff021916908315150217905550600084600301600084600001600101548152602001908152602001600020600201819055505050505050565b6000610ac4610feb565b90506000610ad0611018565b90506000610adc611045565b90508060000160000160009054906101000a900460ff16610b32576040517f08c379a0000000000000000000000000000000000000000000000000000000008152600401610b29906115d1565b60405180910390fd5b60018260000160003373ffffffffffffffffffffffffffffffffffffffff1673ffffffffffffffffffffffffffffffffffffffff168152602001908152602001600020541015610bb7576040517f08c379a0000000000000000000000000000000000000000000000000000000008152600401610bae90611486565b60405180910390fd5b60008360030160008681526020019081526020016000206002015414610bdc57600080fd5b3373ffffffffffffffffffffffffffffffffffffffff1683600201600086815260200190815260200160002060009054906101000a900473ffffffffffffffffffffffffffffffffffffffff1673ffffffffffffffffffffffffffffffffffffffff1614610c4957600080fd5b60018260000160003373ffffffffffffffffffffffffffffffffffffffff1673ffffffffffffffffffffffffffffffffffffffff1681526020019081526020016000206000828254610c9b9190611551565b9250508190555060048360030160008681526020019081526020016000206002018190555060008160000160000160006101000a81548160ff021916908315150217905550838160000160010181905550338160000160030160006101000a81548173ffffffffffffffffffffffffffffffffffffffff021916908373ffffffffffffffffffffffffffffffffffffffff16021790555050505050565b6000806000610d45611045565b90508060000160000160009054906101000a900460ff16816000016001015492509250509091565b6000610d77610feb565b90506000610d83611018565b90506000610d8f611045565b905080600c0160000160009054906101000a900460ff16610de5576040517f08c379a0000000000000000000000000000000000000000000000000000000008152600401610ddc906115d1565b60405180910390fd5b60018260000160003373ffffffffffffffffffffffffffffffffffffffff1673ffffffffffffffffffffffffffffffffffffffff168152602001908152602001600020541015610e6a576040517f08c379a0000000000000000000000000000000000000000000000000000000008152600401610e6190611486565b60405180910390fd5b60008360030160008681526020019081526020016000206002015414610e8f57600080fd5b3373ffffffffffffffffffffffffffffffffffffffff1683600201600086815260200190815260200160002060009054906101000a900473ffffffffffffffffffffffffffffffffffffffff1673ffffffffffffffffffffffffffffffffffffffff1614610efc57600080fd5b60018260000160003373ffffffffffffffffffffffffffffffffffffffff1673ffffffffffffffffffffffffffffffffffffffff1681526020019081526020016000206000828254610f4e9190611551565b92505081905550600483600301600086815260200190815260200160002060020181905550600081600c0160000160006101000a81548160ff0219169083151502179055508381600c01600101819055503381600c0160030160006101000a81548173ffffffffffffffffffffffffffffffffffffffff021916908373ffffffffffffffffffffffffffffffffffffffff16021790555050505050565b6000807f3cab9a070a0c61cd0ae9d9e9e2c0781e5ca8691bec4087e5a4701d5ac018dd4e90508091505090565b6000807f2c89d74504b6ad8d4fbde22bc3474166bac5452a11195897f239d8bebe02d70790508091505090565b6000807f1b1c2350f60dba32e7a2436167ce3f8399cd1c51a95c8577f1448f53846d4cda90508091505090565b60008061107d610feb565b90506000816003016000868152602001908152602001600020905060008260030160008681526020019081526020016000209050600060046110be8761128e565b6110c89190611620565b82600501546110d79190611651565b60056110e28961128e565b6110ec9190611620565b84600401546110fb9190611651565b6111059190611551565b9050600060056111148961128e565b61111e9190611620565b846005015461112d9190611651565b60056111388961128e565b6111429190611620565b84600401546111519190611651565b61115b9190611551565b905080821061117157879550505050505061117a565b86955050505050505b92915050565b60008061118b610feb565b90506000816003016000868152602001908152602001600020905060008260030160008681526020019081526020016000209050600060046111cc8761128e565b6111d69190611620565b82600301546111e59190611651565b60056111f08961128e565b6111fa9190611620565b84600401546112099190611651565b6112139190611551565b9050600060056112228961128e565b61122c9190611620565b846003015461123b9190611651565b60056112468961128e565b6112509190611620565b846004015461125f9190611651565b6112699190611551565b905080821061127f578795505050505050611288565b86955050505050505b92915050565b600080611299610feb565b9050828160010154426112ac919061151d565b6112b6919061151d565b6040516020016112c691906116b4565b6040516020818303038152906040528051906020012060001c915050919050565b600080fd5b6000819050919050565b6112ff816112ec565b811461130a57600080fd5b50565b60008135905061131c816112f6565b92915050565b600060208284031215611338576113376112e7565b5b60006113468482850161130d565b91505092915050565b60008115159050919050565b6113648161134f565b82525050565b600060208201905061137f600083018461135b565b92915050565b61138e816112ec565b82525050565b60006040820190506113a9600083018561135b565b6113b66020830184611385565b9392505050565b600082825260208201905092915050565b7f6172656e6120697320656d707479000000000000000000000000000000000000600082015250565b6000611404600e836113bd565b915061140f826113ce565b602082019050919050565b60006020820190508181036000830152611433816113f7565b9050919050565b7f6e6f7420656e6f75676820676f6c640000000000000000000000000000000000600082015250565b6000611470600f836113bd565b915061147b8261143a565b602082019050919050565b6000602082019050818103600083015261149f81611463565b9050919050565b7f4e487b7100000000000000000000000000000000000000000000000000000000600052601160045260246000fd5b60006114e0826112ec565b91507fffffffffffffffffffffffffffffffffffffffffffffffffffffffffffffffff8203611512576115116114a6565b5b600182019050919050565b6000611528826112ec565b9150611533836112ec565b925082820190508082111561154b5761154a6114a6565b5b92915050565b600061155c826112ec565b9150611567836112ec565b925082820390508181111561157f5761157e6114a6565b5b92915050565b7f6172656e6120697320636c6f7365640000000000000000000000000000000000600082015250565b60006115bb600f836113bd565b91506115c682611585565b602082019050919050565b600060208201905081810360008301526115ea816115ae565b9050919050565b7f4e487b7100000000000000000000000000000000000000000000000000000000600052601260045260246000fd5b600061162b826112ec565b9150611636836112ec565b925082611646576116456115f1565b5b828206905092915050565b600061165c826112ec565b9150611667836112ec565b9250828202611675816112ec565b9150828204841483151761168c5761168b6114a6565b5b5092915050565b6000819050919050565b6116ae6116a9826112ec565b611693565b82525050565b60006116c0828461169d565b6020820191508190509291505056fea264697066735822122099b8d83d0e63f4e060ec96ae3ce254989013e71f7a2a268a6ab124b1cac324f864736f6c63430008110033",
  "linkReferences": {},
  "deployedLinkReferences": {}
}