{
  "_format": "hh-sol-artifact-1",
  "contractName": "ArenaFacet",
  "sourceName": "contracts/facets/ArenaFacet.sol",
  "abi": [
    {
      "anonymous": false,
      "inputs": [
        {
          "indexed": true,
          "internalType": "uint256",
          "name": "_playerId",
          "type": "uint256"
        }
      ],
      "name": "EnterMagic",
      "type": "event"
    },
    {
      "anonymous": false,
      "inputs": [
        {
          "indexed": true,
          "internalType": "uint256",
          "name": "_playerId",
          "type": "uint256"
        }
      ],
      "name": "EnterMain",
      "type": "event"
    },
    {
      "anonymous": false,
      "inputs": [
        {
          "indexed": true,
          "internalType": "uint256",
          "name": "_playerId",
          "type": "uint256"
        }
      ],
      "name": "EnterSecond",
      "type": "event"
    },
    {
      "anonymous": false,
      "inputs": [
        {
          "indexed": true,
          "internalType": "uint256",
          "name": "_playerId",
          "type": "uint256"
        }
      ],
      "name": "MagicLoss",
      "type": "event"
    },
    {
      "anonymous": false,
      "inputs": [
        {
          "indexed": true,
          "internalType": "uint256",
          "name": "_playerId",
          "type": "uint256"
        }
      ],
      "name": "MagicWin",
      "type": "event"
    },
    {
      "anonymous": false,
      "inputs": [
        {
          "indexed": true,
          "internalType": "uint256",
          "name": "_playerId",
          "type": "uint256"
        }
      ],
      "name": "MainLoss",
      "type": "event"
    },
    {
      "anonymous": false,
      "inputs": [
        {
          "indexed": true,
          "internalType": "uint256",
          "name": "_playerId",
          "type": "uint256"
        }
      ],
      "name": "MainWin",
      "type": "event"
    },
    {
      "anonymous": false,
      "inputs": [
        {
          "indexed": true,
          "internalType": "uint256",
          "name": "_playerId",
          "type": "uint256"
        }
      ],
      "name": "SecondLoss",
      "type": "event"
    },
    {
      "anonymous": false,
      "inputs": [
        {
          "indexed": true,
          "internalType": "uint256",
          "name": "_playerId",
          "type": "uint256"
        }
      ],
      "name": "SecondWin",
      "type": "event"
    },
    {
      "inputs": [
        {
          "internalType": "uint256",
          "name": "_playerId",
          "type": "uint256"
        }
      ],
      "name": "enterMagicArena",
      "outputs": [],
      "stateMutability": "nonpayable",
      "type": "function"
    },
    {
      "inputs": [
        {
          "internalType": "uint256",
          "name": "_playerId",
          "type": "uint256"
        }
      ],
      "name": "enterMainArena",
      "outputs": [],
      "stateMutability": "nonpayable",
      "type": "function"
    },
    {
      "inputs": [
        {
          "internalType": "uint256",
          "name": "_playerId",
          "type": "uint256"
        }
      ],
      "name": "enterSecondArena",
      "outputs": [],
      "stateMutability": "nonpayable",
      "type": "function"
    },
    {
      "inputs": [
        {
          "internalType": "uint256",
          "name": "_challengerId",
          "type": "uint256"
        }
      ],
      "name": "fightMagicArena",
      "outputs": [],
      "stateMutability": "nonpayable",
      "type": "function"
    },
    {
      "inputs": [
        {
          "internalType": "uint256",
          "name": "_challengerId",
          "type": "uint256"
        }
      ],
      "name": "fightMainArena",
      "outputs": [],
      "stateMutability": "nonpayable",
      "type": "function"
    },
    {
      "inputs": [
        {
          "internalType": "uint256",
          "name": "_challengerId",
          "type": "uint256"
        }
      ],
      "name": "fightSecondArena",
      "outputs": [],
      "stateMutability": "nonpayable",
      "type": "function"
    },
    {
      "inputs": [],
      "name": "getMagicArena",
      "outputs": [
        {
          "internalType": "bool",
          "name": "",
          "type": "bool"
        },
        {
          "internalType": "uint256",
          "name": "",
          "type": "uint256"
        }
      ],
      "stateMutability": "view",
      "type": "function"
    },
    {
      "inputs": [
        {
          "internalType": "uint256",
          "name": "_playerId",
          "type": "uint256"
        }
      ],
      "name": "getMagicArenaLosses",
      "outputs": [
        {
          "internalType": "uint256",
          "name": "",
          "type": "uint256"
        }
      ],
      "stateMutability": "view",
      "type": "function"
    },
    {
      "inputs": [
        {
          "internalType": "uint256",
          "name": "_playerId",
          "type": "uint256"
        }
      ],
      "name": "getMagicArenaWins",
      "outputs": [
        {
          "internalType": "uint256",
          "name": "",
          "type": "uint256"
        }
      ],
      "stateMutability": "view",
      "type": "function"
    },
    {
      "inputs": [],
      "name": "getMainArena",
      "outputs": [
        {
          "internalType": "bool",
          "name": "",
          "type": "bool"
        },
        {
          "internalType": "uint256",
          "name": "",
          "type": "uint256"
        }
      ],
      "stateMutability": "view",
      "type": "function"
    },
    {
      "inputs": [
        {
          "internalType": "uint256",
          "name": "_playerId",
          "type": "uint256"
        }
      ],
      "name": "getMainArenaLosses",
      "outputs": [
        {
          "internalType": "uint256",
          "name": "",
          "type": "uint256"
        }
      ],
      "stateMutability": "view",
      "type": "function"
    },
    {
      "inputs": [
        {
          "internalType": "uint256",
          "name": "_playerId",
          "type": "uint256"
        }
      ],
      "name": "getMainArenaWins",
      "outputs": [
        {
          "internalType": "uint256",
          "name": "",
          "type": "uint256"
        }
      ],
      "stateMutability": "view",
      "type": "function"
    },
    {
      "inputs": [],
      "name": "getSecondArena",
      "outputs": [
        {
          "internalType": "bool",
          "name": "",
          "type": "bool"
        },
        {
          "internalType": "uint256",
          "name": "",
          "type": "uint256"
        }
      ],
      "stateMutability": "view",
      "type": "function"
    },
    {
      "inputs": [
        {
          "internalType": "uint256",
          "name": "_playerId",
          "type": "uint256"
        }
      ],
      "name": "getTotalLosses",
      "outputs": [
        {
          "internalType": "uint256",
          "name": "",
          "type": "uint256"
        }
      ],
      "stateMutability": "view",
      "type": "function"
    },
    {
      "inputs": [
        {
          "internalType": "uint256",
          "name": "_playerId",
          "type": "uint256"
        }
      ],
      "name": "getTotalWins",
      "outputs": [
        {
          "internalType": "uint256",
          "name": "",
          "type": "uint256"
        }
      ],
      "stateMutability": "view",
      "type": "function"
    },
    {
      "inputs": [],
      "name": "openArenas",
      "outputs": [],
      "stateMutability": "nonpayable",
      "type": "function"
    }
  ],
  "bytecode": "0x608060405234801561001057600080fd5b50612609806100206000396000f3fe608060405234801561001057600080fd5b50600436106101005760003560e01c80639e42de2211610097578063e774c70d11610066578063e774c70d146102ad578063eb88ff8d146102c9578063f0991451146102e8578063fb944ffc1461030457610100565b80639e42de2214610229578063a8dcd90d14610259578063c5d9ee8214610275578063ce02121f1461029157610100565b806372a1e3cc116100d357806372a1e3cc146101a05780638255e903146101aa57806382567771146101da578063935abcf61461020a57610100565b806304295323146101055780634cc31ab5146101245780634f7d08e514610140578063636c2fe714610170575b600080fd5b61010d610334565b60405161011b9291906121a0565b60405180910390f35b61013e600480360381019061013991906121fa565b610347565b005b61015a600480360381019061015591906121fa565b6103ba565b6040516101679190612227565b60405180910390f35b61018a600480360381019061018591906121fa565b6103cc565b6040516101979190612227565b60405180910390f35b6101a86103de565b005b6101c460048036038101906101bf91906121fa565b6103e8565b6040516101d19190612227565b60405180910390f35b6101f460048036038101906101ef91906121fa565b6103fa565b6040516102019190612227565b60405180910390f35b61021261040c565b6040516102209291906121a0565b60405180910390f35b610243600480360381019061023e91906121fa565b61041f565b6040516102509190612227565b60405180910390f35b610273600480360381019061026e91906121fa565b610431565b005b61028f600480360381019061028a91906121fa565b6104a4565b005b6102ab60048036038101906102a691906121fa565b6104dd565b005b6102c760048036038101906102c291906121fa565b610550565b005b6102d1610589565b6040516102df9291906121a0565b60405180910390f35b61030260048036038101906102fd91906121fa565b61059c565b005b61031e600480360381019061031991906121fa565b6105d5565b60405161032b9190612227565b60405180910390f35b60008061033f6105e7565b915091509091565b6000806103538361061c565b8092508193505050817f5b8d5960e28aa2e632f071463a0b86b97186239d9f80bce0ef792129df28781a60405160405180910390a2807f325aad9d170785e4cef15433ddac3f9bb2897c1df086a14e353c56fb0ba6fbf560405160405180910390a2505050565b60006103c582610a7d565b9050919050565b60006103d782610aa8565b9050919050565b6103e6610ad3565b565b60006103f382610ba1565b9050919050565b600061040582610bcc565b9050919050565b600080610417610bf7565b915091509091565b600061042a82610c2c565b9050919050565b60008061043d83610c57565b8092508193505050817f7f6bd6aa2f70e3cf6d1271981eb69a90a9fd72c25b86eb41cba70a2247eba62d60405160405180910390a2807ff4f4eb30bb1d26ae81f89a6d81478ee3d649c1e79544d225f2beb5f1eca8ce8860405160405180910390a2505050565b6104ad816110c5565b807f0879a19b12564127de37e414eb119f4ba433c76bb81d6ab23b7326f98946cbbc60405160405180910390a250565b6000806104e983611343565b8092508193505050817f2a1949a44eb7c43972e39a564a8797225bf45929dfcb20897f90389a8cc1b6df60405160405180910390a2807f155586aefb5285f1d6fc85d541f9feaf03bc3ceae95b1fdd2b1830e1bd2e2a7760405160405180910390a2505050565b610559816117b1565b807fef2a34cb7d27c37e23ed4fde1dca46351d53f1ee711a2569816e1c020eb03e7660405160405180910390a250565b6000806105946105e7565b915091509091565b6105a581611a2f565b807f7d4685d5e927fa2461758f5c12de56103a29fecdf09fad0b8215f165573cecd360405160405180910390a250565b60006105e082611cad565b9050919050565b60008060006105f4611cd8565b90508060020160000160009054906101000a900460ff16816002016001015492509250509091565b6000806000610629611d05565b90506000610635611d32565b90506000610641611cd8565b905080600e0160000160009054906101000a900460ff1615610698576040517f08c379a000000000000000000000000000000000000000000000000000000000815260040161068f9061229f565b60405180910390fd5b600083600301600088815260200190815260200160002060020154146106bd57600080fd5b60018260000160003373ffffffffffffffffffffffffffffffffffffffff1673ffffffffffffffffffffffffffffffffffffffff168152602001908152602001600020541015610742576040517f08c379a00000000000000000000000000000000000000000000000000000000081526004016107399061230b565b60405180910390fd5b600061075582600e016001015488611d5f565b905060008088830361088657889150836002016001015490508360180160008a815260200190815260200160002060008154809291906107949061235a565b919050555083601a0160008a815260200190815260200160002060008154809291906107bf9061235a565b91905055508360190160008560020160010154815260200190815260200160002060008154809291906107f19061235a565b919050555083601b0160008560020160010154815260200190815260200160002060008154809291906108239061235a565b919050555060018560000160003373ffffffffffffffffffffffffffffffffffffffff1673ffffffffffffffffffffffffffffffffffffffff168152602001908152602001600020600082825461087a91906123a2565b92505081905550610a27565b889050836002016001015491508360180160008560020160010154815260200190815260200160002060008154809291906108c09061235a565b919050555083601a0160008560020160010154815260200190815260200160002060008154809291906108f29061235a565b91905055508360190160008a8152602001908152602001600020600081548092919061091d9061235a565b919050555083601b0160008a815260200190815260200160002060008154809291906109489061235a565b919050555060028560000160008660020160030160009054906101000a900473ffffffffffffffffffffffffffffffffffffffff1673ffffffffffffffffffffffffffffffffffffffff1673ffffffffffffffffffffffffffffffffffffffff16815260200190815260200160002060008282546109c691906123a2565b9250508190555060018560000160003373ffffffffffffffffffffffffffffffffffffffff1673ffffffffffffffffffffffffffffffffffffffff1681526020019081526020016000206000828254610a1f91906123d6565b925050819055505b600184600e0160000160006101000a81548160ff021916908315150217905550600086600301600086600e0160010154815260200190815260200160002060020181905550818197509750505050505050915091565b600080610a88611cd8565b905080601a01600084815260200190815260200160002054915050919050565b600080610ab3611cd8565b905080601301600084815260200190815260200160002054915050919050565b6000610add611cd8565b9050600015158160000160009054906101000a900460ff16151514610b0157600080fd5b60018160000160006101000a81548160ff02191690831515021790555060018160020160000160006101000a81548160ff02191690831515021790555060018160060160000160006101000a81548160ff021916908315150217905550600181600a0160000160006101000a81548160ff021916908315150217905550600181600e0160000160006101000a81548160ff02191690831515021790555050565b600080610bac611cd8565b905080601201600084815260200190815260200160002054915050919050565b600080610bd7611cd8565b905080601901600084815260200190815260200160002054915050919050565b6000806000610c04611cd8565b905080600e0160000160009054906101000a900460ff1681600e016001015492509250509091565b600080610c37611cd8565b905080601801600084815260200190815260200160002054915050919050565b6000806000610c64611d05565b90506000610c70611d32565b90506000610c7c611cd8565b90508060060160000160009054906101000a900460ff1615610cd3576040517f08c379a0000000000000000000000000000000000000000000000000000000008152600401610cca9061229f565b60405180910390fd5b60008360030160008881526020019081526020016000206002015414610cf857600080fd5b60018260000160003373ffffffffffffffffffffffffffffffffffffffff1673ffffffffffffffffffffffffffffffffffffffff168152602001908152602001600020541015610d7d576040517f08c379a0000000000000000000000000000000000000000000000000000000008152600401610d749061230b565b60405180910390fd5b6000610d90826006016001015488611e6d565b9050600080888303610ec157889150836006016001015490508360140160008a81526020019081526020016000206000815480929190610dcf9061235a565b919050555083601a0160008a81526020019081526020016000206000815480929190610dfa9061235a565b9190505550836015016000856006016001015481526020019081526020016000206000815480929190610e2c9061235a565b919050555083601b016000856006016001015481526020019081526020016000206000815480929190610e5e9061235a565b919050555060018560000160003373ffffffffffffffffffffffffffffffffffffffff1673ffffffffffffffffffffffffffffffffffffffff1681526020019081526020016000206000828254610eb591906123a2565b92505081905550611062565b88905083600601600101549150836014016000856006016001015481526020019081526020016000206000815480929190610efb9061235a565b919050555083601a016000856006016001015481526020019081526020016000206000815480929190610f2d9061235a565b91905055508360150160008a81526020019081526020016000206000815480929190610f589061235a565b919050555083601b0160008a81526020019081526020016000206000815480929190610f839061235a565b919050555060028560000160008660060160030160009054906101000a900473ffffffffffffffffffffffffffffffffffffffff1673ffffffffffffffffffffffffffffffffffffffff1673ffffffffffffffffffffffffffffffffffffffff168152602001908152602001600020600082825461100191906123a2565b9250508190555060018560000160003373ffffffffffffffffffffffffffffffffffffffff1673ffffffffffffffffffffffffffffffffffffffff168152602001908152602001600020600082825461105a91906123d6565b925050819055505b60018460060160000160006101000a81548160ff0219169083151502179055506000866003016000866006016001015481526020019081526020016000206002018190555060008460060160010181905550818197509750505050505050915091565b60006110cf611d05565b905060006110db611d32565b905060006110e7611cd8565b90508060060160000160009054906101000a900460ff1661113d576040517f08c379a000000000000000000000000000000000000000000000000000000000815260040161113490612456565b60405180910390fd5b60018260000160003373ffffffffffffffffffffffffffffffffffffffff1673ffffffffffffffffffffffffffffffffffffffff1681526020019081526020016000205410156111c2576040517f08c379a00000000000000000000000000000000000000000000000000000000081526004016111b99061230b565b60405180910390fd5b600083600301600086815260200190815260200160002060020154146111e757600080fd5b3373ffffffffffffffffffffffffffffffffffffffff1683600201600086815260200190815260200160002060009054906101000a900473ffffffffffffffffffffffffffffffffffffffff1673ffffffffffffffffffffffffffffffffffffffff161461125457600080fd5b60018260000160003373ffffffffffffffffffffffffffffffffffffffff1673ffffffffffffffffffffffffffffffffffffffff16815260200190815260200160002060008282546112a691906123d6565b9250508190555060048360030160008681526020019081526020016000206002018190555060008160060160000160006101000a81548160ff021916908315150217905550838160060160010181905550338160060160030160006101000a81548173ffffffffffffffffffffffffffffffffffffffff021916908373ffffffffffffffffffffffffffffffffffffffff16021790555050505050565b6000806000611350611d05565b9050600061135c611d32565b90506000611368611cd8565b90508060020160000160009054906101000a900460ff16156113bf576040517f08c379a00000000000000000000000000000000000000000000000000000000081526004016113b69061229f565b60405180910390fd5b600083600301600088815260200190815260200160002060020154146113e457600080fd5b60018260000160003373ffffffffffffffffffffffffffffffffffffffff1673ffffffffffffffffffffffffffffffffffffffff168152602001908152602001600020541015611469576040517f08c379a00000000000000000000000000000000000000000000000000000000081526004016114609061230b565b60405180910390fd5b600061147c826002016001015488611e6d565b90506000808883036115ad57889150836002016001015490508360120160008a815260200190815260200160002060008154809291906114bb9061235a565b919050555083601a0160008a815260200190815260200160002060008154809291906114e69061235a565b91905055508360130160008560020160010154815260200190815260200160002060008154809291906115189061235a565b919050555083601b01600085600201600101548152602001908152602001600020600081548092919061154a9061235a565b919050555060018560000160003373ffffffffffffffffffffffffffffffffffffffff1673ffffffffffffffffffffffffffffffffffffffff16815260200190815260200160002060008282546115a191906123a2565b9250508190555061174e565b889050836002016001015491508360120160008560020160010154815260200190815260200160002060008154809291906115e79061235a565b919050555083601a0160008560020160010154815260200190815260200160002060008154809291906116199061235a565b91905055508360130160008a815260200190815260200160002060008154809291906116449061235a565b919050555083601b0160008a8152602001908152602001600020600081548092919061166f9061235a565b919050555060028560000160008660020160030160009054906101000a900473ffffffffffffffffffffffffffffffffffffffff1673ffffffffffffffffffffffffffffffffffffffff1673ffffffffffffffffffffffffffffffffffffffff16815260200190815260200160002060008282546116ed91906123a2565b9250508190555060018560000160003373ffffffffffffffffffffffffffffffffffffffff1673ffffffffffffffffffffffffffffffffffffffff168152602001908152602001600020600082825461174691906123d6565b925050819055505b60018460020160000160006101000a81548160ff0219169083151502179055506000866003016000866002016001015481526020019081526020016000206002018190555060008460020160010181905550818197509750505050505050915091565b60006117bb611d05565b905060006117c7611d32565b905060006117d3611cd8565b90508060020160000160009054906101000a900460ff16611829576040517f08c379a000000000000000000000000000000000000000000000000000000000815260040161182090612456565b60405180910390fd5b60018260000160003373ffffffffffffffffffffffffffffffffffffffff1673ffffffffffffffffffffffffffffffffffffffff1681526020019081526020016000205410156118ae576040517f08c379a00000000000000000000000000000000000000000000000000000000081526004016118a59061230b565b60405180910390fd5b600083600301600086815260200190815260200160002060020154146118d357600080fd5b3373ffffffffffffffffffffffffffffffffffffffff1683600201600086815260200190815260200160002060009054906101000a900473ffffffffffffffffffffffffffffffffffffffff1673ffffffffffffffffffffffffffffffffffffffff161461194057600080fd5b60018260000160003373ffffffffffffffffffffffffffffffffffffffff1673ffffffffffffffffffffffffffffffffffffffff168152602001908152602001600020600082825461199291906123d6565b9250508190555060048360030160008681526020019081526020016000206002018190555060008160020160000160006101000a81548160ff021916908315150217905550838160020160010181905550338160020160030160006101000a81548173ffffffffffffffffffffffffffffffffffffffff021916908373ffffffffffffffffffffffffffffffffffffffff16021790555050505050565b6000611a39611d05565b90506000611a45611d32565b90506000611a51611cd8565b905080600e0160000160009054906101000a900460ff16611aa7576040517f08c379a0000000000000000000000000000000000000000000000000000000008152600401611a9e90612456565b60405180910390fd5b60018260000160003373ffffffffffffffffffffffffffffffffffffffff1673ffffffffffffffffffffffffffffffffffffffff168152602001908152602001600020541015611b2c576040517f08c379a0000000000000000000000000000000000000000000000000000000008152600401611b239061230b565b60405180910390fd5b60008360030160008681526020019081526020016000206002015414611b5157600080fd5b3373ffffffffffffffffffffffffffffffffffffffff1683600201600086815260200190815260200160002060009054906101000a900473ffffffffffffffffffffffffffffffffffffffff1673ffffffffffffffffffffffffffffffffffffffff1614611bbe57600080fd5b60018260000160003373ffffffffffffffffffffffffffffffffffffffff1673ffffffffffffffffffffffffffffffffffffffff1681526020019081526020016000206000828254611c1091906123d6565b92505081905550600483600301600086815260200190815260200160002060020181905550600081600e0160000160006101000a81548160ff0219169083151502179055508381600e01600101819055503381600e0160030160006101000a81548173ffffffffffffffffffffffffffffffffffffffff021916908373ffffffffffffffffffffffffffffffffffffffff16021790555050505050565b600080611cb8611cd8565b905080601b01600084815260200190815260200160002054915050919050565b6000807f1b1c2350f60dba32e7a2436167ce3f8399cd1c51a95c8577f1448f53846d4cda90508091505090565b6000807f3cab9a070a0c61cd0ae9d9e9e2c0781e5ca8691bec4087e5a4701d5ac018dd4e90508091505090565b6000807f2c89d74504b6ad8d4fbde22bc3474166bac5452a11195897f239d8bebe02d70790508091505090565b600080611d6a611d05565b9050600081600301600086815260200190815260200160002090506000826003016000868152602001908152602001600020905060006004611dab87611f0f565b611db591906124a5565b8260050154611dc491906124d6565b6005611dcf89611f0f565b611dd991906124a5565b8460040154611de891906124d6565b611df291906123d6565b905060006005611e0189611f0f565b611e0b91906124a5565b8460050154611e1a91906124d6565b6005611e2589611f0f565b611e2f91906124a5565b8460040154611e3e91906124d6565b611e4891906123d6565b9050808210611e5e578795505050505050611e67565b86955050505050505b92915050565b600080611e78611d05565b90506000816003016000868152602001908152602001600020905060008260030160008681526020019081526020016000209050600082600301548360040154611ec291906123a2565b9050600082600301548360040154611eda91906123a2565b90506000611ee88383611f68565b9050828103611eff57889650505050505050611f09565b8796505050505050505b92915050565b600080611f1a611d05565b905082816001015442611f2d91906123a2565b611f3791906123a2565b604051602001611f479190612539565b6040516020818303038152906040528051906020012060001c915050919050565b60008183111561202b5760018284611f809190612554565b03611fa5576004611f90846120e6565b10611f9d578290506120e0565b8190506120e0565b60028284611fb39190612554565b03611fd8576003611fc3846120e6565b10611fd0578290506120e0565b8190506120e0565b60038284611fe69190612554565b0361200b576002611ff6846120e6565b10612003578290506120e0565b8190506120e0565b6001612016846120e6565b10612023578290506120e0565b8190506120e0565b600183836120399190612554565b0361205e576004612049836120e6565b10612056578190506120e0565b8290506120e0565b6002838361206c9190612554565b0361209157600361207c836120e6565b10612089578190506120e0565b8290506120e0565b6003838361209f9190612554565b036120c45760026120af836120e6565b106120bc578190506120e0565b8290506120e0565b60016120cf836120e6565b106120dc578190506120e0565b8290505b92915050565b6000806120f283612109565b9050600a8161210191906124a5565b915050919050565b600080612114611cd8565b905080600101600081548092919061212b9061235a565b9190505550424484836001015460405160200161214b9493929190612585565b6040516020818303038152906040528051906020012060001c915050919050565b60008115159050919050565b6121818161216c565b82525050565b6000819050919050565b61219a81612187565b82525050565b60006040820190506121b56000830185612178565b6121c26020830184612191565b9392505050565b600080fd5b6121d781612187565b81146121e257600080fd5b50565b6000813590506121f4816121ce565b92915050565b6000602082840312156122105761220f6121c9565b5b600061221e848285016121e5565b91505092915050565b600060208201905061223c6000830184612191565b92915050565b600082825260208201905092915050565b7f6172656e6120697320656d707479000000000000000000000000000000000000600082015250565b6000612289600e83612242565b915061229482612253565b602082019050919050565b600060208201905081810360008301526122b88161227c565b9050919050565b7f6e6f7420656e6f75676820676f6c640000000000000000000000000000000000600082015250565b60006122f5600f83612242565b9150612300826122bf565b602082019050919050565b60006020820190508181036000830152612324816122e8565b9050919050565b7f4e487b7100000000000000000000000000000000000000000000000000000000600052601160045260246000fd5b600061236582612187565b91507fffffffffffffffffffffffffffffffffffffffffffffffffffffffffffffffff82036123975761239661232b565b5b600182019050919050565b60006123ad82612187565b91506123b883612187565b92508282019050808211156123d0576123cf61232b565b5b92915050565b60006123e182612187565b91506123ec83612187565b92508282039050818111156124045761240361232b565b5b92915050565b7f6172656e6120697320636c6f7365640000000000000000000000000000000000600082015250565b6000612440600f83612242565b915061244b8261240a565b602082019050919050565b6000602082019050818103600083015261246f81612433565b9050919050565b7f4e487b7100000000000000000000000000000000000000000000000000000000600052601260045260246000fd5b60006124b082612187565b91506124bb83612187565b9250826124cb576124ca612476565b5b828206905092915050565b60006124e182612187565b91506124ec83612187565b92508282026124fa81612187565b915082820484148315176125115761251061232b565b5b5092915050565b6000819050919050565b61253361252e82612187565b612518565b82525050565b60006125458284612522565b60208201915081905092915050565b600061255f82612187565b915061256a83612187565b92508261257a57612579612476565b5b828204905092915050565b60006125918287612522565b6020820191506125a18286612522565b6020820191506125b18285612522565b6020820191506125c18284612522565b6020820191508190509594505050505056fea26469706673582212206aa9335487a40244a2cd58f51f2354ffc99ede80a447a26fa1577dca12561e6064736f6c63430008110033",
  "linkReferences": {},
  "deployedLinkReferences": {}
}