{
  "_format": "hh-sol-artifact-1",
  "contractName": "ArenaFacet",
  "sourceName": "contracts/facets/ArenaFacet.sol",
  "abi": [
    {
      "anonymous": false,
      "inputs": [
        {
          "indexed": true,
          "internalType": "uint256",
          "name": "_playerId",
          "type": "uint256"
        }
      ],
      "name": "EnterMagic",
      "type": "event"
    },
    {
      "anonymous": false,
      "inputs": [
        {
          "indexed": true,
          "internalType": "uint256",
          "name": "_playerId",
          "type": "uint256"
        }
      ],
      "name": "EnterMain",
      "type": "event"
    },
    {
      "anonymous": false,
      "inputs": [
        {
          "indexed": true,
          "internalType": "uint256",
          "name": "_playerId",
          "type": "uint256"
        }
      ],
      "name": "EnterSecond",
      "type": "event"
    },
    {
      "anonymous": false,
      "inputs": [
        {
          "indexed": true,
          "internalType": "uint256",
          "name": "_playerId",
          "type": "uint256"
        }
      ],
      "name": "MagicLoss",
      "type": "event"
    },
    {
      "anonymous": false,
      "inputs": [
        {
          "indexed": true,
          "internalType": "uint256",
          "name": "_playerId",
          "type": "uint256"
        }
      ],
      "name": "MagicWin",
      "type": "event"
    },
    {
      "anonymous": false,
      "inputs": [
        {
          "indexed": true,
          "internalType": "uint256",
          "name": "_playerId",
          "type": "uint256"
        }
      ],
      "name": "MainLoss",
      "type": "event"
    },
    {
      "anonymous": false,
      "inputs": [
        {
          "indexed": true,
          "internalType": "uint256",
          "name": "_playerId",
          "type": "uint256"
        }
      ],
      "name": "MainWin",
      "type": "event"
    },
    {
      "anonymous": false,
      "inputs": [
        {
          "indexed": true,
          "internalType": "uint256",
          "name": "_playerId",
          "type": "uint256"
        }
      ],
      "name": "SecondLoss",
      "type": "event"
    },
    {
      "anonymous": false,
      "inputs": [
        {
          "indexed": true,
          "internalType": "uint256",
          "name": "_playerId",
          "type": "uint256"
        }
      ],
      "name": "SecondWin",
      "type": "event"
    },
    {
      "inputs": [
        {
          "internalType": "uint256",
          "name": "_playerId",
          "type": "uint256"
        }
      ],
      "name": "enterMagicArena",
      "outputs": [],
      "stateMutability": "nonpayable",
      "type": "function"
    },
    {
      "inputs": [
        {
          "internalType": "uint256",
          "name": "_playerId",
          "type": "uint256"
        }
      ],
      "name": "enterMainArena",
      "outputs": [],
      "stateMutability": "nonpayable",
      "type": "function"
    },
    {
      "inputs": [
        {
          "internalType": "uint256",
          "name": "_playerId",
          "type": "uint256"
        }
      ],
      "name": "enterSecondArena",
      "outputs": [],
      "stateMutability": "nonpayable",
      "type": "function"
    },
    {
      "inputs": [
        {
          "internalType": "uint256",
          "name": "_challengerId",
          "type": "uint256"
        }
      ],
      "name": "fightMagicArena",
      "outputs": [],
      "stateMutability": "nonpayable",
      "type": "function"
    },
    {
      "inputs": [
        {
          "internalType": "uint256",
          "name": "_challengerId",
          "type": "uint256"
        }
      ],
      "name": "fightMainArena",
      "outputs": [],
      "stateMutability": "nonpayable",
      "type": "function"
    },
    {
      "inputs": [
        {
          "internalType": "uint256",
          "name": "_challengerId",
          "type": "uint256"
        }
      ],
      "name": "fightSecondArena",
      "outputs": [],
      "stateMutability": "nonpayable",
      "type": "function"
    },
    {
      "inputs": [],
      "name": "getMagicArena",
      "outputs": [
        {
          "internalType": "bool",
          "name": "",
          "type": "bool"
        },
        {
          "internalType": "uint256",
          "name": "",
          "type": "uint256"
        }
      ],
      "stateMutability": "view",
      "type": "function"
    },
    {
      "inputs": [
        {
          "internalType": "uint256",
          "name": "_playerId",
          "type": "uint256"
        }
      ],
      "name": "getMagicArenaLosses",
      "outputs": [
        {
          "internalType": "uint256",
          "name": "",
          "type": "uint256"
        }
      ],
      "stateMutability": "view",
      "type": "function"
    },
    {
      "inputs": [
        {
          "internalType": "uint256",
          "name": "_playerId",
          "type": "uint256"
        }
      ],
      "name": "getMagicArenaWins",
      "outputs": [
        {
          "internalType": "uint256",
          "name": "",
          "type": "uint256"
        }
      ],
      "stateMutability": "view",
      "type": "function"
    },
    {
      "inputs": [],
      "name": "getMainArena",
      "outputs": [
        {
          "internalType": "bool",
          "name": "",
          "type": "bool"
        },
        {
          "internalType": "uint256",
          "name": "",
          "type": "uint256"
        }
      ],
      "stateMutability": "view",
      "type": "function"
    },
    {
      "inputs": [
        {
          "internalType": "uint256",
          "name": "_playerId",
          "type": "uint256"
        }
      ],
      "name": "getMainArenaLosses",
      "outputs": [
        {
          "internalType": "uint256",
          "name": "",
          "type": "uint256"
        }
      ],
      "stateMutability": "view",
      "type": "function"
    },
    {
      "inputs": [
        {
          "internalType": "uint256",
          "name": "_playerId",
          "type": "uint256"
        }
      ],
      "name": "getMainArenaWins",
      "outputs": [
        {
          "internalType": "uint256",
          "name": "",
          "type": "uint256"
        }
      ],
      "stateMutability": "view",
      "type": "function"
    },
    {
      "inputs": [],
      "name": "getSecondArena",
      "outputs": [
        {
          "internalType": "bool",
          "name": "",
          "type": "bool"
        },
        {
          "internalType": "uint256",
          "name": "",
          "type": "uint256"
        }
      ],
      "stateMutability": "view",
      "type": "function"
    },
    {
      "inputs": [
        {
          "internalType": "uint256",
          "name": "_playerId",
          "type": "uint256"
        }
      ],
      "name": "getTotalLosses",
      "outputs": [
        {
          "internalType": "uint256",
          "name": "",
          "type": "uint256"
        }
      ],
      "stateMutability": "view",
      "type": "function"
    },
    {
      "inputs": [
        {
          "internalType": "uint256",
          "name": "_playerId",
          "type": "uint256"
        }
      ],
      "name": "getTotalWins",
      "outputs": [
        {
          "internalType": "uint256",
          "name": "",
          "type": "uint256"
        }
      ],
      "stateMutability": "view",
      "type": "function"
    },
    {
      "inputs": [
        {
          "internalType": "uint256",
          "name": "_playerId",
          "type": "uint256"
        }
      ],
      "name": "leaveMainArena",
      "outputs": [],
      "stateMutability": "nonpayable",
      "type": "function"
    },
    {
      "inputs": [],
      "name": "openArenas",
      "outputs": [],
      "stateMutability": "nonpayable",
      "type": "function"
    }
  ],
  "bytecode": "0x608060405234801561001057600080fd5b506126fa806100206000396000f3fe608060405234801561001057600080fd5b506004361061010b5760003560e01c8063935abcf6116100a2578063ce02121f11610071578063ce02121f146102b8578063e774c70d146102d4578063eb88ff8d146102f0578063f09914511461030f578063fb944ffc1461032b5761010b565b8063935abcf6146102315780639e42de2214610250578063a8dcd90d14610280578063c5d9ee821461029c5761010b565b8063636c2fe7116100de578063636c2fe71461019757806372a1e3cc146101c75780638255e903146101d157806382567771146102015761010b565b806304295323146101105780633e5d339c1461012f5780634cc31ab51461014b5780634f7d08e514610167575b600080fd5b61011861035b565b604051610126929190612216565b60405180910390f35b61014960048036038101906101449190612270565b61036e565b005b61016560048036038101906101609190612270565b61037a565b005b610181600480360381019061017c9190612270565b6103ed565b60405161018e919061229d565b60405180910390f35b6101b160048036038101906101ac9190612270565b6103ff565b6040516101be919061229d565b60405180910390f35b6101cf610411565b005b6101eb60048036038101906101e69190612270565b61041b565b6040516101f8919061229d565b60405180910390f35b61021b60048036038101906102169190612270565b61042d565b604051610228919061229d565b60405180910390f35b61023961043f565b604051610247929190612216565b60405180910390f35b61026a60048036038101906102659190612270565b610452565b604051610277919061229d565b60405180910390f35b61029a60048036038101906102959190612270565b610464565b005b6102b660048036038101906102b19190612270565b6104d7565b005b6102d260048036038101906102cd9190612270565b610510565b005b6102ee60048036038101906102e99190612270565b610583565b005b6102f86105bc565b604051610306929190612216565b60405180910390f35b61032960048036038101906103249190612270565b6105cf565b005b61034560048036038101906103409190612270565b610608565b604051610352919061229d565b60405180910390f35b60008061036661061a565b915091509091565b6103778161064f565b50565b600080610386836107c1565b8092508193505050817f5b8d5960e28aa2e632f071463a0b86b97186239d9f80bce0ef792129df28781a60405160405180910390a2807f325aad9d170785e4cef15433ddac3f9bb2897c1df086a14e353c56fb0ba6fbf560405160405180910390a2505050565b60006103f882610c22565b9050919050565b600061040a82610c4d565b9050919050565b610419610c78565b565b600061042682610ca7565b9050919050565b600061043882610cd2565b9050919050565b60008061044a610cfd565b915091509091565b600061045d82610d32565b9050919050565b60008061047083610d5d565b8092508193505050817f7f6bd6aa2f70e3cf6d1271981eb69a90a9fd72c25b86eb41cba70a2247eba62d60405160405180910390a2807ff4f4eb30bb1d26ae81f89a6d81478ee3d649c1e79544d225f2beb5f1eca8ce8860405160405180910390a2505050565b6104e0816111cb565b807f0879a19b12564127de37e414eb119f4ba433c76bb81d6ab23b7326f98946cbbc60405160405180910390a250565b60008061051c83611449565b8092508193505050817f2a1949a44eb7c43972e39a564a8797225bf45929dfcb20897f90389a8cc1b6df60405160405180910390a2807f155586aefb5285f1d6fc85d541f9feaf03bc3ceae95b1fdd2b1830e1bd2e2a7760405160405180910390a2505050565b61058c816118b7565b807fef2a34cb7d27c37e23ed4fde1dca46351d53f1ee711a2569816e1c020eb03e7660405160405180910390a250565b6000806105c7611b35565b915091509091565b6105d881611b6a565b807f7d4685d5e927fa2461758f5c12de56103a29fecdf09fad0b8215f165573cecd360405160405180910390a250565b600061061382611de8565b9050919050565b6000806000610627611e13565b90508060060160000160009054906101000a900460ff16816006016001015492509250509091565b6000610659611e13565b90506000610665611e40565b90506000610671611e6d565b9050838360020160010154146106bc576040517f08c379a00000000000000000000000000000000000000000000000000000000081526004016106b390612315565b60405180910390fd5b60048260030160008681526020019081526020016000206002015414610717576040517f08c379a000000000000000000000000000000000000000000000000000000000815260040161070e90612381565b60405180910390fd5b6000836002016001018190555060018360020160000160006101000a81548160ff02191690831515021790555060008260030160008681526020019081526020016000206002018190555060018160000160003373ffffffffffffffffffffffffffffffffffffffff1673ffffffffffffffffffffffffffffffffffffffff16815260200190815260200160002060008282546107b491906123d0565b9250508190555050505050565b60008060006107ce611e40565b905060006107da611e6d565b905060006107e6611e13565b905080600e0160000160009054906101000a900460ff161561083d576040517f08c379a000000000000000000000000000000000000000000000000000000000815260040161083490612450565b60405180910390fd5b6000836003016000888152602001908152602001600020600201541461086257600080fd5b60018260000160003373ffffffffffffffffffffffffffffffffffffffff1673ffffffffffffffffffffffffffffffffffffffff1681526020019081526020016000205410156108e7576040517f08c379a00000000000000000000000000000000000000000000000000000000081526004016108de906124bc565b60405180910390fd5b60006108fa82600e016001015488611e9a565b9050600080888303610a2b57889150836002016001015490508360180160008a81526020019081526020016000206000815480929190610939906124dc565b919050555083601a0160008a81526020019081526020016000206000815480929190610964906124dc565b9190505550836019016000856002016001015481526020019081526020016000206000815480929190610996906124dc565b919050555083601b0160008560020160010154815260200190815260200160002060008154809291906109c8906124dc565b919050555060018560000160003373ffffffffffffffffffffffffffffffffffffffff1673ffffffffffffffffffffffffffffffffffffffff1681526020019081526020016000206000828254610a1f91906123d0565b92505081905550610bcc565b88905083600201600101549150836018016000856002016001015481526020019081526020016000206000815480929190610a65906124dc565b919050555083601a016000856002016001015481526020019081526020016000206000815480929190610a97906124dc565b91905055508360190160008a81526020019081526020016000206000815480929190610ac2906124dc565b919050555083601b0160008a81526020019081526020016000206000815480929190610aed906124dc565b919050555060028560000160008660020160030160009054906101000a900473ffffffffffffffffffffffffffffffffffffffff1673ffffffffffffffffffffffffffffffffffffffff1673ffffffffffffffffffffffffffffffffffffffff1681526020019081526020016000206000828254610b6b91906123d0565b9250508190555060018560000160003373ffffffffffffffffffffffffffffffffffffffff1673ffffffffffffffffffffffffffffffffffffffff1681526020019081526020016000206000828254610bc49190612524565b925050819055505b600184600e0160000160006101000a81548160ff021916908315150217905550600086600301600086600e0160010154815260200190815260200160002060020181905550818197509750505050505050915091565b600080610c2d611e13565b905080601a01600084815260200190815260200160002054915050919050565b600080610c58611e13565b905080601301600084815260200190815260200160002054915050919050565b6000610c82611e13565b905060018160020160000160006101000a81548160ff02191690831515021790555050565b600080610cb2611e13565b905080601201600084815260200190815260200160002054915050919050565b600080610cdd611e13565b905080601901600084815260200190815260200160002054915050919050565b6000806000610d0a611e13565b905080600e0160000160009054906101000a900460ff1681600e016001015492509250509091565b600080610d3d611e13565b905080601801600084815260200190815260200160002054915050919050565b6000806000610d6a611e40565b90506000610d76611e6d565b90506000610d82611e13565b90508060060160000160009054906101000a900460ff1615610dd9576040517f08c379a0000000000000000000000000000000000000000000000000000000008152600401610dd090612450565b60405180910390fd5b60008360030160008881526020019081526020016000206002015414610dfe57600080fd5b60018260000160003373ffffffffffffffffffffffffffffffffffffffff1673ffffffffffffffffffffffffffffffffffffffff168152602001908152602001600020541015610e83576040517f08c379a0000000000000000000000000000000000000000000000000000000008152600401610e7a906124bc565b60405180910390fd5b6000610e96826006016001015488611f3c565b9050600080888303610fc757889150836006016001015490508360140160008a81526020019081526020016000206000815480929190610ed5906124dc565b919050555083601a0160008a81526020019081526020016000206000815480929190610f00906124dc565b9190505550836015016000856006016001015481526020019081526020016000206000815480929190610f32906124dc565b919050555083601b016000856006016001015481526020019081526020016000206000815480929190610f64906124dc565b919050555060018560000160003373ffffffffffffffffffffffffffffffffffffffff1673ffffffffffffffffffffffffffffffffffffffff1681526020019081526020016000206000828254610fbb91906123d0565b92505081905550611168565b88905083600601600101549150836014016000856006016001015481526020019081526020016000206000815480929190611001906124dc565b919050555083601a016000856006016001015481526020019081526020016000206000815480929190611033906124dc565b91905055508360150160008a8152602001908152602001600020600081548092919061105e906124dc565b919050555083601b0160008a81526020019081526020016000206000815480929190611089906124dc565b919050555060028560000160008660060160030160009054906101000a900473ffffffffffffffffffffffffffffffffffffffff1673ffffffffffffffffffffffffffffffffffffffff1673ffffffffffffffffffffffffffffffffffffffff168152602001908152602001600020600082825461110791906123d0565b9250508190555060018560000160003373ffffffffffffffffffffffffffffffffffffffff1673ffffffffffffffffffffffffffffffffffffffff16815260200190815260200160002060008282546111609190612524565b925050819055505b60018460060160000160006101000a81548160ff0219169083151502179055506000866003016000866006016001015481526020019081526020016000206002018190555060008460060160010181905550818197509750505050505050915091565b60006111d5611e40565b905060006111e1611e6d565b905060006111ed611e13565b90508060060160000160009054906101000a900460ff16611243576040517f08c379a000000000000000000000000000000000000000000000000000000000815260040161123a906125a4565b60405180910390fd5b60018260000160003373ffffffffffffffffffffffffffffffffffffffff1673ffffffffffffffffffffffffffffffffffffffff1681526020019081526020016000205410156112c8576040517f08c379a00000000000000000000000000000000000000000000000000000000081526004016112bf906124bc565b60405180910390fd5b600083600301600086815260200190815260200160002060020154146112ed57600080fd5b3373ffffffffffffffffffffffffffffffffffffffff1683600201600086815260200190815260200160002060009054906101000a900473ffffffffffffffffffffffffffffffffffffffff1673ffffffffffffffffffffffffffffffffffffffff161461135a57600080fd5b60018260000160003373ffffffffffffffffffffffffffffffffffffffff1673ffffffffffffffffffffffffffffffffffffffff16815260200190815260200160002060008282546113ac9190612524565b9250508190555060048360030160008681526020019081526020016000206002018190555060008160060160000160006101000a81548160ff021916908315150217905550838160060160010181905550338160060160030160006101000a81548173ffffffffffffffffffffffffffffffffffffffff021916908373ffffffffffffffffffffffffffffffffffffffff16021790555050505050565b6000806000611456611e40565b90506000611462611e6d565b9050600061146e611e13565b90508060020160000160009054906101000a900460ff16156114c5576040517f08c379a00000000000000000000000000000000000000000000000000000000081526004016114bc90612450565b60405180910390fd5b600083600301600088815260200190815260200160002060020154146114ea57600080fd5b60018260000160003373ffffffffffffffffffffffffffffffffffffffff1673ffffffffffffffffffffffffffffffffffffffff16815260200190815260200160002054101561156f576040517f08c379a0000000000000000000000000000000000000000000000000000000008152600401611566906124bc565b60405180910390fd5b6000611582826002016001015488611f3c565b90506000808883036116b357889150836002016001015490508360120160008a815260200190815260200160002060008154809291906115c1906124dc565b919050555083601a0160008a815260200190815260200160002060008154809291906115ec906124dc565b919050555083601301600085600201600101548152602001908152602001600020600081548092919061161e906124dc565b919050555083601b016000856002016001015481526020019081526020016000206000815480929190611650906124dc565b919050555060018560000160003373ffffffffffffffffffffffffffffffffffffffff1673ffffffffffffffffffffffffffffffffffffffff16815260200190815260200160002060008282546116a791906123d0565b92505081905550611854565b889050836002016001015491508360120160008560020160010154815260200190815260200160002060008154809291906116ed906124dc565b919050555083601a01600085600201600101548152602001908152602001600020600081548092919061171f906124dc565b91905055508360130160008a8152602001908152602001600020600081548092919061174a906124dc565b919050555083601b0160008a81526020019081526020016000206000815480929190611775906124dc565b919050555060028560000160008660020160030160009054906101000a900473ffffffffffffffffffffffffffffffffffffffff1673ffffffffffffffffffffffffffffffffffffffff1673ffffffffffffffffffffffffffffffffffffffff16815260200190815260200160002060008282546117f391906123d0565b9250508190555060018560000160003373ffffffffffffffffffffffffffffffffffffffff1673ffffffffffffffffffffffffffffffffffffffff168152602001908152602001600020600082825461184c9190612524565b925050819055505b60018460020160000160006101000a81548160ff0219169083151502179055506000866003016000866002016001015481526020019081526020016000206002018190555060008460020160010181905550818197509750505050505050915091565b60006118c1611e40565b905060006118cd611e6d565b905060006118d9611e13565b90508060020160000160009054906101000a900460ff1661192f576040517f08c379a0000000000000000000000000000000000000000000000000000000008152600401611926906125a4565b60405180910390fd5b60018260000160003373ffffffffffffffffffffffffffffffffffffffff1673ffffffffffffffffffffffffffffffffffffffff1681526020019081526020016000205410156119b4576040517f08c379a00000000000000000000000000000000000000000000000000000000081526004016119ab906124bc565b60405180910390fd5b600083600301600086815260200190815260200160002060020154146119d957600080fd5b3373ffffffffffffffffffffffffffffffffffffffff1683600201600086815260200190815260200160002060009054906101000a900473ffffffffffffffffffffffffffffffffffffffff1673ffffffffffffffffffffffffffffffffffffffff1614611a4657600080fd5b60018260000160003373ffffffffffffffffffffffffffffffffffffffff1673ffffffffffffffffffffffffffffffffffffffff1681526020019081526020016000206000828254611a989190612524565b9250508190555060048360030160008681526020019081526020016000206002018190555060008160020160000160006101000a81548160ff021916908315150217905550838160020160010181905550338160020160030160006101000a81548173ffffffffffffffffffffffffffffffffffffffff021916908373ffffffffffffffffffffffffffffffffffffffff16021790555050505050565b6000806000611b42611e13565b90508060020160000160009054906101000a900460ff16816002016001015492509250509091565b6000611b74611e40565b90506000611b80611e6d565b90506000611b8c611e13565b905080600e0160000160009054906101000a900460ff16611be2576040517f08c379a0000000000000000000000000000000000000000000000000000000008152600401611bd9906125a4565b60405180910390fd5b60018260000160003373ffffffffffffffffffffffffffffffffffffffff1673ffffffffffffffffffffffffffffffffffffffff168152602001908152602001600020541015611c67576040517f08c379a0000000000000000000000000000000000000000000000000000000008152600401611c5e906124bc565b60405180910390fd5b60008360030160008681526020019081526020016000206002015414611c8c57600080fd5b3373ffffffffffffffffffffffffffffffffffffffff1683600201600086815260200190815260200160002060009054906101000a900473ffffffffffffffffffffffffffffffffffffffff1673ffffffffffffffffffffffffffffffffffffffff1614611cf957600080fd5b60018260000160003373ffffffffffffffffffffffffffffffffffffffff1673ffffffffffffffffffffffffffffffffffffffff1681526020019081526020016000206000828254611d4b9190612524565b92505081905550600483600301600086815260200190815260200160002060020181905550600081600e0160000160006101000a81548160ff0219169083151502179055508381600e01600101819055503381600e0160030160006101000a81548173ffffffffffffffffffffffffffffffffffffffff021916908373ffffffffffffffffffffffffffffffffffffffff16021790555050505050565b600080611df3611e13565b905080601b01600084815260200190815260200160002054915050919050565b6000807f1b1c2350f60dba32e7a2436167ce3f8399cd1c51a95c8577f1448f53846d4cda90508091505090565b6000807f3cab9a070a0c61cd0ae9d9e9e2c0781e5ca8691bec4087e5a4701d5ac018dd4e90508091505090565b6000807f2c89d74504b6ad8d4fbde22bc3474166bac5452a11195897f239d8bebe02d70790508091505090565b600080611ea5611e40565b90506000816003016000868152602001908152602001600020905060008260030160008681526020019081526020016000209050600082600501548360040154611eef91906123d0565b9050600082600501548360040154611f0791906123d0565b90506000611f158383611fde565b9050828103611f2c57889650505050505050611f36565b8796505050505050505b92915050565b600080611f47611e40565b90506000816003016000868152602001908152602001600020905060008260030160008681526020019081526020016000209050600082600301548360040154611f9191906123d0565b9050600082600301548360040154611fa991906123d0565b90506000611fb78383611fde565b9050828103611fce57889650505050505050611fd8565b8796505050505050505b92915050565b6000818311156120a15760018284611ff691906125f3565b0361201b5760046120068461215c565b1061201357829050612156565b819050612156565b6002828461202991906125f3565b0361204e5760036120398461215c565b1061204657829050612156565b819050612156565b6003828461205c91906125f3565b0361208157600261206c8461215c565b1061207957829050612156565b819050612156565b600161208c8461215c565b1061209957829050612156565b819050612156565b600183836120af91906125f3565b036120d45760046120bf8361215c565b106120cc57819050612156565b829050612156565b600283836120e291906125f3565b036121075760036120f28361215c565b106120ff57819050612156565b829050612156565b6003838361211591906125f3565b0361213a5760026121258361215c565b1061213257819050612156565b829050612156565b60016121458361215c565b1061215257819050612156565b8290505b92915050565b6000806121688361217f565b9050600a816121779190612624565b915050919050565b60008061218a611e13565b90508060010160008154809291906121a1906124dc565b919050555042448483600101546040516020016121c19493929190612676565b6040516020818303038152906040528051906020012060001c915050919050565b60008115159050919050565b6121f7816121e2565b82525050565b6000819050919050565b612210816121fd565b82525050565b600060408201905061222b60008301856121ee565b6122386020830184612207565b9392505050565b600080fd5b61224d816121fd565b811461225857600080fd5b50565b60008135905061226a81612244565b92915050565b6000602082840312156122865761228561223f565b5b60006122948482850161225b565b91505092915050565b60006020820190506122b26000830184612207565b92915050565b600082825260208201905092915050565b7f796f7520617265206e6f742074686520686f7374000000000000000000000000600082015250565b60006122ff6014836122b8565b915061230a826122c9565b602082019050919050565b6000602082019050818103600083015261232e816122f2565b9050919050565b7f796f7520617265206e6f7420696e20746865206172656e610000000000000000600082015250565b600061236b6018836122b8565b915061237682612335565b602082019050919050565b6000602082019050818103600083015261239a8161235e565b9050919050565b7f4e487b7100000000000000000000000000000000000000000000000000000000600052601160045260246000fd5b60006123db826121fd565b91506123e6836121fd565b92508282019050808211156123fe576123fd6123a1565b5b92915050565b7f6172656e6120697320656d707479000000000000000000000000000000000000600082015250565b600061243a600e836122b8565b915061244582612404565b602082019050919050565b600060208201905081810360008301526124698161242d565b9050919050565b7f6e6f7420656e6f75676820676f6c640000000000000000000000000000000000600082015250565b60006124a6600f836122b8565b91506124b182612470565b602082019050919050565b600060208201905081810360008301526124d581612499565b9050919050565b60006124e7826121fd565b91507fffffffffffffffffffffffffffffffffffffffffffffffffffffffffffffffff8203612519576125186123a1565b5b600182019050919050565b600061252f826121fd565b915061253a836121fd565b9250828203905081811115612552576125516123a1565b5b92915050565b7f6172656e6120697320636c6f7365640000000000000000000000000000000000600082015250565b600061258e600f836122b8565b915061259982612558565b602082019050919050565b600060208201905081810360008301526125bd81612581565b9050919050565b7f4e487b7100000000000000000000000000000000000000000000000000000000600052601260045260246000fd5b60006125fe826121fd565b9150612609836121fd565b925082612619576126186125c4565b5b828204905092915050565b600061262f826121fd565b915061263a836121fd565b92508261264a576126496125c4565b5b828206905092915050565b6000819050919050565b61267061266b826121fd565b612655565b82525050565b6000612682828761265f565b602082019150612692828661265f565b6020820191506126a2828561265f565b6020820191506126b2828461265f565b6020820191508190509594505050505056fea2646970667358221220163a6c15f4fef2cdec943722d4ba8651209f4db9e6b792fa1d7d5bdfd9bc978564736f6c63430008110033",
  "linkReferences": {},
  "deployedLinkReferences": {}
}