{
  "_format": "hh-sol-artifact-1",
  "contractName": "ArenaFacet",
  "sourceName": "contracts/facets/ArenaFacet.sol",
  "abi": [
    {
      "inputs": [],
      "stateMutability": "nonpayable",
      "type": "constructor"
    },
    {
      "anonymous": false,
      "inputs": [
        {
          "indexed": true,
          "internalType": "address",
          "name": "_owner",
          "type": "address"
        },
        {
          "indexed": false,
          "internalType": "uint256",
          "name": "_player",
          "type": "uint256"
        }
      ],
      "name": "ItemCrafted",
      "type": "event"
    },
    {
      "inputs": [
        {
          "internalType": "uint256",
          "name": "_playerId",
          "type": "uint256"
        }
      ],
      "name": "enterMainArena",
      "outputs": [],
      "stateMutability": "nonpayable",
      "type": "function"
    },
    {
      "inputs": [],
      "name": "getMagicArena",
      "outputs": [
        {
          "internalType": "bool",
          "name": "",
          "type": "bool"
        }
      ],
      "stateMutability": "view",
      "type": "function"
    },
    {
      "inputs": [],
      "name": "getMainArena",
      "outputs": [
        {
          "internalType": "bool",
          "name": "",
          "type": "bool"
        }
      ],
      "stateMutability": "view",
      "type": "function"
    },
    {
      "inputs": [],
      "name": "getSecondArena",
      "outputs": [
        {
          "internalType": "bool",
          "name": "",
          "type": "bool"
        }
      ],
      "stateMutability": "view",
      "type": "function"
    },
    {
      "inputs": [],
      "name": "getThirdArena",
      "outputs": [
        {
          "internalType": "bool",
          "name": "",
          "type": "bool"
        }
      ],
      "stateMutability": "view",
      "type": "function"
    }
  ],
  "bytecode": "0x608060405234801561001057600080fd5b5061002361002860201b6101381760201c565b6100ea565b60006100386100bd60201b60201c565b905060018160000160000160006101000a81548160ff02191690831515021790555060018160040160000160006101000a81548160ff02191690831515021790555060018160080160000160006101000a81548160ff021916908315150217905550600181600c0160000160006101000a81548160ff02191690831515021790555050565b6000807f1b1c2350f60dba32e7a2436167ce3f8399cd1c51a95c8577f1448f53846d4cda90508091505090565b610714806100f96000396000f3fe608060405234801561001057600080fd5b50600436106100575760003560e01c8063042953231461005c578063935abcf61461007a578063e774c70d14610098578063eb88ff8d146100b4578063f66ae435146100d2575b600080fd5b6100646100f0565b604051610071919061050f565b60405180910390f35b6100826100ff565b60405161008f919061050f565b60405180910390f35b6100b260048036038101906100ad9190610565565b61010e565b005b6100bc61011a565b6040516100c9919061050f565b60405180910390f35b6100da610129565b6040516100e7919061050f565b60405180910390f35b60006100fa6101c7565b905090565b60006101096101c7565b905090565b610117816101ef565b50565b60006101246101c7565b905090565b60006101336101c7565b905090565b600061014261046d565b905060018160000160000160006101000a81548160ff02191690831515021790555060018160040160000160006101000a81548160ff02191690831515021790555060018160080160000160006101000a81548160ff021916908315150217905550600181600c0160000160006101000a81548160ff02191690831515021790555050565b6000806101d261046d565b90508060000160000160009054906101000a900460ff1691505090565b60006101f961049a565b905060006102056104c7565b9050600061021161046d565b90508060000160000160009054906101000a900460ff16610267576040517f08c379a000000000000000000000000000000000000000000000000000000000815260040161025e906105ef565b60405180910390fd5b60018260000160003373ffffffffffffffffffffffffffffffffffffffff1673ffffffffffffffffffffffffffffffffffffffff1681526020019081526020016000205410156102ec576040517f08c379a00000000000000000000000000000000000000000000000000000000081526004016102e39061065b565b60405180910390fd5b6000836003016000868152602001908152602001600020600201541461031157600080fd5b3373ffffffffffffffffffffffffffffffffffffffff1683600201600086815260200190815260200160002060009054906101000a900473ffffffffffffffffffffffffffffffffffffffff1673ffffffffffffffffffffffffffffffffffffffff161461037e57600080fd5b60018260000160003373ffffffffffffffffffffffffffffffffffffffff1673ffffffffffffffffffffffffffffffffffffffff16815260200190815260200160002060008282546103d091906106aa565b9250508190555060048360030160008681526020019081526020016000206002018190555060008160000160000160006101000a81548160ff021916908315150217905550838160000160010181905550338160000160030160006101000a81548173ffffffffffffffffffffffffffffffffffffffff021916908373ffffffffffffffffffffffffffffffffffffffff16021790555050505050565b6000807f1b1c2350f60dba32e7a2436167ce3f8399cd1c51a95c8577f1448f53846d4cda90508091505090565b6000807f3cab9a070a0c61cd0ae9d9e9e2c0781e5ca8691bec4087e5a4701d5ac018dd4e90508091505090565b6000807f2c89d74504b6ad8d4fbde22bc3474166bac5452a11195897f239d8bebe02d70790508091505090565b60008115159050919050565b610509816104f4565b82525050565b60006020820190506105246000830184610500565b92915050565b600080fd5b6000819050919050565b6105428161052f565b811461054d57600080fd5b50565b60008135905061055f81610539565b92915050565b60006020828403121561057b5761057a61052a565b5b600061058984828501610550565b91505092915050565b600082825260208201905092915050565b7f6172656e6120697320636c6f7365640000000000000000000000000000000000600082015250565b60006105d9600f83610592565b91506105e4826105a3565b602082019050919050565b60006020820190508181036000830152610608816105cc565b9050919050565b7f6e6f7420656e6f75676820676f6c640000000000000000000000000000000000600082015250565b6000610645600f83610592565b91506106508261060f565b602082019050919050565b6000602082019050818103600083015261067481610638565b9050919050565b7f4e487b7100000000000000000000000000000000000000000000000000000000600052601160045260246000fd5b60006106b58261052f565b91506106c08361052f565b92508282039050818111156106d8576106d761067b565b5b9291505056fea264697066735822122031b1f08afd6f4548d59e5e7055cee3d6e0aea5f58aabf1390a751cefd0a7b05764736f6c63430008110033",
  "linkReferences": {},
  "deployedLinkReferences": {}
}