{
  "_format": "hh-sol-artifact-1",
  "contractName": "CraftFacet",
  "sourceName": "contracts/facets/CraftFacet.sol",
  "abi": [
    {
      "anonymous": false,
      "inputs": [
        {
          "indexed": true,
          "internalType": "address",
          "name": "_owner",
          "type": "address"
        },
        {
          "indexed": false,
          "internalType": "uint256",
          "name": "_player",
          "type": "uint256"
        }
      ],
      "name": "ItemCrafted",
      "type": "event"
    },
    {
      "inputs": [
        {
          "internalType": "uint256",
          "name": "_tokenId",
          "type": "uint256"
        }
      ],
      "name": "craftArmor",
      "outputs": [],
      "stateMutability": "nonpayable",
      "type": "function"
    },
    {
      "inputs": [
        {
          "internalType": "uint256",
          "name": "_tokenId",
          "type": "uint256"
        }
      ],
      "name": "craftSword",
      "outputs": [],
      "stateMutability": "nonpayable",
      "type": "function"
    },
    {
      "inputs": [
        {
          "internalType": "uint256",
          "name": "_itemId",
          "type": "uint256"
        }
      ],
      "name": "getItem",
      "outputs": [
        {
          "components": [
            {
              "internalType": "uint256",
              "name": "slot",
              "type": "uint256"
            },
            {
              "internalType": "uint256",
              "name": "rank",
              "type": "uint256"
            },
            {
              "internalType": "uint256",
              "name": "value",
              "type": "uint256"
            },
            {
              "internalType": "uint256",
              "name": "stat",
              "type": "uint256"
            },
            {
              "internalType": "string",
              "name": "name",
              "type": "string"
            },
            {
              "internalType": "address",
              "name": "owner",
              "type": "address"
            },
            {
              "internalType": "bool",
              "name": "isEquiped",
              "type": "bool"
            }
          ],
          "internalType": "struct Item",
          "name": "item",
          "type": "tuple"
        }
      ],
      "stateMutability": "view",
      "type": "function"
    },
    {
      "inputs": [
        {
          "internalType": "address",
          "name": "_address",
          "type": "address"
        }
      ],
      "name": "getItems",
      "outputs": [
        {
          "internalType": "uint256[]",
          "name": "items",
          "type": "uint256[]"
        }
      ],
      "stateMutability": "view",
      "type": "function"
    },
    {
      "inputs": [],
      "name": "mintCoins",
      "outputs": [],
      "stateMutability": "nonpayable",
      "type": "function"
    }
  ],
  "bytecode": "0x608060405234801561001057600080fd5b506114e9806100206000396000f3fe608060405234801561001057600080fd5b50600436106100575760003560e01c80633129e7731461005c5780634d7366551461008c578063798907c1146100bc578063c458405e146100c6578063c6f5bb15146100e2575b600080fd5b61007660048036038101906100719190610d8d565b6100fe565b6040516100839190610f51565b60405180910390f35b6100a660048036038101906100a19190610f9f565b610116565b6040516100b3919061107b565b60405180910390f35b6100c4610128565b005b6100e060048036038101906100db9190610d8d565b610132565b005b6100fc60048036038101906100f79190610d8d565b61018c565b005b610106610cfd565b61010f826101e6565b9050919050565b60606101218261034d565b9050919050565b6101306103f3565b565b61013b81610566565b3373ffffffffffffffffffffffffffffffffffffffff167fc23786d6f50f67fc05910a7c0e08cf6ad642ec7b6ec9f701ab0b1d9c479474e78260405161018191906110ac565b60405180910390a250565b610195816108ee565b3373ffffffffffffffffffffffffffffffffffffffff167fc23786d6f50f67fc05910a7c0e08cf6ad642ec7b6ec9f701ab0b1d9c479474e7826040516101db91906110ac565b60405180910390a250565b6101ee610cfd565b60006101f8610c76565b90508060020160008481526020019081526020016000206040518060e001604052908160008201548152602001600182015481526020016002820154815260200160038201548152602001600482018054610252906110f6565b80601f016020809104026020016040519081016040528092919081815260200182805461027e906110f6565b80156102cb5780601f106102a0576101008083540402835291602001916102cb565b820191906000526020600020905b8154815290600101906020018083116102ae57829003601f168201915b505050505081526020016005820160009054906101000a900473ffffffffffffffffffffffffffffffffffffffff1673ffffffffffffffffffffffffffffffffffffffff1673ffffffffffffffffffffffffffffffffffffffff1681526020016005820160149054906101000a900460ff161515151581525050915050919050565b60606000610359610c76565b90508060030160008473ffffffffffffffffffffffffffffffffffffffff1673ffffffffffffffffffffffffffffffffffffffff1681526020019081526020016000208054806020026020016040519081016040528092919081815260200182805480156103e657602002820191906000526020600020905b8154815260200190600101908083116103d2575b5050505050915050919050565b60006103fd610ca3565b9050600a8160000160003373ffffffffffffffffffffffffffffffffffffffff1673ffffffffffffffffffffffffffffffffffffffff16815260200190815260200160002060008282546104519190611156565b92505081905550600a8160010160003373ffffffffffffffffffffffffffffffffffffffff1673ffffffffffffffffffffffffffffffffffffffff16815260200190815260200160002060008282546104aa9190611156565b92505081905550600a8160030160003373ffffffffffffffffffffffffffffffffffffffff1673ffffffffffffffffffffffffffffffffffffffff16815260200190815260200160002060008282546105039190611156565b92505081905550600a8160020160003373ffffffffffffffffffffffffffffffffffffffff1673ffffffffffffffffffffffffffffffffffffffff168152602001908152602001600020600082825461055c9190611156565b9250508190555050565b6000610570610cd0565b9050600061057c610c76565b90506000610588610ca3565b9050600083600301600086815260200190815260200160002060020154146105af57600080fd5b3373ffffffffffffffffffffffffffffffffffffffff1683600201600086815260200190815260200160002060009054906101000a900473ffffffffffffffffffffffffffffffffffffffff1673ffffffffffffffffffffffffffffffffffffffff161461061c57600080fd5b60058160000160003373ffffffffffffffffffffffffffffffffffffffff1673ffffffffffffffffffffffffffffffffffffffff16815260200190815260200160002054101561066b57600080fd5b60058160000160003373ffffffffffffffffffffffffffffffffffffffff1673ffffffffffffffffffffffffffffffffffffffff16815260200190815260200160002060008282546106bd919061118a565b925050819055508160000160008154809291906106d9906111be565b9190505550338260010160008460000154815260200190815260200160002060006101000a81548173ffffffffffffffffffffffffffffffffffffffff021916908373ffffffffffffffffffffffffffffffffffffffff1602179055506040518060e00160405280600281526020016001815260200160018152602001600081526020016040518060400160405280600581526020017f53776f726400000000000000000000000000000000000000000000000000000081525081526020013373ffffffffffffffffffffffffffffffffffffffff168152602001600015158152508260020160008460000154815260200190815260200160002060008201518160000155602082015181600101556040820151816002015560608201518160030155608082015181600401908161081191906113e1565b5060a08201518160050160006101000a81548173ffffffffffffffffffffffffffffffffffffffff021916908373ffffffffffffffffffffffffffffffffffffffff16021790555060c08201518160050160146101000a81548160ff0219169083151502179055509050508160030160003373ffffffffffffffffffffffffffffffffffffffff1673ffffffffffffffffffffffffffffffffffffffff1681526020019081526020016000208260000154908060018154018082558091505060019003906000526020600020016000909190919091505550505050565b60006108f8610cd0565b90506000610904610c76565b90506000610910610ca3565b90506000836003016000868152602001908152602001600020600201541461093757600080fd5b3373ffffffffffffffffffffffffffffffffffffffff1683600201600086815260200190815260200160002060009054906101000a900473ffffffffffffffffffffffffffffffffffffffff1673ffffffffffffffffffffffffffffffffffffffff16146109a457600080fd5b60038160000160003373ffffffffffffffffffffffffffffffffffffffff1673ffffffffffffffffffffffffffffffffffffffff1681526020019081526020016000205410156109f357600080fd5b60038160000160003373ffffffffffffffffffffffffffffffffffffffff1673ffffffffffffffffffffffffffffffffffffffff1681526020019081526020016000206000828254610a45919061118a565b92505081905550816000016000815480929190610a61906111be565b9190505550338260010160008460000154815260200190815260200160002060006101000a81548173ffffffffffffffffffffffffffffffffffffffff021916908373ffffffffffffffffffffffffffffffffffffffff1602179055506040518060e00160405280600181526020016001815260200160018152602001600181526020016040518060400160405280600581526020017f41726d6f7200000000000000000000000000000000000000000000000000000081525081526020013373ffffffffffffffffffffffffffffffffffffffff1681526020016000151581525082600201600084600001548152602001908152602001600020600082015181600001556020820151816001015560408201518160020155606082015181600301556080820151816004019081610b9991906113e1565b5060a08201518160050160006101000a81548173ffffffffffffffffffffffffffffffffffffffff021916908373ffffffffffffffffffffffffffffffffffffffff16021790555060c08201518160050160146101000a81548160ff0219169083151502179055509050508160030160003373ffffffffffffffffffffffffffffffffffffffff1673ffffffffffffffffffffffffffffffffffffffff1681526020019081526020016000208260000154908060018154018082558091505060019003906000526020600020016000909190919091505550505050565b6000807f04526f5583fe9d24ceb7f2a6da4ee61654b9eae62f9918e0e123f84a139b105890508091505090565b6000807f2c89d74504b6ad8d4fbde22bc3474166bac5452a11195897f239d8bebe02d70790508091505090565b6000807f3cab9a070a0c61cd0ae9d9e9e2c0781e5ca8691bec4087e5a4701d5ac018dd4e90508091505090565b6040518060e001604052806000815260200160008152602001600081526020016000815260200160608152602001600073ffffffffffffffffffffffffffffffffffffffff1681526020016000151581525090565b600080fd5b6000819050919050565b610d6a81610d57565b8114610d7557600080fd5b50565b600081359050610d8781610d61565b92915050565b600060208284031215610da357610da2610d52565b5b6000610db184828501610d78565b91505092915050565b610dc381610d57565b82525050565b600081519050919050565b600082825260208201905092915050565b60005b83811015610e03578082015181840152602081019050610de8565b60008484015250505050565b6000601f19601f8301169050919050565b6000610e2b82610dc9565b610e358185610dd4565b9350610e45818560208601610de5565b610e4e81610e0f565b840191505092915050565b600073ffffffffffffffffffffffffffffffffffffffff82169050919050565b6000610e8482610e59565b9050919050565b610e9481610e79565b82525050565b60008115159050919050565b610eaf81610e9a565b82525050565b600060e083016000830151610ecd6000860182610dba565b506020830151610ee06020860182610dba565b506040830151610ef36040860182610dba565b506060830151610f066060860182610dba565b5060808301518482036080860152610f1e8282610e20565b91505060a0830151610f3360a0860182610e8b565b5060c0830151610f4660c0860182610ea6565b508091505092915050565b60006020820190508181036000830152610f6b8184610eb5565b905092915050565b610f7c81610e79565b8114610f8757600080fd5b50565b600081359050610f9981610f73565b92915050565b600060208284031215610fb557610fb4610d52565b5b6000610fc384828501610f8a565b91505092915050565b600081519050919050565b600082825260208201905092915050565b6000819050602082019050919050565b60006110048383610dba565b60208301905092915050565b6000602082019050919050565b600061102882610fcc565b6110328185610fd7565b935061103d83610fe8565b8060005b8381101561106e5781516110558882610ff8565b975061106083611010565b925050600181019050611041565b5085935050505092915050565b60006020820190508181036000830152611095818461101d565b905092915050565b6110a681610d57565b82525050565b60006020820190506110c1600083018461109d565b92915050565b7f4e487b7100000000000000000000000000000000000000000000000000000000600052602260045260246000fd5b6000600282049050600182168061110e57607f821691505b602082108103611121576111206110c7565b5b50919050565b7f4e487b7100000000000000000000000000000000000000000000000000000000600052601160045260246000fd5b600061116182610d57565b915061116c83610d57565b925082820190508082111561118457611183611127565b5b92915050565b600061119582610d57565b91506111a083610d57565b92508282039050818111156111b8576111b7611127565b5b92915050565b60006111c982610d57565b91507fffffffffffffffffffffffffffffffffffffffffffffffffffffffffffffffff82036111fb576111fa611127565b5b600182019050919050565b7f4e487b7100000000000000000000000000000000000000000000000000000000600052604160045260246000fd5b60008190508160005260206000209050919050565b60006020601f8301049050919050565b600082821b905092915050565b6000600883026112977fffffffffffffffffffffffffffffffffffffffffffffffffffffffffffffffff8261125a565b6112a1868361125a565b95508019841693508086168417925050509392505050565b6000819050919050565b60006112de6112d96112d484610d57565b6112b9565b610d57565b9050919050565b6000819050919050565b6112f8836112c3565b61130c611304826112e5565b848454611267565b825550505050565b600090565b611321611314565b61132c8184846112ef565b505050565b5b8181101561135057611345600082611319565b600181019050611332565b5050565b601f8211156113955761136681611235565b61136f8461124a565b8101602085101561137e578190505b61139261138a8561124a565b830182611331565b50505b505050565b600082821c905092915050565b60006113b86000198460080261139a565b1980831691505092915050565b60006113d183836113a7565b9150826002028217905092915050565b6113ea82610dc9565b67ffffffffffffffff81111561140357611402611206565b5b61140d82546110f6565b611418828285611354565b600060209050601f83116001811461144b5760008415611439578287015190505b61144385826113c5565b8655506114ab565b601f19841661145986611235565b60005b828110156114815784890151825560018201915060208501945060208101905061145c565b8683101561149e578489015161149a601f8916826113a7565b8355505b6001600288020188555050505b50505050505056fea2646970667358221220099fc1f43422eaae635caa1eddfd4695e485f9edfe678a8573b8e868c8817aa064736f6c63430008110033",
  "linkReferences": {},
  "deployedLinkReferences": {}
}