{
  "_format": "hh-sol-artifact-1",
  "contractName": "CraftFacet",
  "sourceName": "contracts/facets/CraftFacet.sol",
  "abi": [
    {
      "anonymous": false,
      "inputs": [
        {
          "indexed": true,
          "internalType": "address",
          "name": "_owner",
          "type": "address"
        },
        {
          "indexed": false,
          "internalType": "uint256",
          "name": "_player",
          "type": "uint256"
        }
      ],
      "name": "ItemCrafted",
      "type": "event"
    },
    {
      "inputs": [
        {
          "internalType": "uint256",
          "name": "_tokenId",
          "type": "uint256"
        }
      ],
      "name": "craftArmor",
      "outputs": [],
      "stateMutability": "nonpayable",
      "type": "function"
    },
    {
      "inputs": [
        {
          "internalType": "uint256",
          "name": "_tokenId",
          "type": "uint256"
        }
      ],
      "name": "craftGuitar",
      "outputs": [],
      "stateMutability": "nonpayable",
      "type": "function"
    },
    {
      "inputs": [
        {
          "internalType": "uint256",
          "name": "_tokenId",
          "type": "uint256"
        }
      ],
      "name": "craftHelmet",
      "outputs": [],
      "stateMutability": "nonpayable",
      "type": "function"
    },
    {
      "inputs": [
        {
          "internalType": "uint256",
          "name": "_tokenId",
          "type": "uint256"
        }
      ],
      "name": "craftSorcerShoes",
      "outputs": [],
      "stateMutability": "nonpayable",
      "type": "function"
    },
    {
      "inputs": [
        {
          "internalType": "uint256",
          "name": "_tokenId",
          "type": "uint256"
        }
      ],
      "name": "craftSword",
      "outputs": [],
      "stateMutability": "nonpayable",
      "type": "function"
    },
    {
      "inputs": [
        {
          "internalType": "uint256",
          "name": "_tokenId",
          "type": "uint256"
        }
      ],
      "name": "craftWizardHat",
      "outputs": [],
      "stateMutability": "nonpayable",
      "type": "function"
    },
    {
      "inputs": [
        {
          "internalType": "uint256",
          "name": "_itemId",
          "type": "uint256"
        }
      ],
      "name": "getItem",
      "outputs": [
        {
          "components": [
            {
              "internalType": "uint256",
              "name": "slot",
              "type": "uint256"
            },
            {
              "internalType": "uint256",
              "name": "rank",
              "type": "uint256"
            },
            {
              "internalType": "uint256",
              "name": "value",
              "type": "uint256"
            },
            {
              "internalType": "uint256",
              "name": "stat",
              "type": "uint256"
            },
            {
              "internalType": "string",
              "name": "name",
              "type": "string"
            },
            {
              "internalType": "address",
              "name": "owner",
              "type": "address"
            },
            {
              "internalType": "bool",
              "name": "isEquiped",
              "type": "bool"
            }
          ],
          "internalType": "struct Item",
          "name": "item",
          "type": "tuple"
        }
      ],
      "stateMutability": "view",
      "type": "function"
    },
    {
      "inputs": [],
      "name": "getItemCount",
      "outputs": [
        {
          "internalType": "uint256",
          "name": "count",
          "type": "uint256"
        }
      ],
      "stateMutability": "view",
      "type": "function"
    },
    {
      "inputs": [
        {
          "internalType": "address",
          "name": "_address",
          "type": "address"
        }
      ],
      "name": "getItems",
      "outputs": [
        {
          "internalType": "uint256[]",
          "name": "items",
          "type": "uint256[]"
        }
      ],
      "stateMutability": "view",
      "type": "function"
    }
  ],
  "bytecode": "0x608060405234801561001057600080fd5b506124fb806100206000396000f3fe608060405234801561001057600080fd5b50600436106100935760003560e01c80634fd75d78116100665780634fd75d78146101305780637749cf231461014c578063a75647e71461016a578063c458405e14610186578063c6f5bb15146101a257610093565b806309178301146100985780632b11b8e7146100b45780633129e773146100d05780634d73665514610100575b600080fd5b6100b260048036038101906100ad9190611dd3565b6101be565b005b6100ce60048036038101906100c99190611dd3565b610218565b005b6100ea60048036038101906100e59190611dd3565b610272565b6040516100f79190611f97565b60405180910390f35b61011a60048036038101906101159190611fe5565b61028a565b60405161012791906120c1565b60405180910390f35b61014a60048036038101906101459190611dd3565b61029c565b005b6101546102f6565b60405161016191906120f2565b60405180910390f35b610184600480360381019061017f9190611dd3565b610305565b005b6101a0600480360381019061019b9190611dd3565b61035f565b005b6101bc60048036038101906101b79190611dd3565b6103b9565b005b6101c781610413565b3373ffffffffffffffffffffffffffffffffffffffff167fc23786d6f50f67fc05910a7c0e08cf6ad642ec7b6ec9f701ab0b1d9c479474e78260405161020d91906120f2565b60405180910390a250565b6102218161079b565b3373ffffffffffffffffffffffffffffffffffffffff167fc23786d6f50f67fc05910a7c0e08cf6ad642ec7b6ec9f701ab0b1d9c479474e78260405161026791906120f2565b60405180910390a250565b61027a611d43565b61028382610b79565b9050919050565b606061029582610ce0565b9050919050565b6102a581610d86565b3373ffffffffffffffffffffffffffffffffffffffff167fc23786d6f50f67fc05910a7c0e08cf6ad642ec7b6ec9f701ab0b1d9c479474e7826040516102eb91906120f2565b60405180910390a250565b600061030061120c565b905090565b61030e81611224565b3373ffffffffffffffffffffffffffffffffffffffff167fc23786d6f50f67fc05910a7c0e08cf6ad642ec7b6ec9f701ab0b1d9c479474e78260405161035491906120f2565b60405180910390a250565b610368816115ac565b3373ffffffffffffffffffffffffffffffffffffffff167fc23786d6f50f67fc05910a7c0e08cf6ad642ec7b6ec9f701ab0b1d9c479474e7826040516103ae91906120f2565b60405180910390a250565b6103c281611934565b3373ffffffffffffffffffffffffffffffffffffffff167fc23786d6f50f67fc05910a7c0e08cf6ad642ec7b6ec9f701ab0b1d9c479474e78260405161040891906120f2565b60405180910390a250565b600061041d611cbc565b90506000610429611ce9565b90506000610435611d16565b90506000836003016000868152602001908152602001600020600201541461045c57600080fd5b3373ffffffffffffffffffffffffffffffffffffffff1683600201600086815260200190815260200160002060009054906101000a900473ffffffffffffffffffffffffffffffffffffffff1673ffffffffffffffffffffffffffffffffffffffff16146104c957600080fd5b600a8160000160003373ffffffffffffffffffffffffffffffffffffffff1673ffffffffffffffffffffffffffffffffffffffff16815260200190815260200160002054101561051857600080fd5b600a8160000160003373ffffffffffffffffffffffffffffffffffffffff1673ffffffffffffffffffffffffffffffffffffffff168152602001908152602001600020600082825461056a919061213c565b9250508190555081600001600081548092919061058690612170565b9190505550338260010160008460000154815260200190815260200160002060006101000a81548173ffffffffffffffffffffffffffffffffffffffff021916908373ffffffffffffffffffffffffffffffffffffffff1602179055506040518060e00160405280600281526020016001815260200160028152602001600381526020016040518060400160405280600681526020017f477569746172000000000000000000000000000000000000000000000000000081525081526020013373ffffffffffffffffffffffffffffffffffffffff16815260200160001515815250826002016000846000015481526020019081526020016000206000820151816000015560208201518160010155604082015181600201556060820151816003015560808201518160040190816106be91906123f3565b5060a08201518160050160006101000a81548173ffffffffffffffffffffffffffffffffffffffff021916908373ffffffffffffffffffffffffffffffffffffffff16021790555060c08201518160050160146101000a81548160ff0219169083151502179055509050508160030160003373ffffffffffffffffffffffffffffffffffffffff1673ffffffffffffffffffffffffffffffffffffffff1681526020019081526020016000208260000154908060018154018082558091505060019003906000526020600020016000909190919091505550505050565b60006107a5611cbc565b905060006107b1611ce9565b905060006107bd611d16565b9050600083600301600086815260200190815260200160002060020154146107e457600080fd5b3373ffffffffffffffffffffffffffffffffffffffff1683600201600086815260200190815260200160002060009054906101000a900473ffffffffffffffffffffffffffffffffffffffff1673ffffffffffffffffffffffffffffffffffffffff161461085157600080fd5b600a8160010160003373ffffffffffffffffffffffffffffffffffffffff1673ffffffffffffffffffffffffffffffffffffffff1681526020019081526020016000205410156108a057600080fd5b600a8360030160008681526020019081526020016000206006015410156108c657600080fd5b600a8160010160003373ffffffffffffffffffffffffffffffffffffffff1673ffffffffffffffffffffffffffffffffffffffff1681526020019081526020016000206000828254610918919061213c565b92505081905550600a8360030160008681526020019081526020016000206006016000828254610948919061213c565b9250508190555081600001600081548092919061096490612170565b9190505550338260010160008460000154815260200190815260200160002060006101000a81548173ffffffffffffffffffffffffffffffffffffffff021916908373ffffffffffffffffffffffffffffffffffffffff1602179055506040518060e00160405280600081526020016001815260200160058152602001600381526020016040518060400160405280600681526020017f57697a486174000000000000000000000000000000000000000000000000000081525081526020013373ffffffffffffffffffffffffffffffffffffffff1681526020016000151581525082600201600084600001548152602001908152602001600020600082015181600001556020820151816001015560408201518160020155606082015181600301556080820151816004019081610a9c91906123f3565b5060a08201518160050160006101000a81548173ffffffffffffffffffffffffffffffffffffffff021916908373ffffffffffffffffffffffffffffffffffffffff16021790555060c08201518160050160146101000a81548160ff0219169083151502179055509050508160030160003373ffffffffffffffffffffffffffffffffffffffff1673ffffffffffffffffffffffffffffffffffffffff1681526020019081526020016000208260000154908060018154018082558091505060019003906000526020600020016000909190919091505550505050565b610b81611d43565b6000610b8b611ce9565b90508060020160008481526020019081526020016000206040518060e001604052908160008201548152602001600182015481526020016002820154815260200160038201548152602001600482018054610be590612216565b80601f0160208091040260200160405190810160405280929190818152602001828054610c1190612216565b8015610c5e5780601f10610c3357610100808354040283529160200191610c5e565b820191906000526020600020905b815481529060010190602001808311610c4157829003601f168201915b505050505081526020016005820160009054906101000a900473ffffffffffffffffffffffffffffffffffffffff1673ffffffffffffffffffffffffffffffffffffffff1673ffffffffffffffffffffffffffffffffffffffff1681526020016005820160149054906101000a900460ff161515151581525050915050919050565b60606000610cec611ce9565b90508060030160008473ffffffffffffffffffffffffffffffffffffffff1673ffffffffffffffffffffffffffffffffffffffff168152602001908152602001600020805480602002602001604051908101604052809291908181526020018280548015610d7957602002820191906000526020600020905b815481526020019060010190808311610d65575b5050505050915050919050565b6000610d90611cbc565b90506000610d9c611ce9565b90506000610da8611d16565b905060008360030160008681526020019081526020016000206002015414610dcf57600080fd5b3373ffffffffffffffffffffffffffffffffffffffff1683600201600086815260200190815260200160002060009054906101000a900473ffffffffffffffffffffffffffffffffffffffff1673ffffffffffffffffffffffffffffffffffffffff1614610e3c57600080fd5b6001836003016000868152602001908152602001600020600601541015610e6257600080fd5b60038160000160003373ffffffffffffffffffffffffffffffffffffffff1673ffffffffffffffffffffffffffffffffffffffff168152602001908152602001600020541015610eb157600080fd5b60018160010160003373ffffffffffffffffffffffffffffffffffffffff1673ffffffffffffffffffffffffffffffffffffffff168152602001908152602001600020541015610f0057600080fd5b60038160000160003373ffffffffffffffffffffffffffffffffffffffff1673ffffffffffffffffffffffffffffffffffffffff1681526020019081526020016000206000828254610f52919061213c565b9250508190555060018160010160003373ffffffffffffffffffffffffffffffffffffffff1673ffffffffffffffffffffffffffffffffffffffff1681526020019081526020016000206000828254610fab919061213c565b9250508190555060018360030160008681526020019081526020016000206006016000828254610fdb919061213c565b92505081905550816000016000815480929190610ff790612170565b9190505550338260010160008460000154815260200190815260200160002060006101000a81548173ffffffffffffffffffffffffffffffffffffffff021916908373ffffffffffffffffffffffffffffffffffffffff1602179055506040518060e00160405280600581526020016001815260200160028152602001600381526020016040518060400160405280600981526020017f536f726353686f6573000000000000000000000000000000000000000000000081525081526020013373ffffffffffffffffffffffffffffffffffffffff168152602001600015158152508260020160008460000154815260200190815260200160002060008201518160000155602082015181600101556040820151816002015560608201518160030155608082015181600401908161112f91906123f3565b5060a08201518160050160006101000a81548173ffffffffffffffffffffffffffffffffffffffff021916908373ffffffffffffffffffffffffffffffffffffffff16021790555060c08201518160050160146101000a81548160ff0219169083151502179055509050508160030160003373ffffffffffffffffffffffffffffffffffffffff1673ffffffffffffffffffffffffffffffffffffffff1681526020019081526020016000208260000154908060018154018082558091505060019003906000526020600020016000909190919091505550505050565b600080611217611ce9565b9050806000015491505090565b600061122e611cbc565b9050600061123a611ce9565b90506000611246611d16565b90506000836003016000868152602001908152602001600020600201541461126d57600080fd5b3373ffffffffffffffffffffffffffffffffffffffff1683600201600086815260200190815260200160002060009054906101000a900473ffffffffffffffffffffffffffffffffffffffff1673ffffffffffffffffffffffffffffffffffffffff16146112da57600080fd5b60048160000160003373ffffffffffffffffffffffffffffffffffffffff1673ffffffffffffffffffffffffffffffffffffffff16815260200190815260200160002054101561132957600080fd5b60048160000160003373ffffffffffffffffffffffffffffffffffffffff1673ffffffffffffffffffffffffffffffffffffffff168152602001908152602001600020600082825461137b919061213c565b9250508190555081600001600081548092919061139790612170565b9190505550338260010160008460000154815260200190815260200160002060006101000a81548173ffffffffffffffffffffffffffffffffffffffff021916908373ffffffffffffffffffffffffffffffffffffffff1602179055506040518060e00160405280600081526020016001815260200160048152602001600181526020016040518060400160405280600681526020017f48656c6d6574000000000000000000000000000000000000000000000000000081525081526020013373ffffffffffffffffffffffffffffffffffffffff16815260200160001515815250826002016000846000015481526020019081526020016000206000820151816000015560208201518160010155604082015181600201556060820151816003015560808201518160040190816114cf91906123f3565b5060a08201518160050160006101000a81548173ffffffffffffffffffffffffffffffffffffffff021916908373ffffffffffffffffffffffffffffffffffffffff16021790555060c08201518160050160146101000a81548160ff0219169083151502179055509050508160030160003373ffffffffffffffffffffffffffffffffffffffff1673ffffffffffffffffffffffffffffffffffffffff1681526020019081526020016000208260000154908060018154018082558091505060019003906000526020600020016000909190919091505550505050565b60006115b6611cbc565b905060006115c2611ce9565b905060006115ce611d16565b9050600083600301600086815260200190815260200160002060020154146115f557600080fd5b3373ffffffffffffffffffffffffffffffffffffffff1683600201600086815260200190815260200160002060009054906101000a900473ffffffffffffffffffffffffffffffffffffffff1673ffffffffffffffffffffffffffffffffffffffff161461166257600080fd5b60058160000160003373ffffffffffffffffffffffffffffffffffffffff1673ffffffffffffffffffffffffffffffffffffffff1681526020019081526020016000205410156116b157600080fd5b60058160000160003373ffffffffffffffffffffffffffffffffffffffff1673ffffffffffffffffffffffffffffffffffffffff1681526020019081526020016000206000828254611703919061213c565b9250508190555081600001600081548092919061171f90612170565b9190505550338260010160008460000154815260200190815260200160002060006101000a81548173ffffffffffffffffffffffffffffffffffffffff021916908373ffffffffffffffffffffffffffffffffffffffff1602179055506040518060e00160405280600281526020016001815260200160018152602001600081526020016040518060400160405280600581526020017f53776f726400000000000000000000000000000000000000000000000000000081525081526020013373ffffffffffffffffffffffffffffffffffffffff168152602001600015158152508260020160008460000154815260200190815260200160002060008201518160000155602082015181600101556040820151816002015560608201518160030155608082015181600401908161185791906123f3565b5060a08201518160050160006101000a81548173ffffffffffffffffffffffffffffffffffffffff021916908373ffffffffffffffffffffffffffffffffffffffff16021790555060c08201518160050160146101000a81548160ff0219169083151502179055509050508160030160003373ffffffffffffffffffffffffffffffffffffffff1673ffffffffffffffffffffffffffffffffffffffff1681526020019081526020016000208260000154908060018154018082558091505060019003906000526020600020016000909190919091505550505050565b600061193e611cbc565b9050600061194a611ce9565b90506000611956611d16565b90506000836003016000868152602001908152602001600020600201541461197d57600080fd5b3373ffffffffffffffffffffffffffffffffffffffff1683600201600086815260200190815260200160002060009054906101000a900473ffffffffffffffffffffffffffffffffffffffff1673ffffffffffffffffffffffffffffffffffffffff16146119ea57600080fd5b60038160000160003373ffffffffffffffffffffffffffffffffffffffff1673ffffffffffffffffffffffffffffffffffffffff168152602001908152602001600020541015611a3957600080fd5b60038160000160003373ffffffffffffffffffffffffffffffffffffffff1673ffffffffffffffffffffffffffffffffffffffff1681526020019081526020016000206000828254611a8b919061213c565b92505081905550816000016000815480929190611aa790612170565b9190505550338260010160008460000154815260200190815260200160002060006101000a81548173ffffffffffffffffffffffffffffffffffffffff021916908373ffffffffffffffffffffffffffffffffffffffff1602179055506040518060e00160405280600181526020016001815260200160018152602001600181526020016040518060400160405280600581526020017f41726d6f7200000000000000000000000000000000000000000000000000000081525081526020013373ffffffffffffffffffffffffffffffffffffffff1681526020016000151581525082600201600084600001548152602001908152602001600020600082015181600001556020820151816001015560408201518160020155606082015181600301556080820151816004019081611bdf91906123f3565b5060a08201518160050160006101000a81548173ffffffffffffffffffffffffffffffffffffffff021916908373ffffffffffffffffffffffffffffffffffffffff16021790555060c08201518160050160146101000a81548160ff0219169083151502179055509050508160030160003373ffffffffffffffffffffffffffffffffffffffff1673ffffffffffffffffffffffffffffffffffffffff1681526020019081526020016000208260000154908060018154018082558091505060019003906000526020600020016000909190919091505550505050565b6000807f3cab9a070a0c61cd0ae9d9e9e2c0781e5ca8691bec4087e5a4701d5ac018dd4e90508091505090565b6000807f04526f5583fe9d24ceb7f2a6da4ee61654b9eae62f9918e0e123f84a139b105890508091505090565b6000807f2c89d74504b6ad8d4fbde22bc3474166bac5452a11195897f239d8bebe02d70790508091505090565b6040518060e001604052806000815260200160008152602001600081526020016000815260200160608152602001600073ffffffffffffffffffffffffffffffffffffffff1681526020016000151581525090565b600080fd5b6000819050919050565b611db081611d9d565b8114611dbb57600080fd5b50565b600081359050611dcd81611da7565b92915050565b600060208284031215611de957611de8611d98565b5b6000611df784828501611dbe565b91505092915050565b611e0981611d9d565b82525050565b600081519050919050565b600082825260208201905092915050565b60005b83811015611e49578082015181840152602081019050611e2e565b60008484015250505050565b6000601f19601f8301169050919050565b6000611e7182611e0f565b611e7b8185611e1a565b9350611e8b818560208601611e2b565b611e9481611e55565b840191505092915050565b600073ffffffffffffffffffffffffffffffffffffffff82169050919050565b6000611eca82611e9f565b9050919050565b611eda81611ebf565b82525050565b60008115159050919050565b611ef581611ee0565b82525050565b600060e083016000830151611f136000860182611e00565b506020830151611f266020860182611e00565b506040830151611f396040860182611e00565b506060830151611f4c6060860182611e00565b5060808301518482036080860152611f648282611e66565b91505060a0830151611f7960a0860182611ed1565b5060c0830151611f8c60c0860182611eec565b508091505092915050565b60006020820190508181036000830152611fb18184611efb565b905092915050565b611fc281611ebf565b8114611fcd57600080fd5b50565b600081359050611fdf81611fb9565b92915050565b600060208284031215611ffb57611ffa611d98565b5b600061200984828501611fd0565b91505092915050565b600081519050919050565b600082825260208201905092915050565b6000819050602082019050919050565b600061204a8383611e00565b60208301905092915050565b6000602082019050919050565b600061206e82612012565b612078818561201d565b93506120838361202e565b8060005b838110156120b457815161209b888261203e565b97506120a683612056565b925050600181019050612087565b5085935050505092915050565b600060208201905081810360008301526120db8184612063565b905092915050565b6120ec81611d9d565b82525050565b600060208201905061210760008301846120e3565b92915050565b7f4e487b7100000000000000000000000000000000000000000000000000000000600052601160045260246000fd5b600061214782611d9d565b915061215283611d9d565b925082820390508181111561216a5761216961210d565b5b92915050565b600061217b82611d9d565b91507fffffffffffffffffffffffffffffffffffffffffffffffffffffffffffffffff82036121ad576121ac61210d565b5b600182019050919050565b7f4e487b7100000000000000000000000000000000000000000000000000000000600052604160045260246000fd5b7f4e487b7100000000000000000000000000000000000000000000000000000000600052602260045260246000fd5b6000600282049050600182168061222e57607f821691505b602082108103612241576122406121e7565b5b50919050565b60008190508160005260206000209050919050565b60006020601f8301049050919050565b600082821b905092915050565b6000600883026122a97fffffffffffffffffffffffffffffffffffffffffffffffffffffffffffffffff8261226c565b6122b3868361226c565b95508019841693508086168417925050509392505050565b6000819050919050565b60006122f06122eb6122e684611d9d565b6122cb565b611d9d565b9050919050565b6000819050919050565b61230a836122d5565b61231e612316826122f7565b848454612279565b825550505050565b600090565b612333612326565b61233e818484612301565b505050565b5b818110156123625761235760008261232b565b600181019050612344565b5050565b601f8211156123a75761237881612247565b6123818461225c565b81016020851015612390578190505b6123a461239c8561225c565b830182612343565b50505b505050565b600082821c905092915050565b60006123ca600019846008026123ac565b1980831691505092915050565b60006123e383836123b9565b9150826002028217905092915050565b6123fc82611e0f565b67ffffffffffffffff811115612415576124146121b8565b5b61241f8254612216565b61242a828285612366565b600060209050601f83116001811461245d576000841561244b578287015190505b61245585826123d7565b8655506124bd565b601f19841661246b86612247565b60005b828110156124935784890151825560018201915060208501945060208101905061246e565b868310156124b057848901516124ac601f8916826123b9565b8355505b6001600288020188555050505b50505050505056fea2646970667358221220faa4547beaad055cf79a7c820d7bee664c2fcee36ca5a306e1cc9850c29be21864736f6c63430008110033",
  "linkReferences": {},
  "deployedLinkReferences": {}
}