{
  "_format": "hh-sol-artifact-1",
  "contractName": "CraftFacet",
  "sourceName": "contracts/facets/CraftFacet.sol",
  "abi": [
    {
      "anonymous": false,
      "inputs": [
        {
          "indexed": true,
          "internalType": "address",
          "name": "_owner",
          "type": "address"
        },
        {
          "indexed": false,
          "internalType": "uint256",
          "name": "_player",
          "type": "uint256"
        }
      ],
      "name": "ItemCrafted",
      "type": "event"
    },
    {
      "inputs": [
        {
          "internalType": "uint256",
          "name": "_tokenId",
          "type": "uint256"
        }
      ],
      "name": "craftArmor",
      "outputs": [],
      "stateMutability": "nonpayable",
      "type": "function"
    },
    {
      "inputs": [
        {
          "internalType": "uint256",
          "name": "_tokenId",
          "type": "uint256"
        }
      ],
      "name": "craftGuitar",
      "outputs": [],
      "stateMutability": "nonpayable",
      "type": "function"
    },
    {
      "inputs": [
        {
          "internalType": "uint256",
          "name": "_tokenId",
          "type": "uint256"
        }
      ],
      "name": "craftHelmet",
      "outputs": [],
      "stateMutability": "nonpayable",
      "type": "function"
    },
    {
      "inputs": [
        {
          "internalType": "uint256",
          "name": "_tokenId",
          "type": "uint256"
        }
      ],
      "name": "craftShield",
      "outputs": [],
      "stateMutability": "nonpayable",
      "type": "function"
    },
    {
      "inputs": [
        {
          "internalType": "uint256",
          "name": "_tokenId",
          "type": "uint256"
        }
      ],
      "name": "craftSorcerShoes",
      "outputs": [],
      "stateMutability": "nonpayable",
      "type": "function"
    },
    {
      "inputs": [
        {
          "internalType": "uint256",
          "name": "_tokenId",
          "type": "uint256"
        }
      ],
      "name": "craftSword",
      "outputs": [],
      "stateMutability": "nonpayable",
      "type": "function"
    },
    {
      "inputs": [
        {
          "internalType": "uint256",
          "name": "_itemId",
          "type": "uint256"
        }
      ],
      "name": "getItem",
      "outputs": [
        {
          "components": [
            {
              "internalType": "uint256",
              "name": "slot",
              "type": "uint256"
            },
            {
              "internalType": "uint256",
              "name": "rank",
              "type": "uint256"
            },
            {
              "internalType": "uint256",
              "name": "value",
              "type": "uint256"
            },
            {
              "internalType": "uint256",
              "name": "stat",
              "type": "uint256"
            },
            {
              "internalType": "string",
              "name": "name",
              "type": "string"
            },
            {
              "internalType": "address",
              "name": "owner",
              "type": "address"
            },
            {
              "internalType": "bool",
              "name": "isEquiped",
              "type": "bool"
            }
          ],
          "internalType": "struct Item",
          "name": "item",
          "type": "tuple"
        }
      ],
      "stateMutability": "view",
      "type": "function"
    },
    {
      "inputs": [],
      "name": "getItemCount",
      "outputs": [
        {
          "internalType": "uint256",
          "name": "count",
          "type": "uint256"
        }
      ],
      "stateMutability": "view",
      "type": "function"
    },
    {
      "inputs": [
        {
          "internalType": "address",
          "name": "_address",
          "type": "address"
        }
      ],
      "name": "getItems",
      "outputs": [
        {
          "internalType": "uint256[]",
          "name": "items",
          "type": "uint256[]"
        }
      ],
      "stateMutability": "view",
      "type": "function"
    },
    {
      "inputs": [],
      "name": "mintCoins",
      "outputs": [],
      "stateMutability": "nonpayable",
      "type": "function"
    }
  ],
  "bytecode": "0x608060405234801561001057600080fd5b50612a4e806100206000396000f3fe608060405234801561001057600080fd5b506004361061009e5760003560e01c8063798907c111610066578063798907c114610159578063a75647e714610163578063b38721941461017f578063c458405e1461019b578063c6f5bb15146101b75761009e565b806309178301146100a35780633129e773146100bf5780634d736655146100ef5780634fd75d781461011f5780637749cf231461013b575b600080fd5b6100bd60048036038101906100b891906120c5565b6101d3565b005b6100d960048036038101906100d491906120c5565b61022d565b6040516100e69190612289565b60405180910390f35b610109600480360381019061010491906122d7565b610245565b60405161011691906123b3565b60405180910390f35b610139600480360381019061013491906120c5565b610257565b005b6101436102b1565b60405161015091906123e4565b60405180910390f35b6101616102c0565b005b61017d600480360381019061017891906120c5565b6102ca565b005b610199600480360381019061019491906120c5565b610324565b005b6101b560048036038101906101b091906120c5565b61037e565b005b6101d160048036038101906101cc91906120c5565b6103d8565b005b6101dc81610432565b3373ffffffffffffffffffffffffffffffffffffffff167fc23786d6f50f67fc05910a7c0e08cf6ad642ec7b6ec9f701ab0b1d9c479474e78260405161022291906123e4565b60405180910390a250565b610235612035565b61023e826107ba565b9050919050565b606061025082610921565b9050919050565b610260816109c7565b3373ffffffffffffffffffffffffffffffffffffffff167fc23786d6f50f67fc05910a7c0e08cf6ad642ec7b6ec9f701ab0b1d9c479474e7826040516102a691906123e4565b60405180910390a250565b60006102bb610f5b565b905090565b6102c8610f73565b565b6102d3816110e6565b3373ffffffffffffffffffffffffffffffffffffffff167fc23786d6f50f67fc05910a7c0e08cf6ad642ec7b6ec9f701ab0b1d9c479474e78260405161031991906123e4565b60405180910390a250565b61032d8161146e565b3373ffffffffffffffffffffffffffffffffffffffff167fc23786d6f50f67fc05910a7c0e08cf6ad642ec7b6ec9f701ab0b1d9c479474e78260405161037391906123e4565b60405180910390a250565b6103878161189e565b3373ffffffffffffffffffffffffffffffffffffffff167fc23786d6f50f67fc05910a7c0e08cf6ad642ec7b6ec9f701ab0b1d9c479474e7826040516103cd91906123e4565b60405180910390a250565b6103e181611c26565b3373ffffffffffffffffffffffffffffffffffffffff167fc23786d6f50f67fc05910a7c0e08cf6ad642ec7b6ec9f701ab0b1d9c479474e78260405161042791906123e4565b60405180910390a250565b600061043c611fae565b90506000610448611fdb565b90506000610454612008565b90506000836003016000868152602001908152602001600020600201541461047b57600080fd5b3373ffffffffffffffffffffffffffffffffffffffff1683600201600086815260200190815260200160002060009054906101000a900473ffffffffffffffffffffffffffffffffffffffff1673ffffffffffffffffffffffffffffffffffffffff16146104e857600080fd5b600a8160000160003373ffffffffffffffffffffffffffffffffffffffff1673ffffffffffffffffffffffffffffffffffffffff16815260200190815260200160002054101561053757600080fd5b600a8160000160003373ffffffffffffffffffffffffffffffffffffffff1673ffffffffffffffffffffffffffffffffffffffff1681526020019081526020016000206000828254610589919061242e565b925050819055508160000160008154809291906105a590612462565b9190505550338260010160008460000154815260200190815260200160002060006101000a81548173ffffffffffffffffffffffffffffffffffffffff021916908373ffffffffffffffffffffffffffffffffffffffff1602179055506040518060e00160405280600281526020016001815260200160028152602001600381526020016040518060400160405280600681526020017f477569746172000000000000000000000000000000000000000000000000000081525081526020013373ffffffffffffffffffffffffffffffffffffffff16815260200160001515815250826002016000846000015481526020019081526020016000206000820151816000015560208201518160010155604082015181600201556060820151816003015560808201518160040190816106dd91906126e5565b5060a08201518160050160006101000a81548173ffffffffffffffffffffffffffffffffffffffff021916908373ffffffffffffffffffffffffffffffffffffffff16021790555060c08201518160050160146101000a81548160ff0219169083151502179055509050508160030160003373ffffffffffffffffffffffffffffffffffffffff1673ffffffffffffffffffffffffffffffffffffffff1681526020019081526020016000208260000154908060018154018082558091505060019003906000526020600020016000909190919091505550505050565b6107c2612035565b60006107cc611fdb565b90508060020160008481526020019081526020016000206040518060e00160405290816000820154815260200160018201548152602001600282015481526020016003820154815260200160048201805461082690612508565b80601f016020809104026020016040519081016040528092919081815260200182805461085290612508565b801561089f5780601f106108745761010080835404028352916020019161089f565b820191906000526020600020905b81548152906001019060200180831161088257829003601f168201915b505050505081526020016005820160009054906101000a900473ffffffffffffffffffffffffffffffffffffffff1673ffffffffffffffffffffffffffffffffffffffff1673ffffffffffffffffffffffffffffffffffffffff1681526020016005820160149054906101000a900460ff161515151581525050915050919050565b6060600061092d611fdb565b90508060030160008473ffffffffffffffffffffffffffffffffffffffff1673ffffffffffffffffffffffffffffffffffffffff1681526020019081526020016000208054806020026020016040519081016040528092919081815260200182805480156109ba57602002820191906000526020600020905b8154815260200190600101908083116109a6575b5050505050915050919050565b60006109d1611fae565b905060006109dd611fdb565b905060006109e9612008565b905060008360030160008681526020019081526020016000206002015414610a46576040517f08c379a0000000000000000000000000000000000000000000000000000000008152600401610a3d90612814565b60405180910390fd5b3373ffffffffffffffffffffffffffffffffffffffff1683600201600086815260200190815260200160002060009054906101000a900473ffffffffffffffffffffffffffffffffffffffff1673ffffffffffffffffffffffffffffffffffffffff1614610ae9576040517f08c379a0000000000000000000000000000000000000000000000000000000008152600401610ae090612880565b60405180910390fd5b6001836003016000868152602001908152602001600020600601541015610b45576040517f08c379a0000000000000000000000000000000000000000000000000000000008152600401610b3c906128ec565b60405180910390fd5b60038160000160003373ffffffffffffffffffffffffffffffffffffffff1673ffffffffffffffffffffffffffffffffffffffff168152602001908152602001600020541015610bca576040517f08c379a0000000000000000000000000000000000000000000000000000000008152600401610bc190612958565b60405180910390fd5b60018160010160003373ffffffffffffffffffffffffffffffffffffffff1673ffffffffffffffffffffffffffffffffffffffff168152602001908152602001600020541015610c4f576040517f08c379a0000000000000000000000000000000000000000000000000000000008152600401610c46906129c4565b60405180910390fd5b60038160000160003373ffffffffffffffffffffffffffffffffffffffff1673ffffffffffffffffffffffffffffffffffffffff1681526020019081526020016000206000828254610ca1919061242e565b9250508190555060018160010160003373ffffffffffffffffffffffffffffffffffffffff1673ffffffffffffffffffffffffffffffffffffffff1681526020019081526020016000206000828254610cfa919061242e565b9250508190555060018360030160008681526020019081526020016000206006016000828254610d2a919061242e565b92505081905550816000016000815480929190610d4690612462565b9190505550338260010160008460000154815260200190815260200160002060006101000a81548173ffffffffffffffffffffffffffffffffffffffff021916908373ffffffffffffffffffffffffffffffffffffffff1602179055506040518060e00160405280600581526020016001815260200160028152602001600381526020016040518060400160405280600981526020017f536f726353686f6573000000000000000000000000000000000000000000000081525081526020013373ffffffffffffffffffffffffffffffffffffffff1681526020016000151581525082600201600084600001548152602001908152602001600020600082015181600001556020820151816001015560408201518160020155606082015181600301556080820151816004019081610e7e91906126e5565b5060a08201518160050160006101000a81548173ffffffffffffffffffffffffffffffffffffffff021916908373ffffffffffffffffffffffffffffffffffffffff16021790555060c08201518160050160146101000a81548160ff0219169083151502179055509050508160030160003373ffffffffffffffffffffffffffffffffffffffff1673ffffffffffffffffffffffffffffffffffffffff1681526020019081526020016000208260000154908060018154018082558091505060019003906000526020600020016000909190919091505550505050565b600080610f66611fdb565b9050806000015491505090565b6000610f7d612008565b905060648160000160003373ffffffffffffffffffffffffffffffffffffffff1673ffffffffffffffffffffffffffffffffffffffff1681526020019081526020016000206000828254610fd191906129e4565b9250508190555060648160010160003373ffffffffffffffffffffffffffffffffffffffff1673ffffffffffffffffffffffffffffffffffffffff168152602001908152602001600020600082825461102a91906129e4565b9250508190555060648160030160003373ffffffffffffffffffffffffffffffffffffffff1673ffffffffffffffffffffffffffffffffffffffff168152602001908152602001600020600082825461108391906129e4565b9250508190555060648160020160003373ffffffffffffffffffffffffffffffffffffffff1673ffffffffffffffffffffffffffffffffffffffff16815260200190815260200160002060008282546110dc91906129e4565b9250508190555050565b60006110f0611fae565b905060006110fc611fdb565b90506000611108612008565b90506000836003016000868152602001908152602001600020600201541461112f57600080fd5b3373ffffffffffffffffffffffffffffffffffffffff1683600201600086815260200190815260200160002060009054906101000a900473ffffffffffffffffffffffffffffffffffffffff1673ffffffffffffffffffffffffffffffffffffffff161461119c57600080fd5b60048160000160003373ffffffffffffffffffffffffffffffffffffffff1673ffffffffffffffffffffffffffffffffffffffff1681526020019081526020016000205410156111eb57600080fd5b60048160000160003373ffffffffffffffffffffffffffffffffffffffff1673ffffffffffffffffffffffffffffffffffffffff168152602001908152602001600020600082825461123d919061242e565b9250508190555081600001600081548092919061125990612462565b9190505550338260010160008460000154815260200190815260200160002060006101000a81548173ffffffffffffffffffffffffffffffffffffffff021916908373ffffffffffffffffffffffffffffffffffffffff1602179055506040518060e00160405280600081526020016001815260200160048152602001600181526020016040518060400160405280600681526020017f48656c6d6574000000000000000000000000000000000000000000000000000081525081526020013373ffffffffffffffffffffffffffffffffffffffff168152602001600015158152508260020160008460000154815260200190815260200160002060008201518160000155602082015181600101556040820151816002015560608201518160030155608082015181600401908161139191906126e5565b5060a08201518160050160006101000a81548173ffffffffffffffffffffffffffffffffffffffff021916908373ffffffffffffffffffffffffffffffffffffffff16021790555060c08201518160050160146101000a81548160ff0219169083151502179055509050508160030160003373ffffffffffffffffffffffffffffffffffffffff1673ffffffffffffffffffffffffffffffffffffffff1681526020019081526020016000208260000154908060018154018082558091505060019003906000526020600020016000909190919091505550505050565b6000611478611fae565b90506000611484611fdb565b90506000611490612008565b9050600083600301600086815260200190815260200160002060020154146114b757600080fd5b3373ffffffffffffffffffffffffffffffffffffffff1683600201600086815260200190815260200160002060009054906101000a900473ffffffffffffffffffffffffffffffffffffffff1673ffffffffffffffffffffffffffffffffffffffff161461152457600080fd5b60038160000160003373ffffffffffffffffffffffffffffffffffffffff1673ffffffffffffffffffffffffffffffffffffffff16815260200190815260200160002054101561157357600080fd5b60038160010160003373ffffffffffffffffffffffffffffffffffffffff1673ffffffffffffffffffffffffffffffffffffffff1681526020019081526020016000205410156115c257600080fd5b60038160000160003373ffffffffffffffffffffffffffffffffffffffff1673ffffffffffffffffffffffffffffffffffffffff1681526020019081526020016000206000828254611614919061242e565b9250508190555060038160010160003373ffffffffffffffffffffffffffffffffffffffff1673ffffffffffffffffffffffffffffffffffffffff168152602001908152602001600020600082825461166d919061242e565b9250508190555081600001600081548092919061168990612462565b9190505550338260010160008460000154815260200190815260200160002060006101000a81548173ffffffffffffffffffffffffffffffffffffffff021916908373ffffffffffffffffffffffffffffffffffffffff1602179055506040518060e00160405280600281526020016001815260200160018152602001600181526020016040518060400160405280600681526020017f536869656c64000000000000000000000000000000000000000000000000000081525081526020013373ffffffffffffffffffffffffffffffffffffffff16815260200160001515815250826002016000846000015481526020019081526020016000206000820151816000015560208201518160010155604082015181600201556060820151816003015560808201518160040190816117c191906126e5565b5060a08201518160050160006101000a81548173ffffffffffffffffffffffffffffffffffffffff021916908373ffffffffffffffffffffffffffffffffffffffff16021790555060c08201518160050160146101000a81548160ff0219169083151502179055509050508160030160003373ffffffffffffffffffffffffffffffffffffffff1673ffffffffffffffffffffffffffffffffffffffff1681526020019081526020016000208260000154908060018154018082558091505060019003906000526020600020016000909190919091505550505050565b60006118a8611fae565b905060006118b4611fdb565b905060006118c0612008565b9050600083600301600086815260200190815260200160002060020154146118e757600080fd5b3373ffffffffffffffffffffffffffffffffffffffff1683600201600086815260200190815260200160002060009054906101000a900473ffffffffffffffffffffffffffffffffffffffff1673ffffffffffffffffffffffffffffffffffffffff161461195457600080fd5b60058160000160003373ffffffffffffffffffffffffffffffffffffffff1673ffffffffffffffffffffffffffffffffffffffff1681526020019081526020016000205410156119a357600080fd5b60058160000160003373ffffffffffffffffffffffffffffffffffffffff1673ffffffffffffffffffffffffffffffffffffffff16815260200190815260200160002060008282546119f5919061242e565b92505081905550816000016000815480929190611a1190612462565b9190505550338260010160008460000154815260200190815260200160002060006101000a81548173ffffffffffffffffffffffffffffffffffffffff021916908373ffffffffffffffffffffffffffffffffffffffff1602179055506040518060e00160405280600281526020016001815260200160018152602001600081526020016040518060400160405280600581526020017f53776f726400000000000000000000000000000000000000000000000000000081525081526020013373ffffffffffffffffffffffffffffffffffffffff1681526020016000151581525082600201600084600001548152602001908152602001600020600082015181600001556020820151816001015560408201518160020155606082015181600301556080820151816004019081611b4991906126e5565b5060a08201518160050160006101000a81548173ffffffffffffffffffffffffffffffffffffffff021916908373ffffffffffffffffffffffffffffffffffffffff16021790555060c08201518160050160146101000a81548160ff0219169083151502179055509050508160030160003373ffffffffffffffffffffffffffffffffffffffff1673ffffffffffffffffffffffffffffffffffffffff1681526020019081526020016000208260000154908060018154018082558091505060019003906000526020600020016000909190919091505550505050565b6000611c30611fae565b90506000611c3c611fdb565b90506000611c48612008565b905060008360030160008681526020019081526020016000206002015414611c6f57600080fd5b3373ffffffffffffffffffffffffffffffffffffffff1683600201600086815260200190815260200160002060009054906101000a900473ffffffffffffffffffffffffffffffffffffffff1673ffffffffffffffffffffffffffffffffffffffff1614611cdc57600080fd5b60038160000160003373ffffffffffffffffffffffffffffffffffffffff1673ffffffffffffffffffffffffffffffffffffffff168152602001908152602001600020541015611d2b57600080fd5b60038160000160003373ffffffffffffffffffffffffffffffffffffffff1673ffffffffffffffffffffffffffffffffffffffff1681526020019081526020016000206000828254611d7d919061242e565b92505081905550816000016000815480929190611d9990612462565b9190505550338260010160008460000154815260200190815260200160002060006101000a81548173ffffffffffffffffffffffffffffffffffffffff021916908373ffffffffffffffffffffffffffffffffffffffff1602179055506040518060e00160405280600181526020016001815260200160018152602001600181526020016040518060400160405280600581526020017f41726d6f7200000000000000000000000000000000000000000000000000000081525081526020013373ffffffffffffffffffffffffffffffffffffffff1681526020016000151581525082600201600084600001548152602001908152602001600020600082015181600001556020820151816001015560408201518160020155606082015181600301556080820151816004019081611ed191906126e5565b5060a08201518160050160006101000a81548173ffffffffffffffffffffffffffffffffffffffff021916908373ffffffffffffffffffffffffffffffffffffffff16021790555060c08201518160050160146101000a81548160ff0219169083151502179055509050508160030160003373ffffffffffffffffffffffffffffffffffffffff1673ffffffffffffffffffffffffffffffffffffffff1681526020019081526020016000208260000154908060018154018082558091505060019003906000526020600020016000909190919091505550505050565b6000807f3cab9a070a0c61cd0ae9d9e9e2c0781e5ca8691bec4087e5a4701d5ac018dd4e90508091505090565b6000807f04526f5583fe9d24ceb7f2a6da4ee61654b9eae62f9918e0e123f84a139b105890508091505090565b6000807f2c89d74504b6ad8d4fbde22bc3474166bac5452a11195897f239d8bebe02d70790508091505090565b6040518060e001604052806000815260200160008152602001600081526020016000815260200160608152602001600073ffffffffffffffffffffffffffffffffffffffff1681526020016000151581525090565b600080fd5b6000819050919050565b6120a28161208f565b81146120ad57600080fd5b50565b6000813590506120bf81612099565b92915050565b6000602082840312156120db576120da61208a565b5b60006120e9848285016120b0565b91505092915050565b6120fb8161208f565b82525050565b600081519050919050565b600082825260208201905092915050565b60005b8381101561213b578082015181840152602081019050612120565b60008484015250505050565b6000601f19601f8301169050919050565b600061216382612101565b61216d818561210c565b935061217d81856020860161211d565b61218681612147565b840191505092915050565b600073ffffffffffffffffffffffffffffffffffffffff82169050919050565b60006121bc82612191565b9050919050565b6121cc816121b1565b82525050565b60008115159050919050565b6121e7816121d2565b82525050565b600060e08301600083015161220560008601826120f2565b50602083015161221860208601826120f2565b50604083015161222b60408601826120f2565b50606083015161223e60608601826120f2565b50608083015184820360808601526122568282612158565b91505060a083015161226b60a08601826121c3565b5060c083015161227e60c08601826121de565b508091505092915050565b600060208201905081810360008301526122a381846121ed565b905092915050565b6122b4816121b1565b81146122bf57600080fd5b50565b6000813590506122d1816122ab565b92915050565b6000602082840312156122ed576122ec61208a565b5b60006122fb848285016122c2565b91505092915050565b600081519050919050565b600082825260208201905092915050565b6000819050602082019050919050565b600061233c83836120f2565b60208301905092915050565b6000602082019050919050565b600061236082612304565b61236a818561230f565b935061237583612320565b8060005b838110156123a657815161238d8882612330565b975061239883612348565b925050600181019050612379565b5085935050505092915050565b600060208201905081810360008301526123cd8184612355565b905092915050565b6123de8161208f565b82525050565b60006020820190506123f960008301846123d5565b92915050565b7f4e487b7100000000000000000000000000000000000000000000000000000000600052601160045260246000fd5b60006124398261208f565b91506124448361208f565b925082820390508181111561245c5761245b6123ff565b5b92915050565b600061246d8261208f565b91507fffffffffffffffffffffffffffffffffffffffffffffffffffffffffffffffff820361249f5761249e6123ff565b5b600182019050919050565b7f4e487b7100000000000000000000000000000000000000000000000000000000600052604160045260246000fd5b7f4e487b7100000000000000000000000000000000000000000000000000000000600052602260045260246000fd5b6000600282049050600182168061252057607f821691505b602082108103612533576125326124d9565b5b50919050565b60008190508160005260206000209050919050565b60006020601f8301049050919050565b600082821b905092915050565b60006008830261259b7fffffffffffffffffffffffffffffffffffffffffffffffffffffffffffffffff8261255e565b6125a5868361255e565b95508019841693508086168417925050509392505050565b6000819050919050565b60006125e26125dd6125d88461208f565b6125bd565b61208f565b9050919050565b6000819050919050565b6125fc836125c7565b612610612608826125e9565b84845461256b565b825550505050565b600090565b612625612618565b6126308184846125f3565b505050565b5b818110156126545761264960008261261d565b600181019050612636565b5050565b601f8211156126995761266a81612539565b6126738461254e565b81016020851015612682578190505b61269661268e8561254e565b830182612635565b50505b505050565b600082821c905092915050565b60006126bc6000198460080261269e565b1980831691505092915050565b60006126d583836126ab565b9150826002028217905092915050565b6126ee82612101565b67ffffffffffffffff811115612707576127066124aa565b5b6127118254612508565b61271c828285612658565b600060209050601f83116001811461274f576000841561273d578287015190505b61274785826126c9565b8655506127af565b601f19841661275d86612539565b60005b8281101561278557848901518255600182019150602085019450602081019050612760565b868310156127a2578489015161279e601f8916826126ab565b8355505b6001600288020188555050505b505050505050565b600082825260208201905092915050565b7f596f75206d7573742062652049646c6520746f20437261667400000000000000600082015250565b60006127fe6019836127b7565b9150612809826127c8565b602082019050919050565b6000602082019050818103600083015261282d816127f1565b9050919050565b7f596f7520617265206e6f7420746865206f776e65720000000000000000000000600082015250565b600061286a6015836127b7565b915061287582612834565b602082019050919050565b600060208201905081810360008301526128998161285d565b9050919050565b7f5265717569726573206f6e65204d616e61000000000000000000000000000000600082015250565b60006128d66011836127b7565b91506128e1826128a0565b602082019050919050565b60006020820190508181036000830152612905816128c9565b9050919050565b7f5265717569726573203320476f6c640000000000000000000000000000000000600082015250565b6000612942600f836127b7565b915061294d8261290c565b602082019050919050565b6000602082019050818103600083015261297181612935565b9050919050565b7f526571756972657320312047656d000000000000000000000000000000000000600082015250565b60006129ae600e836127b7565b91506129b982612978565b602082019050919050565b600060208201905081810360008301526129dd816129a1565b9050919050565b60006129ef8261208f565b91506129fa8361208f565b9250828201905080821115612a1257612a116123ff565b5b9291505056fea26469706673582212209e12ca4c2426672f3829d98989fe7fbdb98500d2b2fcf17bf260a55b8982994364736f6c63430008110033",
  "linkReferences": {},
  "deployedLinkReferences": {}
}