{
  "_format": "hh-sol-artifact-1",
  "contractName": "CraftFacet",
  "sourceName": "contracts/facets/CraftFacet.sol",
  "abi": [
    {
      "anonymous": false,
      "inputs": [
        {
          "indexed": true,
          "internalType": "address",
          "name": "_owner",
          "type": "address"
        },
        {
          "indexed": false,
          "internalType": "uint256",
          "name": "_player",
          "type": "uint256"
        }
      ],
      "name": "ItemCrafted",
      "type": "event"
    },
    {
      "inputs": [
        {
          "internalType": "uint256",
          "name": "_tokenId",
          "type": "uint256"
        }
      ],
      "name": "craftArmor",
      "outputs": [],
      "stateMutability": "nonpayable",
      "type": "function"
    },
    {
      "inputs": [
        {
          "internalType": "uint256",
          "name": "_tokenId",
          "type": "uint256"
        }
      ],
      "name": "craftGuitar",
      "outputs": [],
      "stateMutability": "nonpayable",
      "type": "function"
    },
    {
      "inputs": [
        {
          "internalType": "uint256",
          "name": "_tokenId",
          "type": "uint256"
        }
      ],
      "name": "craftHelmet",
      "outputs": [],
      "stateMutability": "nonpayable",
      "type": "function"
    },
    {
      "inputs": [
        {
          "internalType": "uint256",
          "name": "_tokenId",
          "type": "uint256"
        }
      ],
      "name": "craftShield",
      "outputs": [],
      "stateMutability": "nonpayable",
      "type": "function"
    },
    {
      "inputs": [
        {
          "internalType": "uint256",
          "name": "_tokenId",
          "type": "uint256"
        }
      ],
      "name": "craftSorcerShoes",
      "outputs": [],
      "stateMutability": "nonpayable",
      "type": "function"
    },
    {
      "inputs": [
        {
          "internalType": "uint256",
          "name": "_tokenId",
          "type": "uint256"
        }
      ],
      "name": "craftSword",
      "outputs": [],
      "stateMutability": "nonpayable",
      "type": "function"
    },
    {
      "inputs": [
        {
          "internalType": "uint256",
          "name": "_itemId",
          "type": "uint256"
        }
      ],
      "name": "getItem",
      "outputs": [
        {
          "components": [
            {
              "internalType": "uint256",
              "name": "slot",
              "type": "uint256"
            },
            {
              "internalType": "uint256",
              "name": "rank",
              "type": "uint256"
            },
            {
              "internalType": "uint256",
              "name": "value",
              "type": "uint256"
            },
            {
              "internalType": "uint256",
              "name": "stat",
              "type": "uint256"
            },
            {
              "internalType": "string",
              "name": "name",
              "type": "string"
            },
            {
              "internalType": "address",
              "name": "owner",
              "type": "address"
            },
            {
              "internalType": "bool",
              "name": "isEquiped",
              "type": "bool"
            }
          ],
          "internalType": "struct Item",
          "name": "item",
          "type": "tuple"
        }
      ],
      "stateMutability": "view",
      "type": "function"
    },
    {
      "inputs": [],
      "name": "getItemCount",
      "outputs": [
        {
          "internalType": "uint256",
          "name": "count",
          "type": "uint256"
        }
      ],
      "stateMutability": "view",
      "type": "function"
    },
    {
      "inputs": [
        {
          "internalType": "address",
          "name": "_address",
          "type": "address"
        }
      ],
      "name": "getItems",
      "outputs": [
        {
          "internalType": "uint256[]",
          "name": "items",
          "type": "uint256[]"
        }
      ],
      "stateMutability": "view",
      "type": "function"
    },
    {
      "inputs": [],
      "name": "mintCoins",
      "outputs": [],
      "stateMutability": "nonpayable",
      "type": "function"
    }
  ],
  "bytecode": "0x608060405234801561001057600080fd5b50612713806100206000396000f3fe608060405234801561001057600080fd5b506004361061009e5760003560e01c8063798907c111610066578063798907c114610159578063a75647e714610163578063b38721941461017f578063c458405e1461019b578063c6f5bb15146101b75761009e565b806309178301146100a35780633129e773146100bf5780634d736655146100ef5780634fd75d781461011f5780637749cf231461013b575b600080fd5b6100bd60048036038101906100b89190611fb7565b6101d3565b005b6100d960048036038101906100d49190611fb7565b61022d565b6040516100e6919061217b565b60405180910390f35b610109600480360381019061010491906121c9565b610245565b60405161011691906122a5565b60405180910390f35b61013960048036038101906101349190611fb7565b610257565b005b6101436102b1565b60405161015091906122d6565b60405180910390f35b6101616102c0565b005b61017d60048036038101906101789190611fb7565b6102ca565b005b61019960048036038101906101949190611fb7565b610324565b005b6101b560048036038101906101b09190611fb7565b61037e565b005b6101d160048036038101906101cc9190611fb7565b6103d8565b005b6101dc81610432565b3373ffffffffffffffffffffffffffffffffffffffff167fc23786d6f50f67fc05910a7c0e08cf6ad642ec7b6ec9f701ab0b1d9c479474e78260405161022291906122d6565b60405180910390a250565b610235611f27565b61023e826107ba565b9050919050565b606061025082610921565b9050919050565b610260816109c7565b3373ffffffffffffffffffffffffffffffffffffffff167fc23786d6f50f67fc05910a7c0e08cf6ad642ec7b6ec9f701ab0b1d9c479474e7826040516102a691906122d6565b60405180910390a250565b60006102bb610e4d565b905090565b6102c8610e65565b565b6102d381610fd8565b3373ffffffffffffffffffffffffffffffffffffffff167fc23786d6f50f67fc05910a7c0e08cf6ad642ec7b6ec9f701ab0b1d9c479474e78260405161031991906122d6565b60405180910390a250565b61032d81611360565b3373ffffffffffffffffffffffffffffffffffffffff167fc23786d6f50f67fc05910a7c0e08cf6ad642ec7b6ec9f701ab0b1d9c479474e78260405161037391906122d6565b60405180910390a250565b61038781611790565b3373ffffffffffffffffffffffffffffffffffffffff167fc23786d6f50f67fc05910a7c0e08cf6ad642ec7b6ec9f701ab0b1d9c479474e7826040516103cd91906122d6565b60405180910390a250565b6103e181611b18565b3373ffffffffffffffffffffffffffffffffffffffff167fc23786d6f50f67fc05910a7c0e08cf6ad642ec7b6ec9f701ab0b1d9c479474e78260405161042791906122d6565b60405180910390a250565b600061043c611ea0565b90506000610448611ecd565b90506000610454611efa565b90506000836003016000868152602001908152602001600020600201541461047b57600080fd5b3373ffffffffffffffffffffffffffffffffffffffff1683600201600086815260200190815260200160002060009054906101000a900473ffffffffffffffffffffffffffffffffffffffff1673ffffffffffffffffffffffffffffffffffffffff16146104e857600080fd5b600a8160000160003373ffffffffffffffffffffffffffffffffffffffff1673ffffffffffffffffffffffffffffffffffffffff16815260200190815260200160002054101561053757600080fd5b600a8160000160003373ffffffffffffffffffffffffffffffffffffffff1673ffffffffffffffffffffffffffffffffffffffff16815260200190815260200160002060008282546105899190612320565b925050819055508160000160008154809291906105a590612354565b9190505550338260010160008460000154815260200190815260200160002060006101000a81548173ffffffffffffffffffffffffffffffffffffffff021916908373ffffffffffffffffffffffffffffffffffffffff1602179055506040518060e00160405280600281526020016001815260200160028152602001600381526020016040518060400160405280600681526020017f477569746172000000000000000000000000000000000000000000000000000081525081526020013373ffffffffffffffffffffffffffffffffffffffff16815260200160001515815250826002016000846000015481526020019081526020016000206000820151816000015560208201518160010155604082015181600201556060820151816003015560808201518160040190816106dd91906125d7565b5060a08201518160050160006101000a81548173ffffffffffffffffffffffffffffffffffffffff021916908373ffffffffffffffffffffffffffffffffffffffff16021790555060c08201518160050160146101000a81548160ff0219169083151502179055509050508160030160003373ffffffffffffffffffffffffffffffffffffffff1673ffffffffffffffffffffffffffffffffffffffff1681526020019081526020016000208260000154908060018154018082558091505060019003906000526020600020016000909190919091505550505050565b6107c2611f27565b60006107cc611ecd565b90508060020160008481526020019081526020016000206040518060e001604052908160008201548152602001600182015481526020016002820154815260200160038201548152602001600482018054610826906123fa565b80601f0160208091040260200160405190810160405280929190818152602001828054610852906123fa565b801561089f5780601f106108745761010080835404028352916020019161089f565b820191906000526020600020905b81548152906001019060200180831161088257829003601f168201915b505050505081526020016005820160009054906101000a900473ffffffffffffffffffffffffffffffffffffffff1673ffffffffffffffffffffffffffffffffffffffff1673ffffffffffffffffffffffffffffffffffffffff1681526020016005820160149054906101000a900460ff161515151581525050915050919050565b6060600061092d611ecd565b90508060030160008473ffffffffffffffffffffffffffffffffffffffff1673ffffffffffffffffffffffffffffffffffffffff1681526020019081526020016000208054806020026020016040519081016040528092919081815260200182805480156109ba57602002820191906000526020600020905b8154815260200190600101908083116109a6575b5050505050915050919050565b60006109d1611ea0565b905060006109dd611ecd565b905060006109e9611efa565b905060008360030160008681526020019081526020016000206002015414610a1057600080fd5b3373ffffffffffffffffffffffffffffffffffffffff1683600201600086815260200190815260200160002060009054906101000a900473ffffffffffffffffffffffffffffffffffffffff1673ffffffffffffffffffffffffffffffffffffffff1614610a7d57600080fd5b6001836003016000868152602001908152602001600020600601541015610aa357600080fd5b60038160000160003373ffffffffffffffffffffffffffffffffffffffff1673ffffffffffffffffffffffffffffffffffffffff168152602001908152602001600020541015610af257600080fd5b60018160010160003373ffffffffffffffffffffffffffffffffffffffff1673ffffffffffffffffffffffffffffffffffffffff168152602001908152602001600020541015610b4157600080fd5b60038160000160003373ffffffffffffffffffffffffffffffffffffffff1673ffffffffffffffffffffffffffffffffffffffff1681526020019081526020016000206000828254610b939190612320565b9250508190555060018160010160003373ffffffffffffffffffffffffffffffffffffffff1673ffffffffffffffffffffffffffffffffffffffff1681526020019081526020016000206000828254610bec9190612320565b9250508190555060018360030160008681526020019081526020016000206006016000828254610c1c9190612320565b92505081905550816000016000815480929190610c3890612354565b9190505550338260010160008460000154815260200190815260200160002060006101000a81548173ffffffffffffffffffffffffffffffffffffffff021916908373ffffffffffffffffffffffffffffffffffffffff1602179055506040518060e00160405280600581526020016001815260200160028152602001600381526020016040518060400160405280600981526020017f536f726353686f6573000000000000000000000000000000000000000000000081525081526020013373ffffffffffffffffffffffffffffffffffffffff1681526020016000151581525082600201600084600001548152602001908152602001600020600082015181600001556020820151816001015560408201518160020155606082015181600301556080820151816004019081610d7091906125d7565b5060a08201518160050160006101000a81548173ffffffffffffffffffffffffffffffffffffffff021916908373ffffffffffffffffffffffffffffffffffffffff16021790555060c08201518160050160146101000a81548160ff0219169083151502179055509050508160030160003373ffffffffffffffffffffffffffffffffffffffff1673ffffffffffffffffffffffffffffffffffffffff1681526020019081526020016000208260000154908060018154018082558091505060019003906000526020600020016000909190919091505550505050565b600080610e58611ecd565b9050806000015491505090565b6000610e6f611efa565b905060648160000160003373ffffffffffffffffffffffffffffffffffffffff1673ffffffffffffffffffffffffffffffffffffffff1681526020019081526020016000206000828254610ec391906126a9565b9250508190555060648160010160003373ffffffffffffffffffffffffffffffffffffffff1673ffffffffffffffffffffffffffffffffffffffff1681526020019081526020016000206000828254610f1c91906126a9565b9250508190555060648160030160003373ffffffffffffffffffffffffffffffffffffffff1673ffffffffffffffffffffffffffffffffffffffff1681526020019081526020016000206000828254610f7591906126a9565b9250508190555060648160020160003373ffffffffffffffffffffffffffffffffffffffff1673ffffffffffffffffffffffffffffffffffffffff1681526020019081526020016000206000828254610fce91906126a9565b9250508190555050565b6000610fe2611ea0565b90506000610fee611ecd565b90506000610ffa611efa565b90506000836003016000868152602001908152602001600020600201541461102157600080fd5b3373ffffffffffffffffffffffffffffffffffffffff1683600201600086815260200190815260200160002060009054906101000a900473ffffffffffffffffffffffffffffffffffffffff1673ffffffffffffffffffffffffffffffffffffffff161461108e57600080fd5b60048160000160003373ffffffffffffffffffffffffffffffffffffffff1673ffffffffffffffffffffffffffffffffffffffff1681526020019081526020016000205410156110dd57600080fd5b60048160000160003373ffffffffffffffffffffffffffffffffffffffff1673ffffffffffffffffffffffffffffffffffffffff168152602001908152602001600020600082825461112f9190612320565b9250508190555081600001600081548092919061114b90612354565b9190505550338260010160008460000154815260200190815260200160002060006101000a81548173ffffffffffffffffffffffffffffffffffffffff021916908373ffffffffffffffffffffffffffffffffffffffff1602179055506040518060e00160405280600081526020016001815260200160048152602001600181526020016040518060400160405280600681526020017f48656c6d6574000000000000000000000000000000000000000000000000000081525081526020013373ffffffffffffffffffffffffffffffffffffffff168152602001600015158152508260020160008460000154815260200190815260200160002060008201518160000155602082015181600101556040820151816002015560608201518160030155608082015181600401908161128391906125d7565b5060a08201518160050160006101000a81548173ffffffffffffffffffffffffffffffffffffffff021916908373ffffffffffffffffffffffffffffffffffffffff16021790555060c08201518160050160146101000a81548160ff0219169083151502179055509050508160030160003373ffffffffffffffffffffffffffffffffffffffff1673ffffffffffffffffffffffffffffffffffffffff1681526020019081526020016000208260000154908060018154018082558091505060019003906000526020600020016000909190919091505550505050565b600061136a611ea0565b90506000611376611ecd565b90506000611382611efa565b9050600083600301600086815260200190815260200160002060020154146113a957600080fd5b3373ffffffffffffffffffffffffffffffffffffffff1683600201600086815260200190815260200160002060009054906101000a900473ffffffffffffffffffffffffffffffffffffffff1673ffffffffffffffffffffffffffffffffffffffff161461141657600080fd5b60038160000160003373ffffffffffffffffffffffffffffffffffffffff1673ffffffffffffffffffffffffffffffffffffffff16815260200190815260200160002054101561146557600080fd5b60038160010160003373ffffffffffffffffffffffffffffffffffffffff1673ffffffffffffffffffffffffffffffffffffffff1681526020019081526020016000205410156114b457600080fd5b60038160000160003373ffffffffffffffffffffffffffffffffffffffff1673ffffffffffffffffffffffffffffffffffffffff16815260200190815260200160002060008282546115069190612320565b9250508190555060038160010160003373ffffffffffffffffffffffffffffffffffffffff1673ffffffffffffffffffffffffffffffffffffffff168152602001908152602001600020600082825461155f9190612320565b9250508190555081600001600081548092919061157b90612354565b9190505550338260010160008460000154815260200190815260200160002060006101000a81548173ffffffffffffffffffffffffffffffffffffffff021916908373ffffffffffffffffffffffffffffffffffffffff1602179055506040518060e00160405280600281526020016001815260200160018152602001600181526020016040518060400160405280600681526020017f536869656c64000000000000000000000000000000000000000000000000000081525081526020013373ffffffffffffffffffffffffffffffffffffffff16815260200160001515815250826002016000846000015481526020019081526020016000206000820151816000015560208201518160010155604082015181600201556060820151816003015560808201518160040190816116b391906125d7565b5060a08201518160050160006101000a81548173ffffffffffffffffffffffffffffffffffffffff021916908373ffffffffffffffffffffffffffffffffffffffff16021790555060c08201518160050160146101000a81548160ff0219169083151502179055509050508160030160003373ffffffffffffffffffffffffffffffffffffffff1673ffffffffffffffffffffffffffffffffffffffff1681526020019081526020016000208260000154908060018154018082558091505060019003906000526020600020016000909190919091505550505050565b600061179a611ea0565b905060006117a6611ecd565b905060006117b2611efa565b9050600083600301600086815260200190815260200160002060020154146117d957600080fd5b3373ffffffffffffffffffffffffffffffffffffffff1683600201600086815260200190815260200160002060009054906101000a900473ffffffffffffffffffffffffffffffffffffffff1673ffffffffffffffffffffffffffffffffffffffff161461184657600080fd5b60058160000160003373ffffffffffffffffffffffffffffffffffffffff1673ffffffffffffffffffffffffffffffffffffffff16815260200190815260200160002054101561189557600080fd5b60058160000160003373ffffffffffffffffffffffffffffffffffffffff1673ffffffffffffffffffffffffffffffffffffffff16815260200190815260200160002060008282546118e79190612320565b9250508190555081600001600081548092919061190390612354565b9190505550338260010160008460000154815260200190815260200160002060006101000a81548173ffffffffffffffffffffffffffffffffffffffff021916908373ffffffffffffffffffffffffffffffffffffffff1602179055506040518060e00160405280600281526020016001815260200160018152602001600081526020016040518060400160405280600581526020017f53776f726400000000000000000000000000000000000000000000000000000081525081526020013373ffffffffffffffffffffffffffffffffffffffff1681526020016000151581525082600201600084600001548152602001908152602001600020600082015181600001556020820151816001015560408201518160020155606082015181600301556080820151816004019081611a3b91906125d7565b5060a08201518160050160006101000a81548173ffffffffffffffffffffffffffffffffffffffff021916908373ffffffffffffffffffffffffffffffffffffffff16021790555060c08201518160050160146101000a81548160ff0219169083151502179055509050508160030160003373ffffffffffffffffffffffffffffffffffffffff1673ffffffffffffffffffffffffffffffffffffffff1681526020019081526020016000208260000154908060018154018082558091505060019003906000526020600020016000909190919091505550505050565b6000611b22611ea0565b90506000611b2e611ecd565b90506000611b3a611efa565b905060008360030160008681526020019081526020016000206002015414611b6157600080fd5b3373ffffffffffffffffffffffffffffffffffffffff1683600201600086815260200190815260200160002060009054906101000a900473ffffffffffffffffffffffffffffffffffffffff1673ffffffffffffffffffffffffffffffffffffffff1614611bce57600080fd5b60038160000160003373ffffffffffffffffffffffffffffffffffffffff1673ffffffffffffffffffffffffffffffffffffffff168152602001908152602001600020541015611c1d57600080fd5b60038160000160003373ffffffffffffffffffffffffffffffffffffffff1673ffffffffffffffffffffffffffffffffffffffff1681526020019081526020016000206000828254611c6f9190612320565b92505081905550816000016000815480929190611c8b90612354565b9190505550338260010160008460000154815260200190815260200160002060006101000a81548173ffffffffffffffffffffffffffffffffffffffff021916908373ffffffffffffffffffffffffffffffffffffffff1602179055506040518060e00160405280600181526020016001815260200160018152602001600181526020016040518060400160405280600581526020017f41726d6f7200000000000000000000000000000000000000000000000000000081525081526020013373ffffffffffffffffffffffffffffffffffffffff1681526020016000151581525082600201600084600001548152602001908152602001600020600082015181600001556020820151816001015560408201518160020155606082015181600301556080820151816004019081611dc391906125d7565b5060a08201518160050160006101000a81548173ffffffffffffffffffffffffffffffffffffffff021916908373ffffffffffffffffffffffffffffffffffffffff16021790555060c08201518160050160146101000a81548160ff0219169083151502179055509050508160030160003373ffffffffffffffffffffffffffffffffffffffff1673ffffffffffffffffffffffffffffffffffffffff1681526020019081526020016000208260000154908060018154018082558091505060019003906000526020600020016000909190919091505550505050565b6000807f3cab9a070a0c61cd0ae9d9e9e2c0781e5ca8691bec4087e5a4701d5ac018dd4e90508091505090565b6000807f04526f5583fe9d24ceb7f2a6da4ee61654b9eae62f9918e0e123f84a139b105890508091505090565b6000807f2c89d74504b6ad8d4fbde22bc3474166bac5452a11195897f239d8bebe02d70790508091505090565b6040518060e001604052806000815260200160008152602001600081526020016000815260200160608152602001600073ffffffffffffffffffffffffffffffffffffffff1681526020016000151581525090565b600080fd5b6000819050919050565b611f9481611f81565b8114611f9f57600080fd5b50565b600081359050611fb181611f8b565b92915050565b600060208284031215611fcd57611fcc611f7c565b5b6000611fdb84828501611fa2565b91505092915050565b611fed81611f81565b82525050565b600081519050919050565b600082825260208201905092915050565b60005b8381101561202d578082015181840152602081019050612012565b60008484015250505050565b6000601f19601f8301169050919050565b600061205582611ff3565b61205f8185611ffe565b935061206f81856020860161200f565b61207881612039565b840191505092915050565b600073ffffffffffffffffffffffffffffffffffffffff82169050919050565b60006120ae82612083565b9050919050565b6120be816120a3565b82525050565b60008115159050919050565b6120d9816120c4565b82525050565b600060e0830160008301516120f76000860182611fe4565b50602083015161210a6020860182611fe4565b50604083015161211d6040860182611fe4565b5060608301516121306060860182611fe4565b5060808301518482036080860152612148828261204a565b91505060a083015161215d60a08601826120b5565b5060c083015161217060c08601826120d0565b508091505092915050565b6000602082019050818103600083015261219581846120df565b905092915050565b6121a6816120a3565b81146121b157600080fd5b50565b6000813590506121c38161219d565b92915050565b6000602082840312156121df576121de611f7c565b5b60006121ed848285016121b4565b91505092915050565b600081519050919050565b600082825260208201905092915050565b6000819050602082019050919050565b600061222e8383611fe4565b60208301905092915050565b6000602082019050919050565b6000612252826121f6565b61225c8185612201565b935061226783612212565b8060005b8381101561229857815161227f8882612222565b975061228a8361223a565b92505060018101905061226b565b5085935050505092915050565b600060208201905081810360008301526122bf8184612247565b905092915050565b6122d081611f81565b82525050565b60006020820190506122eb60008301846122c7565b92915050565b7f4e487b7100000000000000000000000000000000000000000000000000000000600052601160045260246000fd5b600061232b82611f81565b915061233683611f81565b925082820390508181111561234e5761234d6122f1565b5b92915050565b600061235f82611f81565b91507fffffffffffffffffffffffffffffffffffffffffffffffffffffffffffffffff8203612391576123906122f1565b5b600182019050919050565b7f4e487b7100000000000000000000000000000000000000000000000000000000600052604160045260246000fd5b7f4e487b7100000000000000000000000000000000000000000000000000000000600052602260045260246000fd5b6000600282049050600182168061241257607f821691505b602082108103612425576124246123cb565b5b50919050565b60008190508160005260206000209050919050565b60006020601f8301049050919050565b600082821b905092915050565b60006008830261248d7fffffffffffffffffffffffffffffffffffffffffffffffffffffffffffffffff82612450565b6124978683612450565b95508019841693508086168417925050509392505050565b6000819050919050565b60006124d46124cf6124ca84611f81565b6124af565b611f81565b9050919050565b6000819050919050565b6124ee836124b9565b6125026124fa826124db565b84845461245d565b825550505050565b600090565b61251761250a565b6125228184846124e5565b505050565b5b818110156125465761253b60008261250f565b600181019050612528565b5050565b601f82111561258b5761255c8161242b565b61256584612440565b81016020851015612574578190505b61258861258085612440565b830182612527565b50505b505050565b600082821c905092915050565b60006125ae60001984600802612590565b1980831691505092915050565b60006125c7838361259d565b9150826002028217905092915050565b6125e082611ff3565b67ffffffffffffffff8111156125f9576125f861239c565b5b61260382546123fa565b61260e82828561254a565b600060209050601f831160018114612641576000841561262f578287015190505b61263985826125bb565b8655506126a1565b601f19841661264f8661242b565b60005b8281101561267757848901518255600182019150602085019450602081019050612652565b868310156126945784890151612690601f89168261259d565b8355505b6001600288020188555050505b505050505050565b60006126b482611f81565b91506126bf83611f81565b92508282019050808211156126d7576126d66122f1565b5b9291505056fea2646970667358221220c92c39b4ed777cb888b1dc9e800a443c0437a6baf6bf740c6916d2ad615b2aa464736f6c63430008110033",
  "linkReferences": {},
  "deployedLinkReferences": {}
}