{
  "_format": "hh-sol-artifact-1",
  "contractName": "ExchangeFacet",
  "sourceName": "contracts/facets/ExchangeFacet.sol",
  "abi": [
    {
      "anonymous": false,
      "inputs": [
        {
          "indexed": true,
          "internalType": "address",
          "name": "_from",
          "type": "address"
        },
        {
          "indexed": true,
          "internalType": "uint256",
          "name": "_playerId",
          "type": "uint256"
        },
        {
          "indexed": false,
          "internalType": "uint256",
          "name": "_price",
          "type": "uint256"
        }
      ],
      "name": "List",
      "type": "event"
    },
    {
      "anonymous": false,
      "inputs": [
        {
          "indexed": true,
          "internalType": "address",
          "name": "_to",
          "type": "address"
        },
        {
          "indexed": false,
          "internalType": "uint256",
          "name": "_id",
          "type": "uint256"
        }
      ],
      "name": "Purchase",
      "type": "event"
    },
    {
      "inputs": [
        {
          "internalType": "uint256",
          "name": "_id",
          "type": "uint256"
        },
        {
          "internalType": "uint256",
          "name": "_price",
          "type": "uint256"
        }
      ],
      "name": "crateListing",
      "outputs": [],
      "stateMutability": "nonpayable",
      "type": "function"
    },
    {
      "inputs": [],
      "name": "getAllListings",
      "outputs": [
        {
          "internalType": "uint256[]",
          "name": "",
          "type": "uint256[]"
        }
      ],
      "stateMutability": "view",
      "type": "function"
    },
    {
      "inputs": [
        {
          "internalType": "uint256",
          "name": "_listingId",
          "type": "uint256"
        }
      ],
      "name": "getLisitng",
      "outputs": [
        {
          "internalType": "address payable",
          "name": "seller",
          "type": "address"
        },
        {
          "internalType": "uint256",
          "name": "playerId",
          "type": "uint256"
        },
        {
          "internalType": "uint256",
          "name": "price",
          "type": "uint256"
        }
      ],
      "stateMutability": "view",
      "type": "function"
    },
    {
      "inputs": [
        {
          "internalType": "address",
          "name": "_address",
          "type": "address"
        }
      ],
      "name": "getListings",
      "outputs": [
        {
          "internalType": "uint256[]",
          "name": "",
          "type": "uint256[]"
        }
      ],
      "stateMutability": "view",
      "type": "function"
    },
    {
      "inputs": [
        {
          "internalType": "uint256",
          "name": "_listingId",
          "type": "uint256"
        }
      ],
      "name": "purchasePlayer",
      "outputs": [],
      "stateMutability": "nonpayable",
      "type": "function"
    }
  ],
  "bytecode": "0x608060405234801561001057600080fd5b5061113f806100206000396000f3fe608060405234801561001057600080fd5b50600436106100575760003560e01c8063075881d61461005c5780638cd7f4c414610078578063ae73ccec14610094578063cde8cd6e146100b2578063d9824ccd146100e2575b600080fd5b61007660048036038101906100719190610c60565b610114565b005b610092600480360381019061008d9190610c8d565b61016e565b005b61009c6101cb565b6040516100a99190610d8b565b60405180910390f35b6100cc60048036038101906100c79190610e0b565b6101da565b6040516100d99190610d8b565b60405180910390f35b6100fc60048036038101906100f79190610c60565b6101ec565b60405161010b93929190610e68565b60405180910390f35b61011d81610207565b3373ffffffffffffffffffffffffffffffffffffffff167f2499a5330ab0979cc612135e7883ebc3cd5c9f7a8508f042540c34723348f632826040516101639190610e9f565b60405180910390a250565b610178828261060c565b813373ffffffffffffffffffffffffffffffffffffffff167f1518ffac149698f404e82117efa8b67d99c365490eefe4e0f91856a93ca8d9c1836040516101bf9190610e9f565b60405180910390a35050565b60606101d56109cb565b905090565b60606101e582610a32565b9050919050565b60008060006101fa84610ad8565b9250925092509193909250565b6000610211610b9e565b9050600061021d610bcb565b90506000610229610bf8565b9050816000016000858152602001908152602001600020600201548160000160003373ffffffffffffffffffffffffffffffffffffffff1673ffffffffffffffffffffffffffffffffffffffff16815260200190815260200160002054101561029157600080fd5b3383600201600084600001600088815260200190815260200160002060010154815260200190815260200160002060006101000a81548173ffffffffffffffffffffffffffffffffffffffff021916908373ffffffffffffffffffffffffffffffffffffffff1602179055508260070160003373ffffffffffffffffffffffffffffffffffffffff1673ffffffffffffffffffffffffffffffffffffffff168152602001908152602001600020826000016000868152602001908152602001600020600101549080600181540180825580915050600190039060005260206000200160009091909190915055816000016000858152602001908152602001600020600201548160000160003373ffffffffffffffffffffffffffffffffffffffff1673ffffffffffffffffffffffffffffffffffffffff16815260200190815260200160002060008282546103e69190610ee9565b925050819055508160000160008581526020019081526020016000206002015481600001600084600001600088815260200190815260200160002060000160009054906101000a900473ffffffffffffffffffffffffffffffffffffffff1673ffffffffffffffffffffffffffffffffffffffff1673ffffffffffffffffffffffffffffffffffffffff168152602001908152602001600020600082825461048e9190610f1d565b925050819055506000826000016000868152602001908152602001600020600301549050600083600201600185600201805490506104cc9190610ee9565b815481106104dd576104dc610f51565b5b906000526020600020015490508084600201838154811061050157610500610f51565b5b90600052602060002001819055508184600001600083815260200190815260200160002060030181905550836002018054806105405761053f610f80565b5b60019003818190600052602060002001600090559055836000016000878152602001908152602001600020600080820160006101000a81549073ffffffffffffffffffffffffffffffffffffffff021916905560018201600090556002820160009055600382016000905550508460040160003373ffffffffffffffffffffffffffffffffffffffff1673ffffffffffffffffffffffffffffffffffffffff16815260200190815260200160002060008154809291906105ff90610faf565b9190505550505050505050565b6000610616610b9e565b90506000610622610bcb565b90503373ffffffffffffffffffffffffffffffffffffffff1682600201600086815260200190815260200160002060009054906101000a900473ffffffffffffffffffffffffffffffffffffffff1673ffffffffffffffffffffffffffffffffffffffff16146106c7576040517f08c379a00000000000000000000000000000000000000000000000000000000081526004016106be90611054565b60405180910390fd5b60008260030160008681526020019081526020016000206002015414610722576040517f08c379a0000000000000000000000000000000000000000000000000000000008152600401610719906110c0565b60405180910390fd5b60405180608001604052803373ffffffffffffffffffffffffffffffffffffffff168152602001858152602001848152602001826002018054905081525081600001600086815260200190815260200160002060008201518160000160006101000a81548173ffffffffffffffffffffffffffffffffffffffff021916908373ffffffffffffffffffffffffffffffffffffffff1602179055506020820151816001015560408201518160020155606082015181600301559050508060020184908060018154018082558091505060019003906000526020600020016000909190919091505560008260040160003373ffffffffffffffffffffffffffffffffffffffff1673ffffffffffffffffffffffffffffffffffffffff16815260200190815260200160002054905060005b8181101561096c57858460070160003373ffffffffffffffffffffffffffffffffffffffff1673ffffffffffffffffffffffffffffffffffffffff16815260200190815260200160002082815481106108ad576108ac610f51565b5b90600052602060002001540361095b5783600201600087815260200190815260200160002060006101000a81549073ffffffffffffffffffffffffffffffffffffffff02191690558360070160003373ffffffffffffffffffffffffffffffffffffffff1673ffffffffffffffffffffffffffffffffffffffff168152602001908152602001600020818154811061094857610947610f51565b5b906000526020600020016000905561096c565b8061096590610faf565b9050610851565b508260040160003373ffffffffffffffffffffffffffffffffffffffff1673ffffffffffffffffffffffffffffffffffffffff16815260200190815260200160002060008154809291906109bf906110e0565b91905055505050505050565b606060006109d7610bcb565b905080600201805480602002602001604051908101604052809291908181526020018280548015610a2757602002820191906000526020600020905b815481526020019060010190808311610a13575b505050505091505090565b60606000610a3e610bcb565b90508060010160008473ffffffffffffffffffffffffffffffffffffffff1673ffffffffffffffffffffffffffffffffffffffff168152602001908152602001600020805480602002602001604051908101604052809291908181526020018280548015610acb57602002820191906000526020600020905b815481526020019060010190808311610ab7575b5050505050915050919050565b600080600080610ae6610bcb565b905060008160000160008781526020019081526020016000206040518060800160405290816000820160009054906101000a900473ffffffffffffffffffffffffffffffffffffffff1673ffffffffffffffffffffffffffffffffffffffff1673ffffffffffffffffffffffffffffffffffffffff1681526020016001820154815260200160028201548152602001600382015481525050905080600001518160200151826040015194509450945050509193909250565b6000807f3cab9a070a0c61cd0ae9d9e9e2c0781e5ca8691bec4087e5a4701d5ac018dd4e90508091505090565b6000807f2eb8ba5728fd803ebdfe8040b9777003aec1ebcf751c83be5e7b1ed4e9824e6890508091505090565b6000807f2c89d74504b6ad8d4fbde22bc3474166bac5452a11195897f239d8bebe02d70790508091505090565b600080fd5b6000819050919050565b610c3d81610c2a565b8114610c4857600080fd5b50565b600081359050610c5a81610c34565b92915050565b600060208284031215610c7657610c75610c25565b5b6000610c8484828501610c4b565b91505092915050565b60008060408385031215610ca457610ca3610c25565b5b6000610cb285828601610c4b565b9250506020610cc385828601610c4b565b9150509250929050565b600081519050919050565b600082825260208201905092915050565b6000819050602082019050919050565b610d0281610c2a565b82525050565b6000610d148383610cf9565b60208301905092915050565b6000602082019050919050565b6000610d3882610ccd565b610d428185610cd8565b9350610d4d83610ce9565b8060005b83811015610d7e578151610d658882610d08565b9750610d7083610d20565b925050600181019050610d51565b5085935050505092915050565b60006020820190508181036000830152610da58184610d2d565b905092915050565b600073ffffffffffffffffffffffffffffffffffffffff82169050919050565b6000610dd882610dad565b9050919050565b610de881610dcd565b8114610df357600080fd5b50565b600081359050610e0581610ddf565b92915050565b600060208284031215610e2157610e20610c25565b5b6000610e2f84828501610df6565b91505092915050565b6000610e4382610dad565b9050919050565b610e5381610e38565b82525050565b610e6281610c2a565b82525050565b6000606082019050610e7d6000830186610e4a565b610e8a6020830185610e59565b610e976040830184610e59565b949350505050565b6000602082019050610eb46000830184610e59565b92915050565b7f4e487b7100000000000000000000000000000000000000000000000000000000600052601160045260246000fd5b6000610ef482610c2a565b9150610eff83610c2a565b9250828203905081811115610f1757610f16610eba565b5b92915050565b6000610f2882610c2a565b9150610f3383610c2a565b9250828201905080821115610f4b57610f4a610eba565b5b92915050565b7f4e487b7100000000000000000000000000000000000000000000000000000000600052603260045260246000fd5b7f4e487b7100000000000000000000000000000000000000000000000000000000600052603160045260246000fd5b6000610fba82610c2a565b91507fffffffffffffffffffffffffffffffffffffffffffffffffffffffffffffffff8203610fec57610feb610eba565b5b600182019050919050565b600082825260208201905092915050565b7f4e6f74206f776e6572206f6620706c6179657200000000000000000000000000600082015250565b600061103e601383610ff7565b915061104982611008565b602082019050919050565b6000602082019050818103600083015261106d81611031565b9050919050565b7f506c61796572206973206e6f742069646c650000000000000000000000000000600082015250565b60006110aa601283610ff7565b91506110b582611074565b602082019050919050565b600060208201905081810360008301526110d98161109d565b9050919050565b60006110eb82610c2a565b9150600082036110fe576110fd610eba565b5b60018203905091905056fea264697066735822122041ab8b5092a937120124652a34884ac0f4f01d8abf858c695e31300f36a2b87964736f6c63430008110033",
  "linkReferences": {},
  "deployedLinkReferences": {}
}