{
  "_format": "hh-sol-artifact-1",
  "contractName": "ExchangeFacet",
  "sourceName": "contracts/facets/ExchangeFacet.sol",
  "abi": [
    {
      "anonymous": false,
      "inputs": [
        {
          "indexed": true,
          "internalType": "address",
          "name": "_from",
          "type": "address"
        },
        {
          "indexed": true,
          "internalType": "uint256",
          "name": "_playerId",
          "type": "uint256"
        },
        {
          "indexed": false,
          "internalType": "uint256",
          "name": "_price",
          "type": "uint256"
        }
      ],
      "name": "List",
      "type": "event"
    },
    {
      "anonymous": false,
      "inputs": [
        {
          "indexed": true,
          "internalType": "address",
          "name": "_to",
          "type": "address"
        },
        {
          "indexed": false,
          "internalType": "uint256",
          "name": "_id",
          "type": "uint256"
        }
      ],
      "name": "Purchase",
      "type": "event"
    },
    {
      "inputs": [
        {
          "internalType": "uint256",
          "name": "_id",
          "type": "uint256"
        },
        {
          "internalType": "uint256",
          "name": "_price",
          "type": "uint256"
        }
      ],
      "name": "crateListing",
      "outputs": [],
      "stateMutability": "nonpayable",
      "type": "function"
    },
    {
      "inputs": [],
      "name": "getAllListings",
      "outputs": [
        {
          "internalType": "uint256[]",
          "name": "",
          "type": "uint256[]"
        }
      ],
      "stateMutability": "view",
      "type": "function"
    },
    {
      "inputs": [
        {
          "internalType": "uint256",
          "name": "_listingId",
          "type": "uint256"
        }
      ],
      "name": "getLisitng",
      "outputs": [
        {
          "internalType": "address payable",
          "name": "seller",
          "type": "address"
        },
        {
          "internalType": "uint256",
          "name": "playerId",
          "type": "uint256"
        },
        {
          "internalType": "uint256",
          "name": "price",
          "type": "uint256"
        }
      ],
      "stateMutability": "view",
      "type": "function"
    },
    {
      "inputs": [
        {
          "internalType": "address",
          "name": "_address",
          "type": "address"
        }
      ],
      "name": "getListings",
      "outputs": [
        {
          "internalType": "uint256[]",
          "name": "",
          "type": "uint256[]"
        }
      ],
      "stateMutability": "view",
      "type": "function"
    },
    {
      "inputs": [
        {
          "internalType": "uint256",
          "name": "_listingId",
          "type": "uint256"
        }
      ],
      "name": "purchasePlayer",
      "outputs": [],
      "stateMutability": "nonpayable",
      "type": "function"
    }
  ],
  "bytecode": "0x608060405234801561001057600080fd5b50611256806100206000396000f3fe608060405234801561001057600080fd5b50600436106100575760003560e01c8063075881d61461005c5780638cd7f4c414610078578063ae73ccec14610094578063cde8cd6e146100b2578063d9824ccd146100e2575b600080fd5b61007660048036038101906100719190610d77565b610114565b005b610092600480360381019061008d9190610da4565b61016e565b005b61009c6101cb565b6040516100a99190610ea2565b60405180910390f35b6100cc60048036038101906100c79190610f22565b6101da565b6040516100d99190610ea2565b60405180910390f35b6100fc60048036038101906100f79190610d77565b6101ec565b60405161010b93929190610f7f565b60405180910390f35b61011d81610207565b3373ffffffffffffffffffffffffffffffffffffffff167f2499a5330ab0979cc612135e7883ebc3cd5c9f7a8508f042540c34723348f632826040516101639190610fb6565b60405180910390a250565b610178828261060c565b813373ffffffffffffffffffffffffffffffffffffffff167f1518ffac149698f404e82117efa8b67d99c365490eefe4e0f91856a93ca8d9c1836040516101bf9190610fb6565b60405180910390a35050565b60606101d5610ae2565b905090565b60606101e582610b49565b9050919050565b60008060006101fa84610bef565b9250925092509193909250565b6000610211610cb5565b9050600061021d610ce2565b90506000610229610d0f565b9050816000016000858152602001908152602001600020600201548160000160003373ffffffffffffffffffffffffffffffffffffffff1673ffffffffffffffffffffffffffffffffffffffff16815260200190815260200160002054101561029157600080fd5b3383600201600084600001600088815260200190815260200160002060010154815260200190815260200160002060006101000a81548173ffffffffffffffffffffffffffffffffffffffff021916908373ffffffffffffffffffffffffffffffffffffffff1602179055508260070160003373ffffffffffffffffffffffffffffffffffffffff1673ffffffffffffffffffffffffffffffffffffffff168152602001908152602001600020826000016000868152602001908152602001600020600101549080600181540180825580915050600190039060005260206000200160009091909190915055816000016000858152602001908152602001600020600201548160000160003373ffffffffffffffffffffffffffffffffffffffff1673ffffffffffffffffffffffffffffffffffffffff16815260200190815260200160002060008282546103e69190611000565b925050819055508160000160008581526020019081526020016000206002015481600001600084600001600088815260200190815260200160002060000160009054906101000a900473ffffffffffffffffffffffffffffffffffffffff1673ffffffffffffffffffffffffffffffffffffffff1673ffffffffffffffffffffffffffffffffffffffff168152602001908152602001600020600082825461048e9190611034565b925050819055506000826000016000868152602001908152602001600020600301549050600083600201600185600201805490506104cc9190611000565b815481106104dd576104dc611068565b5b906000526020600020015490508084600201838154811061050157610500611068565b5b90600052602060002001819055508184600001600083815260200190815260200160002060030181905550836002018054806105405761053f611097565b5b60019003818190600052602060002001600090559055836000016000878152602001908152602001600020600080820160006101000a81549073ffffffffffffffffffffffffffffffffffffffff021916905560018201600090556002820160009055600382016000905550508460040160003373ffffffffffffffffffffffffffffffffffffffff1673ffffffffffffffffffffffffffffffffffffffff16815260200190815260200160002060008154809291906105ff906110c6565b9190505550505050505050565b6000610616610cb5565b90506000610622610ce2565b90503373ffffffffffffffffffffffffffffffffffffffff1682600201600086815260200190815260200160002060009054906101000a900473ffffffffffffffffffffffffffffffffffffffff1673ffffffffffffffffffffffffffffffffffffffff16146106c7576040517f08c379a00000000000000000000000000000000000000000000000000000000081526004016106be9061116b565b60405180910390fd5b60008260030160008681526020019081526020016000206002015414610722576040517f08c379a0000000000000000000000000000000000000000000000000000000008152600401610719906111d7565b60405180910390fd5b60405180608001604052803373ffffffffffffffffffffffffffffffffffffffff168152602001858152602001848152602001826002018054905081525081600001600086815260200190815260200160002060008201518160000160006101000a81548173ffffffffffffffffffffffffffffffffffffffff021916908373ffffffffffffffffffffffffffffffffffffffff1602179055506020820151816001015560408201518160020155606082015181600301559050508060020184908060018154018082558091505060019003906000526020600020016000909190919091505560008260040160003373ffffffffffffffffffffffffffffffffffffffff1673ffffffffffffffffffffffffffffffffffffffff16815260200190815260200160002054905060005b81811015610a8357858460070160003373ffffffffffffffffffffffffffffffffffffffff1673ffffffffffffffffffffffffffffffffffffffff16815260200190815260200160002082815481106108ad576108ac611068565b5b906000526020600020015403610a705783600201600087815260200190815260200160002060006101000a81549073ffffffffffffffffffffffffffffffffffffffff02191690558360070160003373ffffffffffffffffffffffffffffffffffffffff1673ffffffffffffffffffffffffffffffffffffffff16815260200190815260200160002060018560070160003373ffffffffffffffffffffffffffffffffffffffff1673ffffffffffffffffffffffffffffffffffffffff168152602001908152602001600020805490506109879190611000565b8154811061099857610997611068565b5b90600052602060002001548460070160003373ffffffffffffffffffffffffffffffffffffffff1673ffffffffffffffffffffffffffffffffffffffff16815260200190815260200160002082815481106109f6576109f5611068565b5b90600052602060002001819055508360070160003373ffffffffffffffffffffffffffffffffffffffff1673ffffffffffffffffffffffffffffffffffffffff168152602001908152602001600020805480610a5557610a54611097565b5b60019003818190600052602060002001600090559055610a83565b8080610a7b906110c6565b915050610851565b508260040160003373ffffffffffffffffffffffffffffffffffffffff1673ffffffffffffffffffffffffffffffffffffffff1681526020019081526020016000206000815480929190610ad6906111f7565b91905055505050505050565b60606000610aee610ce2565b905080600201805480602002602001604051908101604052809291908181526020018280548015610b3e57602002820191906000526020600020905b815481526020019060010190808311610b2a575b505050505091505090565b60606000610b55610ce2565b90508060010160008473ffffffffffffffffffffffffffffffffffffffff1673ffffffffffffffffffffffffffffffffffffffff168152602001908152602001600020805480602002602001604051908101604052809291908181526020018280548015610be257602002820191906000526020600020905b815481526020019060010190808311610bce575b5050505050915050919050565b600080600080610bfd610ce2565b905060008160000160008781526020019081526020016000206040518060800160405290816000820160009054906101000a900473ffffffffffffffffffffffffffffffffffffffff1673ffffffffffffffffffffffffffffffffffffffff1673ffffffffffffffffffffffffffffffffffffffff1681526020016001820154815260200160028201548152602001600382015481525050905080600001518160200151826040015194509450945050509193909250565b6000807f3cab9a070a0c61cd0ae9d9e9e2c0781e5ca8691bec4087e5a4701d5ac018dd4e90508091505090565b6000807f2eb8ba5728fd803ebdfe8040b9777003aec1ebcf751c83be5e7b1ed4e9824e6890508091505090565b6000807f2c89d74504b6ad8d4fbde22bc3474166bac5452a11195897f239d8bebe02d70790508091505090565b600080fd5b6000819050919050565b610d5481610d41565b8114610d5f57600080fd5b50565b600081359050610d7181610d4b565b92915050565b600060208284031215610d8d57610d8c610d3c565b5b6000610d9b84828501610d62565b91505092915050565b60008060408385031215610dbb57610dba610d3c565b5b6000610dc985828601610d62565b9250506020610dda85828601610d62565b9150509250929050565b600081519050919050565b600082825260208201905092915050565b6000819050602082019050919050565b610e1981610d41565b82525050565b6000610e2b8383610e10565b60208301905092915050565b6000602082019050919050565b6000610e4f82610de4565b610e598185610def565b9350610e6483610e00565b8060005b83811015610e95578151610e7c8882610e1f565b9750610e8783610e37565b925050600181019050610e68565b5085935050505092915050565b60006020820190508181036000830152610ebc8184610e44565b905092915050565b600073ffffffffffffffffffffffffffffffffffffffff82169050919050565b6000610eef82610ec4565b9050919050565b610eff81610ee4565b8114610f0a57600080fd5b50565b600081359050610f1c81610ef6565b92915050565b600060208284031215610f3857610f37610d3c565b5b6000610f4684828501610f0d565b91505092915050565b6000610f5a82610ec4565b9050919050565b610f6a81610f4f565b82525050565b610f7981610d41565b82525050565b6000606082019050610f946000830186610f61565b610fa16020830185610f70565b610fae6040830184610f70565b949350505050565b6000602082019050610fcb6000830184610f70565b92915050565b7f4e487b7100000000000000000000000000000000000000000000000000000000600052601160045260246000fd5b600061100b82610d41565b915061101683610d41565b925082820390508181111561102e5761102d610fd1565b5b92915050565b600061103f82610d41565b915061104a83610d41565b925082820190508082111561106257611061610fd1565b5b92915050565b7f4e487b7100000000000000000000000000000000000000000000000000000000600052603260045260246000fd5b7f4e487b7100000000000000000000000000000000000000000000000000000000600052603160045260246000fd5b60006110d182610d41565b91507fffffffffffffffffffffffffffffffffffffffffffffffffffffffffffffffff820361110357611102610fd1565b5b600182019050919050565b600082825260208201905092915050565b7f4e6f74206f776e6572206f6620706c6179657200000000000000000000000000600082015250565b600061115560138361110e565b91506111608261111f565b602082019050919050565b6000602082019050818103600083015261118481611148565b9050919050565b7f506c61796572206973206e6f742069646c650000000000000000000000000000600082015250565b60006111c160128361110e565b91506111cc8261118b565b602082019050919050565b600060208201905081810360008301526111f0816111b4565b9050919050565b600061120282610d41565b91506000820361121557611214610fd1565b5b60018203905091905056fea26469706673582212206246229e5388c56b42e4c922f12c7978dcf5f18b59c5c6c056bf3e2da531ae4264736f6c63430008110033",
  "linkReferences": {},
  "deployedLinkReferences": {}
}