{
  "_format": "hh-sol-artifact-1",
  "contractName": "ExchangeFacet",
  "sourceName": "contracts/facets/ExchangeFacet.sol",
  "abi": [
    {
      "anonymous": false,
      "inputs": [
        {
          "indexed": true,
          "internalType": "address",
          "name": "_from",
          "type": "address"
        },
        {
          "indexed": true,
          "internalType": "uint256",
          "name": "_playerId",
          "type": "uint256"
        },
        {
          "indexed": false,
          "internalType": "uint256",
          "name": "_price",
          "type": "uint256"
        }
      ],
      "name": "List",
      "type": "event"
    },
    {
      "anonymous": false,
      "inputs": [
        {
          "indexed": true,
          "internalType": "address",
          "name": "_to",
          "type": "address"
        },
        {
          "indexed": false,
          "internalType": "uint256",
          "name": "_id",
          "type": "uint256"
        }
      ],
      "name": "Purchase",
      "type": "event"
    },
    {
      "inputs": [
        {
          "internalType": "address",
          "name": "_address",
          "type": "address"
        }
      ],
      "name": "_getListing",
      "outputs": [],
      "stateMutability": "view",
      "type": "function"
    },
    {
      "inputs": [
        {
          "internalType": "uint256",
          "name": "_id",
          "type": "uint256"
        },
        {
          "internalType": "uint256",
          "name": "_price",
          "type": "uint256"
        }
      ],
      "name": "crateListing",
      "outputs": [],
      "stateMutability": "nonpayable",
      "type": "function"
    },
    {
      "inputs": [
        {
          "internalType": "uint256",
          "name": "_listingId",
          "type": "uint256"
        }
      ],
      "name": "purchasePlayer",
      "outputs": [],
      "stateMutability": "nonpayable",
      "type": "function"
    }
  ],
  "bytecode": "0x608060405234801561001057600080fd5b50610b64806100206000396000f3fe608060405234801561001057600080fd5b50600436106100415760003560e01c8063075881d6146100465780638cd7f4c414610062578063d5d28d531461007e575b600080fd5b610060600480360381019061005b91906108d5565b61009a565b005b61007c60048036038101906100779190610902565b6100f4565b005b610098600480360381019061009391906109a0565b610151565b005b6100a38161015e565b3373ffffffffffffffffffffffffffffffffffffffff167f2499a5330ab0979cc612135e7883ebc3cd5c9f7a8508f042540c34723348f632826040516100e991906109dc565b60405180910390a250565b6100fe8282610498565b813373ffffffffffffffffffffffffffffffffffffffff167f1518ffac149698f404e82117efa8b67d99c365490eefe4e0f91856a93ca8d9c18360405161014591906109dc565b60405180910390a35050565b61015a8161076d565b5050565b6000610168610813565b90506000610174610840565b9050600061018061086d565b9050816000016000858152602001908152602001600020600201548160000160003373ffffffffffffffffffffffffffffffffffffffff1673ffffffffffffffffffffffffffffffffffffffff1681526020019081526020016000205410156101e857600080fd5b3383600201600084600001600088815260200190815260200160002060010154815260200190815260200160002060006101000a81548173ffffffffffffffffffffffffffffffffffffffff021916908373ffffffffffffffffffffffffffffffffffffffff1602179055508260070160003373ffffffffffffffffffffffffffffffffffffffff1673ffffffffffffffffffffffffffffffffffffffff168152602001908152602001600020826000016000868152602001908152602001600020600101549080600181540180825580915050600190039060005260206000200160009091909190915055816000016000858152602001908152602001600020600201548160000160003373ffffffffffffffffffffffffffffffffffffffff1673ffffffffffffffffffffffffffffffffffffffff168152602001908152602001600020600082825461033d9190610a26565b925050819055508160000160008581526020019081526020016000206002015481600001600084600001600088815260200190815260200160002060000160009054906101000a900473ffffffffffffffffffffffffffffffffffffffff1673ffffffffffffffffffffffffffffffffffffffff1673ffffffffffffffffffffffffffffffffffffffff16815260200190815260200160002060008282546103e59190610a5a565b92505081905550816000016000858152602001908152602001600020600080820160006101000a81549073ffffffffffffffffffffffffffffffffffffffff02191690556001820160009055600282016000905550508260040160003373ffffffffffffffffffffffffffffffffffffffff1673ffffffffffffffffffffffffffffffffffffffff168152602001908152602001600020600081548092919061048d90610a8e565b919050555050505050565b60006104a2610813565b905060006104ae610840565b90503373ffffffffffffffffffffffffffffffffffffffff1682600201600086815260200190815260200160002060009054906101000a900473ffffffffffffffffffffffffffffffffffffffff1673ffffffffffffffffffffffffffffffffffffffff161461051d57600080fd5b6000826003016000868152602001908152602001600020600201541461054257600080fd5b60405180606001604052803373ffffffffffffffffffffffffffffffffffffffff1681526020018581526020018481525081600001600086815260200190815260200160002060008201518160000160006101000a81548173ffffffffffffffffffffffffffffffffffffffff021916908373ffffffffffffffffffffffffffffffffffffffff160217905550602082015181600101556040820151816002015590505060005b8260040160003373ffffffffffffffffffffffffffffffffffffffff1673ffffffffffffffffffffffffffffffffffffffff1681526020019081526020016000205481101561070f57848360070160003373ffffffffffffffffffffffffffffffffffffffff1673ffffffffffffffffffffffffffffffffffffffff168152602001908152602001600020828154811061068657610685610ad6565b5b9060005260206000200154036106fc578260070160003373ffffffffffffffffffffffffffffffffffffffff1673ffffffffffffffffffffffffffffffffffffffff16815260200190815260200160002081815481106106e9576106e8610ad6565b5b906000526020600020016000905561070f565b808061070790610a8e565b9150506105e9565b508160040160003373ffffffffffffffffffffffffffffffffffffffff1673ffffffffffffffffffffffffffffffffffffffff168152602001908152602001600020600081548092919061076290610b05565b919050555050505050565b60606000610779610840565b90508060010160008473ffffffffffffffffffffffffffffffffffffffff1673ffffffffffffffffffffffffffffffffffffffff16815260200190815260200160002080548060200260200160405190810160405280929190818152602001828054801561080657602002820191906000526020600020905b8154815260200190600101908083116107f2575b5050505050915050919050565b6000807f3cab9a070a0c61cd0ae9d9e9e2c0781e5ca8691bec4087e5a4701d5ac018dd4e90508091505090565b6000807f2eb8ba5728fd803ebdfe8040b9777003aec1ebcf751c83be5e7b1ed4e9824e6890508091505090565b6000807f2c89d74504b6ad8d4fbde22bc3474166bac5452a11195897f239d8bebe02d70790508091505090565b600080fd5b6000819050919050565b6108b28161089f565b81146108bd57600080fd5b50565b6000813590506108cf816108a9565b92915050565b6000602082840312156108eb576108ea61089a565b5b60006108f9848285016108c0565b91505092915050565b600080604083850312156109195761091861089a565b5b6000610927858286016108c0565b9250506020610938858286016108c0565b9150509250929050565b600073ffffffffffffffffffffffffffffffffffffffff82169050919050565b600061096d82610942565b9050919050565b61097d81610962565b811461098857600080fd5b50565b60008135905061099a81610974565b92915050565b6000602082840312156109b6576109b561089a565b5b60006109c48482850161098b565b91505092915050565b6109d68161089f565b82525050565b60006020820190506109f160008301846109cd565b92915050565b7f4e487b7100000000000000000000000000000000000000000000000000000000600052601160045260246000fd5b6000610a318261089f565b9150610a3c8361089f565b9250828203905081811115610a5457610a536109f7565b5b92915050565b6000610a658261089f565b9150610a708361089f565b9250828201905080821115610a8857610a876109f7565b5b92915050565b6000610a998261089f565b91507fffffffffffffffffffffffffffffffffffffffffffffffffffffffffffffffff8203610acb57610aca6109f7565b5b600182019050919050565b7f4e487b7100000000000000000000000000000000000000000000000000000000600052603260045260246000fd5b6000610b108261089f565b915060008203610b2357610b226109f7565b5b60018203905091905056fea2646970667358221220f4fa191c0adc28c1778d0602b6a0c8d4794cbfb49d4e53108c50dc8a76f4ada464736f6c63430008110033",
  "linkReferences": {},
  "deployedLinkReferences": {}
}