{
  "_format": "hh-sol-artifact-1",
  "contractName": "TreasureDropFacet",
  "sourceName": "contracts/facets/TreasureDropFacet.sol",
  "abi": [
    {
      "anonymous": false,
      "inputs": [
        {
          "indexed": true,
          "internalType": "uint256",
          "name": "_playerId",
          "type": "uint256"
        },
        {
          "indexed": true,
          "internalType": "uint256",
          "name": "_treasureDropId",
          "type": "uint256"
        }
      ],
      "name": "ClaimTreasure",
      "type": "event"
    },
    {
      "inputs": [
        {
          "internalType": "uint256",
          "name": "_treasureDropId",
          "type": "uint256"
        },
        {
          "internalType": "bytes32[]",
          "name": "_proof",
          "type": "bytes32[]"
        },
        {
          "internalType": "uint256",
          "name": "_playerId",
          "type": "uint256"
        }
      ],
      "name": "claimTreasureDropKyberShard",
      "outputs": [],
      "stateMutability": "nonpayable",
      "type": "function"
    },
    {
      "inputs": [
        {
          "internalType": "uint256",
          "name": "_treasureDropId",
          "type": "uint256"
        },
        {
          "internalType": "address",
          "name": "_address",
          "type": "address"
        }
      ],
      "name": "claimedStatus",
      "outputs": [
        {
          "internalType": "bool",
          "name": "",
          "type": "bool"
        }
      ],
      "stateMutability": "view",
      "type": "function"
    },
    {
      "inputs": [
        {
          "internalType": "bytes32",
          "name": "_merkleRoot",
          "type": "bytes32"
        },
        {
          "internalType": "string",
          "name": "_name",
          "type": "string"
        }
      ],
      "name": "createTreasureDrop",
      "outputs": [],
      "stateMutability": "nonpayable",
      "type": "function"
    },
    {
      "inputs": [
        {
          "internalType": "bytes32[]",
          "name": "_proof",
          "type": "bytes32[]"
        },
        {
          "internalType": "uint256",
          "name": "_treasureDropId",
          "type": "uint256"
        },
        {
          "internalType": "address",
          "name": "_address",
          "type": "address"
        }
      ],
      "name": "verifyTreasureDropWhitelist",
      "outputs": [
        {
          "internalType": "bool",
          "name": "",
          "type": "bool"
        }
      ],
      "stateMutability": "view",
      "type": "function"
    }
  ],
  "bytecode": "0x608060405234801561001057600080fd5b5061119f806100206000396000f3fe608060405234801561001057600080fd5b506004361061004c5760003560e01c80632dfc7abe1461005157806387dfb1c414610081578063a9a6c582146100b1578063ee50fa2b146100cd575b600080fd5b61006b600480360381019061006691906108d2565b6100e9565b604051610078919061092d565b60405180910390f35b61009b600480360381019061009691906109ad565b6100fd565b6040516100a8919061092d565b60405180910390f35b6100cb60048036038101906100c69190610b98565b610115565b005b6100e760048036038101906100e29190610bf4565b610123565b005b60006100f58383610163565b905092915050565b600061010b858585856101d9565b9050949350505050565b61011f8282610281565b5050565b61012f84848484610311565b83817fc25dedf3116a51a3291cf9dd17f0b19191fe21e170fda69010dcb916cccb6b3360405160405180910390a350505050565b60008061016e6106f4565b905080600201600085815260200190815260200160002060008473ffffffffffffffffffffffffffffffffffffffff1673ffffffffffffffffffffffffffffffffffffffff16815260200190815260200160002060009054906101000a900460ff1691505092915050565b6000806101e46106f4565b90506000836040516020016101f99190610cb0565b604051602081830303815290604052805190602001209050610275878780806020026020016040519081016040528093929190818152602001838360200280828437600081840152601f19601f820116905080830192505050505050508360010160008881526020019081526020016000206001015483610721565b92505050949350505050565b600061028b6106f4565b90508060000160008154809291906102a290610cfa565b91905055506040518060600160405280826000015481526020018481526020018381525081600101600083600001548152602001908152602001600020600082015181600001556020820151816001015560408201518160020190816103089190610f59565b50905050505050565b600061031b6106f4565b90506000610327610738565b90506000610333610765565b905082600201600088815260200190815260200160002060003373ffffffffffffffffffffffffffffffffffffffff1673ffffffffffffffffffffffffffffffffffffffff16815260200190815260200160002060009054906101000a900460ff16156103d5576040517f08c379a00000000000000000000000000000000000000000000000000000000081526004016103cc906110ae565b60405180910390fd5b61045f868680806020026020016040519081016040528093929190818152602001838360200280828437600081840152601f19601f820116905080830192505050505050508460010160008a815260200190815260200160002060010154336040516020016104449190610cb0565b60405160208183030381529060405280519060200120610721565b61049e576040517f08c379a00000000000000000000000000000000000000000000000000000000081526004016104959061111a565b60405180910390fd5b3373ffffffffffffffffffffffffffffffffffffffff1681600201600086815260200190815260200160002060009054906101000a900473ffffffffffffffffffffffffffffffffffffffff1673ffffffffffffffffffffffffffffffffffffffff161461050b57600080fd5b600183600201600089815260200190815260200160002060003373ffffffffffffffffffffffffffffffffffffffff1673ffffffffffffffffffffffffffffffffffffffff16815260200190815260200160002060006101000a81548160ff02191690831515021790555081600001600081548092919061058b90610cfa565b9190505550604051806080016040528083600001548152602001600181526020018360030160008781526020019081526020016000208054905081526020016040518060400160405280600a81526020017f4b7962657253686172640000000000000000000000000000000000000000000081525081525082600201600084600001548152602001908152602001600020600082015181600001556020820151816001015560408201518160020155606082015181600301908161064f9190610f59565b5090505081600301600085815260200190815260200160002082600001549080600181540180825580915050600190039060005260206000200160009091909190915055338260010160008460000154815260200190815260200160002060006101000a81548173ffffffffffffffffffffffffffffffffffffffff021916908373ffffffffffffffffffffffffffffffffffffffff16021790555050505050505050565b6000807f491cff3d9ac7610c4deabead8d76991d01fc0f9041f7e18a79ed287097dfe5e690508091505090565b60008261072e8584610792565b1490509392505050565b6000807fb5dbbc334907f600e1151190a68c4043043163a23a907389a2c6f6231ed4318b90508091505090565b6000807f3cab9a070a0c61cd0ae9d9e9e2c0781e5ca8691bec4087e5a4701d5ac018dd4e90508091505090565b60008082905060005b84518110156107dd576107c8828683815181106107bb576107ba61113a565b5b60200260200101516107e8565b915080806107d590610cfa565b91505061079b565b508091505092915050565b6000818310610800576107fb8284610813565b61080b565b61080a8383610813565b5b905092915050565b600082600052816020526040600020905092915050565b6000604051905090565b600080fd5b600080fd5b6000819050919050565b6108518161083e565b811461085c57600080fd5b50565b60008135905061086e81610848565b92915050565b600073ffffffffffffffffffffffffffffffffffffffff82169050919050565b600061089f82610874565b9050919050565b6108af81610894565b81146108ba57600080fd5b50565b6000813590506108cc816108a6565b92915050565b600080604083850312156108e9576108e8610834565b5b60006108f78582860161085f565b9250506020610908858286016108bd565b9150509250929050565b60008115159050919050565b61092781610912565b82525050565b6000602082019050610942600083018461091e565b92915050565b600080fd5b600080fd5b600080fd5b60008083601f84011261096d5761096c610948565b5b8235905067ffffffffffffffff81111561098a5761098961094d565b5b6020830191508360208202830111156109a6576109a5610952565b5b9250929050565b600080600080606085870312156109c7576109c6610834565b5b600085013567ffffffffffffffff8111156109e5576109e4610839565b5b6109f187828801610957565b94509450506020610a048782880161085f565b9250506040610a15878288016108bd565b91505092959194509250565b6000819050919050565b610a3481610a21565b8114610a3f57600080fd5b50565b600081359050610a5181610a2b565b92915050565b600080fd5b6000601f19601f8301169050919050565b7f4e487b7100000000000000000000000000000000000000000000000000000000600052604160045260246000fd5b610aa582610a5c565b810181811067ffffffffffffffff82111715610ac457610ac3610a6d565b5b80604052505050565b6000610ad761082a565b9050610ae38282610a9c565b919050565b600067ffffffffffffffff821115610b0357610b02610a6d565b5b610b0c82610a5c565b9050602081019050919050565b82818337600083830152505050565b6000610b3b610b3684610ae8565b610acd565b905082815260208101848484011115610b5757610b56610a57565b5b610b62848285610b19565b509392505050565b600082601f830112610b7f57610b7e610948565b5b8135610b8f848260208601610b28565b91505092915050565b60008060408385031215610baf57610bae610834565b5b6000610bbd85828601610a42565b925050602083013567ffffffffffffffff811115610bde57610bdd610839565b5b610bea85828601610b6a565b9150509250929050565b60008060008060608587031215610c0e57610c0d610834565b5b6000610c1c8782880161085f565b945050602085013567ffffffffffffffff811115610c3d57610c3c610839565b5b610c4987828801610957565b93509350506040610c5c8782880161085f565b91505092959194509250565b60008160601b9050919050565b6000610c8082610c68565b9050919050565b6000610c9282610c75565b9050919050565b610caa610ca582610894565b610c87565b82525050565b6000610cbc8284610c99565b60148201915081905092915050565b7f4e487b7100000000000000000000000000000000000000000000000000000000600052601160045260246000fd5b6000610d058261083e565b91507fffffffffffffffffffffffffffffffffffffffffffffffffffffffffffffffff8203610d3757610d36610ccb565b5b600182019050919050565b600081519050919050565b7f4e487b7100000000000000000000000000000000000000000000000000000000600052602260045260246000fd5b60006002820490506001821680610d9457607f821691505b602082108103610da757610da6610d4d565b5b50919050565b60008190508160005260206000209050919050565b60006020601f8301049050919050565b600082821b905092915050565b600060088302610e0f7fffffffffffffffffffffffffffffffffffffffffffffffffffffffffffffffff82610dd2565b610e198683610dd2565b95508019841693508086168417925050509392505050565b6000819050919050565b6000610e56610e51610e4c8461083e565b610e31565b61083e565b9050919050565b6000819050919050565b610e7083610e3b565b610e84610e7c82610e5d565b848454610ddf565b825550505050565b600090565b610e99610e8c565b610ea4818484610e67565b505050565b5b81811015610ec857610ebd600082610e91565b600181019050610eaa565b5050565b601f821115610f0d57610ede81610dad565b610ee784610dc2565b81016020851015610ef6578190505b610f0a610f0285610dc2565b830182610ea9565b50505b505050565b600082821c905092915050565b6000610f3060001984600802610f12565b1980831691505092915050565b6000610f498383610f1f565b9150826002028217905092915050565b610f6282610d42565b67ffffffffffffffff811115610f7b57610f7a610a6d565b5b610f858254610d7c565b610f90828285610ecc565b600060209050601f831160018114610fc35760008415610fb1578287015190505b610fbb8582610f3d565b865550611023565b601f198416610fd186610dad565b60005b82811015610ff957848901518255600182019150602085019450602081019050610fd4565b868310156110165784890151611012601f891682610f1f565b8355505b6001600288020188555050505b505050505050565b600082825260208201905092915050565b7f416464726573732068617320616c726561647920636c61696d6564207468652060008201527f64726f7000000000000000000000000000000000000000000000000000000000602082015250565b600061109860248361102b565b91506110a38261103c565b604082019050919050565b600060208201905081810360008301526110c78161108b565b9050919050565b7f496e76616c6964204d65726b6c652070726f6f66000000000000000000000000600082015250565b600061110460148361102b565b915061110f826110ce565b602082019050919050565b60006020820190508181036000830152611133816110f7565b9050919050565b7f4e487b7100000000000000000000000000000000000000000000000000000000600052603260045260246000fdfea2646970667358221220d06ea94770b78bfeedbfe36931a4085f6e3429ff766427849dcdbaf11d46ff7864736f6c63430008110033",
  "linkReferences": {},
  "deployedLinkReferences": {}
}