{
  "_format": "hh-sol-artifact-1",
  "contractName": "TreasureDropFacet",
  "sourceName": "contracts/facets/TreasureDropFacet.sol",
  "abi": [
    {
      "anonymous": false,
      "inputs": [
        {
          "indexed": true,
          "internalType": "uint256",
          "name": "_playerId",
          "type": "uint256"
        },
        {
          "indexed": true,
          "internalType": "uint256",
          "name": "_treasureDropId",
          "type": "uint256"
        }
      ],
      "name": "ClaimTreasure",
      "type": "event"
    },
    {
      "inputs": [
        {
          "internalType": "uint256",
          "name": "_treasureDropId",
          "type": "uint256"
        },
        {
          "internalType": "bytes32[]",
          "name": "_proof",
          "type": "bytes32[]"
        },
        {
          "internalType": "uint256",
          "name": "_playerId",
          "type": "uint256"
        }
      ],
      "name": "claimTreasureDropKyberShard",
      "outputs": [],
      "stateMutability": "nonpayable",
      "type": "function"
    },
    {
      "inputs": [
        {
          "internalType": "uint256",
          "name": "_treasureDropId",
          "type": "uint256"
        },
        {
          "internalType": "address",
          "name": "_address",
          "type": "address"
        }
      ],
      "name": "claimedStatus",
      "outputs": [
        {
          "internalType": "bool",
          "name": "",
          "type": "bool"
        }
      ],
      "stateMutability": "view",
      "type": "function"
    },
    {
      "inputs": [
        {
          "internalType": "bytes32",
          "name": "_merkleRoot",
          "type": "bytes32"
        },
        {
          "internalType": "string",
          "name": "_name",
          "type": "string"
        }
      ],
      "name": "createTreasureDrop",
      "outputs": [],
      "stateMutability": "nonpayable",
      "type": "function"
    },
    {
      "inputs": [
        {
          "internalType": "uint256",
          "name": "_treasureDropId",
          "type": "uint256"
        }
      ],
      "name": "getTreasureDropMerkleRoot",
      "outputs": [
        {
          "internalType": "bytes32",
          "name": "",
          "type": "bytes32"
        }
      ],
      "stateMutability": "view",
      "type": "function"
    },
    {
      "inputs": [
        {
          "internalType": "bytes32[]",
          "name": "_proof",
          "type": "bytes32[]"
        },
        {
          "internalType": "uint256",
          "name": "_treasureDropId",
          "type": "uint256"
        },
        {
          "internalType": "address",
          "name": "_address",
          "type": "address"
        }
      ],
      "name": "verifyTreasureDropWhitelist",
      "outputs": [
        {
          "internalType": "bool",
          "name": "",
          "type": "bool"
        }
      ],
      "stateMutability": "view",
      "type": "function"
    }
  ],
  "bytecode": "0x608060405234801561001057600080fd5b50611271806100206000396000f3fe608060405234801561001057600080fd5b50600436106100575760003560e01c80632dfc7abe1461005c5780636ab1a7c81461008c57806387dfb1c4146100bc578063a9a6c582146100ec578063ee50fa2b14610108575b600080fd5b6100766004803603810190610071919061094d565b610124565b60405161008391906109a8565b60405180910390f35b6100a660048036038101906100a191906109c3565b610138565b6040516100b39190610a09565b60405180910390f35b6100d660048036038101906100d19190610a89565b61014a565b6040516100e391906109a8565b60405180910390f35b61010660048036038101906101019190610c6a565b610162565b005b610122600480360381019061011d9190610cc6565b610170565b005b600061013083836101b0565b905092915050565b600061014382610226565b9050919050565b600061015885858585610254565b9050949350505050565b61016c82826102fc565b5050565b61017c8484848461038c565b83817fc25dedf3116a51a3291cf9dd17f0b19191fe21e170fda69010dcb916cccb6b3360405160405180910390a350505050565b6000806101bb61076f565b905080600201600085815260200190815260200160002060008473ffffffffffffffffffffffffffffffffffffffff1673ffffffffffffffffffffffffffffffffffffffff16815260200190815260200160002060009054906101000a900460ff1691505092915050565b60008061023161076f565b905080600101600084815260200190815260200160002060010154915050919050565b60008061025f61076f565b90506000836040516020016102749190610d82565b6040516020818303038152906040528051906020012090506102f0878780806020026020016040519081016040528093929190818152602001838360200280828437600081840152601f19601f82011690508083019250505050505050836001016000888152602001908152602001600020600101548361079c565b92505050949350505050565b600061030661076f565b905080600001600081548092919061031d90610dcc565b9190505550604051806060016040528082600001548152602001848152602001838152508160010160008360000154815260200190815260200160002060008201518160000155602082015181600101556040820151816002019081610383919061102b565b50905050505050565b600061039661076f565b905060006103a26107b3565b905060006103ae6107e0565b905082600201600088815260200190815260200160002060003373ffffffffffffffffffffffffffffffffffffffff1673ffffffffffffffffffffffffffffffffffffffff16815260200190815260200160002060009054906101000a900460ff1615610450576040517f08c379a000000000000000000000000000000000000000000000000000000000815260040161044790611180565b60405180910390fd5b6104da868680806020026020016040519081016040528093929190818152602001838360200280828437600081840152601f19601f820116905080830192505050505050508460010160008a815260200190815260200160002060010154336040516020016104bf9190610d82565b6040516020818303038152906040528051906020012061079c565b610519576040517f08c379a0000000000000000000000000000000000000000000000000000000008152600401610510906111ec565b60405180910390fd5b3373ffffffffffffffffffffffffffffffffffffffff1681600201600086815260200190815260200160002060009054906101000a900473ffffffffffffffffffffffffffffffffffffffff1673ffffffffffffffffffffffffffffffffffffffff161461058657600080fd5b600183600201600089815260200190815260200160002060003373ffffffffffffffffffffffffffffffffffffffff1673ffffffffffffffffffffffffffffffffffffffff16815260200190815260200160002060006101000a81548160ff02191690831515021790555081600001600081548092919061060690610dcc565b9190505550604051806080016040528083600001548152602001600181526020018360030160008781526020019081526020016000208054905081526020016040518060400160405280600a81526020017f4b796265725368617264000000000000000000000000000000000000000000008152508152508260020160008460000154815260200190815260200160002060008201518160000155602082015181600101556040820151816002015560608201518160030190816106ca919061102b565b5090505081600301600085815260200190815260200160002082600001549080600181540180825580915050600190039060005260206000200160009091909190915055338260010160008460000154815260200190815260200160002060006101000a81548173ffffffffffffffffffffffffffffffffffffffff021916908373ffffffffffffffffffffffffffffffffffffffff16021790555050505050505050565b6000807f491cff3d9ac7610c4deabead8d76991d01fc0f9041f7e18a79ed287097dfe5e690508091505090565b6000826107a9858461080d565b1490509392505050565b6000807fb5dbbc334907f600e1151190a68c4043043163a23a907389a2c6f6231ed4318b90508091505090565b6000807f3cab9a070a0c61cd0ae9d9e9e2c0781e5ca8691bec4087e5a4701d5ac018dd4e90508091505090565b60008082905060005b845181101561085857610843828683815181106108365761083561120c565b5b6020026020010151610863565b9150808061085090610dcc565b915050610816565b508091505092915050565b600081831061087b57610876828461088e565b610886565b610885838361088e565b5b905092915050565b600082600052816020526040600020905092915050565b6000604051905090565b600080fd5b600080fd5b6000819050919050565b6108cc816108b9565b81146108d757600080fd5b50565b6000813590506108e9816108c3565b92915050565b600073ffffffffffffffffffffffffffffffffffffffff82169050919050565b600061091a826108ef565b9050919050565b61092a8161090f565b811461093557600080fd5b50565b60008135905061094781610921565b92915050565b60008060408385031215610964576109636108af565b5b6000610972858286016108da565b925050602061098385828601610938565b9150509250929050565b60008115159050919050565b6109a28161098d565b82525050565b60006020820190506109bd6000830184610999565b92915050565b6000602082840312156109d9576109d86108af565b5b60006109e7848285016108da565b91505092915050565b6000819050919050565b610a03816109f0565b82525050565b6000602082019050610a1e60008301846109fa565b92915050565b600080fd5b600080fd5b600080fd5b60008083601f840112610a4957610a48610a24565b5b8235905067ffffffffffffffff811115610a6657610a65610a29565b5b602083019150836020820283011115610a8257610a81610a2e565b5b9250929050565b60008060008060608587031215610aa357610aa26108af565b5b600085013567ffffffffffffffff811115610ac157610ac06108b4565b5b610acd87828801610a33565b94509450506020610ae0878288016108da565b9250506040610af187828801610938565b91505092959194509250565b610b06816109f0565b8114610b1157600080fd5b50565b600081359050610b2381610afd565b92915050565b600080fd5b6000601f19601f8301169050919050565b7f4e487b7100000000000000000000000000000000000000000000000000000000600052604160045260246000fd5b610b7782610b2e565b810181811067ffffffffffffffff82111715610b9657610b95610b3f565b5b80604052505050565b6000610ba96108a5565b9050610bb58282610b6e565b919050565b600067ffffffffffffffff821115610bd557610bd4610b3f565b5b610bde82610b2e565b9050602081019050919050565b82818337600083830152505050565b6000610c0d610c0884610bba565b610b9f565b905082815260208101848484011115610c2957610c28610b29565b5b610c34848285610beb565b509392505050565b600082601f830112610c5157610c50610a24565b5b8135610c61848260208601610bfa565b91505092915050565b60008060408385031215610c8157610c806108af565b5b6000610c8f85828601610b14565b925050602083013567ffffffffffffffff811115610cb057610caf6108b4565b5b610cbc85828601610c3c565b9150509250929050565b60008060008060608587031215610ce057610cdf6108af565b5b6000610cee878288016108da565b945050602085013567ffffffffffffffff811115610d0f57610d0e6108b4565b5b610d1b87828801610a33565b93509350506040610d2e878288016108da565b91505092959194509250565b60008160601b9050919050565b6000610d5282610d3a565b9050919050565b6000610d6482610d47565b9050919050565b610d7c610d778261090f565b610d59565b82525050565b6000610d8e8284610d6b565b60148201915081905092915050565b7f4e487b7100000000000000000000000000000000000000000000000000000000600052601160045260246000fd5b6000610dd7826108b9565b91507fffffffffffffffffffffffffffffffffffffffffffffffffffffffffffffffff8203610e0957610e08610d9d565b5b600182019050919050565b600081519050919050565b7f4e487b7100000000000000000000000000000000000000000000000000000000600052602260045260246000fd5b60006002820490506001821680610e6657607f821691505b602082108103610e7957610e78610e1f565b5b50919050565b60008190508160005260206000209050919050565b60006020601f8301049050919050565b600082821b905092915050565b600060088302610ee17fffffffffffffffffffffffffffffffffffffffffffffffffffffffffffffffff82610ea4565b610eeb8683610ea4565b95508019841693508086168417925050509392505050565b6000819050919050565b6000610f28610f23610f1e846108b9565b610f03565b6108b9565b9050919050565b6000819050919050565b610f4283610f0d565b610f56610f4e82610f2f565b848454610eb1565b825550505050565b600090565b610f6b610f5e565b610f76818484610f39565b505050565b5b81811015610f9a57610f8f600082610f63565b600181019050610f7c565b5050565b601f821115610fdf57610fb081610e7f565b610fb984610e94565b81016020851015610fc8578190505b610fdc610fd485610e94565b830182610f7b565b50505b505050565b600082821c905092915050565b600061100260001984600802610fe4565b1980831691505092915050565b600061101b8383610ff1565b9150826002028217905092915050565b61103482610e14565b67ffffffffffffffff81111561104d5761104c610b3f565b5b6110578254610e4e565b611062828285610f9e565b600060209050601f8311600181146110955760008415611083578287015190505b61108d858261100f565b8655506110f5565b601f1984166110a386610e7f565b60005b828110156110cb578489015182556001820191506020850194506020810190506110a6565b868310156110e857848901516110e4601f891682610ff1565b8355505b6001600288020188555050505b505050505050565b600082825260208201905092915050565b7f416464726573732068617320616c726561647920636c61696d6564207468652060008201527f64726f7000000000000000000000000000000000000000000000000000000000602082015250565b600061116a6024836110fd565b91506111758261110e565b604082019050919050565b600060208201905081810360008301526111998161115d565b9050919050565b7f496e76616c6964204d65726b6c652070726f6f66000000000000000000000000600082015250565b60006111d66014836110fd565b91506111e1826111a0565b602082019050919050565b60006020820190508181036000830152611205816111c9565b9050919050565b7f4e487b7100000000000000000000000000000000000000000000000000000000600052603260045260246000fdfea264697066735822122095ba353ae67afaf1d8cad187ad9f73b3afe65281ad77bbbed812ce0c24a2378164736f6c63430008110033",
  "linkReferences": {},
  "deployedLinkReferences": {}
}