{
  "_format": "hh-sol-artifact-1",
  "contractName": "TreasureDropFacet",
  "sourceName": "contracts/facets/TreasureDropFacet.sol",
  "abi": [
    {
      "anonymous": false,
      "inputs": [
        {
          "indexed": true,
          "internalType": "uint256",
          "name": "_playerId",
          "type": "uint256"
        },
        {
          "indexed": true,
          "internalType": "uint256",
          "name": "_treasureDropId",
          "type": "uint256"
        }
      ],
      "name": "ClaimTreasure",
      "type": "event"
    },
    {
      "inputs": [
        {
          "internalType": "uint256",
          "name": "_treasureDropId",
          "type": "uint256"
        },
        {
          "internalType": "bytes32[]",
          "name": "_proof",
          "type": "bytes32[]"
        },
        {
          "internalType": "uint256",
          "name": "_playerId",
          "type": "uint256"
        }
      ],
      "name": "claimTreasureDropKyberShard",
      "outputs": [],
      "stateMutability": "nonpayable",
      "type": "function"
    },
    {
      "inputs": [
        {
          "internalType": "bytes32",
          "name": "_merkleRoot",
          "type": "bytes32"
        },
        {
          "internalType": "string",
          "name": "_name",
          "type": "string"
        }
      ],
      "name": "createTreasureDrop",
      "outputs": [],
      "stateMutability": "nonpayable",
      "type": "function"
    }
  ],
  "bytecode": "0x608060405234801561001057600080fd5b50610d70806100206000396000f3fe608060405234801561001057600080fd5b50600436106100365760003560e01c8063a9a6c5821461003b578063ee50fa2b14610057575b600080fd5b610055600480360381019061005091906106a1565b610073565b005b610071600480360381019061006c9190610793565b610081565b005b61007d82826100c1565b5050565b61008d84848484610151565b83817fc25dedf3116a51a3291cf9dd17f0b19191fe21e170fda69010dcb916cccb6b3360405160405180910390a350505050565b60006100cb610408565b90508060000160008154809291906100e290610836565b91905055506040518060600160405280826000015481526020018481526020018381525081600101600083600001548152602001908152602001600020600082015181600001556020820151816001015560408201518160020190816101489190610a95565b50905050505050565b600061015b610408565b90506000610167610435565b905081600201600087815260200190815260200160002060003373ffffffffffffffffffffffffffffffffffffffff1673ffffffffffffffffffffffffffffffffffffffff16815260200190815260200160002060009054906101000a900460ff1615610209576040517f08c379a000000000000000000000000000000000000000000000000000000000815260040161020090610bea565b60405180910390fd5b610293858580806020026020016040519081016040528093929190818152602001838360200280828437600081840152601f19601f8201169050808301925050505050505083600101600089815260200190815260200160002060010154336040516020016102789190610c84565b60405160208183030381529060405280519060200120610462565b6102d2576040517f08c379a00000000000000000000000000000000000000000000000000000000081526004016102c990610ceb565b60405180910390fd5b600182600201600088815260200190815260200160002060003373ffffffffffffffffffffffffffffffffffffffff1673ffffffffffffffffffffffffffffffffffffffff16815260200190815260200160002060006101000a81548160ff021916908315150217905550604051806080016040528082600001548152602001600181526020018260030160008681526020019081526020016000208054905081526020016040518060400160405280600a81526020017f4b796265725368617264000000000000000000000000000000000000000000008152508152508160020160008360000154815260200190815260200160002060008201518160000155602082015181600101556040820151816002015560608201518160030190816103fc9190610a95565b50905050505050505050565b6000807f491cff3d9ac7610c4deabead8d76991d01fc0f9041f7e18a79ed287097dfe5e690508091505090565b6000807fb5dbbc334907f600e1151190a68c4043043163a23a907389a2c6f6231ed4318b90508091505090565b60008261046f8584610479565b1490509392505050565b60008082905060005b84518110156104c4576104af828683815181106104a2576104a1610d0b565b5b60200260200101516104cf565b915080806104bc90610836565b915050610482565b508091505092915050565b60008183106104e7576104e282846104fa565b6104f2565b6104f183836104fa565b5b905092915050565b600082600052816020526040600020905092915050565b6000604051905090565b600080fd5b600080fd5b6000819050919050565b61053881610525565b811461054357600080fd5b50565b6000813590506105558161052f565b92915050565b600080fd5b600080fd5b6000601f19601f8301169050919050565b7f4e487b7100000000000000000000000000000000000000000000000000000000600052604160045260246000fd5b6105ae82610565565b810181811067ffffffffffffffff821117156105cd576105cc610576565b5b80604052505050565b60006105e0610511565b90506105ec82826105a5565b919050565b600067ffffffffffffffff82111561060c5761060b610576565b5b61061582610565565b9050602081019050919050565b82818337600083830152505050565b600061064461063f846105f1565b6105d6565b9050828152602081018484840111156106605761065f610560565b5b61066b848285610622565b509392505050565b600082601f8301126106885761068761055b565b5b8135610698848260208601610631565b91505092915050565b600080604083850312156106b8576106b761051b565b5b60006106c685828601610546565b925050602083013567ffffffffffffffff8111156106e7576106e6610520565b5b6106f385828601610673565b9150509250929050565b6000819050919050565b610710816106fd565b811461071b57600080fd5b50565b60008135905061072d81610707565b92915050565b600080fd5b600080fd5b60008083601f8401126107535761075261055b565b5b8235905067ffffffffffffffff8111156107705761076f610733565b5b60208301915083602082028301111561078c5761078b610738565b5b9250929050565b600080600080606085870312156107ad576107ac61051b565b5b60006107bb8782880161071e565b945050602085013567ffffffffffffffff8111156107dc576107db610520565b5b6107e88782880161073d565b935093505060406107fb8782880161071e565b91505092959194509250565b7f4e487b7100000000000000000000000000000000000000000000000000000000600052601160045260246000fd5b6000610841826106fd565b91507fffffffffffffffffffffffffffffffffffffffffffffffffffffffffffffffff820361087357610872610807565b5b600182019050919050565b600081519050919050565b7f4e487b7100000000000000000000000000000000000000000000000000000000600052602260045260246000fd5b600060028204905060018216806108d057607f821691505b6020821081036108e3576108e2610889565b5b50919050565b60008190508160005260206000209050919050565b60006020601f8301049050919050565b600082821b905092915050565b60006008830261094b7fffffffffffffffffffffffffffffffffffffffffffffffffffffffffffffffff8261090e565b610955868361090e565b95508019841693508086168417925050509392505050565b6000819050919050565b600061099261098d610988846106fd565b61096d565b6106fd565b9050919050565b6000819050919050565b6109ac83610977565b6109c06109b882610999565b84845461091b565b825550505050565b600090565b6109d56109c8565b6109e08184846109a3565b505050565b5b81811015610a04576109f96000826109cd565b6001810190506109e6565b5050565b601f821115610a4957610a1a816108e9565b610a23846108fe565b81016020851015610a32578190505b610a46610a3e856108fe565b8301826109e5565b50505b505050565b600082821c905092915050565b6000610a6c60001984600802610a4e565b1980831691505092915050565b6000610a858383610a5b565b9150826002028217905092915050565b610a9e8261087e565b67ffffffffffffffff811115610ab757610ab6610576565b5b610ac182546108b8565b610acc828285610a08565b600060209050601f831160018114610aff5760008415610aed578287015190505b610af78582610a79565b865550610b5f565b601f198416610b0d866108e9565b60005b82811015610b3557848901518255600182019150602085019450602081019050610b10565b86831015610b525784890151610b4e601f891682610a5b565b8355505b6001600288020188555050505b505050505050565b600082825260208201905092915050565b7f416464726573732068617320616c726561647920636c61696d6564207468652060008201527f64726f7000000000000000000000000000000000000000000000000000000000602082015250565b6000610bd4602483610b67565b9150610bdf82610b78565b604082019050919050565b60006020820190508181036000830152610c0381610bc7565b9050919050565b600073ffffffffffffffffffffffffffffffffffffffff82169050919050565b6000610c3582610c0a565b9050919050565b60008160601b9050919050565b6000610c5482610c3c565b9050919050565b6000610c6682610c49565b9050919050565b610c7e610c7982610c2a565b610c5b565b82525050565b6000610c908284610c6d565b60148201915081905092915050565b7f496e76616c6964204d65726b6c652070726f6f66000000000000000000000000600082015250565b6000610cd5601483610b67565b9150610ce082610c9f565b602082019050919050565b60006020820190508181036000830152610d0481610cc8565b9050919050565b7f4e487b7100000000000000000000000000000000000000000000000000000000600052603260045260246000fdfea26469706673582212201f40ec73cfa048de0aacdd6441d566eef183ebc49a7e395ae888e8500abc189564736f6c63430008110033",
  "linkReferences": {},
  "deployedLinkReferences": {}
}