{
  "_format": "hh-sol-artifact-1",
  "contractName": "TrainFacet",
  "sourceName": "contracts/facets/TrainFacet.sol",
  "abi": [
    {
      "anonymous": false,
      "inputs": [
        {
          "indexed": true,
          "internalType": "address",
          "name": "_playerAddress",
          "type": "address"
        },
        {
          "indexed": false,
          "internalType": "uint256",
          "name": "_id",
          "type": "uint256"
        }
      ],
      "name": "BeginTraining",
      "type": "event"
    },
    {
      "anonymous": false,
      "inputs": [
        {
          "indexed": true,
          "internalType": "address",
          "name": "_playerAddress",
          "type": "address"
        },
        {
          "indexed": false,
          "internalType": "uint256",
          "name": "_id",
          "type": "uint256"
        }
      ],
      "name": "EndTraining",
      "type": "event"
    },
    {
      "inputs": [
        {
          "internalType": "uint256",
          "name": "_tokenId",
          "type": "uint256"
        }
      ],
      "name": "endTrainingCombat",
      "outputs": [],
      "stateMutability": "nonpayable",
      "type": "function"
    },
    {
      "inputs": [
        {
          "internalType": "uint256",
          "name": "_tokenId",
          "type": "uint256"
        }
      ],
      "name": "endTrainingMana",
      "outputs": [],
      "stateMutability": "nonpayable",
      "type": "function"
    },
    {
      "inputs": [
        {
          "internalType": "uint256",
          "name": "_playerId",
          "type": "uint256"
        }
      ],
      "name": "getCombatStart",
      "outputs": [
        {
          "internalType": "uint256",
          "name": "",
          "type": "uint256"
        }
      ],
      "stateMutability": "view",
      "type": "function"
    },
    {
      "inputs": [
        {
          "internalType": "uint256",
          "name": "_playerId",
          "type": "uint256"
        }
      ],
      "name": "getManaStart",
      "outputs": [
        {
          "internalType": "uint256",
          "name": "",
          "type": "uint256"
        }
      ],
      "stateMutability": "view",
      "type": "function"
    },
    {
      "inputs": [
        {
          "internalType": "uint256",
          "name": "_tokenId",
          "type": "uint256"
        }
      ],
      "name": "startTrainingCombat",
      "outputs": [],
      "stateMutability": "nonpayable",
      "type": "function"
    },
    {
      "inputs": [
        {
          "internalType": "uint256",
          "name": "_tokenId",
          "type": "uint256"
        }
      ],
      "name": "startTrainingMana",
      "outputs": [],
      "stateMutability": "nonpayable",
      "type": "function"
    }
  ],
  "bytecode": "0x608060405234801561001057600080fd5b50610aa8806100206000396000f3fe608060405234801561001057600080fd5b50600436106100625760003560e01c80631a0df17614610067578063260174a31461008357806397dd8533146100b35780639b7ea6a0146100e3578063d527644c146100ff578063fafe49f91461011b575b600080fd5b610081600480360381019061007c91906108f3565b610137565b005b61009d600480360381019061009891906108f3565b610191565b6040516100aa919061092f565b60405180910390f35b6100cd60048036038101906100c891906108f3565b6101a3565b6040516100da919061092f565b60405180910390f35b6100fd60048036038101906100f891906108f3565b6101b5565b005b610119600480360381019061011491906108f3565b61020f565b005b610135600480360381019061013091906108f3565b610269565b005b610140816102c3565b3373ffffffffffffffffffffffffffffffffffffffff167f8edab42c3c8f9ef053463f00bd7620cb6af16d9d6a701df67beef87e618b1e7f82604051610186919061092f565b60405180910390a250565b600061019c82610473565b9050919050565b60006101ae82610473565b9050919050565b6101be8161049e565b3373ffffffffffffffffffffffffffffffffffffffff167f697dd10d549e65a01bd5ff32cf8995ace2a3a46e225c0a123a8b1eb35dfe0ba782604051610204919061092f565b60405180910390a250565b610218816105cc565b3373ffffffffffffffffffffffffffffffffffffffff167f697dd10d549e65a01bd5ff32cf8995ace2a3a46e225c0a123a8b1eb35dfe0ba78260405161025e919061092f565b60405180910390a250565b610272816106cc565b3373ffffffffffffffffffffffffffffffffffffffff167f8edab42c3c8f9ef053463f00bd7620cb6af16d9d6a701df67beef87e618b1e7f826040516102b8919061092f565b60405180910390a250565b60006102cd61085e565b905060006102d961088b565b90503373ffffffffffffffffffffffffffffffffffffffff1682600201600085815260200190815260200160002060009054906101000a900473ffffffffffffffffffffffffffffffffffffffff1673ffffffffffffffffffffffffffffffffffffffff161461034857600080fd5b3373ffffffffffffffffffffffffffffffffffffffff163273ffffffffffffffffffffffffffffffffffffffff161461038057600080fd5b600182600301600085815260200190815260200160002060020154146103a557600080fd5b6078816000016000858152602001908152602001600020546103c79190610979565b421015610409576040517f08c379a000000000000000000000000000000000000000000000000000000000815260040161040090610a0a565b60405180910390fd5b60008260030160008581526020019081526020016000206002018190555080600001600084815260200190815260200160002060009055816003016000848152602001908152602001600020600301600081548092919061046990610a2a565b9190505550505050565b60008061047e61088b565b905080600001600084815260200190815260200160002054915050919050565b60006104a861085e565b905060006104b461088b565b9050600082600301600085815260200190815260200160002060020154146104db57600080fd5b3373ffffffffffffffffffffffffffffffffffffffff1682600201600085815260200190815260200160002060009054906101000a900473ffffffffffffffffffffffffffffffffffffffff1673ffffffffffffffffffffffffffffffffffffffff161461054857600080fd5b60018160040160008581526020019081526020016000205461056a9190610979565b42101561057657600080fd5b600182600301600085815260200190815260200160002060020181905550428160010160008581526020019081526020016000208190555080600401600084815260200190815260200160002060009055505050565b60006105d661085e565b905060006105e261088b565b90506000826003016000858152602001908152602001600020600201541461060957600080fd5b3373ffffffffffffffffffffffffffffffffffffffff1682600201600085815260200190815260200160002060009054906101000a900473ffffffffffffffffffffffffffffffffffffffff1673ffffffffffffffffffffffffffffffffffffffff161461067657600080fd5b600182600301600085815260200190815260200160002060020181905550428160000160008581526020019081526020016000208190555080600401600084815260200190815260200160002060009055505050565b60006106d661085e565b905060006106e261088b565b90503373ffffffffffffffffffffffffffffffffffffffff1682600201600085815260200190815260200160002060009054906101000a900473ffffffffffffffffffffffffffffffffffffffff1673ffffffffffffffffffffffffffffffffffffffff161461075157600080fd5b6001826003016000858152602001908152602001600020600201541461077657600080fd5b6001816001016000858152602001908152602001600020546107989190610979565b4210156107da576040517f08c379a00000000000000000000000000000000000000000000000000000000081526004016107d190610a0a565b60405180910390fd5b60008260030160008581526020019081526020016000206002018190555080600101600084815260200190815260200160002060009055816003016000848152602001908152602001600020600601600081548092919061083a90610a2a565b91905055504281600401600085815260200190815260200160002081905550505050565b6000807f3cab9a070a0c61cd0ae9d9e9e2c0781e5ca8691bec4087e5a4701d5ac018dd4e90508091505090565b6000807f69a36aa8a1def7c34163f21101855534226dbb17b620d65b1681d4d0b27f0b2e90508091505090565b600080fd5b6000819050919050565b6108d0816108bd565b81146108db57600080fd5b50565b6000813590506108ed816108c7565b92915050565b600060208284031215610909576109086108b8565b5b6000610917848285016108de565b91505092915050565b610929816108bd565b82525050565b60006020820190506109446000830184610920565b92915050565b7f4e487b7100000000000000000000000000000000000000000000000000000000600052601160045260246000fd5b6000610984826108bd565b915061098f836108bd565b92508282019050808211156109a7576109a661094a565b5b92915050565b600082825260208201905092915050565b7f6974277320746f6f206561726c7920746f2070756c6c206f7574000000000000600082015250565b60006109f4601a836109ad565b91506109ff826109be565b602082019050919050565b60006020820190508181036000830152610a23816109e7565b9050919050565b6000610a35826108bd565b91507fffffffffffffffffffffffffffffffffffffffffffffffffffffffffffffffff8203610a6757610a6661094a565b5b60018201905091905056fea26469706673582212202c10ab5b69d47e5677aaa8d75198391bef636a6c021aa2fdf878c6b825b5681664736f6c63430008110033",
  "linkReferences": {},
  "deployedLinkReferences": {}
}