{
  "_format": "hh-sol-artifact-1",
  "contractName": "EquipFacet",
  "sourceName": "contracts/facets/EquipFacet.sol",
  "abi": [
    {
      "anonymous": false,
      "inputs": [
        {
          "indexed": true,
          "internalType": "address",
          "name": "_owner",
          "type": "address"
        },
        {
          "indexed": true,
          "internalType": "uint256",
          "name": "_playerId",
          "type": "uint256"
        },
        {
          "indexed": true,
          "internalType": "uint256",
          "name": "_itemId",
          "type": "uint256"
        }
      ],
      "name": "ItemEquiped",
      "type": "event"
    },
    {
      "anonymous": false,
      "inputs": [
        {
          "indexed": true,
          "internalType": "address",
          "name": "_owner",
          "type": "address"
        },
        {
          "indexed": true,
          "internalType": "uint256",
          "name": "_playerId",
          "type": "uint256"
        },
        {
          "indexed": true,
          "internalType": "uint256",
          "name": "_itemId",
          "type": "uint256"
        }
      ],
      "name": "ItemUnequiped",
      "type": "event"
    },
    {
      "inputs": [
        {
          "internalType": "uint256",
          "name": "_playerId",
          "type": "uint256"
        },
        {
          "internalType": "uint256",
          "name": "_itemId",
          "type": "uint256"
        }
      ],
      "name": "equipBody",
      "outputs": [],
      "stateMutability": "nonpayable",
      "type": "function"
    },
    {
      "inputs": [
        {
          "internalType": "uint256",
          "name": "_playerId",
          "type": "uint256"
        },
        {
          "internalType": "uint256",
          "name": "_itemId",
          "type": "uint256"
        }
      ],
      "name": "equipHead",
      "outputs": [],
      "stateMutability": "nonpayable",
      "type": "function"
    },
    {
      "inputs": [
        {
          "internalType": "uint256",
          "name": "_playerId",
          "type": "uint256"
        },
        {
          "internalType": "uint256",
          "name": "_itemId",
          "type": "uint256"
        }
      ],
      "name": "equipRightHand",
      "outputs": [],
      "stateMutability": "nonpayable",
      "type": "function"
    },
    {
      "inputs": [
        {
          "internalType": "uint256",
          "name": "_playerId",
          "type": "uint256"
        },
        {
          "internalType": "uint256",
          "name": "_itemId",
          "type": "uint256"
        }
      ],
      "name": "unequipBody",
      "outputs": [],
      "stateMutability": "nonpayable",
      "type": "function"
    },
    {
      "inputs": [
        {
          "internalType": "uint256",
          "name": "_playerId",
          "type": "uint256"
        },
        {
          "internalType": "uint256",
          "name": "_itemId",
          "type": "uint256"
        }
      ],
      "name": "unequipHead",
      "outputs": [],
      "stateMutability": "nonpayable",
      "type": "function"
    },
    {
      "inputs": [
        {
          "internalType": "uint256",
          "name": "_playerId",
          "type": "uint256"
        },
        {
          "internalType": "uint256",
          "name": "_itemId",
          "type": "uint256"
        }
      ],
      "name": "unequipRightHand",
      "outputs": [],
      "stateMutability": "nonpayable",
      "type": "function"
    }
  ],
  "bytecode": "0x608060405234801561001057600080fd5b50611370806100206000396000f3fe608060405234801561001057600080fd5b50600436106100625760003560e01c80631e162a33146100675780633770f474146100835780634b391aff1461009f5780636d7c392e146100bb578063c4056b9b146100d7578063d6291341146100f3575b600080fd5b610081600480360381019061007c9190611263565b61010f565b005b61009d60048036038101906100989190611263565b610162565b005b6100b960048036038101906100b49190611263565b6101b5565b005b6100d560048036038101906100d09190611263565b610208565b005b6100f160048036038101906100ec9190611263565b61025b565b005b61010d60048036038101906101089190611263565b6102ae565b005b6101198282610301565b80823373ffffffffffffffffffffffffffffffffffffffff167f89e9fbe565d1c678f969ecb9932f195972391e7b5505a916bafebabcc98baecd60405160405180910390a45050565b61016c82826104ee565b80823373ffffffffffffffffffffffffffffffffffffffff167fcfa498c412ad33353e9cfe1838419596b8e55fab09d787fcf95baadebb07a5a860405160405180910390a45050565b6101bf82826106da565b80823373ffffffffffffffffffffffffffffffffffffffff167fcfa498c412ad33353e9cfe1838419596b8e55fab09d787fcf95baadebb07a5a860405160405180910390a45050565b61021282826108f1565b80823373ffffffffffffffffffffffffffffffffffffffff167fcfa498c412ad33353e9cfe1838419596b8e55fab09d787fcf95baadebb07a5a860405160405180910390a45050565b6102658282610ae5565b80823373ffffffffffffffffffffffffffffffffffffffff167f89e9fbe565d1c678f969ecb9932f195972391e7b5505a916bafebabcc98baecd60405160405180910390a45050565b6102b88282610b5e565b80823373ffffffffffffffffffffffffffffffffffffffff167f89e9fbe565d1c678f969ecb9932f195972391e7b5505a916bafebabcc98baecd60405160405180910390a45050565b600061030b610d76565b90506000610317610da3565b90503373ffffffffffffffffffffffffffffffffffffffff1682600101600085815260200190815260200160002060009054906101000a900473ffffffffffffffffffffffffffffffffffffffff1673ffffffffffffffffffffffffffffffffffffffff161461038657600080fd5b600081600301600086815260200190815260200160002060020154146103ab57600080fd5b3373ffffffffffffffffffffffffffffffffffffffff1681600201600086815260200190815260200160002060009054906101000a900473ffffffffffffffffffffffffffffffffffffffff1673ffffffffffffffffffffffffffffffffffffffff161461041857600080fd5b6000826002016000858152602001908152602001600020600001541461043d57600080fd5b81600201600084815260200190815260200160002060050160149054906101000a900460ff161561046d57600080fd5b6000816003016000868152602001908152602001600020601001600001541461049557600080fd5b600182600201600085815260200190815260200160002060050160146101000a81548160ff0219169083151502179055508281600301600086815260200190815260200160002050506104e88484610dd0565b50505050565b60006104f8610d76565b90506000610504610da3565b90503373ffffffffffffffffffffffffffffffffffffffff1682600101600085815260200190815260200160002060009054906101000a900473ffffffffffffffffffffffffffffffffffffffff1673ffffffffffffffffffffffffffffffffffffffff161461057357600080fd5b6000816003016000868152602001908152602001600020600201541461059857600080fd5b3373ffffffffffffffffffffffffffffffffffffffff1681600201600086815260200190815260200160002060009054906101000a900473ffffffffffffffffffffffffffffffffffffffff1673ffffffffffffffffffffffffffffffffffffffff161461060557600080fd5b6000826002016000858152602001908152602001600020600001541461062a57600080fd5b81600201600084815260200190815260200160002060050160149054906101000a900460ff1661065957600080fd5b82816003016000868152602001908152602001600020601001600001541461068057600080fd5b600082600201600085815260200190815260200160002060050160146101000a81548160ff021916908315150217905550600081600301600086815260200190815260200160002050506106d48484610ffc565b50505050565b60006106e4610d76565b905060006106f0610da3565b90503373ffffffffffffffffffffffffffffffffffffffff1682600101600085815260200190815260200160002060009054906101000a900473ffffffffffffffffffffffffffffffffffffffff1673ffffffffffffffffffffffffffffffffffffffff161461075f57600080fd5b6000816003016000868152602001908152602001600020600201541461078457600080fd5b3373ffffffffffffffffffffffffffffffffffffffff1681600201600086815260200190815260200160002060009054906101000a900473ffffffffffffffffffffffffffffffffffffffff1673ffffffffffffffffffffffffffffffffffffffff16146107f157600080fd5b60038260020160008581526020019081526020016000206000015414806108305750600282600201600085815260200190815260200160002060000154145b61083957600080fd5b81600201600084815260200190815260200160002060050160149054906101000a900460ff1661086857600080fd5b82816003016000868152602001908152602001600020601001600301541461088f57600080fd5b600082600201600085815260200190815260200160002060050160146101000a81548160ff0219169083151502179055506000816003016000868152602001908152602001600020601001600301819055506108eb8484610ffc565b50505050565b60006108fb610d76565b90506000610907610da3565b90503373ffffffffffffffffffffffffffffffffffffffff1682600101600085815260200190815260200160002060009054906101000a900473ffffffffffffffffffffffffffffffffffffffff1673ffffffffffffffffffffffffffffffffffffffff161461097657600080fd5b6000816003016000868152602001908152602001600020600201541461099b57600080fd5b3373ffffffffffffffffffffffffffffffffffffffff1681600201600086815260200190815260200160002060009054906101000a900473ffffffffffffffffffffffffffffffffffffffff1673ffffffffffffffffffffffffffffffffffffffff1614610a0857600080fd5b60018260020160008581526020019081526020016000206000015414610a2d57600080fd5b81600201600084815260200190815260200160002060050160149054906101000a900460ff16610a5c57600080fd5b828160030160008681526020019081526020016000206010016001015414610a8357600080fd5b600082600201600085815260200190815260200160002060050160146101000a81548160ff021916908315150217905550600081600301600086815260200190815260200160002060100160010181905550610adf8484610ffc565b50505050565b6000610aef610d76565b90506000610afb610da3565b9050600182600201600085815260200190815260200160002060050160146101000a81548160ff0219169083151502179055508281600301600086815260200190815260200160002060100160010181905550610b588484610dd0565b50505050565b6000610b68610d76565b90506000610b74610da3565b90503373ffffffffffffffffffffffffffffffffffffffff1682600101600085815260200190815260200160002060009054906101000a900473ffffffffffffffffffffffffffffffffffffffff1673ffffffffffffffffffffffffffffffffffffffff1614610be357600080fd5b60008160030160008681526020019081526020016000206002015414610c0857600080fd5b3373ffffffffffffffffffffffffffffffffffffffff1681600201600086815260200190815260200160002060009054906101000a900473ffffffffffffffffffffffffffffffffffffffff1673ffffffffffffffffffffffffffffffffffffffff1614610c7557600080fd5b6003826002016000858152602001908152602001600020600001541480610cb45750600282600201600085815260200190815260200160002060000154145b610cbd57600080fd5b81600201600084815260200190815260200160002060050160149054906101000a900460ff1615610ced57600080fd5b60008160030160008681526020019081526020016000206010016003015414610d1557600080fd5b600182600201600085815260200190815260200160002060050160146101000a81548160ff0219169083151502179055508281600301600086815260200190815260200160002060100160030181905550610d708484610dd0565b50505050565b6000807f04526f5583fe9d24ceb7f2a6da4ee61654b9eae62f9918e0e123f84a139b105890508091505090565b6000807f3cab9a070a0c61cd0ae9d9e9e2c0781e5ca8691bec4087e5a4701d5ac018dd4e90508091505090565b6000610dda610d76565b90506000610de6610da3565b9050600082600201600085815260200190815260200160002060030154905060008103610e5957826002016000858152602001908152602001600020600201548260030160008781526020019081526020016000206003016000828254610e4d91906112d2565b92505081905550610ff5565b60018103610ead57826002016000858152602001908152602001600020600201548260030160008781526020019081526020016000206004016000828254610ea191906112d2565b92505081905550610ff4565b60028103610f0157826002016000858152602001908152602001600020600201548260030160008781526020019081526020016000206007016000828254610ef591906112d2565b92505081905550610ff3565b60038103610f5557826002016000858152602001908152602001600020600201548260030160008781526020019081526020016000206005016000828254610f4991906112d2565b92505081905550610ff2565b60048103610fa95782600201600085815260200190815260200160002060020154826003016000878152602001908152602001600020600c016000828254610f9d91906112d2565b92505081905550610ff1565b826002016000858152602001908152602001600020600201548260030160008781526020019081526020016000206008016000828254610fe991906112d2565b925050819055505b5b5b5b5b5050505050565b6000611006610d76565b90506000611012610da3565b9050600082600201600085815260200190815260200160002060030154905060008103611085578260020160008581526020019081526020016000206002015482600301600087815260200190815260200160002060030160008282546110799190611306565b92505081905550611221565b600181036110d9578260020160008581526020019081526020016000206002015482600301600087815260200190815260200160002060040160008282546110cd9190611306565b92505081905550611220565b6002810361112d578260020160008581526020019081526020016000206002015482600301600087815260200190815260200160002060070160008282546111219190611306565b9250508190555061121f565b60038103611181578260020160008581526020019081526020016000206002015482600301600087815260200190815260200160002060050160008282546111759190611306565b9250508190555061121e565b600481036111d55782600201600085815260200190815260200160002060020154826003016000878152602001908152602001600020600c0160008282546111c99190611306565b9250508190555061121d565b8260020160008581526020019081526020016000206002015482600301600087815260200190815260200160002060080160008282546112159190611306565b925050819055505b5b5b5b5b5050505050565b600080fd5b6000819050919050565b6112408161122d565b811461124b57600080fd5b50565b60008135905061125d81611237565b92915050565b6000806040838503121561127a57611279611228565b5b60006112888582860161124e565b92505060206112998582860161124e565b9150509250929050565b7f4e487b7100000000000000000000000000000000000000000000000000000000600052601160045260246000fd5b60006112dd8261122d565b91506112e88361122d565b9250828201905080821115611300576112ff6112a3565b5b92915050565b60006113118261122d565b915061131c8361122d565b9250828203905081811115611334576113336112a3565b5b9291505056fea2646970667358221220f2ec55748e7bc1833c53c39872b189594bec4f7bc7fb8bb44fd8b36d1a993ea764736f6c63430008110033",
  "linkReferences": {},
  "deployedLinkReferences": {}
}