{
  "_format": "hh-sol-artifact-1",
  "contractName": "EquipFacet",
  "sourceName": "contracts/facets/EquipFacet.sol",
  "abi": [
    {
      "anonymous": false,
      "inputs": [
        {
          "indexed": true,
          "internalType": "address",
          "name": "_owner",
          "type": "address"
        },
        {
          "indexed": true,
          "internalType": "uint256",
          "name": "_playerId",
          "type": "uint256"
        },
        {
          "indexed": true,
          "internalType": "uint256",
          "name": "_itemId",
          "type": "uint256"
        }
      ],
      "name": "ItemEquiped",
      "type": "event"
    },
    {
      "anonymous": false,
      "inputs": [
        {
          "indexed": true,
          "internalType": "address",
          "name": "_owner",
          "type": "address"
        },
        {
          "indexed": true,
          "internalType": "uint256",
          "name": "_playerId",
          "type": "uint256"
        },
        {
          "indexed": true,
          "internalType": "uint256",
          "name": "_itemId",
          "type": "uint256"
        }
      ],
      "name": "ItemUnequiped",
      "type": "event"
    },
    {
      "inputs": [
        {
          "internalType": "uint256",
          "name": "_playerId",
          "type": "uint256"
        },
        {
          "internalType": "uint256",
          "name": "_itemId",
          "type": "uint256"
        }
      ],
      "name": "equipBody",
      "outputs": [],
      "stateMutability": "nonpayable",
      "type": "function"
    },
    {
      "inputs": [
        {
          "internalType": "uint256",
          "name": "_playerId",
          "type": "uint256"
        },
        {
          "internalType": "uint256",
          "name": "_itemId",
          "type": "uint256"
        }
      ],
      "name": "equipHead",
      "outputs": [],
      "stateMutability": "nonpayable",
      "type": "function"
    },
    {
      "inputs": [
        {
          "internalType": "uint256",
          "name": "_playerId",
          "type": "uint256"
        },
        {
          "internalType": "uint256",
          "name": "_itemId",
          "type": "uint256"
        }
      ],
      "name": "equipRightHand",
      "outputs": [],
      "stateMutability": "nonpayable",
      "type": "function"
    },
    {
      "inputs": [
        {
          "internalType": "uint256",
          "name": "_playerId",
          "type": "uint256"
        },
        {
          "internalType": "uint256",
          "name": "_itemId",
          "type": "uint256"
        }
      ],
      "name": "unequipBody",
      "outputs": [],
      "stateMutability": "nonpayable",
      "type": "function"
    },
    {
      "inputs": [
        {
          "internalType": "uint256",
          "name": "_playerId",
          "type": "uint256"
        },
        {
          "internalType": "uint256",
          "name": "_itemId",
          "type": "uint256"
        }
      ],
      "name": "unequipHead",
      "outputs": [],
      "stateMutability": "nonpayable",
      "type": "function"
    },
    {
      "inputs": [
        {
          "internalType": "uint256",
          "name": "_playerId",
          "type": "uint256"
        },
        {
          "internalType": "uint256",
          "name": "_itemId",
          "type": "uint256"
        }
      ],
      "name": "unequipRightHand",
      "outputs": [],
      "stateMutability": "nonpayable",
      "type": "function"
    }
  ],
  "bytecode": "0x608060405234801561001057600080fd5b506114fc806100206000396000f3fe608060405234801561001057600080fd5b50600436106100625760003560e01c80631e162a33146100675780633770f474146100835780634b391aff1461009f5780636d7c392e146100bb578063c4056b9b146100d7578063d6291341146100f3575b600080fd5b610081600480360381019061007c91906113ef565b61010f565b005b61009d600480360381019061009891906113ef565b610162565b005b6100b960048036038101906100b491906113ef565b6101b5565b005b6100d560048036038101906100d091906113ef565b610208565b005b6100f160048036038101906100ec91906113ef565b61025b565b005b61010d600480360381019061010891906113ef565b6102ae565b005b6101198282610301565b80823373ffffffffffffffffffffffffffffffffffffffff167f89e9fbe565d1c678f969ecb9932f195972391e7b5505a916bafebabcc98baecd60405160405180910390a45050565b61016c82826104f6565b80823373ffffffffffffffffffffffffffffffffffffffff167fcfa498c412ad33353e9cfe1838419596b8e55fab09d787fcf95baadebb07a5a860405160405180910390a45050565b6101bf82826106ea565b80823373ffffffffffffffffffffffffffffffffffffffff167fcfa498c412ad33353e9cfe1838419596b8e55fab09d787fcf95baadebb07a5a860405160405180910390a45050565b6102128282610901565b80823373ffffffffffffffffffffffffffffffffffffffff167fcfa498c412ad33353e9cfe1838419596b8e55fab09d787fcf95baadebb07a5a860405160405180910390a45050565b6102658282610af5565b80823373ffffffffffffffffffffffffffffffffffffffff167f89e9fbe565d1c678f969ecb9932f195972391e7b5505a916bafebabcc98baecd60405160405180910390a45050565b6102b88282610cea565b80823373ffffffffffffffffffffffffffffffffffffffff167f89e9fbe565d1c678f969ecb9932f195972391e7b5505a916bafebabcc98baecd60405160405180910390a45050565b600061030b610f02565b90506000610317610f2f565b90503373ffffffffffffffffffffffffffffffffffffffff1682600101600085815260200190815260200160002060009054906101000a900473ffffffffffffffffffffffffffffffffffffffff1673ffffffffffffffffffffffffffffffffffffffff161461038657600080fd5b600081600301600086815260200190815260200160002060020154146103ab57600080fd5b3373ffffffffffffffffffffffffffffffffffffffff1681600201600086815260200190815260200160002060009054906101000a900473ffffffffffffffffffffffffffffffffffffffff1673ffffffffffffffffffffffffffffffffffffffff161461041857600080fd5b6000826002016000858152602001908152602001600020600001541461043d57600080fd5b81600201600084815260200190815260200160002060050160149054906101000a900460ff161561046d57600080fd5b6000816003016000868152602001908152602001600020601001600001541461049557600080fd5b600182600201600085815260200190815260200160002060050160146101000a81548160ff02191690831515021790555082816003016000868152602001908152602001600020601001600001819055506104f08484610f5c565b50505050565b6000610500610f02565b9050600061050c610f2f565b90503373ffffffffffffffffffffffffffffffffffffffff1682600101600085815260200190815260200160002060009054906101000a900473ffffffffffffffffffffffffffffffffffffffff1673ffffffffffffffffffffffffffffffffffffffff161461057b57600080fd5b600081600301600086815260200190815260200160002060020154146105a057600080fd5b3373ffffffffffffffffffffffffffffffffffffffff1681600201600086815260200190815260200160002060009054906101000a900473ffffffffffffffffffffffffffffffffffffffff1673ffffffffffffffffffffffffffffffffffffffff161461060d57600080fd5b6000826002016000858152602001908152602001600020600001541461063257600080fd5b81600201600084815260200190815260200160002060050160149054906101000a900460ff1661066157600080fd5b82816003016000868152602001908152602001600020601001600001541461068857600080fd5b600082600201600085815260200190815260200160002060050160146101000a81548160ff0219169083151502179055506000816003016000868152602001908152602001600020601001600001819055506106e48484611188565b50505050565b60006106f4610f02565b90506000610700610f2f565b90503373ffffffffffffffffffffffffffffffffffffffff1682600101600085815260200190815260200160002060009054906101000a900473ffffffffffffffffffffffffffffffffffffffff1673ffffffffffffffffffffffffffffffffffffffff161461076f57600080fd5b6000816003016000868152602001908152602001600020600201541461079457600080fd5b3373ffffffffffffffffffffffffffffffffffffffff1681600201600086815260200190815260200160002060009054906101000a900473ffffffffffffffffffffffffffffffffffffffff1673ffffffffffffffffffffffffffffffffffffffff161461080157600080fd5b60038260020160008581526020019081526020016000206000015414806108405750600282600201600085815260200190815260200160002060000154145b61084957600080fd5b81600201600084815260200190815260200160002060050160149054906101000a900460ff1661087857600080fd5b82816003016000868152602001908152602001600020601001600301541461089f57600080fd5b600082600201600085815260200190815260200160002060050160146101000a81548160ff0219169083151502179055506000816003016000868152602001908152602001600020601001600301819055506108fb8484611188565b50505050565b600061090b610f02565b90506000610917610f2f565b90503373ffffffffffffffffffffffffffffffffffffffff1682600101600085815260200190815260200160002060009054906101000a900473ffffffffffffffffffffffffffffffffffffffff1673ffffffffffffffffffffffffffffffffffffffff161461098657600080fd5b600081600301600086815260200190815260200160002060020154146109ab57600080fd5b3373ffffffffffffffffffffffffffffffffffffffff1681600201600086815260200190815260200160002060009054906101000a900473ffffffffffffffffffffffffffffffffffffffff1673ffffffffffffffffffffffffffffffffffffffff1614610a1857600080fd5b60018260020160008581526020019081526020016000206000015414610a3d57600080fd5b81600201600084815260200190815260200160002060050160149054906101000a900460ff16610a6c57600080fd5b828160030160008681526020019081526020016000206010016001015414610a9357600080fd5b600082600201600085815260200190815260200160002060050160146101000a81548160ff021916908315150217905550600081600301600086815260200190815260200160002060100160010181905550610aef8484611188565b50505050565b6000610aff610f02565b90506000610b0b610f2f565b90503373ffffffffffffffffffffffffffffffffffffffff1682600101600085815260200190815260200160002060009054906101000a900473ffffffffffffffffffffffffffffffffffffffff1673ffffffffffffffffffffffffffffffffffffffff1614610b7a57600080fd5b60008160030160008681526020019081526020016000206002015414610b9f57600080fd5b3373ffffffffffffffffffffffffffffffffffffffff1681600201600086815260200190815260200160002060009054906101000a900473ffffffffffffffffffffffffffffffffffffffff1673ffffffffffffffffffffffffffffffffffffffff1614610c0c57600080fd5b60018260020160008581526020019081526020016000206000015414610c3157600080fd5b81600201600084815260200190815260200160002060050160149054906101000a900460ff1615610c6157600080fd5b60008160030160008681526020019081526020016000206010016001015414610c8957600080fd5b600182600201600085815260200190815260200160002060050160146101000a81548160ff0219169083151502179055508281600301600086815260200190815260200160002060100160010181905550610ce48484610f5c565b50505050565b6000610cf4610f02565b90506000610d00610f2f565b90503373ffffffffffffffffffffffffffffffffffffffff1682600101600085815260200190815260200160002060009054906101000a900473ffffffffffffffffffffffffffffffffffffffff1673ffffffffffffffffffffffffffffffffffffffff1614610d6f57600080fd5b60008160030160008681526020019081526020016000206002015414610d9457600080fd5b3373ffffffffffffffffffffffffffffffffffffffff1681600201600086815260200190815260200160002060009054906101000a900473ffffffffffffffffffffffffffffffffffffffff1673ffffffffffffffffffffffffffffffffffffffff1614610e0157600080fd5b6003826002016000858152602001908152602001600020600001541480610e405750600282600201600085815260200190815260200160002060000154145b610e4957600080fd5b81600201600084815260200190815260200160002060050160149054906101000a900460ff1615610e7957600080fd5b60008160030160008681526020019081526020016000206010016003015414610ea157600080fd5b600182600201600085815260200190815260200160002060050160146101000a81548160ff0219169083151502179055508281600301600086815260200190815260200160002060100160030181905550610efc8484610f5c565b50505050565b6000807f04526f5583fe9d24ceb7f2a6da4ee61654b9eae62f9918e0e123f84a139b105890508091505090565b6000807f3cab9a070a0c61cd0ae9d9e9e2c0781e5ca8691bec4087e5a4701d5ac018dd4e90508091505090565b6000610f66610f02565b90506000610f72610f2f565b9050600082600201600085815260200190815260200160002060030154905060008103610fe557826002016000858152602001908152602001600020600201548260030160008781526020019081526020016000206003016000828254610fd9919061145e565b92505081905550611181565b600181036110395782600201600085815260200190815260200160002060020154826003016000878152602001908152602001600020600401600082825461102d919061145e565b92505081905550611180565b6002810361108d57826002016000858152602001908152602001600020600201548260030160008781526020019081526020016000206007016000828254611081919061145e565b9250508190555061117f565b600381036110e1578260020160008581526020019081526020016000206002015482600301600087815260200190815260200160002060050160008282546110d5919061145e565b9250508190555061117e565b600481036111355782600201600085815260200190815260200160002060020154826003016000878152602001908152602001600020600c016000828254611129919061145e565b9250508190555061117d565b826002016000858152602001908152602001600020600201548260030160008781526020019081526020016000206008016000828254611175919061145e565b925050819055505b5b5b5b5b5050505050565b6000611192610f02565b9050600061119e610f2f565b9050600082600201600085815260200190815260200160002060030154905060008103611211578260020160008581526020019081526020016000206002015482600301600087815260200190815260200160002060030160008282546112059190611492565b925050819055506113ad565b60018103611265578260020160008581526020019081526020016000206002015482600301600087815260200190815260200160002060040160008282546112599190611492565b925050819055506113ac565b600281036112b9578260020160008581526020019081526020016000206002015482600301600087815260200190815260200160002060070160008282546112ad9190611492565b925050819055506113ab565b6003810361130d578260020160008581526020019081526020016000206002015482600301600087815260200190815260200160002060050160008282546113019190611492565b925050819055506113aa565b600481036113615782600201600085815260200190815260200160002060020154826003016000878152602001908152602001600020600c0160008282546113559190611492565b925050819055506113a9565b8260020160008581526020019081526020016000206002015482600301600087815260200190815260200160002060080160008282546113a19190611492565b925050819055505b5b5b5b5b5050505050565b600080fd5b6000819050919050565b6113cc816113b9565b81146113d757600080fd5b50565b6000813590506113e9816113c3565b92915050565b60008060408385031215611406576114056113b4565b5b6000611414858286016113da565b9250506020611425858286016113da565b9150509250929050565b7f4e487b7100000000000000000000000000000000000000000000000000000000600052601160045260246000fd5b6000611469826113b9565b9150611474836113b9565b925082820190508082111561148c5761148b61142f565b5b92915050565b600061149d826113b9565b91506114a8836113b9565b92508282039050818111156114c0576114bf61142f565b5b9291505056fea264697066735822122022d412bce728133d329402ed6dc61bb3b70f5d4179fe3646602a58487a79235f64736f6c63430008110033",
  "linkReferences": {},
  "deployedLinkReferences": {}
}