{
  "_format": "hh-sol-artifact-1",
  "contractName": "EquipFacet",
  "sourceName": "contracts/facets/EquipFacet.sol",
  "abi": [
    {
      "anonymous": false,
      "inputs": [
        {
          "indexed": true,
          "internalType": "address",
          "name": "_owner",
          "type": "address"
        },
        {
          "indexed": true,
          "internalType": "uint256",
          "name": "_playerId",
          "type": "uint256"
        },
        {
          "indexed": true,
          "internalType": "uint256",
          "name": "_itemId",
          "type": "uint256"
        }
      ],
      "name": "ItemEquiped",
      "type": "event"
    },
    {
      "anonymous": false,
      "inputs": [
        {
          "indexed": true,
          "internalType": "address",
          "name": "_owner",
          "type": "address"
        },
        {
          "indexed": true,
          "internalType": "uint256",
          "name": "_playerId",
          "type": "uint256"
        },
        {
          "indexed": true,
          "internalType": "uint256",
          "name": "_itemId",
          "type": "uint256"
        }
      ],
      "name": "ItemUnequiped",
      "type": "event"
    },
    {
      "inputs": [
        {
          "internalType": "uint256",
          "name": "_playerId",
          "type": "uint256"
        },
        {
          "internalType": "uint256",
          "name": "_itemId",
          "type": "uint256"
        }
      ],
      "name": "equipBody",
      "outputs": [],
      "stateMutability": "nonpayable",
      "type": "function"
    },
    {
      "inputs": [
        {
          "internalType": "uint256",
          "name": "_playerId",
          "type": "uint256"
        },
        {
          "internalType": "uint256",
          "name": "_itemId",
          "type": "uint256"
        }
      ],
      "name": "equipHead",
      "outputs": [],
      "stateMutability": "nonpayable",
      "type": "function"
    },
    {
      "inputs": [
        {
          "internalType": "uint256",
          "name": "_playerId",
          "type": "uint256"
        },
        {
          "internalType": "uint256",
          "name": "_itemId",
          "type": "uint256"
        }
      ],
      "name": "equipRightHand",
      "outputs": [],
      "stateMutability": "nonpayable",
      "type": "function"
    },
    {
      "inputs": [],
      "name": "forceUnEquip",
      "outputs": [],
      "stateMutability": "nonpayable",
      "type": "function"
    },
    {
      "inputs": [
        {
          "internalType": "uint256",
          "name": "_playerId",
          "type": "uint256"
        },
        {
          "internalType": "uint256",
          "name": "_itemId",
          "type": "uint256"
        }
      ],
      "name": "unequipBody",
      "outputs": [],
      "stateMutability": "nonpayable",
      "type": "function"
    },
    {
      "inputs": [
        {
          "internalType": "uint256",
          "name": "_playerId",
          "type": "uint256"
        },
        {
          "internalType": "uint256",
          "name": "_itemId",
          "type": "uint256"
        }
      ],
      "name": "unequipHead",
      "outputs": [],
      "stateMutability": "nonpayable",
      "type": "function"
    },
    {
      "inputs": [
        {
          "internalType": "uint256",
          "name": "_playerId",
          "type": "uint256"
        },
        {
          "internalType": "uint256",
          "name": "_itemId",
          "type": "uint256"
        }
      ],
      "name": "unequipRightHand",
      "outputs": [],
      "stateMutability": "nonpayable",
      "type": "function"
    }
  ],
  "bytecode": "0x608060405234801561001057600080fd5b506115e7806100206000396000f3fe608060405234801561001057600080fd5b506004361061007d5760003560e01c80636d7c392e1161005b5780636d7c392e146100d65780638c5a0dcc146100f2578063c4056b9b146100fc578063d6291341146101185761007d565b80631e162a33146100825780633770f4741461009e5780634b391aff146100ba575b600080fd5b61009c60048036038101906100979190611492565b610134565b005b6100b860048036038101906100b39190611492565b610187565b005b6100d460048036038101906100cf9190611492565b6101da565b005b6100f060048036038101906100eb9190611492565b61022d565b005b6100fa610280565b005b61011660048036038101906101119190611492565b61028a565b005b610132600480360381019061012d9190611492565b6102dd565b005b61013e8282610330565b80823373ffffffffffffffffffffffffffffffffffffffff167f89e9fbe565d1c678f969ecb9932f195972391e7b5505a916bafebabcc98baecd60405160405180910390a45050565b610191828261051d565b80823373ffffffffffffffffffffffffffffffffffffffff167fcfa498c412ad33353e9cfe1838419596b8e55fab09d787fcf95baadebb07a5a860405160405180910390a45050565b6101e48282610709565b80823373ffffffffffffffffffffffffffffffffffffffff167fcfa498c412ad33353e9cfe1838419596b8e55fab09d787fcf95baadebb07a5a860405160405180910390a45050565b6102378282610920565b80823373ffffffffffffffffffffffffffffffffffffffff167fcfa498c412ad33353e9cfe1838419596b8e55fab09d787fcf95baadebb07a5a860405160405180910390a45050565b610288610b14565b565b6102948282610b98565b80823373ffffffffffffffffffffffffffffffffffffffff167f89e9fbe565d1c678f969ecb9932f195972391e7b5505a916bafebabcc98baecd60405160405180910390a45050565b6102e78282610d8d565b80823373ffffffffffffffffffffffffffffffffffffffff167f89e9fbe565d1c678f969ecb9932f195972391e7b5505a916bafebabcc98baecd60405160405180910390a45050565b600061033a610fa5565b90506000610346610fd2565b90503373ffffffffffffffffffffffffffffffffffffffff1682600101600085815260200190815260200160002060009054906101000a900473ffffffffffffffffffffffffffffffffffffffff1673ffffffffffffffffffffffffffffffffffffffff16146103b557600080fd5b600081600301600086815260200190815260200160002060020154146103da57600080fd5b3373ffffffffffffffffffffffffffffffffffffffff1681600201600086815260200190815260200160002060009054906101000a900473ffffffffffffffffffffffffffffffffffffffff1673ffffffffffffffffffffffffffffffffffffffff161461044757600080fd5b6000826002016000858152602001908152602001600020600001541461046c57600080fd5b81600201600084815260200190815260200160002060050160149054906101000a900460ff161561049c57600080fd5b600081600301600086815260200190815260200160002060100160000154146104c457600080fd5b600182600201600085815260200190815260200160002060050160146101000a81548160ff0219169083151502179055508281600301600086815260200190815260200160002050506105178484610fff565b50505050565b6000610527610fa5565b90506000610533610fd2565b90503373ffffffffffffffffffffffffffffffffffffffff1682600101600085815260200190815260200160002060009054906101000a900473ffffffffffffffffffffffffffffffffffffffff1673ffffffffffffffffffffffffffffffffffffffff16146105a257600080fd5b600081600301600086815260200190815260200160002060020154146105c757600080fd5b3373ffffffffffffffffffffffffffffffffffffffff1681600201600086815260200190815260200160002060009054906101000a900473ffffffffffffffffffffffffffffffffffffffff1673ffffffffffffffffffffffffffffffffffffffff161461063457600080fd5b6000826002016000858152602001908152602001600020600001541461065957600080fd5b81600201600084815260200190815260200160002060050160149054906101000a900460ff1661068857600080fd5b8281600301600086815260200190815260200160002060100160000154146106af57600080fd5b600082600201600085815260200190815260200160002060050160146101000a81548160ff02191690831515021790555060008160030160008681526020019081526020016000205050610703848461122b565b50505050565b6000610713610fa5565b9050600061071f610fd2565b90503373ffffffffffffffffffffffffffffffffffffffff1682600101600085815260200190815260200160002060009054906101000a900473ffffffffffffffffffffffffffffffffffffffff1673ffffffffffffffffffffffffffffffffffffffff161461078e57600080fd5b600081600301600086815260200190815260200160002060020154146107b357600080fd5b3373ffffffffffffffffffffffffffffffffffffffff1681600201600086815260200190815260200160002060009054906101000a900473ffffffffffffffffffffffffffffffffffffffff1673ffffffffffffffffffffffffffffffffffffffff161461082057600080fd5b600382600201600085815260200190815260200160002060000154148061085f5750600282600201600085815260200190815260200160002060000154145b61086857600080fd5b81600201600084815260200190815260200160002060050160149054906101000a900460ff1661089757600080fd5b8281600301600086815260200190815260200160002060100160030154146108be57600080fd5b600082600201600085815260200190815260200160002060050160146101000a81548160ff02191690831515021790555060008160030160008681526020019081526020016000206010016003018190555061091a848461122b565b50505050565b600061092a610fa5565b90506000610936610fd2565b90503373ffffffffffffffffffffffffffffffffffffffff1682600101600085815260200190815260200160002060009054906101000a900473ffffffffffffffffffffffffffffffffffffffff1673ffffffffffffffffffffffffffffffffffffffff16146109a557600080fd5b600081600301600086815260200190815260200160002060020154146109ca57600080fd5b3373ffffffffffffffffffffffffffffffffffffffff1681600201600086815260200190815260200160002060009054906101000a900473ffffffffffffffffffffffffffffffffffffffff1673ffffffffffffffffffffffffffffffffffffffff1614610a3757600080fd5b60018260020160008581526020019081526020016000206000015414610a5c57600080fd5b81600201600084815260200190815260200160002060050160149054906101000a900460ff16610a8b57600080fd5b828160030160008681526020019081526020016000206010016001015414610ab257600080fd5b600082600201600085815260200190815260200160002060050160146101000a81548160ff021916908315150217905550600081600301600086815260200190815260200160002060100160010181905550610b0e848461122b565b50505050565b6000610b1e610fa5565b905060005b8160000154811015610b945760018260020160008381526020019081526020016000206000015403610b8157600082600201600083815260200190815260200160002060050160146101000a81548160ff0219169083151502179055505b8080610b8c90611501565b915050610b23565b5050565b6000610ba2610fa5565b90506000610bae610fd2565b90503373ffffffffffffffffffffffffffffffffffffffff1682600101600085815260200190815260200160002060009054906101000a900473ffffffffffffffffffffffffffffffffffffffff1673ffffffffffffffffffffffffffffffffffffffff1614610c1d57600080fd5b60008160030160008681526020019081526020016000206002015414610c4257600080fd5b3373ffffffffffffffffffffffffffffffffffffffff1681600201600086815260200190815260200160002060009054906101000a900473ffffffffffffffffffffffffffffffffffffffff1673ffffffffffffffffffffffffffffffffffffffff1614610caf57600080fd5b60018260020160008581526020019081526020016000206000015414610cd457600080fd5b81600201600084815260200190815260200160002060050160149054906101000a900460ff1615610d0457600080fd5b60008160030160008681526020019081526020016000206010016001015414610d2c57600080fd5b600182600201600085815260200190815260200160002060050160146101000a81548160ff0219169083151502179055508281600301600086815260200190815260200160002060100160010181905550610d878484610fff565b50505050565b6000610d97610fa5565b90506000610da3610fd2565b90503373ffffffffffffffffffffffffffffffffffffffff1682600101600085815260200190815260200160002060009054906101000a900473ffffffffffffffffffffffffffffffffffffffff1673ffffffffffffffffffffffffffffffffffffffff1614610e1257600080fd5b60008160030160008681526020019081526020016000206002015414610e3757600080fd5b3373ffffffffffffffffffffffffffffffffffffffff1681600201600086815260200190815260200160002060009054906101000a900473ffffffffffffffffffffffffffffffffffffffff1673ffffffffffffffffffffffffffffffffffffffff1614610ea457600080fd5b6003826002016000858152602001908152602001600020600001541480610ee35750600282600201600085815260200190815260200160002060000154145b610eec57600080fd5b81600201600084815260200190815260200160002060050160149054906101000a900460ff1615610f1c57600080fd5b60008160030160008681526020019081526020016000206010016003015414610f4457600080fd5b600182600201600085815260200190815260200160002060050160146101000a81548160ff0219169083151502179055508281600301600086815260200190815260200160002060100160030181905550610f9f8484610fff565b50505050565b6000807f04526f5583fe9d24ceb7f2a6da4ee61654b9eae62f9918e0e123f84a139b105890508091505090565b6000807f3cab9a070a0c61cd0ae9d9e9e2c0781e5ca8691bec4087e5a4701d5ac018dd4e90508091505090565b6000611009610fa5565b90506000611015610fd2565b90506000826002016000858152602001908152602001600020600301549050600081036110885782600201600085815260200190815260200160002060020154826003016000878152602001908152602001600020600301600082825461107c9190611549565b92505081905550611224565b600181036110dc578260020160008581526020019081526020016000206002015482600301600087815260200190815260200160002060040160008282546110d09190611549565b92505081905550611223565b60028103611130578260020160008581526020019081526020016000206002015482600301600087815260200190815260200160002060070160008282546111249190611549565b92505081905550611222565b60038103611184578260020160008581526020019081526020016000206002015482600301600087815260200190815260200160002060050160008282546111789190611549565b92505081905550611221565b600481036111d85782600201600085815260200190815260200160002060020154826003016000878152602001908152602001600020600c0160008282546111cc9190611549565b92505081905550611220565b8260020160008581526020019081526020016000206002015482600301600087815260200190815260200160002060080160008282546112189190611549565b925050819055505b5b5b5b5b5050505050565b6000611235610fa5565b90506000611241610fd2565b90506000826002016000858152602001908152602001600020600301549050600081036112b4578260020160008581526020019081526020016000206002015482600301600087815260200190815260200160002060030160008282546112a8919061157d565b92505081905550611450565b60018103611308578260020160008581526020019081526020016000206002015482600301600087815260200190815260200160002060040160008282546112fc919061157d565b9250508190555061144f565b6002810361135c57826002016000858152602001908152602001600020600201548260030160008781526020019081526020016000206007016000828254611350919061157d565b9250508190555061144e565b600381036113b0578260020160008581526020019081526020016000206002015482600301600087815260200190815260200160002060050160008282546113a4919061157d565b9250508190555061144d565b600481036114045782600201600085815260200190815260200160002060020154826003016000878152602001908152602001600020600c0160008282546113f8919061157d565b9250508190555061144c565b826002016000858152602001908152602001600020600201548260030160008781526020019081526020016000206008016000828254611444919061157d565b925050819055505b5b5b5b5b5050505050565b600080fd5b6000819050919050565b61146f8161145c565b811461147a57600080fd5b50565b60008135905061148c81611466565b92915050565b600080604083850312156114a9576114a8611457565b5b60006114b78582860161147d565b92505060206114c88582860161147d565b9150509250929050565b7f4e487b7100000000000000000000000000000000000000000000000000000000600052601160045260246000fd5b600061150c8261145c565b91507fffffffffffffffffffffffffffffffffffffffffffffffffffffffffffffffff820361153e5761153d6114d2565b5b600182019050919050565b60006115548261145c565b915061155f8361145c565b9250828201905080821115611577576115766114d2565b5b92915050565b60006115888261145c565b91506115938361145c565b92508282039050818111156115ab576115aa6114d2565b5b9291505056fea2646970667358221220cbc84d4ddbec98d05d19edf6d9781cdee8687ca7cb6fc7aa6a4f94529c0558df64736f6c63430008110033",
  "linkReferences": {},
  "deployedLinkReferences": {}
}