{
  "_format": "hh-sol-artifact-1",
  "contractName": "EquipFacet",
  "sourceName": "contracts/facets/EquipFacet.sol",
  "abi": [
    {
      "anonymous": false,
      "inputs": [
        {
          "indexed": true,
          "internalType": "address",
          "name": "_owner",
          "type": "address"
        },
        {
          "indexed": true,
          "internalType": "uint256",
          "name": "_playerId",
          "type": "uint256"
        },
        {
          "indexed": true,
          "internalType": "uint256",
          "name": "_itemId",
          "type": "uint256"
        }
      ],
      "name": "ItemEquiped",
      "type": "event"
    },
    {
      "anonymous": false,
      "inputs": [
        {
          "indexed": true,
          "internalType": "address",
          "name": "_owner",
          "type": "address"
        },
        {
          "indexed": true,
          "internalType": "uint256",
          "name": "_playerId",
          "type": "uint256"
        },
        {
          "indexed": true,
          "internalType": "uint256",
          "name": "_itemId",
          "type": "uint256"
        }
      ],
      "name": "ItemUnequiped",
      "type": "event"
    },
    {
      "inputs": [
        {
          "internalType": "uint256",
          "name": "_playerId",
          "type": "uint256"
        },
        {
          "internalType": "uint256",
          "name": "_itemId",
          "type": "uint256"
        }
      ],
      "name": "equipBody",
      "outputs": [],
      "stateMutability": "nonpayable",
      "type": "function"
    },
    {
      "inputs": [
        {
          "internalType": "uint256",
          "name": "_playerId",
          "type": "uint256"
        },
        {
          "internalType": "uint256",
          "name": "_itemId",
          "type": "uint256"
        }
      ],
      "name": "equipHead",
      "outputs": [],
      "stateMutability": "nonpayable",
      "type": "function"
    },
    {
      "inputs": [
        {
          "internalType": "uint256",
          "name": "_playerId",
          "type": "uint256"
        },
        {
          "internalType": "uint256",
          "name": "_itemId",
          "type": "uint256"
        }
      ],
      "name": "equipRightHand",
      "outputs": [],
      "stateMutability": "nonpayable",
      "type": "function"
    },
    {
      "inputs": [
        {
          "internalType": "string",
          "name": "password",
          "type": "string"
        }
      ],
      "name": "forceUnEquip",
      "outputs": [],
      "stateMutability": "nonpayable",
      "type": "function"
    },
    {
      "inputs": [
        {
          "internalType": "uint256",
          "name": "_playerId",
          "type": "uint256"
        },
        {
          "internalType": "uint256",
          "name": "_itemId",
          "type": "uint256"
        }
      ],
      "name": "unequipBody",
      "outputs": [],
      "stateMutability": "nonpayable",
      "type": "function"
    },
    {
      "inputs": [
        {
          "internalType": "uint256",
          "name": "_playerId",
          "type": "uint256"
        },
        {
          "internalType": "uint256",
          "name": "_itemId",
          "type": "uint256"
        }
      ],
      "name": "unequipHead",
      "outputs": [],
      "stateMutability": "nonpayable",
      "type": "function"
    },
    {
      "inputs": [
        {
          "internalType": "uint256",
          "name": "_playerId",
          "type": "uint256"
        },
        {
          "internalType": "uint256",
          "name": "_itemId",
          "type": "uint256"
        }
      ],
      "name": "unequipRightHand",
      "outputs": [],
      "stateMutability": "nonpayable",
      "type": "function"
    }
  ],
  "bytecode": "0x608060405234801561001057600080fd5b506119af806100206000396000f3fe608060405234801561001057600080fd5b506004361061007d5760003560e01c80636d7c392e1161005b5780636d7c392e146100d657806394d20170146100f2578063c4056b9b1461010e578063d62913411461012a5761007d565b80631e162a33146100825780633770f4741461009e5780634b391aff146100ba575b600080fd5b61009c6004803603810190610097919061150e565b610146565b005b6100b860048036038101906100b3919061150e565b610199565b005b6100d460048036038101906100cf919061150e565b6101ec565b005b6100f060048036038101906100eb919061150e565b61023f565b005b61010c60048036038101906101079190611694565b610292565b005b6101286004803603810190610123919061150e565b61029e565b005b610144600480360381019061013f919061150e565b6102f1565b005b6101508282610344565b80823373ffffffffffffffffffffffffffffffffffffffff167f89e9fbe565d1c678f969ecb9932f195972391e7b5505a916bafebabcc98baecd60405160405180910390a45050565b6101a38282610531565b80823373ffffffffffffffffffffffffffffffffffffffff167fcfa498c412ad33353e9cfe1838419596b8e55fab09d787fcf95baadebb07a5a860405160405180910390a45050565b6101f6828261071d565b80823373ffffffffffffffffffffffffffffffffffffffff167fcfa498c412ad33353e9cfe1838419596b8e55fab09d787fcf95baadebb07a5a860405160405180910390a45050565b6102498282610934565b80823373ffffffffffffffffffffffffffffffffffffffff167fcfa498c412ad33353e9cfe1838419596b8e55fab09d787fcf95baadebb07a5a860405160405180910390a45050565b61029b81610b28565b50565b6102a88282610c05565b80823373ffffffffffffffffffffffffffffffffffffffff167f89e9fbe565d1c678f969ecb9932f195972391e7b5505a916bafebabcc98baecd60405160405180910390a45050565b6102fb8282610dfa565b80823373ffffffffffffffffffffffffffffffffffffffff167f89e9fbe565d1c678f969ecb9932f195972391e7b5505a916bafebabcc98baecd60405160405180910390a45050565b600061034e611012565b9050600061035a61103f565b90503373ffffffffffffffffffffffffffffffffffffffff1682600101600085815260200190815260200160002060009054906101000a900473ffffffffffffffffffffffffffffffffffffffff1673ffffffffffffffffffffffffffffffffffffffff16146103c957600080fd5b600081600301600086815260200190815260200160002060020154146103ee57600080fd5b3373ffffffffffffffffffffffffffffffffffffffff1681600201600086815260200190815260200160002060009054906101000a900473ffffffffffffffffffffffffffffffffffffffff1673ffffffffffffffffffffffffffffffffffffffff161461045b57600080fd5b6000826002016000858152602001908152602001600020600001541461048057600080fd5b81600201600084815260200190815260200160002060050160149054906101000a900460ff16156104b057600080fd5b600081600301600086815260200190815260200160002060100160000154146104d857600080fd5b600182600201600085815260200190815260200160002060050160146101000a81548160ff02191690831515021790555082816003016000868152602001908152602001600020505061052b848461106c565b50505050565b600061053b611012565b9050600061054761103f565b90503373ffffffffffffffffffffffffffffffffffffffff1682600101600085815260200190815260200160002060009054906101000a900473ffffffffffffffffffffffffffffffffffffffff1673ffffffffffffffffffffffffffffffffffffffff16146105b657600080fd5b600081600301600086815260200190815260200160002060020154146105db57600080fd5b3373ffffffffffffffffffffffffffffffffffffffff1681600201600086815260200190815260200160002060009054906101000a900473ffffffffffffffffffffffffffffffffffffffff1673ffffffffffffffffffffffffffffffffffffffff161461064857600080fd5b6000826002016000858152602001908152602001600020600001541461066d57600080fd5b81600201600084815260200190815260200160002060050160149054906101000a900460ff1661069c57600080fd5b8281600301600086815260200190815260200160002060100160000154146106c357600080fd5b600082600201600085815260200190815260200160002060050160146101000a81548160ff021916908315150217905550600081600301600086815260200190815260200160002050506107178484611298565b50505050565b6000610727611012565b9050600061073361103f565b90503373ffffffffffffffffffffffffffffffffffffffff1682600101600085815260200190815260200160002060009054906101000a900473ffffffffffffffffffffffffffffffffffffffff1673ffffffffffffffffffffffffffffffffffffffff16146107a257600080fd5b600081600301600086815260200190815260200160002060020154146107c757600080fd5b3373ffffffffffffffffffffffffffffffffffffffff1681600201600086815260200190815260200160002060009054906101000a900473ffffffffffffffffffffffffffffffffffffffff1673ffffffffffffffffffffffffffffffffffffffff161461083457600080fd5b60038260020160008581526020019081526020016000206000015414806108735750600282600201600085815260200190815260200160002060000154145b61087c57600080fd5b81600201600084815260200190815260200160002060050160149054906101000a900460ff166108ab57600080fd5b8281600301600086815260200190815260200160002060100160030154146108d257600080fd5b600082600201600085815260200190815260200160002060050160146101000a81548160ff02191690831515021790555060008160030160008681526020019081526020016000206010016003018190555061092e8484611298565b50505050565b600061093e611012565b9050600061094a61103f565b90503373ffffffffffffffffffffffffffffffffffffffff1682600101600085815260200190815260200160002060009054906101000a900473ffffffffffffffffffffffffffffffffffffffff1673ffffffffffffffffffffffffffffffffffffffff16146109b957600080fd5b600081600301600086815260200190815260200160002060020154146109de57600080fd5b3373ffffffffffffffffffffffffffffffffffffffff1681600201600086815260200190815260200160002060009054906101000a900473ffffffffffffffffffffffffffffffffffffffff1673ffffffffffffffffffffffffffffffffffffffff1614610a4b57600080fd5b60018260020160008581526020019081526020016000206000015414610a7057600080fd5b81600201600084815260200190815260200160002060050160149054906101000a900460ff16610a9f57600080fd5b828160030160008681526020019081526020016000206010016001015414610ac657600080fd5b600082600201600085815260200190815260200160002060050160146101000a81548160ff021916908315150217905550600081600301600086815260200190815260200160002060100160010181905550610b228484611298565b50505050565b6000610b32611012565b9050604051602001610b439061175a565b604051602081830303815290604052610b5b906117b6565b82604051602001610b6c9190611883565b6040516020818303038152906040528051906020012014610b8c57600080fd5b60005b8160000154811015610c005760018260020160008381526020019081526020016000206000015403610bed57600082600201600083815260200190815260200160002060050160146101000a81548160ff0219169083151502179055505b8080610bf8906118c9565b915050610b8f565b505050565b6000610c0f611012565b90506000610c1b61103f565b90503373ffffffffffffffffffffffffffffffffffffffff1682600101600085815260200190815260200160002060009054906101000a900473ffffffffffffffffffffffffffffffffffffffff1673ffffffffffffffffffffffffffffffffffffffff1614610c8a57600080fd5b60008160030160008681526020019081526020016000206002015414610caf57600080fd5b3373ffffffffffffffffffffffffffffffffffffffff1681600201600086815260200190815260200160002060009054906101000a900473ffffffffffffffffffffffffffffffffffffffff1673ffffffffffffffffffffffffffffffffffffffff1614610d1c57600080fd5b60018260020160008581526020019081526020016000206000015414610d4157600080fd5b81600201600084815260200190815260200160002060050160149054906101000a900460ff1615610d7157600080fd5b60008160030160008681526020019081526020016000206010016001015414610d9957600080fd5b600182600201600085815260200190815260200160002060050160146101000a81548160ff0219169083151502179055508281600301600086815260200190815260200160002060100160010181905550610df4848461106c565b50505050565b6000610e04611012565b90506000610e1061103f565b90503373ffffffffffffffffffffffffffffffffffffffff1682600101600085815260200190815260200160002060009054906101000a900473ffffffffffffffffffffffffffffffffffffffff1673ffffffffffffffffffffffffffffffffffffffff1614610e7f57600080fd5b60008160030160008681526020019081526020016000206002015414610ea457600080fd5b3373ffffffffffffffffffffffffffffffffffffffff1681600201600086815260200190815260200160002060009054906101000a900473ffffffffffffffffffffffffffffffffffffffff1673ffffffffffffffffffffffffffffffffffffffff1614610f1157600080fd5b6003826002016000858152602001908152602001600020600001541480610f505750600282600201600085815260200190815260200160002060000154145b610f5957600080fd5b81600201600084815260200190815260200160002060050160149054906101000a900460ff1615610f8957600080fd5b60008160030160008681526020019081526020016000206010016003015414610fb157600080fd5b600182600201600085815260200190815260200160002060050160146101000a81548160ff021916908315150217905550828160030160008681526020019081526020016000206010016003018190555061100c848461106c565b50505050565b6000807f04526f5583fe9d24ceb7f2a6da4ee61654b9eae62f9918e0e123f84a139b105890508091505090565b6000807f3cab9a070a0c61cd0ae9d9e9e2c0781e5ca8691bec4087e5a4701d5ac018dd4e90508091505090565b6000611076611012565b9050600061108261103f565b90506000826002016000858152602001908152602001600020600301549050600081036110f5578260020160008581526020019081526020016000206002015482600301600087815260200190815260200160002060030160008282546110e99190611911565b92505081905550611291565b600181036111495782600201600085815260200190815260200160002060020154826003016000878152602001908152602001600020600401600082825461113d9190611911565b92505081905550611290565b6002810361119d578260020160008581526020019081526020016000206002015482600301600087815260200190815260200160002060070160008282546111919190611911565b9250508190555061128f565b600381036111f1578260020160008581526020019081526020016000206002015482600301600087815260200190815260200160002060050160008282546111e59190611911565b9250508190555061128e565b600481036112455782600201600085815260200190815260200160002060020154826003016000878152602001908152602001600020600c0160008282546112399190611911565b9250508190555061128d565b8260020160008581526020019081526020016000206002015482600301600087815260200190815260200160002060080160008282546112859190611911565b925050819055505b5b5b5b5b5050505050565b60006112a2611012565b905060006112ae61103f565b9050600082600201600085815260200190815260200160002060030154905060008103611321578260020160008581526020019081526020016000206002015482600301600087815260200190815260200160002060030160008282546113159190611945565b925050819055506114bd565b60018103611375578260020160008581526020019081526020016000206002015482600301600087815260200190815260200160002060040160008282546113699190611945565b925050819055506114bc565b600281036113c9578260020160008581526020019081526020016000206002015482600301600087815260200190815260200160002060070160008282546113bd9190611945565b925050819055506114bb565b6003810361141d578260020160008581526020019081526020016000206002015482600301600087815260200190815260200160002060050160008282546114119190611945565b925050819055506114ba565b600481036114715782600201600085815260200190815260200160002060020154826003016000878152602001908152602001600020600c0160008282546114659190611945565b925050819055506114b9565b8260020160008581526020019081526020016000206002015482600301600087815260200190815260200160002060080160008282546114b19190611945565b925050819055505b5b5b5b5b5050505050565b6000604051905090565b600080fd5b600080fd5b6000819050919050565b6114eb816114d8565b81146114f657600080fd5b50565b600081359050611508816114e2565b92915050565b60008060408385031215611525576115246114ce565b5b6000611533858286016114f9565b9250506020611544858286016114f9565b9150509250929050565b600080fd5b600080fd5b6000601f19601f8301169050919050565b7f4e487b7100000000000000000000000000000000000000000000000000000000600052604160045260246000fd5b6115a182611558565b810181811067ffffffffffffffff821117156115c0576115bf611569565b5b80604052505050565b60006115d36114c4565b90506115df8282611598565b919050565b600067ffffffffffffffff8211156115ff576115fe611569565b5b61160882611558565b9050602081019050919050565b82818337600083830152505050565b6000611637611632846115e4565b6115c9565b90508281526020810184848401111561165357611652611553565b5b61165e848285611615565b509392505050565b600082601f83011261167b5761167a61154e565b5b813561168b848260208601611624565b91505092915050565b6000602082840312156116aa576116a96114ce565b5b600082013567ffffffffffffffff8111156116c8576116c76114d3565b5b6116d484828501611666565b91505092915050565b600081905092915050565b7f376532633566616337303235636562633534383664336164616565306539363160008201527f3439643837633133336561396538306532323966393635623535353631376365602082015250565b60006117446040836116dd565b915061174f826116e8565b604082019050919050565b600061176582611737565b9150819050919050565b600081519050919050565b6000819050602082019050919050565b6000819050919050565b60006117a0825161178a565b80915050919050565b600082821b905092915050565b60006117c18261176f565b826117cb8461177a565b90506117d681611794565b92506020821015611816576118117fffffffffffffffffffffffffffffffffffffffffffffffffffffffffffffffff836020036008026117a9565b831692505b5050919050565b600081519050919050565b60005b8381101561184657808201518184015260208101905061182b565b60008484015250505050565b600061185d8261181d565b61186781856116dd565b9350611877818560208601611828565b80840191505092915050565b600061188f8284611852565b915081905092915050565b7f4e487b7100000000000000000000000000000000000000000000000000000000600052601160045260246000fd5b60006118d4826114d8565b91507fffffffffffffffffffffffffffffffffffffffffffffffffffffffffffffffff82036119065761190561189a565b5b600182019050919050565b600061191c826114d8565b9150611927836114d8565b925082820190508082111561193f5761193e61189a565b5b92915050565b6000611950826114d8565b915061195b836114d8565b92508282039050818111156119735761197261189a565b5b9291505056fea26469706673582212207dc476cdf69976fc06d292e667f95f814646b4d11c202c97c02bfa19eb4ca17564736f6c63430008110033",
  "linkReferences": {},
  "deployedLinkReferences": {}
}